{
	"test02/FundMe_flattened.sol": {
		"FundMe": {
			"abi": [
				{
					"inputs": [
						{
							"internalType": "uint256",
							"name": "_lockTime",
							"type": "uint256"
						}
					],
					"stateMutability": "nonpayable",
					"type": "constructor"
				},
				{
					"inputs": [],
					"name": "TARGET",
					"outputs": [
						{
							"internalType": "uint256",
							"name": "",
							"type": "uint256"
						}
					],
					"stateMutability": "view",
					"type": "function"
				},
				{
					"inputs": [
						{
							"internalType": "uint256",
							"name": "ethAmount",
							"type": "uint256"
						}
					],
					"name": "convertEthToUsd",
					"outputs": [
						{
							"internalType": "uint256",
							"name": "",
							"type": "uint256"
						}
					],
					"stateMutability": "view",
					"type": "function"
				},
				{
					"inputs": [],
					"name": "fund",
					"outputs": [],
					"stateMutability": "payable",
					"type": "function"
				},
				{
					"inputs": [
						{
							"internalType": "address",
							"name": "",
							"type": "address"
						}
					],
					"name": "funds",
					"outputs": [
						{
							"internalType": "uint256",
							"name": "",
							"type": "uint256"
						}
					],
					"stateMutability": "view",
					"type": "function"
				},
				{
					"inputs": [],
					"name": "getChainlinkDataFeedLatestAnswer",
					"outputs": [
						{
							"internalType": "int256",
							"name": "",
							"type": "int256"
						}
					],
					"stateMutability": "view",
					"type": "function"
				},
				{
					"inputs": [],
					"name": "getFund",
					"outputs": [],
					"stateMutability": "nonpayable",
					"type": "function"
				},
				{
					"inputs": [],
					"name": "isGetFund",
					"outputs": [
						{
							"internalType": "bool",
							"name": "",
							"type": "bool"
						}
					],
					"stateMutability": "view",
					"type": "function"
				},
				{
					"inputs": [],
					"name": "owner",
					"outputs": [
						{
							"internalType": "address",
							"name": "",
							"type": "address"
						}
					],
					"stateMutability": "view",
					"type": "function"
				},
				{
					"inputs": [],
					"name": "refund",
					"outputs": [],
					"stateMutability": "nonpayable",
					"type": "function"
				},
				{
					"inputs": [
						{
							"internalType": "address",
							"name": "_erc20Addr",
							"type": "address"
						}
					],
					"name": "setErc20Addr",
					"outputs": [],
					"stateMutability": "nonpayable",
					"type": "function"
				},
				{
					"inputs": [
						{
							"internalType": "address",
							"name": "funder",
							"type": "address"
						},
						{
							"internalType": "uint256",
							"name": "amountToUpdate",
							"type": "uint256"
						}
					],
					"name": "setFundsAmount",
					"outputs": [],
					"stateMutability": "nonpayable",
					"type": "function"
				},
				{
					"inputs": [
						{
							"internalType": "address",
							"name": "newOwner",
							"type": "address"
						}
					],
					"name": "transferOwnership",
					"outputs": [],
					"stateMutability": "nonpayable",
					"type": "function"
				}
			],
			"devdoc": {
				"kind": "dev",
				"methods": {},
				"version": 1
			},
			"evm": {
				"assembly": "    /* \"test02/FundMe_flattened.sol\":1042:4434  contract FundMe {... */\n  mstore(0x40, 0x80)\n    /* \"test02/FundMe_flattened.sol\":1403:1408  false */\n  0x00\n    /* \"test02/FundMe_flattened.sol\":1379:1408  bool public isGetFund = false */\n  0x05\n  exp(0x0100, 0x14)\n  dup2\n  sload\n  dup2\n  0xff\n  mul\n  not\n  and\n  swap1\n  dup4\n  iszero\n  iszero\n  mul\n  or\n  swap1\n  sstore\n  pop\n    /* \"test02/FundMe_flattened.sol\":1417:1666  constructor(uint256 _lockTime) {... */\n  callvalue\n  dup1\n  iszero\n  tag_1\n  jumpi\n  0x00\n  dup1\n  revert\ntag_1:\n  pop\n  mload(0x40)\n  sub(codesize, bytecodeSize)\n  dup1\n  bytecodeSize\n  dup4\n  codecopy\n  dup2\n  dup2\n  add\n  0x40\n  mstore\n  dup2\n  add\n  swap1\n  tag_2\n  swap2\n  swap1\n  tag_3\n  jump\t// in\ntag_2:\n    /* \"test02/FundMe_flattened.sol\":1467:1477  msg.sender */\n  caller\n    /* \"test02/FundMe_flattened.sol\":1459:1464  owner */\n  0x01\n  0x00\n    /* \"test02/FundMe_flattened.sol\":1459:1477  owner = msg.sender */\n  0x0100\n  exp\n  dup2\n  sload\n  dup2\n  0xffffffffffffffffffffffffffffffffffffffff\n  mul\n  not\n  and\n  swap1\n  dup4\n  0xffffffffffffffffffffffffffffffffffffffff\n  and\n  mul\n  or\n  swap1\n  sstore\n  pop\n    /* \"test02/FundMe_flattened.sol\":1535:1577  0x694AA1769357215DE4FAC081bf1f309aDC325306 */\n  0x694aa1769357215de4fac081bf1f309adc325306\n    /* \"test02/FundMe_flattened.sol\":1488:1496  dataFeed */\n  0x02\n  0x00\n    /* \"test02/FundMe_flattened.sol\":1488:1588  dataFeed = AggregatorV3Interface(... */\n  0x0100\n  exp\n  dup2\n  sload\n  dup2\n  0xffffffffffffffffffffffffffffffffffffffff\n  mul\n  not\n  and\n  swap1\n  dup4\n  0xffffffffffffffffffffffffffffffffffffffff\n  and\n  mul\n  or\n  swap1\n  sstore\n  pop\n    /* \"test02/FundMe_flattened.sol\":1612:1627  block.timestamp */\n  timestamp\n    /* \"test02/FundMe_flattened.sol\":1599:1609  deployTime */\n  0x03\n    /* \"test02/FundMe_flattened.sol\":1599:1627  deployTime = block.timestamp */\n  dup2\n  swap1\n  sstore\n  pop\n    /* \"test02/FundMe_flattened.sol\":1649:1658  _lockTime */\n  dup1\n    /* \"test02/FundMe_flattened.sol\":1638:1646  lockTime */\n  0x04\n    /* \"test02/FundMe_flattened.sol\":1638:1658  lockTime = _lockTime */\n  dup2\n  swap1\n  sstore\n  pop\n    /* \"test02/FundMe_flattened.sol\":1417:1666  constructor(uint256 _lockTime) {... */\n  pop\n    /* \"test02/FundMe_flattened.sol\":1042:4434  contract FundMe {... */\n  jump(tag_6)\n    /* \"#utility.yul\":88:205   */\ntag_8:\n    /* \"#utility.yul\":197:198   */\n  0x00\n    /* \"#utility.yul\":194:195   */\n  dup1\n    /* \"#utility.yul\":187:199   */\n  revert\n    /* \"#utility.yul\":334:411   */\ntag_10:\n    /* \"#utility.yul\":371:378   */\n  0x00\n    /* \"#utility.yul\":400:405   */\n  dup2\n    /* \"#utility.yul\":389:405   */\n  swap1\n  pop\n    /* \"#utility.yul\":334:411   */\n  swap2\n  swap1\n  pop\n  jump\t// out\n    /* \"#utility.yul\":417:539   */\ntag_11:\n    /* \"#utility.yul\":490:514   */\n  tag_19\n    /* \"#utility.yul\":508:513   */\n  dup2\n    /* \"#utility.yul\":490:514   */\n  tag_10\n  jump\t// in\ntag_19:\n    /* \"#utility.yul\":483:488   */\n  dup2\n    /* \"#utility.yul\":480:515   */\n  eq\n    /* \"#utility.yul\":470:533   */\n  tag_20\n  jumpi\n    /* \"#utility.yul\":529:530   */\n  0x00\n    /* \"#utility.yul\":526:527   */\n  dup1\n    /* \"#utility.yul\":519:531   */\n  revert\n    /* \"#utility.yul\":470:533   */\ntag_20:\n    /* \"#utility.yul\":417:539   */\n  pop\n  jump\t// out\n    /* \"#utility.yul\":545:688   */\ntag_12:\n    /* \"#utility.yul\":602:607   */\n  0x00\n    /* \"#utility.yul\":633:639   */\n  dup2\n    /* \"#utility.yul\":627:640   */\n  mload\n    /* \"#utility.yul\":618:640   */\n  swap1\n  pop\n    /* \"#utility.yul\":649:682   */\n  tag_22\n    /* \"#utility.yul\":676:681   */\n  dup2\n    /* \"#utility.yul\":649:682   */\n  tag_11\n  jump\t// in\ntag_22:\n    /* \"#utility.yul\":545:688   */\n  swap3\n  swap2\n  pop\n  pop\n  jump\t// out\n    /* \"#utility.yul\":694:1045   */\ntag_3:\n    /* \"#utility.yul\":764:770   */\n  0x00\n    /* \"#utility.yul\":813:815   */\n  0x20\n    /* \"#utility.yul\":801:810   */\n  dup3\n    /* \"#utility.yul\":792:799   */\n  dup5\n    /* \"#utility.yul\":788:811   */\n  sub\n    /* \"#utility.yul\":784:816   */\n  slt\n    /* \"#utility.yul\":781:900   */\n  iszero\n  tag_24\n  jumpi\n    /* \"#utility.yul\":819:898   */\n  tag_25\n  tag_8\n  jump\t// in\ntag_25:\n    /* \"#utility.yul\":781:900   */\ntag_24:\n    /* \"#utility.yul\":939:940   */\n  0x00\n    /* \"#utility.yul\":964:1028   */\n  tag_26\n    /* \"#utility.yul\":1020:1027   */\n  dup5\n    /* \"#utility.yul\":1011:1017   */\n  dup3\n    /* \"#utility.yul\":1000:1009   */\n  dup6\n    /* \"#utility.yul\":996:1018   */\n  add\n    /* \"#utility.yul\":964:1028   */\n  tag_12\n  jump\t// in\ntag_26:\n    /* \"#utility.yul\":954:1028   */\n  swap2\n  pop\n    /* \"#utility.yul\":910:1038   */\n  pop\n    /* \"#utility.yul\":694:1045   */\n  swap3\n  swap2\n  pop\n  pop\n  jump\t// out\n    /* \"test02/FundMe_flattened.sol\":1042:4434  contract FundMe {... */\ntag_6:\n  dataSize(sub_0)\n  dup1\n  dataOffset(sub_0)\n  0x00\n  codecopy\n  0x00\n  return\nstop\n\nsub_0: assembly {\n        /* \"test02/FundMe_flattened.sol\":1042:4434  contract FundMe {... */\n      mstore(0x40, 0x80)\n      jumpi(tag_1, lt(calldatasize, 0x04))\n      shr(0xe0, calldataload(0x00))\n      dup1\n      0xb60d4288\n      gt\n      tag_14\n      jumpi\n      dup1\n      0xb60d4288\n      eq\n      tag_8\n      jumpi\n      dup1\n      0xbea4dfb5\n      eq\n      tag_9\n      jumpi\n      dup1\n      0xc086381e\n      eq\n      tag_10\n      jumpi\n      dup1\n      0xcc1f2afa\n      eq\n      tag_11\n      jumpi\n      dup1\n      0xe2ae93fb\n      eq\n      tag_12\n      jumpi\n      dup1\n      0xf2fde38b\n      eq\n      tag_13\n      jumpi\n      jump(tag_1)\n    tag_14:\n      dup1\n      0x13ffff01\n      eq\n      tag_2\n      jumpi\n      dup1\n      0x590e1ae3\n      eq\n      tag_3\n      jumpi\n      dup1\n      0x79433761\n      eq\n      tag_4\n      jumpi\n      dup1\n      0x7fe47e1a\n      eq\n      tag_5\n      jumpi\n      dup1\n      0x8da5cb5b\n      eq\n      tag_6\n      jumpi\n      dup1\n      0x8edd6eb6\n      eq\n      tag_7\n      jumpi\n    tag_1:\n      0x00\n      dup1\n      revert\n        /* \"test02/FundMe_flattened.sol\":3516:3618  function setErc20Addr(address _erc20Addr) external onlyOwner {... */\n    tag_2:\n      callvalue\n      dup1\n      iszero\n      tag_15\n      jumpi\n      0x00\n      dup1\n      revert\n    tag_15:\n      pop\n      tag_16\n      0x04\n      dup1\n      calldatasize\n      sub\n      dup2\n      add\n      swap1\n      tag_17\n      swap2\n      swap1\n      tag_18\n      jump\t// in\n    tag_17:\n      tag_19\n      jump\t// in\n    tag_16:\n      stop\n        /* \"test02/FundMe_flattened.sol\":2855:3283  function refund() external  {... */\n    tag_3:\n      callvalue\n      dup1\n      iszero\n      tag_20\n      jumpi\n      0x00\n      dup1\n      revert\n    tag_20:\n      pop\n      tag_21\n      tag_22\n      jump\t// in\n    tag_21:\n      stop\n        /* \"test02/FundMe_flattened.sol\":1379:1408  bool public isGetFund = false */\n    tag_4:\n      callvalue\n      dup1\n      iszero\n      tag_23\n      jumpi\n      0x00\n      dup1\n      revert\n    tag_23:\n      pop\n      tag_24\n      tag_25\n      jump\t// in\n    tag_24:\n      mload(0x40)\n      tag_26\n      swap2\n      swap1\n      tag_27\n      jump\t// in\n    tag_26:\n      mload(0x40)\n      dup1\n      swap2\n      sub\n      swap1\n      return\n        /* \"test02/FundMe_flattened.sol\":3291:3508  function setFundsAmount(address funder, uint256 amountToUpdate) external {... */\n    tag_5:\n      callvalue\n      dup1\n      iszero\n      tag_28\n      jumpi\n      0x00\n      dup1\n      revert\n    tag_28:\n      pop\n      tag_29\n      0x04\n      dup1\n      calldatasize\n      sub\n      dup2\n      add\n      swap1\n      tag_30\n      swap2\n      swap1\n      tag_31\n      jump\t// in\n    tag_30:\n      tag_32\n      jump\t// in\n    tag_29:\n      stop\n        /* \"test02/FundMe_flattened.sol\":1235:1255  address public owner */\n    tag_6:\n      callvalue\n      dup1\n      iszero\n      tag_33\n      jumpi\n      0x00\n      dup1\n      revert\n    tag_33:\n      pop\n      tag_34\n      tag_35\n      jump\t// in\n    tag_34:\n      mload(0x40)\n      tag_36\n      swap2\n      swap1\n      tag_37\n      jump\t// in\n    tag_36:\n      mload(0x40)\n      dup1\n      swap2\n      sub\n      swap1\n      return\n        /* \"test02/FundMe_flattened.sol\":2040:2847  function getFund() external onlyOwner {... */\n    tag_7:\n      callvalue\n      dup1\n      iszero\n      tag_38\n      jumpi\n      0x00\n      dup1\n      revert\n    tag_38:\n      pop\n      tag_39\n      tag_40\n      jump\t// in\n    tag_39:\n      stop\n        /* \"test02/FundMe_flattened.sol\":1678:1923  function fund() external payable {... */\n    tag_8:\n      tag_41\n      tag_42\n      jump\t// in\n    tag_41:\n      stop\n        /* \"test02/FundMe_flattened.sol\":3721:4078  function getChainlinkDataFeedLatestAnswer() public view returns (int) {... */\n    tag_9:\n      callvalue\n      dup1\n      iszero\n      tag_43\n      jumpi\n      0x00\n      dup1\n      revert\n    tag_43:\n      pop\n      tag_44\n      tag_45\n      jump\t// in\n    tag_44:\n      mload(0x40)\n      tag_46\n      swap2\n      swap1\n      tag_47\n      jump\t// in\n    tag_46:\n      mload(0x40)\n      dup1\n      swap2\n      sub\n      swap1\n      return\n        /* \"test02/FundMe_flattened.sol\":4090:4294  function convertEthToUsd(uint256 ethAmount) public view returns(uint256) {... */\n    tag_10:\n      callvalue\n      dup1\n      iszero\n      tag_48\n      jumpi\n      0x00\n      dup1\n      revert\n    tag_48:\n      pop\n      tag_49\n      0x04\n      dup1\n      calldatasize\n      sub\n      dup2\n      add\n      swap1\n      tag_50\n      swap2\n      swap1\n      tag_51\n      jump\t// in\n    tag_50:\n      tag_52\n      jump\t// in\n    tag_49:\n      mload(0x40)\n      tag_53\n      swap2\n      swap1\n      tag_54\n      jump\t// in\n    tag_53:\n      mload(0x40)\n      dup1\n      swap2\n      sub\n      swap1\n      return\n        /* \"test02/FundMe_flattened.sol\":1179:1228  uint256 public constant TARGET  = 1000 * 10 ** 18 */\n    tag_11:\n      callvalue\n      dup1\n      iszero\n      tag_55\n      jumpi\n      0x00\n      dup1\n      revert\n    tag_55:\n      pop\n      tag_56\n      tag_57\n      jump\t// in\n    tag_56:\n      mload(0x40)\n      tag_58\n      swap2\n      swap1\n      tag_54\n      jump\t// in\n    tag_58:\n      mload(0x40)\n      dup1\n      swap2\n      sub\n      swap1\n      return\n        /* \"test02/FundMe_flattened.sol\":1065:1106  mapping (address => uint256) public funds */\n    tag_12:\n      callvalue\n      dup1\n      iszero\n      tag_59\n      jumpi\n      0x00\n      dup1\n      revert\n    tag_59:\n      pop\n      tag_60\n      0x04\n      dup1\n      calldatasize\n      sub\n      dup2\n      add\n      swap1\n      tag_61\n      swap2\n      swap1\n      tag_18\n      jump\t// in\n    tag_61:\n      tag_62\n      jump\t// in\n    tag_60:\n      mload(0x40)\n      tag_63\n      swap2\n      swap1\n      tag_54\n      jump\t// in\n    tag_63:\n      mload(0x40)\n      dup1\n      swap2\n      sub\n      swap1\n      return\n        /* \"test02/FundMe_flattened.sol\":1931:2028  function transferOwnership(address newOwner) public onlyOwner {... */\n    tag_13:\n      callvalue\n      dup1\n      iszero\n      tag_64\n      jumpi\n      0x00\n      dup1\n      revert\n    tag_64:\n      pop\n      tag_65\n      0x04\n      dup1\n      calldatasize\n      sub\n      dup2\n      add\n      swap1\n      tag_66\n      swap2\n      swap1\n      tag_18\n      jump\t// in\n    tag_66:\n      tag_67\n      jump\t// in\n    tag_65:\n      stop\n        /* \"test02/FundMe_flattened.sol\":3516:3618  function setErc20Addr(address _erc20Addr) external onlyOwner {... */\n    tag_19:\n        /* \"test02/FundMe_flattened.sol\":4356:4361  owner */\n      0x01\n      0x00\n      swap1\n      sload\n      swap1\n      0x0100\n      exp\n      swap1\n      div\n      0xffffffffffffffffffffffffffffffffffffffff\n      and\n        /* \"test02/FundMe_flattened.sol\":4342:4361  msg.sender == owner */\n      0xffffffffffffffffffffffffffffffffffffffff\n      and\n        /* \"test02/FundMe_flattened.sol\":4342:4352  msg.sender */\n      caller\n        /* \"test02/FundMe_flattened.sol\":4342:4361  msg.sender == owner */\n      0xffffffffffffffffffffffffffffffffffffffff\n      and\n      eq\n        /* \"test02/FundMe_flattened.sol\":4334:4411  require(msg.sender == owner, \"this function can only be called by the owner\") */\n      tag_69\n      jumpi\n      mload(0x40)\n      0x08c379a000000000000000000000000000000000000000000000000000000000\n      dup2\n      mstore\n      0x04\n      add\n      tag_70\n      swap1\n      tag_71\n      jump\t// in\n    tag_70:\n      mload(0x40)\n      dup1\n      swap2\n      sub\n      swap1\n      revert\n    tag_69:\n        /* \"test02/FundMe_flattened.sol\":3600:3610  _erc20Addr */\n      dup1\n        /* \"test02/FundMe_flattened.sol\":3588:3597  erc20Addr */\n      0x05\n      0x00\n        /* \"test02/FundMe_flattened.sol\":3588:3610  erc20Addr = _erc20Addr */\n      0x0100\n      exp\n      dup2\n      sload\n      dup2\n      0xffffffffffffffffffffffffffffffffffffffff\n      mul\n      not\n      and\n      swap1\n      dup4\n      0xffffffffffffffffffffffffffffffffffffffff\n      and\n      mul\n      or\n      swap1\n      sstore\n      pop\n        /* \"test02/FundMe_flattened.sol\":3516:3618  function setErc20Addr(address _erc20Addr) external onlyOwner {... */\n      pop\n      jump\t// out\n        /* \"test02/FundMe_flattened.sol\":2855:3283  function refund() external  {... */\n    tag_22:\n        /* \"test02/FundMe_flattened.sol\":2933:2941  lockTime */\n      sload(0x04)\n        /* \"test02/FundMe_flattened.sol\":2920:2930  deployTime */\n      sload(0x03)\n        /* \"test02/FundMe_flattened.sol\":2920:2941  deployTime + lockTime */\n      tag_74\n      swap2\n      swap1\n      tag_75\n      jump\t// in\n    tag_74:\n        /* \"test02/FundMe_flattened.sol\":2902:2917  block.timestamp */\n      timestamp\n        /* \"test02/FundMe_flattened.sol\":2902:2941  block.timestamp > deployTime + lockTime */\n      gt\n        /* \"test02/FundMe_flattened.sol\":2894:2975  require(block.timestamp > deployTime + lockTime, \"It's not extraction time yet\" ) */\n      tag_76\n      jumpi\n      mload(0x40)\n      0x08c379a000000000000000000000000000000000000000000000000000000000\n      dup2\n      mstore\n      0x04\n      add\n      tag_77\n      swap1\n      tag_78\n      jump\t// in\n    tag_77:\n      mload(0x40)\n      dup1\n      swap2\n      sub\n      swap1\n      revert\n    tag_76:\n        /* \"test02/FundMe_flattened.sol\":1213:1228  1000 * 10 ** 18 */\n      0x3635c9adc5dea00000\n        /* \"test02/FundMe_flattened.sol\":2994:3032  convertEthToUsd(address(this).balance) */\n      tag_79\n        /* \"test02/FundMe_flattened.sol\":3010:3031  address(this).balance */\n      selfbalance\n        /* \"test02/FundMe_flattened.sol\":2994:3009  convertEthToUsd */\n      tag_52\n        /* \"test02/FundMe_flattened.sol\":2994:3032  convertEthToUsd(address(this).balance) */\n      jump\t// in\n    tag_79:\n        /* \"test02/FundMe_flattened.sol\":2994:3041  convertEthToUsd(address(this).balance) < TARGET */\n      lt\n        /* \"test02/FundMe_flattened.sol\":2986:3063  require(convertEthToUsd(address(this).balance) < TARGET, \"Target is reached\") */\n      tag_80\n      jumpi\n      mload(0x40)\n      0x08c379a000000000000000000000000000000000000000000000000000000000\n      dup2\n      mstore\n      0x04\n      add\n      tag_81\n      swap1\n      tag_82\n      jump\t// in\n    tag_81:\n      mload(0x40)\n      dup1\n      swap2\n      sub\n      swap1\n      revert\n    tag_80:\n        /* \"test02/FundMe_flattened.sol\":3103:3104  0 */\n      0x00\n        /* \"test02/FundMe_flattened.sol\":3082:3087  funds */\n      dup1\n        /* \"test02/FundMe_flattened.sol\":3082:3099  funds[msg.sender] */\n      0x00\n        /* \"test02/FundMe_flattened.sol\":3088:3098  msg.sender */\n      caller\n        /* \"test02/FundMe_flattened.sol\":3082:3099  funds[msg.sender] */\n      0xffffffffffffffffffffffffffffffffffffffff\n      and\n      0xffffffffffffffffffffffffffffffffffffffff\n      and\n      dup2\n      mstore\n      0x20\n      add\n      swap1\n      dup2\n      mstore\n      0x20\n      add\n      0x00\n      keccak256\n      sload\n        /* \"test02/FundMe_flattened.sol\":3082:3104  funds[msg.sender] != 0 */\n      sub\n        /* \"test02/FundMe_flattened.sol\":3074:3136  require(funds[msg.sender] != 0, \"there is no fund to payback\") */\n      tag_83\n      jumpi\n      mload(0x40)\n      0x08c379a000000000000000000000000000000000000000000000000000000000\n      dup2\n      mstore\n      0x04\n      add\n      tag_84\n      swap1\n      tag_85\n      jump\t// in\n    tag_84:\n      mload(0x40)\n      dup1\n      swap2\n      sub\n      swap1\n      revert\n    tag_83:\n        /* \"test02/FundMe_flattened.sol\":3147:3158  bool status */\n      0x00\n        /* \"test02/FundMe_flattened.sol\":3190:3200  msg.sender */\n      caller\n        /* \"test02/FundMe_flattened.sol\":3182:3206  payable(msg.sender).call */\n      0xffffffffffffffffffffffffffffffffffffffff\n      and\n        /* \"test02/FundMe_flattened.sol\":3214:3219  funds */\n      0x00\n        /* \"test02/FundMe_flattened.sol\":3214:3231  funds[msg.sender] */\n      dup1\n        /* \"test02/FundMe_flattened.sol\":3220:3230  msg.sender */\n      caller\n        /* \"test02/FundMe_flattened.sol\":3214:3231  funds[msg.sender] */\n      0xffffffffffffffffffffffffffffffffffffffff\n      and\n      0xffffffffffffffffffffffffffffffffffffffff\n      and\n      dup2\n      mstore\n      0x20\n      add\n      swap1\n      dup2\n      mstore\n      0x20\n      add\n      0x00\n      keccak256\n      sload\n        /* \"test02/FundMe_flattened.sol\":3182:3236  payable(msg.sender).call{value: funds[msg.sender]}('') */\n      mload(0x40)\n      tag_86\n      swap1\n      tag_87\n      jump\t// in\n    tag_86:\n      0x00\n      mload(0x40)\n      dup1\n      dup4\n      sub\n      dup2\n      dup6\n      dup8\n      gas\n      call\n      swap3\n      pop\n      pop\n      pop\n      returndatasize\n      dup1\n      0x00\n      dup2\n      eq\n      tag_90\n      jumpi\n      mload(0x40)\n      swap2\n      pop\n      and(add(returndatasize, 0x3f), not(0x1f))\n      dup3\n      add\n      0x40\n      mstore\n      returndatasize\n      dup3\n      mstore\n      returndatasize\n      0x00\n      0x20\n      dup5\n      add\n      returndatacopy\n      jump(tag_89)\n    tag_90:\n      0x60\n      swap2\n      pop\n    tag_89:\n      pop\n        /* \"test02/FundMe_flattened.sol\":3169:3236  (status, ) = payable(msg.sender).call{value: funds[msg.sender]}('') */\n      pop\n      dup1\n      swap2\n      pop\n      pop\n        /* \"test02/FundMe_flattened.sol\":3269:3270  0 */\n      0x00\n        /* \"test02/FundMe_flattened.sol\":3249:3254  funds */\n      dup1\n        /* \"test02/FundMe_flattened.sol\":3249:3266  funds[msg.sender] */\n      0x00\n        /* \"test02/FundMe_flattened.sol\":3255:3265  msg.sender */\n      caller\n        /* \"test02/FundMe_flattened.sol\":3249:3266  funds[msg.sender] */\n      0xffffffffffffffffffffffffffffffffffffffff\n      and\n      0xffffffffffffffffffffffffffffffffffffffff\n      and\n      dup2\n      mstore\n      0x20\n      add\n      swap1\n      dup2\n      mstore\n      0x20\n      add\n      0x00\n      keccak256\n        /* \"test02/FundMe_flattened.sol\":3249:3270  funds[msg.sender] = 0 */\n      dup2\n      swap1\n      sstore\n      pop\n        /* \"test02/FundMe_flattened.sol\":2883:3283  {... */\n      pop\n        /* \"test02/FundMe_flattened.sol\":2855:3283  function refund() external  {... */\n      jump\t// out\n        /* \"test02/FundMe_flattened.sol\":1379:1408  bool public isGetFund = false */\n    tag_25:\n      0x05\n      0x14\n      swap1\n      sload\n      swap1\n      0x0100\n      exp\n      swap1\n      div\n      0xff\n      and\n      dup2\n      jump\t// out\n        /* \"test02/FundMe_flattened.sol\":3291:3508  function setFundsAmount(address funder, uint256 amountToUpdate) external {... */\n    tag_32:\n        /* \"test02/FundMe_flattened.sol\":3397:3406  erc20Addr */\n      0x05\n      0x00\n      swap1\n      sload\n      swap1\n      0x0100\n      exp\n      swap1\n      div\n      0xffffffffffffffffffffffffffffffffffffffff\n      and\n        /* \"test02/FundMe_flattened.sol\":3383:3406  msg.sender == erc20Addr */\n      0xffffffffffffffffffffffffffffffffffffffff\n      and\n        /* \"test02/FundMe_flattened.sol\":3383:3393  msg.sender */\n      caller\n        /* \"test02/FundMe_flattened.sol\":3383:3406  msg.sender == erc20Addr */\n      0xffffffffffffffffffffffffffffffffffffffff\n      and\n      eq\n        /* \"test02/FundMe_flattened.sol\":3375:3459  require(msg.sender == erc20Addr, \"you do not have permission to call this function\") */\n      tag_92\n      jumpi\n      mload(0x40)\n      0x08c379a000000000000000000000000000000000000000000000000000000000\n      dup2\n      mstore\n      0x04\n      add\n      tag_93\n      swap1\n      tag_94\n      jump\t// in\n    tag_93:\n      mload(0x40)\n      dup1\n      swap2\n      sub\n      swap1\n      revert\n    tag_92:\n        /* \"test02/FundMe_flattened.sol\":3486:3500  amountToUpdate */\n      dup1\n        /* \"test02/FundMe_flattened.sol\":3470:3475  funds */\n      0x00\n        /* \"test02/FundMe_flattened.sol\":3470:3483  funds[funder] */\n      dup1\n        /* \"test02/FundMe_flattened.sol\":3476:3482  funder */\n      dup5\n        /* \"test02/FundMe_flattened.sol\":3470:3483  funds[funder] */\n      0xffffffffffffffffffffffffffffffffffffffff\n      and\n      0xffffffffffffffffffffffffffffffffffffffff\n      and\n      dup2\n      mstore\n      0x20\n      add\n      swap1\n      dup2\n      mstore\n      0x20\n      add\n      0x00\n      keccak256\n        /* \"test02/FundMe_flattened.sol\":3470:3500  funds[funder] = amountToUpdate */\n      dup2\n      swap1\n      sstore\n      pop\n        /* \"test02/FundMe_flattened.sol\":3291:3508  function setFundsAmount(address funder, uint256 amountToUpdate) external {... */\n      pop\n      pop\n      jump\t// out\n        /* \"test02/FundMe_flattened.sol\":1235:1255  address public owner */\n    tag_35:\n      0x01\n      0x00\n      swap1\n      sload\n      swap1\n      0x0100\n      exp\n      swap1\n      div\n      0xffffffffffffffffffffffffffffffffffffffff\n      and\n      dup2\n      jump\t// out\n        /* \"test02/FundMe_flattened.sol\":2040:2847  function getFund() external onlyOwner {... */\n    tag_40:\n        /* \"test02/FundMe_flattened.sol\":4356:4361  owner */\n      0x01\n      0x00\n      swap1\n      sload\n      swap1\n      0x0100\n      exp\n      swap1\n      div\n      0xffffffffffffffffffffffffffffffffffffffff\n      and\n        /* \"test02/FundMe_flattened.sol\":4342:4361  msg.sender == owner */\n      0xffffffffffffffffffffffffffffffffffffffff\n      and\n        /* \"test02/FundMe_flattened.sol\":4342:4352  msg.sender */\n      caller\n        /* \"test02/FundMe_flattened.sol\":4342:4361  msg.sender == owner */\n      0xffffffffffffffffffffffffffffffffffffffff\n      and\n      eq\n        /* \"test02/FundMe_flattened.sol\":4334:4411  require(msg.sender == owner, \"this function can only be called by the owner\") */\n      tag_96\n      jumpi\n      mload(0x40)\n      0x08c379a000000000000000000000000000000000000000000000000000000000\n      dup2\n      mstore\n      0x04\n      add\n      tag_97\n      swap1\n      tag_71\n      jump\t// in\n    tag_97:\n      mload(0x40)\n      dup1\n      swap2\n      sub\n      swap1\n      revert\n    tag_96:\n        /* \"test02/FundMe_flattened.sol\":2128:2136  lockTime */\n      sload(0x04)\n        /* \"test02/FundMe_flattened.sol\":2115:2125  deployTime */\n      sload(0x03)\n        /* \"test02/FundMe_flattened.sol\":2115:2136  deployTime + lockTime */\n      tag_99\n      swap2\n      swap1\n      tag_75\n      jump\t// in\n    tag_99:\n        /* \"test02/FundMe_flattened.sol\":2097:2112  block.timestamp */\n      timestamp\n        /* \"test02/FundMe_flattened.sol\":2097:2136  block.timestamp > deployTime + lockTime */\n      gt\n        /* \"test02/FundMe_flattened.sol\":2089:2170  require(block.timestamp > deployTime + lockTime, \"It's not extraction time yet\" ) */\n      tag_100\n      jumpi\n      mload(0x40)\n      0x08c379a000000000000000000000000000000000000000000000000000000000\n      dup2\n      mstore\n      0x04\n      add\n      tag_101\n      swap1\n      tag_78\n      jump\t// in\n    tag_101:\n      mload(0x40)\n      dup1\n      swap2\n      sub\n      swap1\n      revert\n    tag_100:\n        /* \"test02/FundMe_flattened.sol\":1213:1228  1000 * 10 ** 18 */\n      0x3635c9adc5dea00000\n        /* \"test02/FundMe_flattened.sol\":2189:2227  convertEthToUsd(address(this).balance) */\n      tag_102\n        /* \"test02/FundMe_flattened.sol\":2205:2226  address(this).balance */\n      selfbalance\n        /* \"test02/FundMe_flattened.sol\":2189:2204  convertEthToUsd */\n      tag_52\n        /* \"test02/FundMe_flattened.sol\":2189:2227  convertEthToUsd(address(this).balance) */\n      jump\t// in\n    tag_102:\n        /* \"test02/FundMe_flattened.sol\":2189:2237  convertEthToUsd(address(this).balance) >= TARGET */\n      lt\n      iszero\n        /* \"test02/FundMe_flattened.sol\":2181:2263  require(convertEthToUsd(address(this).balance) >= TARGET, \"Target is not reached\") */\n      tag_103\n      jumpi\n      mload(0x40)\n      0x08c379a000000000000000000000000000000000000000000000000000000000\n      dup2\n      mstore\n      0x04\n      add\n      tag_104\n      swap1\n      tag_105\n      jump\t// in\n    tag_104:\n      mload(0x40)\n      dup1\n      swap2\n      sub\n      swap1\n      revert\n    tag_103:\n        /* \"test02/FundMe_flattened.sol\":2648:2659  bool status */\n      0x00\n        /* \"test02/FundMe_flattened.sol\":2691:2701  msg.sender */\n      caller\n        /* \"test02/FundMe_flattened.sol\":2683:2707  payable(msg.sender).call */\n      0xffffffffffffffffffffffffffffffffffffffff\n      and\n        /* \"test02/FundMe_flattened.sol\":2715:2736  address(this).balance */\n      selfbalance\n        /* \"test02/FundMe_flattened.sol\":2683:2741  payable(msg.sender).call{value: address(this).balance}('') */\n      mload(0x40)\n      tag_106\n      swap1\n      tag_87\n      jump\t// in\n    tag_106:\n      0x00\n      mload(0x40)\n      dup1\n      dup4\n      sub\n      dup2\n      dup6\n      dup8\n      gas\n      call\n      swap3\n      pop\n      pop\n      pop\n      returndatasize\n      dup1\n      0x00\n      dup2\n      eq\n      tag_109\n      jumpi\n      mload(0x40)\n      swap2\n      pop\n      and(add(returndatasize, 0x3f), not(0x1f))\n      dup3\n      add\n      0x40\n      mstore\n      returndatasize\n      dup3\n      mstore\n      returndatasize\n      0x00\n      0x20\n      dup5\n      add\n      returndatacopy\n      jump(tag_108)\n    tag_109:\n      0x60\n      swap2\n      pop\n    tag_108:\n      pop\n        /* \"test02/FundMe_flattened.sol\":2670:2741  (status, ) = payable(msg.sender).call{value: address(this).balance}('') */\n      pop\n      dup1\n      swap2\n      pop\n      pop\n        /* \"test02/FundMe_flattened.sol\":2760:2766  status */\n      dup1\n        /* \"test02/FundMe_flattened.sol\":2752:2780  require(status, \"tx failed\") */\n      tag_110\n      jumpi\n      mload(0x40)\n      0x08c379a000000000000000000000000000000000000000000000000000000000\n      dup2\n      mstore\n      0x04\n      add\n      tag_111\n      swap1\n      tag_112\n      jump\t// in\n    tag_111:\n      mload(0x40)\n      dup1\n      swap2\n      sub\n      swap1\n      revert\n    tag_110:\n        /* \"test02/FundMe_flattened.sol\":2811:2812  0 */\n      0x00\n        /* \"test02/FundMe_flattened.sol\":2791:2796  funds */\n      dup1\n        /* \"test02/FundMe_flattened.sol\":2791:2808  funds[msg.sender] */\n      0x00\n        /* \"test02/FundMe_flattened.sol\":2797:2807  msg.sender */\n      caller\n        /* \"test02/FundMe_flattened.sol\":2791:2808  funds[msg.sender] */\n      0xffffffffffffffffffffffffffffffffffffffff\n      and\n      0xffffffffffffffffffffffffffffffffffffffff\n      and\n      dup2\n      mstore\n      0x20\n      add\n      swap1\n      dup2\n      mstore\n      0x20\n      add\n      0x00\n      keccak256\n        /* \"test02/FundMe_flattened.sol\":2791:2812  funds[msg.sender] = 0 */\n      dup2\n      swap1\n      sstore\n      pop\n        /* \"test02/FundMe_flattened.sol\":2835:2839  true */\n      0x01\n        /* \"test02/FundMe_flattened.sol\":2823:2832  isGetFund */\n      0x05\n      0x14\n        /* \"test02/FundMe_flattened.sol\":2823:2839  isGetFund = true */\n      0x0100\n      exp\n      dup2\n      sload\n      dup2\n      0xff\n      mul\n      not\n      and\n      swap1\n      dup4\n      iszero\n      iszero\n      mul\n      or\n      swap1\n      sstore\n      pop\n        /* \"test02/FundMe_flattened.sol\":2078:2847  {... */\n      pop\n        /* \"test02/FundMe_flattened.sol\":2040:2847  function getFund() external onlyOwner {... */\n      jump\t// out\n        /* \"test02/FundMe_flattened.sol\":1678:1923  function fund() external payable {... */\n    tag_42:\n        /* \"test02/FundMe_flattened.sol\":1761:1769  lockTime */\n      sload(0x04)\n        /* \"test02/FundMe_flattened.sol\":1748:1758  deployTime */\n      sload(0x03)\n        /* \"test02/FundMe_flattened.sol\":1748:1769  deployTime + lockTime */\n      tag_114\n      swap2\n      swap1\n      tag_75\n      jump\t// in\n    tag_114:\n        /* \"test02/FundMe_flattened.sol\":1730:1745  block.timestamp */\n      timestamp\n        /* \"test02/FundMe_flattened.sol\":1730:1769  block.timestamp < deployTime + lockTime */\n      lt\n        /* \"test02/FundMe_flattened.sol\":1722:1793  require(block.timestamp < deployTime + lockTime, \"The fund is closed\" ) */\n      tag_115\n      jumpi\n      mload(0x40)\n      0x08c379a000000000000000000000000000000000000000000000000000000000\n      dup2\n      mstore\n      0x04\n      add\n      tag_116\n      swap1\n      tag_117\n      jump\t// in\n    tag_116:\n      mload(0x40)\n      dup1\n      swap2\n      sub\n      swap1\n      revert\n    tag_115:\n        /* \"test02/FundMe_flattened.sol\":1146:1160  100 * 10 ** 18 */\n      0x056bc75e2d63100000\n        /* \"test02/FundMe_flattened.sol\":1812:1838  convertEthToUsd(msg.value) */\n      tag_118\n        /* \"test02/FundMe_flattened.sol\":1828:1837  msg.value */\n      callvalue\n        /* \"test02/FundMe_flattened.sol\":1812:1827  convertEthToUsd */\n      tag_52\n        /* \"test02/FundMe_flattened.sol\":1812:1838  convertEthToUsd(msg.value) */\n      jump\t// in\n    tag_118:\n        /* \"test02/FundMe_flattened.sol\":1812:1855  convertEthToUsd(msg.value) >= MININUM_VALUE */\n      lt\n      iszero\n        /* \"test02/FundMe_flattened.sol\":1804:1875  require(convertEthToUsd(msg.value) >= MININUM_VALUE, \"send more money\") */\n      tag_119\n      jumpi\n      mload(0x40)\n      0x08c379a000000000000000000000000000000000000000000000000000000000\n      dup2\n      mstore\n      0x04\n      add\n      tag_120\n      swap1\n      tag_121\n      jump\t// in\n    tag_120:\n      mload(0x40)\n      dup1\n      swap2\n      sub\n      swap1\n      revert\n    tag_119:\n        /* \"test02/FundMe_flattened.sol\":1906:1915  msg.value */\n      callvalue\n        /* \"test02/FundMe_flattened.sol\":1886:1891  funds */\n      0x00\n        /* \"test02/FundMe_flattened.sol\":1886:1903  funds[msg.sender] */\n      dup1\n        /* \"test02/FundMe_flattened.sol\":1892:1902  msg.sender */\n      caller\n        /* \"test02/FundMe_flattened.sol\":1886:1903  funds[msg.sender] */\n      0xffffffffffffffffffffffffffffffffffffffff\n      and\n      0xffffffffffffffffffffffffffffffffffffffff\n      and\n      dup2\n      mstore\n      0x20\n      add\n      swap1\n      dup2\n      mstore\n      0x20\n      add\n      0x00\n      keccak256\n        /* \"test02/FundMe_flattened.sol\":1886:1915  funds[msg.sender] = msg.value */\n      dup2\n      swap1\n      sstore\n      pop\n        /* \"test02/FundMe_flattened.sol\":1678:1923  function fund() external payable {... */\n      jump\t// out\n        /* \"test02/FundMe_flattened.sol\":3721:4078  function getChainlinkDataFeedLatestAnswer() public view returns (int) {... */\n    tag_45:\n        /* \"test02/FundMe_flattened.sol\":3786:3789  int */\n      0x00\n        /* \"test02/FundMe_flattened.sol\":3880:3893  int256 answer */\n      dup1\n        /* \"test02/FundMe_flattened.sol\":4020:4028  dataFeed */\n      0x02\n      0x00\n      swap1\n      sload\n      swap1\n      0x0100\n      exp\n      swap1\n      div\n      0xffffffffffffffffffffffffffffffffffffffff\n      and\n        /* \"test02/FundMe_flattened.sol\":4020:4044  dataFeed.latestRoundData */\n      0xffffffffffffffffffffffffffffffffffffffff\n      and\n      0xfeaf968c\n        /* \"test02/FundMe_flattened.sol\":4020:4046  dataFeed.latestRoundData() */\n      mload(0x40)\n      dup2\n      0xffffffff\n      and\n      0xe0\n      shl\n      dup2\n      mstore\n      0x04\n      add\n      0xa0\n      mload(0x40)\n      dup1\n      dup4\n      sub\n      dup2\n      dup7\n      gas\n      staticcall\n      iszero\n      dup1\n      iszero\n      tag_124\n      jumpi\n      returndatasize\n      0x00\n      dup1\n      returndatacopy\n      revert(0x00, returndatasize)\n    tag_124:\n      pop\n      pop\n      pop\n      pop\n      mload(0x40)\n      returndatasize\n      not(0x1f)\n      0x1f\n      dup3\n      add\n      and\n      dup3\n      add\n      dup1\n      0x40\n      mstore\n      pop\n      dup2\n      add\n      swap1\n      tag_125\n      swap2\n      swap1\n      tag_126\n      jump\t// in\n    tag_125:\n        /* \"test02/FundMe_flattened.sol\":3830:4046  (... */\n      pop\n      pop\n      pop\n      swap2\n      pop\n      pop\n        /* \"test02/FundMe_flattened.sol\":4064:4070  answer */\n      dup1\n        /* \"test02/FundMe_flattened.sol\":4057:4070  return answer */\n      swap2\n      pop\n      pop\n        /* \"test02/FundMe_flattened.sol\":3721:4078  function getChainlinkDataFeedLatestAnswer() public view returns (int) {... */\n      swap1\n      jump\t// out\n        /* \"test02/FundMe_flattened.sol\":4090:4294  function convertEthToUsd(uint256 ethAmount) public view returns(uint256) {... */\n    tag_52:\n        /* \"test02/FundMe_flattened.sol\":4154:4161  uint256 */\n      0x00\n        /* \"test02/FundMe_flattened.sol\":4174:4190  uint256 ethPrice */\n      dup1\n        /* \"test02/FundMe_flattened.sol\":4201:4235  getChainlinkDataFeedLatestAnswer() */\n      tag_128\n        /* \"test02/FundMe_flattened.sol\":4201:4233  getChainlinkDataFeedLatestAnswer */\n      tag_45\n        /* \"test02/FundMe_flattened.sol\":4201:4235  getChainlinkDataFeedLatestAnswer() */\n      jump\t// in\n    tag_128:\n        /* \"test02/FundMe_flattened.sol\":4174:4236  uint256 ethPrice = uint256(getChainlinkDataFeedLatestAnswer()) */\n      swap1\n      pop\n        /* \"test02/FundMe_flattened.sol\":4278:4285  10 ** 8 */\n      0x05f5e100\n        /* \"test02/FundMe_flattened.sol\":4266:4274  ethPrice */\n      dup2\n        /* \"test02/FundMe_flattened.sol\":4254:4263  ethAmount */\n      dup5\n        /* \"test02/FundMe_flattened.sol\":4254:4274  ethAmount * ethPrice */\n      tag_129\n      swap2\n      swap1\n      tag_130\n      jump\t// in\n    tag_129:\n        /* \"test02/FundMe_flattened.sol\":4254:4286  ethAmount * ethPrice / (10 ** 8) */\n      tag_131\n      swap2\n      swap1\n      tag_132\n      jump\t// in\n    tag_131:\n        /* \"test02/FundMe_flattened.sol\":4247:4286  return ethAmount * ethPrice / (10 ** 8) */\n      swap2\n      pop\n      pop\n        /* \"test02/FundMe_flattened.sol\":4090:4294  function convertEthToUsd(uint256 ethAmount) public view returns(uint256) {... */\n      swap2\n      swap1\n      pop\n      jump\t// out\n        /* \"test02/FundMe_flattened.sol\":1179:1228  uint256 public constant TARGET  = 1000 * 10 ** 18 */\n    tag_57:\n        /* \"test02/FundMe_flattened.sol\":1213:1228  1000 * 10 ** 18 */\n      0x3635c9adc5dea00000\n        /* \"test02/FundMe_flattened.sol\":1179:1228  uint256 public constant TARGET  = 1000 * 10 ** 18 */\n      dup2\n      jump\t// out\n        /* \"test02/FundMe_flattened.sol\":1065:1106  mapping (address => uint256) public funds */\n    tag_62:\n      mstore(0x20, 0x00)\n      dup1\n      0x00\n      mstore\n      keccak256(0x00, 0x40)\n      0x00\n      swap2\n      pop\n      swap1\n      pop\n      sload\n      dup2\n      jump\t// out\n        /* \"test02/FundMe_flattened.sol\":1931:2028  function transferOwnership(address newOwner) public onlyOwner {... */\n    tag_67:\n        /* \"test02/FundMe_flattened.sol\":4356:4361  owner */\n      0x01\n      0x00\n      swap1\n      sload\n      swap1\n      0x0100\n      exp\n      swap1\n      div\n      0xffffffffffffffffffffffffffffffffffffffff\n      and\n        /* \"test02/FundMe_flattened.sol\":4342:4361  msg.sender == owner */\n      0xffffffffffffffffffffffffffffffffffffffff\n      and\n        /* \"test02/FundMe_flattened.sol\":4342:4352  msg.sender */\n      caller\n        /* \"test02/FundMe_flattened.sol\":4342:4361  msg.sender == owner */\n      0xffffffffffffffffffffffffffffffffffffffff\n      and\n      eq\n        /* \"test02/FundMe_flattened.sol\":4334:4411  require(msg.sender == owner, \"this function can only be called by the owner\") */\n      tag_134\n      jumpi\n      mload(0x40)\n      0x08c379a000000000000000000000000000000000000000000000000000000000\n      dup2\n      mstore\n      0x04\n      add\n      tag_135\n      swap1\n      tag_71\n      jump\t// in\n    tag_135:\n      mload(0x40)\n      dup1\n      swap2\n      sub\n      swap1\n      revert\n    tag_134:\n        /* \"test02/FundMe_flattened.sol\":2012:2020  newOwner */\n      dup1\n        /* \"test02/FundMe_flattened.sol\":2004:2009  owner */\n      0x01\n      0x00\n        /* \"test02/FundMe_flattened.sol\":2004:2020  owner = newOwner */\n      0x0100\n      exp\n      dup2\n      sload\n      dup2\n      0xffffffffffffffffffffffffffffffffffffffff\n      mul\n      not\n      and\n      swap1\n      dup4\n      0xffffffffffffffffffffffffffffffffffffffff\n      and\n      mul\n      or\n      swap1\n      sstore\n      pop\n        /* \"test02/FundMe_flattened.sol\":1931:2028  function transferOwnership(address newOwner) public onlyOwner {... */\n      pop\n      jump\t// out\n        /* \"#utility.yul\":88:205   */\n    tag_138:\n        /* \"#utility.yul\":197:198   */\n      0x00\n        /* \"#utility.yul\":194:195   */\n      dup1\n        /* \"#utility.yul\":187:199   */\n      revert\n        /* \"#utility.yul\":334:460   */\n    tag_140:\n        /* \"#utility.yul\":371:378   */\n      0x00\n        /* \"#utility.yul\":411:453   */\n      0xffffffffffffffffffffffffffffffffffffffff\n        /* \"#utility.yul\":404:409   */\n      dup3\n        /* \"#utility.yul\":400:454   */\n      and\n        /* \"#utility.yul\":389:454   */\n      swap1\n      pop\n        /* \"#utility.yul\":334:460   */\n      swap2\n      swap1\n      pop\n      jump\t// out\n        /* \"#utility.yul\":466:562   */\n    tag_141:\n        /* \"#utility.yul\":503:510   */\n      0x00\n        /* \"#utility.yul\":532:556   */\n      tag_189\n        /* \"#utility.yul\":550:555   */\n      dup3\n        /* \"#utility.yul\":532:556   */\n      tag_140\n      jump\t// in\n    tag_189:\n        /* \"#utility.yul\":521:556   */\n      swap1\n      pop\n        /* \"#utility.yul\":466:562   */\n      swap2\n      swap1\n      pop\n      jump\t// out\n        /* \"#utility.yul\":568:690   */\n    tag_142:\n        /* \"#utility.yul\":641:665   */\n      tag_191\n        /* \"#utility.yul\":659:664   */\n      dup2\n        /* \"#utility.yul\":641:665   */\n      tag_141\n      jump\t// in\n    tag_191:\n        /* \"#utility.yul\":634:639   */\n      dup2\n        /* \"#utility.yul\":631:666   */\n      eq\n        /* \"#utility.yul\":621:684   */\n      tag_192\n      jumpi\n        /* \"#utility.yul\":680:681   */\n      0x00\n        /* \"#utility.yul\":677:678   */\n      dup1\n        /* \"#utility.yul\":670:682   */\n      revert\n        /* \"#utility.yul\":621:684   */\n    tag_192:\n        /* \"#utility.yul\":568:690   */\n      pop\n      jump\t// out\n        /* \"#utility.yul\":696:835   */\n    tag_143:\n        /* \"#utility.yul\":742:747   */\n      0x00\n        /* \"#utility.yul\":780:786   */\n      dup2\n        /* \"#utility.yul\":767:787   */\n      calldataload\n        /* \"#utility.yul\":758:787   */\n      swap1\n      pop\n        /* \"#utility.yul\":796:829   */\n      tag_194\n        /* \"#utility.yul\":823:828   */\n      dup2\n        /* \"#utility.yul\":796:829   */\n      tag_142\n      jump\t// in\n    tag_194:\n        /* \"#utility.yul\":696:835   */\n      swap3\n      swap2\n      pop\n      pop\n      jump\t// out\n        /* \"#utility.yul\":841:1170   */\n    tag_18:\n        /* \"#utility.yul\":900:906   */\n      0x00\n        /* \"#utility.yul\":949:951   */\n      0x20\n        /* \"#utility.yul\":937:946   */\n      dup3\n        /* \"#utility.yul\":928:935   */\n      dup5\n        /* \"#utility.yul\":924:947   */\n      sub\n        /* \"#utility.yul\":920:952   */\n      slt\n        /* \"#utility.yul\":917:1036   */\n      iszero\n      tag_196\n      jumpi\n        /* \"#utility.yul\":955:1034   */\n      tag_197\n      tag_138\n      jump\t// in\n    tag_197:\n        /* \"#utility.yul\":917:1036   */\n    tag_196:\n        /* \"#utility.yul\":1075:1076   */\n      0x00\n        /* \"#utility.yul\":1100:1153   */\n      tag_198\n        /* \"#utility.yul\":1145:1152   */\n      dup5\n        /* \"#utility.yul\":1136:1142   */\n      dup3\n        /* \"#utility.yul\":1125:1134   */\n      dup6\n        /* \"#utility.yul\":1121:1143   */\n      add\n        /* \"#utility.yul\":1100:1153   */\n      tag_143\n      jump\t// in\n    tag_198:\n        /* \"#utility.yul\":1090:1153   */\n      swap2\n      pop\n        /* \"#utility.yul\":1046:1163   */\n      pop\n        /* \"#utility.yul\":841:1170   */\n      swap3\n      swap2\n      pop\n      pop\n      jump\t// out\n        /* \"#utility.yul\":1176:1266   */\n    tag_144:\n        /* \"#utility.yul\":1210:1217   */\n      0x00\n        /* \"#utility.yul\":1253:1258   */\n      dup2\n        /* \"#utility.yul\":1246:1259   */\n      iszero\n        /* \"#utility.yul\":1239:1260   */\n      iszero\n        /* \"#utility.yul\":1228:1260   */\n      swap1\n      pop\n        /* \"#utility.yul\":1176:1266   */\n      swap2\n      swap1\n      pop\n      jump\t// out\n        /* \"#utility.yul\":1272:1381   */\n    tag_145:\n        /* \"#utility.yul\":1353:1374   */\n      tag_201\n        /* \"#utility.yul\":1368:1373   */\n      dup2\n        /* \"#utility.yul\":1353:1374   */\n      tag_144\n      jump\t// in\n    tag_201:\n        /* \"#utility.yul\":1348:1351   */\n      dup3\n        /* \"#utility.yul\":1341:1375   */\n      mstore\n        /* \"#utility.yul\":1272:1381   */\n      pop\n      pop\n      jump\t// out\n        /* \"#utility.yul\":1387:1597   */\n    tag_27:\n        /* \"#utility.yul\":1474:1478   */\n      0x00\n        /* \"#utility.yul\":1512:1514   */\n      0x20\n        /* \"#utility.yul\":1501:1510   */\n      dup3\n        /* \"#utility.yul\":1497:1515   */\n      add\n        /* \"#utility.yul\":1489:1515   */\n      swap1\n      pop\n        /* \"#utility.yul\":1525:1590   */\n      tag_203\n        /* \"#utility.yul\":1587:1588   */\n      0x00\n        /* \"#utility.yul\":1576:1585   */\n      dup4\n        /* \"#utility.yul\":1572:1589   */\n      add\n        /* \"#utility.yul\":1563:1569   */\n      dup5\n        /* \"#utility.yul\":1525:1590   */\n      tag_145\n      jump\t// in\n    tag_203:\n        /* \"#utility.yul\":1387:1597   */\n      swap3\n      swap2\n      pop\n      pop\n      jump\t// out\n        /* \"#utility.yul\":1603:1680   */\n    tag_146:\n        /* \"#utility.yul\":1640:1647   */\n      0x00\n        /* \"#utility.yul\":1669:1674   */\n      dup2\n        /* \"#utility.yul\":1658:1674   */\n      swap1\n      pop\n        /* \"#utility.yul\":1603:1680   */\n      swap2\n      swap1\n      pop\n      jump\t// out\n        /* \"#utility.yul\":1686:1808   */\n    tag_147:\n        /* \"#utility.yul\":1759:1783   */\n      tag_206\n        /* \"#utility.yul\":1777:1782   */\n      dup2\n        /* \"#utility.yul\":1759:1783   */\n      tag_146\n      jump\t// in\n    tag_206:\n        /* \"#utility.yul\":1752:1757   */\n      dup2\n        /* \"#utility.yul\":1749:1784   */\n      eq\n        /* \"#utility.yul\":1739:1802   */\n      tag_207\n      jumpi\n        /* \"#utility.yul\":1798:1799   */\n      0x00\n        /* \"#utility.yul\":1795:1796   */\n      dup1\n        /* \"#utility.yul\":1788:1800   */\n      revert\n        /* \"#utility.yul\":1739:1802   */\n    tag_207:\n        /* \"#utility.yul\":1686:1808   */\n      pop\n      jump\t// out\n        /* \"#utility.yul\":1814:1953   */\n    tag_148:\n        /* \"#utility.yul\":1860:1865   */\n      0x00\n        /* \"#utility.yul\":1898:1904   */\n      dup2\n        /* \"#utility.yul\":1885:1905   */\n      calldataload\n        /* \"#utility.yul\":1876:1905   */\n      swap1\n      pop\n        /* \"#utility.yul\":1914:1947   */\n      tag_209\n        /* \"#utility.yul\":1941:1946   */\n      dup2\n        /* \"#utility.yul\":1914:1947   */\n      tag_147\n      jump\t// in\n    tag_209:\n        /* \"#utility.yul\":1814:1953   */\n      swap3\n      swap2\n      pop\n      pop\n      jump\t// out\n        /* \"#utility.yul\":1959:2433   */\n    tag_31:\n        /* \"#utility.yul\":2027:2033   */\n      0x00\n        /* \"#utility.yul\":2035:2041   */\n      dup1\n        /* \"#utility.yul\":2084:2086   */\n      0x40\n        /* \"#utility.yul\":2072:2081   */\n      dup4\n        /* \"#utility.yul\":2063:2070   */\n      dup6\n        /* \"#utility.yul\":2059:2082   */\n      sub\n        /* \"#utility.yul\":2055:2087   */\n      slt\n        /* \"#utility.yul\":2052:2171   */\n      iszero\n      tag_211\n      jumpi\n        /* \"#utility.yul\":2090:2169   */\n      tag_212\n      tag_138\n      jump\t// in\n    tag_212:\n        /* \"#utility.yul\":2052:2171   */\n    tag_211:\n        /* \"#utility.yul\":2210:2211   */\n      0x00\n        /* \"#utility.yul\":2235:2288   */\n      tag_213\n        /* \"#utility.yul\":2280:2287   */\n      dup6\n        /* \"#utility.yul\":2271:2277   */\n      dup3\n        /* \"#utility.yul\":2260:2269   */\n      dup7\n        /* \"#utility.yul\":2256:2278   */\n      add\n        /* \"#utility.yul\":2235:2288   */\n      tag_143\n      jump\t// in\n    tag_213:\n        /* \"#utility.yul\":2225:2288   */\n      swap3\n      pop\n        /* \"#utility.yul\":2181:2298   */\n      pop\n        /* \"#utility.yul\":2337:2339   */\n      0x20\n        /* \"#utility.yul\":2363:2416   */\n      tag_214\n        /* \"#utility.yul\":2408:2415   */\n      dup6\n        /* \"#utility.yul\":2399:2405   */\n      dup3\n        /* \"#utility.yul\":2388:2397   */\n      dup7\n        /* \"#utility.yul\":2384:2406   */\n      add\n        /* \"#utility.yul\":2363:2416   */\n      tag_148\n      jump\t// in\n    tag_214:\n        /* \"#utility.yul\":2353:2416   */\n      swap2\n      pop\n        /* \"#utility.yul\":2308:2426   */\n      pop\n        /* \"#utility.yul\":1959:2433   */\n      swap3\n      pop\n      swap3\n      swap1\n      pop\n      jump\t// out\n        /* \"#utility.yul\":2439:2557   */\n    tag_149:\n        /* \"#utility.yul\":2526:2550   */\n      tag_216\n        /* \"#utility.yul\":2544:2549   */\n      dup2\n        /* \"#utility.yul\":2526:2550   */\n      tag_141\n      jump\t// in\n    tag_216:\n        /* \"#utility.yul\":2521:2524   */\n      dup3\n        /* \"#utility.yul\":2514:2551   */\n      mstore\n        /* \"#utility.yul\":2439:2557   */\n      pop\n      pop\n      jump\t// out\n        /* \"#utility.yul\":2563:2785   */\n    tag_37:\n        /* \"#utility.yul\":2656:2660   */\n      0x00\n        /* \"#utility.yul\":2694:2696   */\n      0x20\n        /* \"#utility.yul\":2683:2692   */\n      dup3\n        /* \"#utility.yul\":2679:2697   */\n      add\n        /* \"#utility.yul\":2671:2697   */\n      swap1\n      pop\n        /* \"#utility.yul\":2707:2778   */\n      tag_218\n        /* \"#utility.yul\":2775:2776   */\n      0x00\n        /* \"#utility.yul\":2764:2773   */\n      dup4\n        /* \"#utility.yul\":2760:2777   */\n      add\n        /* \"#utility.yul\":2751:2757   */\n      dup5\n        /* \"#utility.yul\":2707:2778   */\n      tag_149\n      jump\t// in\n    tag_218:\n        /* \"#utility.yul\":2563:2785   */\n      swap3\n      swap2\n      pop\n      pop\n      jump\t// out\n        /* \"#utility.yul\":2791:2867   */\n    tag_150:\n        /* \"#utility.yul\":2827:2834   */\n      0x00\n        /* \"#utility.yul\":2856:2861   */\n      dup2\n        /* \"#utility.yul\":2845:2861   */\n      swap1\n      pop\n        /* \"#utility.yul\":2791:2867   */\n      swap2\n      swap1\n      pop\n      jump\t// out\n        /* \"#utility.yul\":2873:2988   */\n    tag_151:\n        /* \"#utility.yul\":2958:2981   */\n      tag_221\n        /* \"#utility.yul\":2975:2980   */\n      dup2\n        /* \"#utility.yul\":2958:2981   */\n      tag_150\n      jump\t// in\n    tag_221:\n        /* \"#utility.yul\":2953:2956   */\n      dup3\n        /* \"#utility.yul\":2946:2982   */\n      mstore\n        /* \"#utility.yul\":2873:2988   */\n      pop\n      pop\n      jump\t// out\n        /* \"#utility.yul\":2994:3212   */\n    tag_47:\n        /* \"#utility.yul\":3085:3089   */\n      0x00\n        /* \"#utility.yul\":3123:3125   */\n      0x20\n        /* \"#utility.yul\":3112:3121   */\n      dup3\n        /* \"#utility.yul\":3108:3126   */\n      add\n        /* \"#utility.yul\":3100:3126   */\n      swap1\n      pop\n        /* \"#utility.yul\":3136:3205   */\n      tag_223\n        /* \"#utility.yul\":3202:3203   */\n      0x00\n        /* \"#utility.yul\":3191:3200   */\n      dup4\n        /* \"#utility.yul\":3187:3204   */\n      add\n        /* \"#utility.yul\":3178:3184   */\n      dup5\n        /* \"#utility.yul\":3136:3205   */\n      tag_151\n      jump\t// in\n    tag_223:\n        /* \"#utility.yul\":2994:3212   */\n      swap3\n      swap2\n      pop\n      pop\n      jump\t// out\n        /* \"#utility.yul\":3218:3547   */\n    tag_51:\n        /* \"#utility.yul\":3277:3283   */\n      0x00\n        /* \"#utility.yul\":3326:3328   */\n      0x20\n        /* \"#utility.yul\":3314:3323   */\n      dup3\n        /* \"#utility.yul\":3305:3312   */\n      dup5\n        /* \"#utility.yul\":3301:3324   */\n      sub\n        /* \"#utility.yul\":3297:3329   */\n      slt\n        /* \"#utility.yul\":3294:3413   */\n      iszero\n      tag_225\n      jumpi\n        /* \"#utility.yul\":3332:3411   */\n      tag_226\n      tag_138\n      jump\t// in\n    tag_226:\n        /* \"#utility.yul\":3294:3413   */\n    tag_225:\n        /* \"#utility.yul\":3452:3453   */\n      0x00\n        /* \"#utility.yul\":3477:3530   */\n      tag_227\n        /* \"#utility.yul\":3522:3529   */\n      dup5\n        /* \"#utility.yul\":3513:3519   */\n      dup3\n        /* \"#utility.yul\":3502:3511   */\n      dup6\n        /* \"#utility.yul\":3498:3520   */\n      add\n        /* \"#utility.yul\":3477:3530   */\n      tag_148\n      jump\t// in\n    tag_227:\n        /* \"#utility.yul\":3467:3530   */\n      swap2\n      pop\n        /* \"#utility.yul\":3423:3540   */\n      pop\n        /* \"#utility.yul\":3218:3547   */\n      swap3\n      swap2\n      pop\n      pop\n      jump\t// out\n        /* \"#utility.yul\":3553:3671   */\n    tag_152:\n        /* \"#utility.yul\":3640:3664   */\n      tag_229\n        /* \"#utility.yul\":3658:3663   */\n      dup2\n        /* \"#utility.yul\":3640:3664   */\n      tag_146\n      jump\t// in\n    tag_229:\n        /* \"#utility.yul\":3635:3638   */\n      dup3\n        /* \"#utility.yul\":3628:3665   */\n      mstore\n        /* \"#utility.yul\":3553:3671   */\n      pop\n      pop\n      jump\t// out\n        /* \"#utility.yul\":3677:3899   */\n    tag_54:\n        /* \"#utility.yul\":3770:3774   */\n      0x00\n        /* \"#utility.yul\":3808:3810   */\n      0x20\n        /* \"#utility.yul\":3797:3806   */\n      dup3\n        /* \"#utility.yul\":3793:3811   */\n      add\n        /* \"#utility.yul\":3785:3811   */\n      swap1\n      pop\n        /* \"#utility.yul\":3821:3892   */\n      tag_231\n        /* \"#utility.yul\":3889:3890   */\n      0x00\n        /* \"#utility.yul\":3878:3887   */\n      dup4\n        /* \"#utility.yul\":3874:3891   */\n      add\n        /* \"#utility.yul\":3865:3871   */\n      dup5\n        /* \"#utility.yul\":3821:3892   */\n      tag_152\n      jump\t// in\n    tag_231:\n        /* \"#utility.yul\":3677:3899   */\n      swap3\n      swap2\n      pop\n      pop\n      jump\t// out\n        /* \"#utility.yul\":3905:4074   */\n    tag_153:\n        /* \"#utility.yul\":3989:4000   */\n      0x00\n        /* \"#utility.yul\":4023:4029   */\n      dup3\n        /* \"#utility.yul\":4018:4021   */\n      dup3\n        /* \"#utility.yul\":4011:4030   */\n      mstore\n        /* \"#utility.yul\":4063:4067   */\n      0x20\n        /* \"#utility.yul\":4058:4061   */\n      dup3\n        /* \"#utility.yul\":4054:4068   */\n      add\n        /* \"#utility.yul\":4039:4068   */\n      swap1\n      pop\n        /* \"#utility.yul\":3905:4074   */\n      swap3\n      swap2\n      pop\n      pop\n      jump\t// out\n        /* \"#utility.yul\":4080:4312   */\n    tag_154:\n        /* \"#utility.yul\":4220:4254   */\n      0x746869732066756e6374696f6e2063616e206f6e6c792062652063616c6c6564\n        /* \"#utility.yul\":4216:4217   */\n      0x00\n        /* \"#utility.yul\":4208:4214   */\n      dup3\n        /* \"#utility.yul\":4204:4218   */\n      add\n        /* \"#utility.yul\":4197:4255   */\n      mstore\n        /* \"#utility.yul\":4289:4304   */\n      0x20627920746865206f776e657200000000000000000000000000000000000000\n        /* \"#utility.yul\":4284:4286   */\n      0x20\n        /* \"#utility.yul\":4276:4282   */\n      dup3\n        /* \"#utility.yul\":4272:4287   */\n      add\n        /* \"#utility.yul\":4265:4305   */\n      mstore\n        /* \"#utility.yul\":4080:4312   */\n      pop\n      jump\t// out\n        /* \"#utility.yul\":4318:4684   */\n    tag_155:\n        /* \"#utility.yul\":4460:4463   */\n      0x00\n        /* \"#utility.yul\":4481:4548   */\n      tag_235\n        /* \"#utility.yul\":4545:4547   */\n      0x2d\n        /* \"#utility.yul\":4540:4543   */\n      dup4\n        /* \"#utility.yul\":4481:4548   */\n      tag_153\n      jump\t// in\n    tag_235:\n        /* \"#utility.yul\":4474:4548   */\n      swap2\n      pop\n        /* \"#utility.yul\":4557:4650   */\n      tag_236\n        /* \"#utility.yul\":4646:4649   */\n      dup3\n        /* \"#utility.yul\":4557:4650   */\n      tag_154\n      jump\t// in\n    tag_236:\n        /* \"#utility.yul\":4675:4677   */\n      0x40\n        /* \"#utility.yul\":4670:4673   */\n      dup3\n        /* \"#utility.yul\":4666:4678   */\n      add\n        /* \"#utility.yul\":4659:4678   */\n      swap1\n      pop\n        /* \"#utility.yul\":4318:4684   */\n      swap2\n      swap1\n      pop\n      jump\t// out\n        /* \"#utility.yul\":4690:5109   */\n    tag_71:\n        /* \"#utility.yul\":4856:4860   */\n      0x00\n        /* \"#utility.yul\":4894:4896   */\n      0x20\n        /* \"#utility.yul\":4883:4892   */\n      dup3\n        /* \"#utility.yul\":4879:4897   */\n      add\n        /* \"#utility.yul\":4871:4897   */\n      swap1\n      pop\n        /* \"#utility.yul\":4943:4952   */\n      dup2\n        /* \"#utility.yul\":4937:4941   */\n      dup2\n        /* \"#utility.yul\":4933:4953   */\n      sub\n        /* \"#utility.yul\":4929:4930   */\n      0x00\n        /* \"#utility.yul\":4918:4927   */\n      dup4\n        /* \"#utility.yul\":4914:4931   */\n      add\n        /* \"#utility.yul\":4907:4954   */\n      mstore\n        /* \"#utility.yul\":4971:5102   */\n      tag_238\n        /* \"#utility.yul\":5097:5101   */\n      dup2\n        /* \"#utility.yul\":4971:5102   */\n      tag_155\n      jump\t// in\n    tag_238:\n        /* \"#utility.yul\":4963:5102   */\n      swap1\n      pop\n        /* \"#utility.yul\":4690:5109   */\n      swap2\n      swap1\n      pop\n      jump\t// out\n        /* \"#utility.yul\":5115:5295   */\n    tag_156:\n        /* \"#utility.yul\":5163:5240   */\n      0x4e487b7100000000000000000000000000000000000000000000000000000000\n        /* \"#utility.yul\":5160:5161   */\n      0x00\n        /* \"#utility.yul\":5153:5241   */\n      mstore\n        /* \"#utility.yul\":5260:5264   */\n      0x11\n        /* \"#utility.yul\":5257:5258   */\n      0x04\n        /* \"#utility.yul\":5250:5265   */\n      mstore\n        /* \"#utility.yul\":5284:5288   */\n      0x24\n        /* \"#utility.yul\":5281:5282   */\n      0x00\n        /* \"#utility.yul\":5274:5289   */\n      revert\n        /* \"#utility.yul\":5301:5492   */\n    tag_75:\n        /* \"#utility.yul\":5341:5344   */\n      0x00\n        /* \"#utility.yul\":5360:5380   */\n      tag_241\n        /* \"#utility.yul\":5378:5379   */\n      dup3\n        /* \"#utility.yul\":5360:5380   */\n      tag_146\n      jump\t// in\n    tag_241:\n        /* \"#utility.yul\":5355:5380   */\n      swap2\n      pop\n        /* \"#utility.yul\":5394:5414   */\n      tag_242\n        /* \"#utility.yul\":5412:5413   */\n      dup4\n        /* \"#utility.yul\":5394:5414   */\n      tag_146\n      jump\t// in\n    tag_242:\n        /* \"#utility.yul\":5389:5414   */\n      swap3\n      pop\n        /* \"#utility.yul\":5437:5438   */\n      dup3\n        /* \"#utility.yul\":5434:5435   */\n      dup3\n        /* \"#utility.yul\":5430:5439   */\n      add\n        /* \"#utility.yul\":5423:5439   */\n      swap1\n      pop\n        /* \"#utility.yul\":5458:5461   */\n      dup1\n        /* \"#utility.yul\":5455:5456   */\n      dup3\n        /* \"#utility.yul\":5452:5462   */\n      gt\n        /* \"#utility.yul\":5449:5485   */\n      iszero\n      tag_243\n      jumpi\n        /* \"#utility.yul\":5465:5483   */\n      tag_244\n      tag_156\n      jump\t// in\n    tag_244:\n        /* \"#utility.yul\":5449:5485   */\n    tag_243:\n        /* \"#utility.yul\":5301:5492   */\n      swap3\n      swap2\n      pop\n      pop\n      jump\t// out\n        /* \"#utility.yul\":5498:5676   */\n    tag_157:\n        /* \"#utility.yul\":5638:5668   */\n      0x49742773206e6f742065787472616374696f6e2074696d652079657400000000\n        /* \"#utility.yul\":5634:5635   */\n      0x00\n        /* \"#utility.yul\":5626:5632   */\n      dup3\n        /* \"#utility.yul\":5622:5636   */\n      add\n        /* \"#utility.yul\":5615:5669   */\n      mstore\n        /* \"#utility.yul\":5498:5676   */\n      pop\n      jump\t// out\n        /* \"#utility.yul\":5682:6048   */\n    tag_158:\n        /* \"#utility.yul\":5824:5827   */\n      0x00\n        /* \"#utility.yul\":5845:5912   */\n      tag_247\n        /* \"#utility.yul\":5909:5911   */\n      0x1c\n        /* \"#utility.yul\":5904:5907   */\n      dup4\n        /* \"#utility.yul\":5845:5912   */\n      tag_153\n      jump\t// in\n    tag_247:\n        /* \"#utility.yul\":5838:5912   */\n      swap2\n      pop\n        /* \"#utility.yul\":5921:6014   */\n      tag_248\n        /* \"#utility.yul\":6010:6013   */\n      dup3\n        /* \"#utility.yul\":5921:6014   */\n      tag_157\n      jump\t// in\n    tag_248:\n        /* \"#utility.yul\":6039:6041   */\n      0x20\n        /* \"#utility.yul\":6034:6037   */\n      dup3\n        /* \"#utility.yul\":6030:6042   */\n      add\n        /* \"#utility.yul\":6023:6042   */\n      swap1\n      pop\n        /* \"#utility.yul\":5682:6048   */\n      swap2\n      swap1\n      pop\n      jump\t// out\n        /* \"#utility.yul\":6054:6473   */\n    tag_78:\n        /* \"#utility.yul\":6220:6224   */\n      0x00\n        /* \"#utility.yul\":6258:6260   */\n      0x20\n        /* \"#utility.yul\":6247:6256   */\n      dup3\n        /* \"#utility.yul\":6243:6261   */\n      add\n        /* \"#utility.yul\":6235:6261   */\n      swap1\n      pop\n        /* \"#utility.yul\":6307:6316   */\n      dup2\n        /* \"#utility.yul\":6301:6305   */\n      dup2\n        /* \"#utility.yul\":6297:6317   */\n      sub\n        /* \"#utility.yul\":6293:6294   */\n      0x00\n        /* \"#utility.yul\":6282:6291   */\n      dup4\n        /* \"#utility.yul\":6278:6295   */\n      add\n        /* \"#utility.yul\":6271:6318   */\n      mstore\n        /* \"#utility.yul\":6335:6466   */\n      tag_250\n        /* \"#utility.yul\":6461:6465   */\n      dup2\n        /* \"#utility.yul\":6335:6466   */\n      tag_158\n      jump\t// in\n    tag_250:\n        /* \"#utility.yul\":6327:6466   */\n      swap1\n      pop\n        /* \"#utility.yul\":6054:6473   */\n      swap2\n      swap1\n      pop\n      jump\t// out\n        /* \"#utility.yul\":6479:6646   */\n    tag_159:\n        /* \"#utility.yul\":6619:6638   */\n      0x5461726765742069732072656163686564000000000000000000000000000000\n        /* \"#utility.yul\":6615:6616   */\n      0x00\n        /* \"#utility.yul\":6607:6613   */\n      dup3\n        /* \"#utility.yul\":6603:6617   */\n      add\n        /* \"#utility.yul\":6596:6639   */\n      mstore\n        /* \"#utility.yul\":6479:6646   */\n      pop\n      jump\t// out\n        /* \"#utility.yul\":6652:7018   */\n    tag_160:\n        /* \"#utility.yul\":6794:6797   */\n      0x00\n        /* \"#utility.yul\":6815:6882   */\n      tag_253\n        /* \"#utility.yul\":6879:6881   */\n      0x11\n        /* \"#utility.yul\":6874:6877   */\n      dup4\n        /* \"#utility.yul\":6815:6882   */\n      tag_153\n      jump\t// in\n    tag_253:\n        /* \"#utility.yul\":6808:6882   */\n      swap2\n      pop\n        /* \"#utility.yul\":6891:6984   */\n      tag_254\n        /* \"#utility.yul\":6980:6983   */\n      dup3\n        /* \"#utility.yul\":6891:6984   */\n      tag_159\n      jump\t// in\n    tag_254:\n        /* \"#utility.yul\":7009:7011   */\n      0x20\n        /* \"#utility.yul\":7004:7007   */\n      dup3\n        /* \"#utility.yul\":7000:7012   */\n      add\n        /* \"#utility.yul\":6993:7012   */\n      swap1\n      pop\n        /* \"#utility.yul\":6652:7018   */\n      swap2\n      swap1\n      pop\n      jump\t// out\n        /* \"#utility.yul\":7024:7443   */\n    tag_82:\n        /* \"#utility.yul\":7190:7194   */\n      0x00\n        /* \"#utility.yul\":7228:7230   */\n      0x20\n        /* \"#utility.yul\":7217:7226   */\n      dup3\n        /* \"#utility.yul\":7213:7231   */\n      add\n        /* \"#utility.yul\":7205:7231   */\n      swap1\n      pop\n        /* \"#utility.yul\":7277:7286   */\n      dup2\n        /* \"#utility.yul\":7271:7275   */\n      dup2\n        /* \"#utility.yul\":7267:7287   */\n      sub\n        /* \"#utility.yul\":7263:7264   */\n      0x00\n        /* \"#utility.yul\":7252:7261   */\n      dup4\n        /* \"#utility.yul\":7248:7265   */\n      add\n        /* \"#utility.yul\":7241:7288   */\n      mstore\n        /* \"#utility.yul\":7305:7436   */\n      tag_256\n        /* \"#utility.yul\":7431:7435   */\n      dup2\n        /* \"#utility.yul\":7305:7436   */\n      tag_160\n      jump\t// in\n    tag_256:\n        /* \"#utility.yul\":7297:7436   */\n      swap1\n      pop\n        /* \"#utility.yul\":7024:7443   */\n      swap2\n      swap1\n      pop\n      jump\t// out\n        /* \"#utility.yul\":7449:7626   */\n    tag_161:\n        /* \"#utility.yul\":7589:7618   */\n      0x7468657265206973206e6f2066756e6420746f207061796261636b0000000000\n        /* \"#utility.yul\":7585:7586   */\n      0x00\n        /* \"#utility.yul\":7577:7583   */\n      dup3\n        /* \"#utility.yul\":7573:7587   */\n      add\n        /* \"#utility.yul\":7566:7619   */\n      mstore\n        /* \"#utility.yul\":7449:7626   */\n      pop\n      jump\t// out\n        /* \"#utility.yul\":7632:7998   */\n    tag_162:\n        /* \"#utility.yul\":7774:7777   */\n      0x00\n        /* \"#utility.yul\":7795:7862   */\n      tag_259\n        /* \"#utility.yul\":7859:7861   */\n      0x1b\n        /* \"#utility.yul\":7854:7857   */\n      dup4\n        /* \"#utility.yul\":7795:7862   */\n      tag_153\n      jump\t// in\n    tag_259:\n        /* \"#utility.yul\":7788:7862   */\n      swap2\n      pop\n        /* \"#utility.yul\":7871:7964   */\n      tag_260\n        /* \"#utility.yul\":7960:7963   */\n      dup3\n        /* \"#utility.yul\":7871:7964   */\n      tag_161\n      jump\t// in\n    tag_260:\n        /* \"#utility.yul\":7989:7991   */\n      0x20\n        /* \"#utility.yul\":7984:7987   */\n      dup3\n        /* \"#utility.yul\":7980:7992   */\n      add\n        /* \"#utility.yul\":7973:7992   */\n      swap1\n      pop\n        /* \"#utility.yul\":7632:7998   */\n      swap2\n      swap1\n      pop\n      jump\t// out\n        /* \"#utility.yul\":8004:8423   */\n    tag_85:\n        /* \"#utility.yul\":8170:8174   */\n      0x00\n        /* \"#utility.yul\":8208:8210   */\n      0x20\n        /* \"#utility.yul\":8197:8206   */\n      dup3\n        /* \"#utility.yul\":8193:8211   */\n      add\n        /* \"#utility.yul\":8185:8211   */\n      swap1\n      pop\n        /* \"#utility.yul\":8257:8266   */\n      dup2\n        /* \"#utility.yul\":8251:8255   */\n      dup2\n        /* \"#utility.yul\":8247:8267   */\n      sub\n        /* \"#utility.yul\":8243:8244   */\n      0x00\n        /* \"#utility.yul\":8232:8241   */\n      dup4\n        /* \"#utility.yul\":8228:8245   */\n      add\n        /* \"#utility.yul\":8221:8268   */\n      mstore\n        /* \"#utility.yul\":8285:8416   */\n      tag_262\n        /* \"#utility.yul\":8411:8415   */\n      dup2\n        /* \"#utility.yul\":8285:8416   */\n      tag_162\n      jump\t// in\n    tag_262:\n        /* \"#utility.yul\":8277:8416   */\n      swap1\n      pop\n        /* \"#utility.yul\":8004:8423   */\n      swap2\n      swap1\n      pop\n      jump\t// out\n        /* \"#utility.yul\":8429:8576   */\n    tag_163:\n        /* \"#utility.yul\":8530:8541   */\n      0x00\n        /* \"#utility.yul\":8567:8570   */\n      dup2\n        /* \"#utility.yul\":8552:8570   */\n      swap1\n      pop\n        /* \"#utility.yul\":8429:8576   */\n      swap3\n      swap2\n      pop\n      pop\n      jump\t// out\n        /* \"#utility.yul\":8582:8696   */\n    tag_164:\n      pop\n      jump\t// out\n        /* \"#utility.yul\":8702:9100   */\n    tag_165:\n        /* \"#utility.yul\":8861:8864   */\n      0x00\n        /* \"#utility.yul\":8882:8965   */\n      tag_266\n        /* \"#utility.yul\":8963:8964   */\n      0x00\n        /* \"#utility.yul\":8958:8961   */\n      dup4\n        /* \"#utility.yul\":8882:8965   */\n      tag_163\n      jump\t// in\n    tag_266:\n        /* \"#utility.yul\":8875:8965   */\n      swap2\n      pop\n        /* \"#utility.yul\":8974:9067   */\n      tag_267\n        /* \"#utility.yul\":9063:9066   */\n      dup3\n        /* \"#utility.yul\":8974:9067   */\n      tag_164\n      jump\t// in\n    tag_267:\n        /* \"#utility.yul\":9092:9093   */\n      0x00\n        /* \"#utility.yul\":9087:9090   */\n      dup3\n        /* \"#utility.yul\":9083:9094   */\n      add\n        /* \"#utility.yul\":9076:9094   */\n      swap1\n      pop\n        /* \"#utility.yul\":8702:9100   */\n      swap2\n      swap1\n      pop\n      jump\t// out\n        /* \"#utility.yul\":9106:9485   */\n    tag_87:\n        /* \"#utility.yul\":9290:9293   */\n      0x00\n        /* \"#utility.yul\":9312:9459   */\n      tag_269\n        /* \"#utility.yul\":9455:9458   */\n      dup3\n        /* \"#utility.yul\":9312:9459   */\n      tag_165\n      jump\t// in\n    tag_269:\n        /* \"#utility.yul\":9305:9459   */\n      swap2\n      pop\n        /* \"#utility.yul\":9476:9479   */\n      dup2\n        /* \"#utility.yul\":9469:9479   */\n      swap1\n      pop\n        /* \"#utility.yul\":9106:9485   */\n      swap2\n      swap1\n      pop\n      jump\t// out\n        /* \"#utility.yul\":9491:9726   */\n    tag_166:\n        /* \"#utility.yul\":9631:9665   */\n      0x796f7520646f206e6f742068617665207065726d697373696f6e20746f206361\n        /* \"#utility.yul\":9627:9628   */\n      0x00\n        /* \"#utility.yul\":9619:9625   */\n      dup3\n        /* \"#utility.yul\":9615:9629   */\n      add\n        /* \"#utility.yul\":9608:9666   */\n      mstore\n        /* \"#utility.yul\":9700:9718   */\n      0x6c6c20746869732066756e6374696f6e00000000000000000000000000000000\n        /* \"#utility.yul\":9695:9697   */\n      0x20\n        /* \"#utility.yul\":9687:9693   */\n      dup3\n        /* \"#utility.yul\":9683:9698   */\n      add\n        /* \"#utility.yul\":9676:9719   */\n      mstore\n        /* \"#utility.yul\":9491:9726   */\n      pop\n      jump\t// out\n        /* \"#utility.yul\":9732:10098   */\n    tag_167:\n        /* \"#utility.yul\":9874:9877   */\n      0x00\n        /* \"#utility.yul\":9895:9962   */\n      tag_272\n        /* \"#utility.yul\":9959:9961   */\n      0x30\n        /* \"#utility.yul\":9954:9957   */\n      dup4\n        /* \"#utility.yul\":9895:9962   */\n      tag_153\n      jump\t// in\n    tag_272:\n        /* \"#utility.yul\":9888:9962   */\n      swap2\n      pop\n        /* \"#utility.yul\":9971:10064   */\n      tag_273\n        /* \"#utility.yul\":10060:10063   */\n      dup3\n        /* \"#utility.yul\":9971:10064   */\n      tag_166\n      jump\t// in\n    tag_273:\n        /* \"#utility.yul\":10089:10091   */\n      0x40\n        /* \"#utility.yul\":10084:10087   */\n      dup3\n        /* \"#utility.yul\":10080:10092   */\n      add\n        /* \"#utility.yul\":10073:10092   */\n      swap1\n      pop\n        /* \"#utility.yul\":9732:10098   */\n      swap2\n      swap1\n      pop\n      jump\t// out\n        /* \"#utility.yul\":10104:10523   */\n    tag_94:\n        /* \"#utility.yul\":10270:10274   */\n      0x00\n        /* \"#utility.yul\":10308:10310   */\n      0x20\n        /* \"#utility.yul\":10297:10306   */\n      dup3\n        /* \"#utility.yul\":10293:10311   */\n      add\n        /* \"#utility.yul\":10285:10311   */\n      swap1\n      pop\n        /* \"#utility.yul\":10357:10366   */\n      dup2\n        /* \"#utility.yul\":10351:10355   */\n      dup2\n        /* \"#utility.yul\":10347:10367   */\n      sub\n        /* \"#utility.yul\":10343:10344   */\n      0x00\n        /* \"#utility.yul\":10332:10341   */\n      dup4\n        /* \"#utility.yul\":10328:10345   */\n      add\n        /* \"#utility.yul\":10321:10368   */\n      mstore\n        /* \"#utility.yul\":10385:10516   */\n      tag_275\n        /* \"#utility.yul\":10511:10515   */\n      dup2\n        /* \"#utility.yul\":10385:10516   */\n      tag_167\n      jump\t// in\n    tag_275:\n        /* \"#utility.yul\":10377:10516   */\n      swap1\n      pop\n        /* \"#utility.yul\":10104:10523   */\n      swap2\n      swap1\n      pop\n      jump\t// out\n        /* \"#utility.yul\":10529:10700   */\n    tag_168:\n        /* \"#utility.yul\":10669:10692   */\n      0x546172676574206973206e6f7420726561636865640000000000000000000000\n        /* \"#utility.yul\":10665:10666   */\n      0x00\n        /* \"#utility.yul\":10657:10663   */\n      dup3\n        /* \"#utility.yul\":10653:10667   */\n      add\n        /* \"#utility.yul\":10646:10693   */\n      mstore\n        /* \"#utility.yul\":10529:10700   */\n      pop\n      jump\t// out\n        /* \"#utility.yul\":10706:11072   */\n    tag_169:\n        /* \"#utility.yul\":10848:10851   */\n      0x00\n        /* \"#utility.yul\":10869:10936   */\n      tag_278\n        /* \"#utility.yul\":10933:10935   */\n      0x15\n        /* \"#utility.yul\":10928:10931   */\n      dup4\n        /* \"#utility.yul\":10869:10936   */\n      tag_153\n      jump\t// in\n    tag_278:\n        /* \"#utility.yul\":10862:10936   */\n      swap2\n      pop\n        /* \"#utility.yul\":10945:11038   */\n      tag_279\n        /* \"#utility.yul\":11034:11037   */\n      dup3\n        /* \"#utility.yul\":10945:11038   */\n      tag_168\n      jump\t// in\n    tag_279:\n        /* \"#utility.yul\":11063:11065   */\n      0x20\n        /* \"#utility.yul\":11058:11061   */\n      dup3\n        /* \"#utility.yul\":11054:11066   */\n      add\n        /* \"#utility.yul\":11047:11066   */\n      swap1\n      pop\n        /* \"#utility.yul\":10706:11072   */\n      swap2\n      swap1\n      pop\n      jump\t// out\n        /* \"#utility.yul\":11078:11497   */\n    tag_105:\n        /* \"#utility.yul\":11244:11248   */\n      0x00\n        /* \"#utility.yul\":11282:11284   */\n      0x20\n        /* \"#utility.yul\":11271:11280   */\n      dup3\n        /* \"#utility.yul\":11267:11285   */\n      add\n        /* \"#utility.yul\":11259:11285   */\n      swap1\n      pop\n        /* \"#utility.yul\":11331:11340   */\n      dup2\n        /* \"#utility.yul\":11325:11329   */\n      dup2\n        /* \"#utility.yul\":11321:11341   */\n      sub\n        /* \"#utility.yul\":11317:11318   */\n      0x00\n        /* \"#utility.yul\":11306:11315   */\n      dup4\n        /* \"#utility.yul\":11302:11319   */\n      add\n        /* \"#utility.yul\":11295:11342   */\n      mstore\n        /* \"#utility.yul\":11359:11490   */\n      tag_281\n        /* \"#utility.yul\":11485:11489   */\n      dup2\n        /* \"#utility.yul\":11359:11490   */\n      tag_169\n      jump\t// in\n    tag_281:\n        /* \"#utility.yul\":11351:11490   */\n      swap1\n      pop\n        /* \"#utility.yul\":11078:11497   */\n      swap2\n      swap1\n      pop\n      jump\t// out\n        /* \"#utility.yul\":11503:11662   */\n    tag_170:\n        /* \"#utility.yul\":11643:11654   */\n      0x7478206661696c65640000000000000000000000000000000000000000000000\n        /* \"#utility.yul\":11639:11640   */\n      0x00\n        /* \"#utility.yul\":11631:11637   */\n      dup3\n        /* \"#utility.yul\":11627:11641   */\n      add\n        /* \"#utility.yul\":11620:11655   */\n      mstore\n        /* \"#utility.yul\":11503:11662   */\n      pop\n      jump\t// out\n        /* \"#utility.yul\":11668:12033   */\n    tag_171:\n        /* \"#utility.yul\":11810:11813   */\n      0x00\n        /* \"#utility.yul\":11831:11897   */\n      tag_284\n        /* \"#utility.yul\":11895:11896   */\n      0x09\n        /* \"#utility.yul\":11890:11893   */\n      dup4\n        /* \"#utility.yul\":11831:11897   */\n      tag_153\n      jump\t// in\n    tag_284:\n        /* \"#utility.yul\":11824:11897   */\n      swap2\n      pop\n        /* \"#utility.yul\":11906:11999   */\n      tag_285\n        /* \"#utility.yul\":11995:11998   */\n      dup3\n        /* \"#utility.yul\":11906:11999   */\n      tag_170\n      jump\t// in\n    tag_285:\n        /* \"#utility.yul\":12024:12026   */\n      0x20\n        /* \"#utility.yul\":12019:12022   */\n      dup3\n        /* \"#utility.yul\":12015:12027   */\n      add\n        /* \"#utility.yul\":12008:12027   */\n      swap1\n      pop\n        /* \"#utility.yul\":11668:12033   */\n      swap2\n      swap1\n      pop\n      jump\t// out\n        /* \"#utility.yul\":12039:12458   */\n    tag_112:\n        /* \"#utility.yul\":12205:12209   */\n      0x00\n        /* \"#utility.yul\":12243:12245   */\n      0x20\n        /* \"#utility.yul\":12232:12241   */\n      dup3\n        /* \"#utility.yul\":12228:12246   */\n      add\n        /* \"#utility.yul\":12220:12246   */\n      swap1\n      pop\n        /* \"#utility.yul\":12292:12301   */\n      dup2\n        /* \"#utility.yul\":12286:12290   */\n      dup2\n        /* \"#utility.yul\":12282:12302   */\n      sub\n        /* \"#utility.yul\":12278:12279   */\n      0x00\n        /* \"#utility.yul\":12267:12276   */\n      dup4\n        /* \"#utility.yul\":12263:12280   */\n      add\n        /* \"#utility.yul\":12256:12303   */\n      mstore\n        /* \"#utility.yul\":12320:12451   */\n      tag_287\n        /* \"#utility.yul\":12446:12450   */\n      dup2\n        /* \"#utility.yul\":12320:12451   */\n      tag_171\n      jump\t// in\n    tag_287:\n        /* \"#utility.yul\":12312:12451   */\n      swap1\n      pop\n        /* \"#utility.yul\":12039:12458   */\n      swap2\n      swap1\n      pop\n      jump\t// out\n        /* \"#utility.yul\":12464:12632   */\n    tag_172:\n        /* \"#utility.yul\":12604:12624   */\n      0x5468652066756e6420697320636c6f7365640000000000000000000000000000\n        /* \"#utility.yul\":12600:12601   */\n      0x00\n        /* \"#utility.yul\":12592:12598   */\n      dup3\n        /* \"#utility.yul\":12588:12602   */\n      add\n        /* \"#utility.yul\":12581:12625   */\n      mstore\n        /* \"#utility.yul\":12464:12632   */\n      pop\n      jump\t// out\n        /* \"#utility.yul\":12638:13004   */\n    tag_173:\n        /* \"#utility.yul\":12780:12783   */\n      0x00\n        /* \"#utility.yul\":12801:12868   */\n      tag_290\n        /* \"#utility.yul\":12865:12867   */\n      0x12\n        /* \"#utility.yul\":12860:12863   */\n      dup4\n        /* \"#utility.yul\":12801:12868   */\n      tag_153\n      jump\t// in\n    tag_290:\n        /* \"#utility.yul\":12794:12868   */\n      swap2\n      pop\n        /* \"#utility.yul\":12877:12970   */\n      tag_291\n        /* \"#utility.yul\":12966:12969   */\n      dup3\n        /* \"#utility.yul\":12877:12970   */\n      tag_172\n      jump\t// in\n    tag_291:\n        /* \"#utility.yul\":12995:12997   */\n      0x20\n        /* \"#utility.yul\":12990:12993   */\n      dup3\n        /* \"#utility.yul\":12986:12998   */\n      add\n        /* \"#utility.yul\":12979:12998   */\n      swap1\n      pop\n        /* \"#utility.yul\":12638:13004   */\n      swap2\n      swap1\n      pop\n      jump\t// out\n        /* \"#utility.yul\":13010:13429   */\n    tag_117:\n        /* \"#utility.yul\":13176:13180   */\n      0x00\n        /* \"#utility.yul\":13214:13216   */\n      0x20\n        /* \"#utility.yul\":13203:13212   */\n      dup3\n        /* \"#utility.yul\":13199:13217   */\n      add\n        /* \"#utility.yul\":13191:13217   */\n      swap1\n      pop\n        /* \"#utility.yul\":13263:13272   */\n      dup2\n        /* \"#utility.yul\":13257:13261   */\n      dup2\n        /* \"#utility.yul\":13253:13273   */\n      sub\n        /* \"#utility.yul\":13249:13250   */\n      0x00\n        /* \"#utility.yul\":13238:13247   */\n      dup4\n        /* \"#utility.yul\":13234:13251   */\n      add\n        /* \"#utility.yul\":13227:13274   */\n      mstore\n        /* \"#utility.yul\":13291:13422   */\n      tag_293\n        /* \"#utility.yul\":13417:13421   */\n      dup2\n        /* \"#utility.yul\":13291:13422   */\n      tag_173\n      jump\t// in\n    tag_293:\n        /* \"#utility.yul\":13283:13422   */\n      swap1\n      pop\n        /* \"#utility.yul\":13010:13429   */\n      swap2\n      swap1\n      pop\n      jump\t// out\n        /* \"#utility.yul\":13435:13600   */\n    tag_174:\n        /* \"#utility.yul\":13575:13592   */\n      0x73656e64206d6f7265206d6f6e65790000000000000000000000000000000000\n        /* \"#utility.yul\":13571:13572   */\n      0x00\n        /* \"#utility.yul\":13563:13569   */\n      dup3\n        /* \"#utility.yul\":13559:13573   */\n      add\n        /* \"#utility.yul\":13552:13593   */\n      mstore\n        /* \"#utility.yul\":13435:13600   */\n      pop\n      jump\t// out\n        /* \"#utility.yul\":13606:13972   */\n    tag_175:\n        /* \"#utility.yul\":13748:13751   */\n      0x00\n        /* \"#utility.yul\":13769:13836   */\n      tag_296\n        /* \"#utility.yul\":13833:13835   */\n      0x0f\n        /* \"#utility.yul\":13828:13831   */\n      dup4\n        /* \"#utility.yul\":13769:13836   */\n      tag_153\n      jump\t// in\n    tag_296:\n        /* \"#utility.yul\":13762:13836   */\n      swap2\n      pop\n        /* \"#utility.yul\":13845:13938   */\n      tag_297\n        /* \"#utility.yul\":13934:13937   */\n      dup3\n        /* \"#utility.yul\":13845:13938   */\n      tag_174\n      jump\t// in\n    tag_297:\n        /* \"#utility.yul\":13963:13965   */\n      0x20\n        /* \"#utility.yul\":13958:13961   */\n      dup3\n        /* \"#utility.yul\":13954:13966   */\n      add\n        /* \"#utility.yul\":13947:13966   */\n      swap1\n      pop\n        /* \"#utility.yul\":13606:13972   */\n      swap2\n      swap1\n      pop\n      jump\t// out\n        /* \"#utility.yul\":13978:14397   */\n    tag_121:\n        /* \"#utility.yul\":14144:14148   */\n      0x00\n        /* \"#utility.yul\":14182:14184   */\n      0x20\n        /* \"#utility.yul\":14171:14180   */\n      dup3\n        /* \"#utility.yul\":14167:14185   */\n      add\n        /* \"#utility.yul\":14159:14185   */\n      swap1\n      pop\n        /* \"#utility.yul\":14231:14240   */\n      dup2\n        /* \"#utility.yul\":14225:14229   */\n      dup2\n        /* \"#utility.yul\":14221:14241   */\n      sub\n        /* \"#utility.yul\":14217:14218   */\n      0x00\n        /* \"#utility.yul\":14206:14215   */\n      dup4\n        /* \"#utility.yul\":14202:14219   */\n      add\n        /* \"#utility.yul\":14195:14242   */\n      mstore\n        /* \"#utility.yul\":14259:14390   */\n      tag_299\n        /* \"#utility.yul\":14385:14389   */\n      dup2\n        /* \"#utility.yul\":14259:14390   */\n      tag_175\n      jump\t// in\n    tag_299:\n        /* \"#utility.yul\":14251:14390   */\n      swap1\n      pop\n        /* \"#utility.yul\":13978:14397   */\n      swap2\n      swap1\n      pop\n      jump\t// out\n        /* \"#utility.yul\":14403:14508   */\n    tag_176:\n        /* \"#utility.yul\":14439:14446   */\n      0x00\n        /* \"#utility.yul\":14479:14501   */\n      0xffffffffffffffffffff\n        /* \"#utility.yul\":14472:14477   */\n      dup3\n        /* \"#utility.yul\":14468:14502   */\n      and\n        /* \"#utility.yul\":14457:14502   */\n      swap1\n      pop\n        /* \"#utility.yul\":14403:14508   */\n      swap2\n      swap1\n      pop\n      jump\t// out\n        /* \"#utility.yul\":14514:14634   */\n    tag_177:\n        /* \"#utility.yul\":14586:14609   */\n      tag_302\n        /* \"#utility.yul\":14603:14608   */\n      dup2\n        /* \"#utility.yul\":14586:14609   */\n      tag_176\n      jump\t// in\n    tag_302:\n        /* \"#utility.yul\":14579:14584   */\n      dup2\n        /* \"#utility.yul\":14576:14610   */\n      eq\n        /* \"#utility.yul\":14566:14628   */\n      tag_303\n      jumpi\n        /* \"#utility.yul\":14624:14625   */\n      0x00\n        /* \"#utility.yul\":14621:14622   */\n      dup1\n        /* \"#utility.yul\":14614:14626   */\n      revert\n        /* \"#utility.yul\":14566:14628   */\n    tag_303:\n        /* \"#utility.yul\":14514:14634   */\n      pop\n      jump\t// out\n        /* \"#utility.yul\":14640:14781   */\n    tag_178:\n        /* \"#utility.yul\":14696:14701   */\n      0x00\n        /* \"#utility.yul\":14727:14733   */\n      dup2\n        /* \"#utility.yul\":14721:14734   */\n      mload\n        /* \"#utility.yul\":14712:14734   */\n      swap1\n      pop\n        /* \"#utility.yul\":14743:14775   */\n      tag_305\n        /* \"#utility.yul\":14769:14774   */\n      dup2\n        /* \"#utility.yul\":14743:14775   */\n      tag_177\n      jump\t// in\n    tag_305:\n        /* \"#utility.yul\":14640:14781   */\n      swap3\n      swap2\n      pop\n      pop\n      jump\t// out\n        /* \"#utility.yul\":14787:14907   */\n    tag_179:\n        /* \"#utility.yul\":14859:14882   */\n      tag_307\n        /* \"#utility.yul\":14876:14881   */\n      dup2\n        /* \"#utility.yul\":14859:14882   */\n      tag_150\n      jump\t// in\n    tag_307:\n        /* \"#utility.yul\":14852:14857   */\n      dup2\n        /* \"#utility.yul\":14849:14883   */\n      eq\n        /* \"#utility.yul\":14839:14901   */\n      tag_308\n      jumpi\n        /* \"#utility.yul\":14897:14898   */\n      0x00\n        /* \"#utility.yul\":14894:14895   */\n      dup1\n        /* \"#utility.yul\":14887:14899   */\n      revert\n        /* \"#utility.yul\":14839:14901   */\n    tag_308:\n        /* \"#utility.yul\":14787:14907   */\n      pop\n      jump\t// out\n        /* \"#utility.yul\":14913:15054   */\n    tag_180:\n        /* \"#utility.yul\":14969:14974   */\n      0x00\n        /* \"#utility.yul\":15000:15006   */\n      dup2\n        /* \"#utility.yul\":14994:15007   */\n      mload\n        /* \"#utility.yul\":14985:15007   */\n      swap1\n      pop\n        /* \"#utility.yul\":15016:15048   */\n      tag_310\n        /* \"#utility.yul\":15042:15047   */\n      dup2\n        /* \"#utility.yul\":15016:15048   */\n      tag_179\n      jump\t// in\n    tag_310:\n        /* \"#utility.yul\":14913:15054   */\n      swap3\n      swap2\n      pop\n      pop\n      jump\t// out\n        /* \"#utility.yul\":15060:15203   */\n    tag_181:\n        /* \"#utility.yul\":15117:15122   */\n      0x00\n        /* \"#utility.yul\":15148:15154   */\n      dup2\n        /* \"#utility.yul\":15142:15155   */\n      mload\n        /* \"#utility.yul\":15133:15155   */\n      swap1\n      pop\n        /* \"#utility.yul\":15164:15197   */\n      tag_312\n        /* \"#utility.yul\":15191:15196   */\n      dup2\n        /* \"#utility.yul\":15164:15197   */\n      tag_147\n      jump\t// in\n    tag_312:\n        /* \"#utility.yul\":15060:15203   */\n      swap3\n      swap2\n      pop\n      pop\n      jump\t// out\n        /* \"#utility.yul\":15209:16180   */\n    tag_126:\n        /* \"#utility.yul\":15312:15318   */\n      0x00\n        /* \"#utility.yul\":15320:15326   */\n      dup1\n        /* \"#utility.yul\":15328:15334   */\n      0x00\n        /* \"#utility.yul\":15336:15342   */\n      dup1\n        /* \"#utility.yul\":15344:15350   */\n      0x00\n        /* \"#utility.yul\":15393:15396   */\n      0xa0\n        /* \"#utility.yul\":15381:15390   */\n      dup7\n        /* \"#utility.yul\":15372:15379   */\n      dup9\n        /* \"#utility.yul\":15368:15391   */\n      sub\n        /* \"#utility.yul\":15364:15397   */\n      slt\n        /* \"#utility.yul\":15361:15481   */\n      iszero\n      tag_314\n      jumpi\n        /* \"#utility.yul\":15400:15479   */\n      tag_315\n      tag_138\n      jump\t// in\n    tag_315:\n        /* \"#utility.yul\":15361:15481   */\n    tag_314:\n        /* \"#utility.yul\":15520:15521   */\n      0x00\n        /* \"#utility.yul\":15545:15608   */\n      tag_316\n        /* \"#utility.yul\":15600:15607   */\n      dup9\n        /* \"#utility.yul\":15591:15597   */\n      dup3\n        /* \"#utility.yul\":15580:15589   */\n      dup10\n        /* \"#utility.yul\":15576:15598   */\n      add\n        /* \"#utility.yul\":15545:15608   */\n      tag_178\n      jump\t// in\n    tag_316:\n        /* \"#utility.yul\":15535:15608   */\n      swap6\n      pop\n        /* \"#utility.yul\":15491:15618   */\n      pop\n        /* \"#utility.yul\":15657:15659   */\n      0x20\n        /* \"#utility.yul\":15683:15746   */\n      tag_317\n        /* \"#utility.yul\":15738:15745   */\n      dup9\n        /* \"#utility.yul\":15729:15735   */\n      dup3\n        /* \"#utility.yul\":15718:15727   */\n      dup10\n        /* \"#utility.yul\":15714:15736   */\n      add\n        /* \"#utility.yul\":15683:15746   */\n      tag_180\n      jump\t// in\n    tag_317:\n        /* \"#utility.yul\":15673:15746   */\n      swap5\n      pop\n        /* \"#utility.yul\":15628:15756   */\n      pop\n        /* \"#utility.yul\":15795:15797   */\n      0x40\n        /* \"#utility.yul\":15821:15885   */\n      tag_318\n        /* \"#utility.yul\":15877:15884   */\n      dup9\n        /* \"#utility.yul\":15868:15874   */\n      dup3\n        /* \"#utility.yul\":15857:15866   */\n      dup10\n        /* \"#utility.yul\":15853:15875   */\n      add\n        /* \"#utility.yul\":15821:15885   */\n      tag_181\n      jump\t// in\n    tag_318:\n        /* \"#utility.yul\":15811:15885   */\n      swap4\n      pop\n        /* \"#utility.yul\":15766:15895   */\n      pop\n        /* \"#utility.yul\":15934:15936   */\n      0x60\n        /* \"#utility.yul\":15960:16024   */\n      tag_319\n        /* \"#utility.yul\":16016:16023   */\n      dup9\n        /* \"#utility.yul\":16007:16013   */\n      dup3\n        /* \"#utility.yul\":15996:16005   */\n      dup10\n        /* \"#utility.yul\":15992:16014   */\n      add\n        /* \"#utility.yul\":15960:16024   */\n      tag_181\n      jump\t// in\n    tag_319:\n        /* \"#utility.yul\":15950:16024   */\n      swap3\n      pop\n        /* \"#utility.yul\":15905:16034   */\n      pop\n        /* \"#utility.yul\":16073:16076   */\n      0x80\n        /* \"#utility.yul\":16100:16163   */\n      tag_320\n        /* \"#utility.yul\":16155:16162   */\n      dup9\n        /* \"#utility.yul\":16146:16152   */\n      dup3\n        /* \"#utility.yul\":16135:16144   */\n      dup10\n        /* \"#utility.yul\":16131:16153   */\n      add\n        /* \"#utility.yul\":16100:16163   */\n      tag_178\n      jump\t// in\n    tag_320:\n        /* \"#utility.yul\":16090:16163   */\n      swap2\n      pop\n        /* \"#utility.yul\":16044:16173   */\n      pop\n        /* \"#utility.yul\":15209:16180   */\n      swap3\n      swap6\n      pop\n      swap3\n      swap6\n      swap1\n      swap4\n      pop\n      jump\t// out\n        /* \"#utility.yul\":16186:16596   */\n    tag_130:\n        /* \"#utility.yul\":16226:16233   */\n      0x00\n        /* \"#utility.yul\":16249:16269   */\n      tag_322\n        /* \"#utility.yul\":16267:16268   */\n      dup3\n        /* \"#utility.yul\":16249:16269   */\n      tag_146\n      jump\t// in\n    tag_322:\n        /* \"#utility.yul\":16244:16269   */\n      swap2\n      pop\n        /* \"#utility.yul\":16283:16303   */\n      tag_323\n        /* \"#utility.yul\":16301:16302   */\n      dup4\n        /* \"#utility.yul\":16283:16303   */\n      tag_146\n      jump\t// in\n    tag_323:\n        /* \"#utility.yul\":16278:16303   */\n      swap3\n      pop\n        /* \"#utility.yul\":16338:16339   */\n      dup3\n        /* \"#utility.yul\":16335:16336   */\n      dup3\n        /* \"#utility.yul\":16331:16340   */\n      mul\n        /* \"#utility.yul\":16360:16390   */\n      tag_324\n        /* \"#utility.yul\":16378:16389   */\n      dup2\n        /* \"#utility.yul\":16360:16390   */\n      tag_146\n      jump\t// in\n    tag_324:\n        /* \"#utility.yul\":16349:16390   */\n      swap2\n      pop\n        /* \"#utility.yul\":16539:16540   */\n      dup3\n        /* \"#utility.yul\":16530:16537   */\n      dup3\n        /* \"#utility.yul\":16526:16541   */\n      div\n        /* \"#utility.yul\":16523:16524   */\n      dup5\n        /* \"#utility.yul\":16520:16542   */\n      eq\n        /* \"#utility.yul\":16500:16501   */\n      dup4\n        /* \"#utility.yul\":16493:16502   */\n      iszero\n        /* \"#utility.yul\":16473:16556   */\n      or\n        /* \"#utility.yul\":16450:16589   */\n      tag_325\n      jumpi\n        /* \"#utility.yul\":16569:16587   */\n      tag_326\n      tag_156\n      jump\t// in\n    tag_326:\n        /* \"#utility.yul\":16450:16589   */\n    tag_325:\n        /* \"#utility.yul\":16234:16596   */\n      pop\n        /* \"#utility.yul\":16186:16596   */\n      swap3\n      swap2\n      pop\n      pop\n      jump\t// out\n        /* \"#utility.yul\":16602:16782   */\n    tag_182:\n        /* \"#utility.yul\":16650:16727   */\n      0x4e487b7100000000000000000000000000000000000000000000000000000000\n        /* \"#utility.yul\":16647:16648   */\n      0x00\n        /* \"#utility.yul\":16640:16728   */\n      mstore\n        /* \"#utility.yul\":16747:16751   */\n      0x12\n        /* \"#utility.yul\":16744:16745   */\n      0x04\n        /* \"#utility.yul\":16737:16752   */\n      mstore\n        /* \"#utility.yul\":16771:16775   */\n      0x24\n        /* \"#utility.yul\":16768:16769   */\n      0x00\n        /* \"#utility.yul\":16761:16776   */\n      revert\n        /* \"#utility.yul\":16788:16973   */\n    tag_132:\n        /* \"#utility.yul\":16828:16829   */\n      0x00\n        /* \"#utility.yul\":16845:16865   */\n      tag_329\n        /* \"#utility.yul\":16863:16864   */\n      dup3\n        /* \"#utility.yul\":16845:16865   */\n      tag_146\n      jump\t// in\n    tag_329:\n        /* \"#utility.yul\":16840:16865   */\n      swap2\n      pop\n        /* \"#utility.yul\":16879:16899   */\n      tag_330\n        /* \"#utility.yul\":16897:16898   */\n      dup4\n        /* \"#utility.yul\":16879:16899   */\n      tag_146\n      jump\t// in\n    tag_330:\n        /* \"#utility.yul\":16874:16899   */\n      swap3\n      pop\n        /* \"#utility.yul\":16918:16919   */\n      dup3\n        /* \"#utility.yul\":16908:16943   */\n      tag_331\n      jumpi\n        /* \"#utility.yul\":16923:16941   */\n      tag_332\n      tag_182\n      jump\t// in\n    tag_332:\n        /* \"#utility.yul\":16908:16943   */\n    tag_331:\n        /* \"#utility.yul\":16965:16966   */\n      dup3\n        /* \"#utility.yul\":16962:16963   */\n      dup3\n        /* \"#utility.yul\":16958:16967   */\n      div\n        /* \"#utility.yul\":16953:16967   */\n      swap1\n      pop\n        /* \"#utility.yul\":16788:16973   */\n      swap3\n      swap2\n      pop\n      pop\n      jump\t// out\n\n    auxdata: 0xa264697066735822122086d47ad47b6b695ceb1ee985e88445038e290ce0240b2c4371db4540b3022d5464736f6c634300081a0033\n}\n",
				"bytecode": {
					"linkReferences": {},
					"object": "60806040525f600560146101000a81548160ff021916908315150217905550348015610029575f80fd5b506040516114ee3803806114ee833981810160405281019061004b919061012a565b3360015f6101000a81548173ffffffffffffffffffffffffffffffffffffffff021916908373ffffffffffffffffffffffffffffffffffffffff16021790555073694aa1769357215de4fac081bf1f309adc32530660025f6101000a81548173ffffffffffffffffffffffffffffffffffffffff021916908373ffffffffffffffffffffffffffffffffffffffff160217905550426003819055508060048190555050610155565b5f80fd5b5f819050919050565b610109816100f7565b8114610113575f80fd5b50565b5f8151905061012481610100565b92915050565b5f6020828403121561013f5761013e6100f3565b5b5f61014c84828501610116565b91505092915050565b61138c806101625f395ff3fe6080604052600436106100a6575f3560e01c8063b60d428811610063578063b60d42881461017a578063bea4dfb514610184578063c086381e146101ae578063cc1f2afa146101ea578063e2ae93fb14610214578063f2fde38b14610250576100a6565b806313ffff01146100aa578063590e1ae3146100d257806379433761146100e85780637fe47e1a146101125780638da5cb5b1461013a5780638edd6eb614610164575b5f80fd5b3480156100b5575f80fd5b506100d060048036038101906100cb9190610ba4565b610278565b005b3480156100dd575f80fd5b506100e661034a565b005b3480156100f3575f80fd5b506100fc610556565b6040516101099190610be9565b60405180910390f35b34801561011d575f80fd5b5061013860048036038101906101339190610c35565b610569565b005b348015610145575f80fd5b5061014e61063d565b60405161015b9190610c82565b60405180910390f35b34801561016f575f80fd5b50610178610662565b005b61018261089f565b005b34801561018f575f80fd5b50610198610987565b6040516101a59190610cb3565b60405180910390f35b3480156101b9575f80fd5b506101d460048036038101906101cf9190610ccc565b610a24565b6040516101e19190610d06565b60405180910390f35b3480156101f5575f80fd5b506101fe610a53565b60405161020b9190610d06565b60405180910390f35b34801561021f575f80fd5b5061023a60048036038101906102359190610ba4565b610a60565b6040516102479190610d06565b60405180910390f35b34801561025b575f80fd5b5061027660048036038101906102719190610ba4565b610a74565b005b60015f9054906101000a900473ffffffffffffffffffffffffffffffffffffffff1673ffffffffffffffffffffffffffffffffffffffff163373ffffffffffffffffffffffffffffffffffffffff1614610307576040517f08c379a00000000000000000000000000000000000000000000000000000000081526004016102fe90610d9f565b60405180910390fd5b8060055f6101000a81548173ffffffffffffffffffffffffffffffffffffffff021916908373ffffffffffffffffffffffffffffffffffffffff16021790555050565b60045460035461035a9190610dea565b421161039b576040517f08c379a000000000000000000000000000000000000000000000000000000000815260040161039290610e67565b60405180910390fd5b683635c9adc5dea000006103ae47610a24565b106103ee576040517f08c379a00000000000000000000000000000000000000000000000000000000081526004016103e590610ecf565b60405180910390fd5b5f805f3373ffffffffffffffffffffffffffffffffffffffff1673ffffffffffffffffffffffffffffffffffffffff1681526020019081526020015f20540361046c576040517f08c379a000000000000000000000000000000000000000000000000000000000815260040161046390610f37565b60405180910390fd5b5f3373ffffffffffffffffffffffffffffffffffffffff165f803373ffffffffffffffffffffffffffffffffffffffff1673ffffffffffffffffffffffffffffffffffffffff1681526020019081526020015f20546040516104cd90610f82565b5f6040518083038185875af1925050503d805f8114610507576040519150601f19603f3d011682016040523d82523d5f602084013e61050c565b606091505b5050809150505f805f3373ffffffffffffffffffffffffffffffffffffffff1673ffffffffffffffffffffffffffffffffffffffff1681526020019081526020015f208190555050565b600560149054906101000a900460ff1681565b60055f9054906101000a900473ffffffffffffffffffffffffffffffffffffffff1673ffffffffffffffffffffffffffffffffffffffff163373ffffffffffffffffffffffffffffffffffffffff16146105f8576040517f08c379a00000000000000000000000000000000000000000000000000000000081526004016105ef90611006565b60405180910390fd5b805f808473ffffffffffffffffffffffffffffffffffffffff1673ffffffffffffffffffffffffffffffffffffffff1681526020019081526020015f20819055505050565b60015f9054906101000a900473ffffffffffffffffffffffffffffffffffffffff1681565b60015f9054906101000a900473ffffffffffffffffffffffffffffffffffffffff1673ffffffffffffffffffffffffffffffffffffffff163373ffffffffffffffffffffffffffffffffffffffff16146106f1576040517f08c379a00000000000000000000000000000000000000000000000000000000081526004016106e890610d9f565b60405180910390fd5b6004546003546107019190610dea565b4211610742576040517f08c379a000000000000000000000000000000000000000000000000000000000815260040161073990610e67565b60405180910390fd5b683635c9adc5dea0000061075547610a24565b1015610796576040517f08c379a000000000000000000000000000000000000000000000000000000000815260040161078d9061106e565b60405180910390fd5b5f3373ffffffffffffffffffffffffffffffffffffffff16476040516107bb90610f82565b5f6040518083038185875af1925050503d805f81146107f5576040519150601f19603f3d011682016040523d82523d5f602084013e6107fa565b606091505b50508091505080610840576040517f08c379a0000000000000000000000000000000000000000000000000000000008152600401610837906110d6565b60405180910390fd5b5f805f3373ffffffffffffffffffffffffffffffffffffffff1673ffffffffffffffffffffffffffffffffffffffff1681526020019081526020015f20819055506001600560146101000a81548160ff02191690831515021790555050565b6004546003546108af9190610dea565b42106108f0576040517f08c379a00000000000000000000000000000000000000000000000000000000081526004016108e79061113e565b60405180910390fd5b68056bc75e2d6310000061090334610a24565b1015610944576040517f08c379a000000000000000000000000000000000000000000000000000000000815260040161093b906111a6565b60405180910390fd5b345f803373ffffffffffffffffffffffffffffffffffffffff1673ffffffffffffffffffffffffffffffffffffffff1681526020019081526020015f2081905550565b5f8060025f9054906101000a900473ffffffffffffffffffffffffffffffffffffffff1673ffffffffffffffffffffffffffffffffffffffff1663feaf968c6040518163ffffffff1660e01b815260040160a060405180830381865afa1580156109f3573d5f803e3d5ffd5b505050506040513d601f19601f82011682018060405250810190610a179190611241565b5050509150508091505090565b5f80610a2e610987565b90506305f5e1008184610a4191906112b8565b610a4b9190611326565b915050919050565b683635c9adc5dea0000081565b5f602052805f5260405f205f915090505481565b60015f9054906101000a900473ffffffffffffffffffffffffffffffffffffffff1673ffffffffffffffffffffffffffffffffffffffff163373ffffffffffffffffffffffffffffffffffffffff1614610b03576040517f08c379a0000000000000000000000000000000000000000000000000000000008152600401610afa90610d9f565b60405180910390fd5b8060015f6101000a81548173ffffffffffffffffffffffffffffffffffffffff021916908373ffffffffffffffffffffffffffffffffffffffff16021790555050565b5f80fd5b5f73ffffffffffffffffffffffffffffffffffffffff82169050919050565b5f610b7382610b4a565b9050919050565b610b8381610b69565b8114610b8d575f80fd5b50565b5f81359050610b9e81610b7a565b92915050565b5f60208284031215610bb957610bb8610b46565b5b5f610bc684828501610b90565b91505092915050565b5f8115159050919050565b610be381610bcf565b82525050565b5f602082019050610bfc5f830184610bda565b92915050565b5f819050919050565b610c1481610c02565b8114610c1e575f80fd5b50565b5f81359050610c2f81610c0b565b92915050565b5f8060408385031215610c4b57610c4a610b46565b5b5f610c5885828601610b90565b9250506020610c6985828601610c21565b9150509250929050565b610c7c81610b69565b82525050565b5f602082019050610c955f830184610c73565b92915050565b5f819050919050565b610cad81610c9b565b82525050565b5f602082019050610cc65f830184610ca4565b92915050565b5f60208284031215610ce157610ce0610b46565b5b5f610cee84828501610c21565b91505092915050565b610d0081610c02565b82525050565b5f602082019050610d195f830184610cf7565b92915050565b5f82825260208201905092915050565b7f746869732066756e6374696f6e2063616e206f6e6c792062652063616c6c65645f8201527f20627920746865206f776e657200000000000000000000000000000000000000602082015250565b5f610d89602d83610d1f565b9150610d9482610d2f565b604082019050919050565b5f6020820190508181035f830152610db681610d7d565b9050919050565b7f4e487b71000000000000000000000000000000000000000000000000000000005f52601160045260245ffd5b5f610df482610c02565b9150610dff83610c02565b9250828201905080821115610e1757610e16610dbd565b5b92915050565b7f49742773206e6f742065787472616374696f6e2074696d6520796574000000005f82015250565b5f610e51601c83610d1f565b9150610e5c82610e1d565b602082019050919050565b5f6020820190508181035f830152610e7e81610e45565b9050919050565b7f54617267657420697320726561636865640000000000000000000000000000005f82015250565b5f610eb9601183610d1f565b9150610ec482610e85565b602082019050919050565b5f6020820190508181035f830152610ee681610ead565b9050919050565b7f7468657265206973206e6f2066756e6420746f207061796261636b00000000005f82015250565b5f610f21601b83610d1f565b9150610f2c82610eed565b602082019050919050565b5f6020820190508181035f830152610f4e81610f15565b9050919050565b5f81905092915050565b50565b5f610f6d5f83610f55565b9150610f7882610f5f565b5f82019050919050565b5f610f8c82610f62565b9150819050919050565b7f796f7520646f206e6f742068617665207065726d697373696f6e20746f2063615f8201527f6c6c20746869732066756e6374696f6e00000000000000000000000000000000602082015250565b5f610ff0603083610d1f565b9150610ffb82610f96565b604082019050919050565b5f6020820190508181035f83015261101d81610fe4565b9050919050565b7f546172676574206973206e6f74207265616368656400000000000000000000005f82015250565b5f611058601583610d1f565b915061106382611024565b602082019050919050565b5f6020820190508181035f8301526110858161104c565b9050919050565b7f7478206661696c656400000000000000000000000000000000000000000000005f82015250565b5f6110c0600983610d1f565b91506110cb8261108c565b602082019050919050565b5f6020820190508181035f8301526110ed816110b4565b9050919050565b7f5468652066756e6420697320636c6f73656400000000000000000000000000005f82015250565b5f611128601283610d1f565b9150611133826110f4565b602082019050919050565b5f6020820190508181035f8301526111558161111c565b9050919050565b7f73656e64206d6f7265206d6f6e657900000000000000000000000000000000005f82015250565b5f611190600f83610d1f565b915061119b8261115c565b602082019050919050565b5f6020820190508181035f8301526111bd81611184565b9050919050565b5f69ffffffffffffffffffff82169050919050565b6111e2816111c4565b81146111ec575f80fd5b50565b5f815190506111fd816111d9565b92915050565b61120c81610c9b565b8114611216575f80fd5b50565b5f8151905061122781611203565b92915050565b5f8151905061123b81610c0b565b92915050565b5f805f805f60a0868803121561125a57611259610b46565b5b5f611267888289016111ef565b955050602061127888828901611219565b94505060406112898882890161122d565b935050606061129a8882890161122d565b92505060806112ab888289016111ef565b9150509295509295909350565b5f6112c282610c02565b91506112cd83610c02565b92508282026112db81610c02565b915082820484148315176112f2576112f1610dbd565b5b5092915050565b7f4e487b71000000000000000000000000000000000000000000000000000000005f52601260045260245ffd5b5f61133082610c02565b915061133b83610c02565b92508261134b5761134a6112f9565b5b82820490509291505056fea264697066735822122086d47ad47b6b695ceb1ee985e88445038e290ce0240b2c4371db4540b3022d5464736f6c634300081a0033",
					"opcodes": "PUSH1 0x80 PUSH1 0x40 MSTORE PUSH0 PUSH1 0x5 PUSH1 0x14 PUSH2 0x100 EXP DUP2 SLOAD DUP2 PUSH1 0xFF MUL NOT AND SWAP1 DUP4 ISZERO ISZERO MUL OR SWAP1 SSTORE POP CALLVALUE DUP1 ISZERO PUSH2 0x29 JUMPI PUSH0 DUP1 REVERT JUMPDEST POP PUSH1 0x40 MLOAD PUSH2 0x14EE CODESIZE SUB DUP1 PUSH2 0x14EE DUP4 CODECOPY DUP2 DUP2 ADD PUSH1 0x40 MSTORE DUP2 ADD SWAP1 PUSH2 0x4B SWAP2 SWAP1 PUSH2 0x12A JUMP JUMPDEST CALLER PUSH1 0x1 PUSH0 PUSH2 0x100 EXP DUP2 SLOAD DUP2 PUSH20 0xFFFFFFFFFFFFFFFFFFFFFFFFFFFFFFFFFFFFFFFF MUL NOT AND SWAP1 DUP4 PUSH20 0xFFFFFFFFFFFFFFFFFFFFFFFFFFFFFFFFFFFFFFFF AND MUL OR SWAP1 SSTORE POP PUSH20 0x694AA1769357215DE4FAC081BF1F309ADC325306 PUSH1 0x2 PUSH0 PUSH2 0x100 EXP DUP2 SLOAD DUP2 PUSH20 0xFFFFFFFFFFFFFFFFFFFFFFFFFFFFFFFFFFFFFFFF MUL NOT AND SWAP1 DUP4 PUSH20 0xFFFFFFFFFFFFFFFFFFFFFFFFFFFFFFFFFFFFFFFF AND MUL OR SWAP1 SSTORE POP TIMESTAMP PUSH1 0x3 DUP2 SWAP1 SSTORE POP DUP1 PUSH1 0x4 DUP2 SWAP1 SSTORE POP POP PUSH2 0x155 JUMP JUMPDEST PUSH0 DUP1 REVERT JUMPDEST PUSH0 DUP2 SWAP1 POP SWAP2 SWAP1 POP JUMP JUMPDEST PUSH2 0x109 DUP2 PUSH2 0xF7 JUMP JUMPDEST DUP2 EQ PUSH2 0x113 JUMPI PUSH0 DUP1 REVERT JUMPDEST POP JUMP JUMPDEST PUSH0 DUP2 MLOAD SWAP1 POP PUSH2 0x124 DUP2 PUSH2 0x100 JUMP JUMPDEST SWAP3 SWAP2 POP POP JUMP JUMPDEST PUSH0 PUSH1 0x20 DUP3 DUP5 SUB SLT ISZERO PUSH2 0x13F JUMPI PUSH2 0x13E PUSH2 0xF3 JUMP JUMPDEST JUMPDEST PUSH0 PUSH2 0x14C DUP5 DUP3 DUP6 ADD PUSH2 0x116 JUMP JUMPDEST SWAP2 POP POP SWAP3 SWAP2 POP POP JUMP JUMPDEST PUSH2 0x138C DUP1 PUSH2 0x162 PUSH0 CODECOPY PUSH0 RETURN INVALID PUSH1 0x80 PUSH1 0x40 MSTORE PUSH1 0x4 CALLDATASIZE LT PUSH2 0xA6 JUMPI PUSH0 CALLDATALOAD PUSH1 0xE0 SHR DUP1 PUSH4 0xB60D4288 GT PUSH2 0x63 JUMPI DUP1 PUSH4 0xB60D4288 EQ PUSH2 0x17A JUMPI DUP1 PUSH4 0xBEA4DFB5 EQ PUSH2 0x184 JUMPI DUP1 PUSH4 0xC086381E EQ PUSH2 0x1AE JUMPI DUP1 PUSH4 0xCC1F2AFA EQ PUSH2 0x1EA JUMPI DUP1 PUSH4 0xE2AE93FB EQ PUSH2 0x214 JUMPI DUP1 PUSH4 0xF2FDE38B EQ PUSH2 0x250 JUMPI PUSH2 0xA6 JUMP JUMPDEST DUP1 PUSH4 0x13FFFF01 EQ PUSH2 0xAA JUMPI DUP1 PUSH4 0x590E1AE3 EQ PUSH2 0xD2 JUMPI DUP1 PUSH4 0x79433761 EQ PUSH2 0xE8 JUMPI DUP1 PUSH4 0x7FE47E1A EQ PUSH2 0x112 JUMPI DUP1 PUSH4 0x8DA5CB5B EQ PUSH2 0x13A JUMPI DUP1 PUSH4 0x8EDD6EB6 EQ PUSH2 0x164 JUMPI JUMPDEST PUSH0 DUP1 REVERT JUMPDEST CALLVALUE DUP1 ISZERO PUSH2 0xB5 JUMPI PUSH0 DUP1 REVERT JUMPDEST POP PUSH2 0xD0 PUSH1 0x4 DUP1 CALLDATASIZE SUB DUP2 ADD SWAP1 PUSH2 0xCB SWAP2 SWAP1 PUSH2 0xBA4 JUMP JUMPDEST PUSH2 0x278 JUMP JUMPDEST STOP JUMPDEST CALLVALUE DUP1 ISZERO PUSH2 0xDD JUMPI PUSH0 DUP1 REVERT JUMPDEST POP PUSH2 0xE6 PUSH2 0x34A JUMP JUMPDEST STOP JUMPDEST CALLVALUE DUP1 ISZERO PUSH2 0xF3 JUMPI PUSH0 DUP1 REVERT JUMPDEST POP PUSH2 0xFC PUSH2 0x556 JUMP JUMPDEST PUSH1 0x40 MLOAD PUSH2 0x109 SWAP2 SWAP1 PUSH2 0xBE9 JUMP JUMPDEST PUSH1 0x40 MLOAD DUP1 SWAP2 SUB SWAP1 RETURN JUMPDEST CALLVALUE DUP1 ISZERO PUSH2 0x11D JUMPI PUSH0 DUP1 REVERT JUMPDEST POP PUSH2 0x138 PUSH1 0x4 DUP1 CALLDATASIZE SUB DUP2 ADD SWAP1 PUSH2 0x133 SWAP2 SWAP1 PUSH2 0xC35 JUMP JUMPDEST PUSH2 0x569 JUMP JUMPDEST STOP JUMPDEST CALLVALUE DUP1 ISZERO PUSH2 0x145 JUMPI PUSH0 DUP1 REVERT JUMPDEST POP PUSH2 0x14E PUSH2 0x63D JUMP JUMPDEST PUSH1 0x40 MLOAD PUSH2 0x15B SWAP2 SWAP1 PUSH2 0xC82 JUMP JUMPDEST PUSH1 0x40 MLOAD DUP1 SWAP2 SUB SWAP1 RETURN JUMPDEST CALLVALUE DUP1 ISZERO PUSH2 0x16F JUMPI PUSH0 DUP1 REVERT JUMPDEST POP PUSH2 0x178 PUSH2 0x662 JUMP JUMPDEST STOP JUMPDEST PUSH2 0x182 PUSH2 0x89F JUMP JUMPDEST STOP JUMPDEST CALLVALUE DUP1 ISZERO PUSH2 0x18F JUMPI PUSH0 DUP1 REVERT JUMPDEST POP PUSH2 0x198 PUSH2 0x987 JUMP JUMPDEST PUSH1 0x40 MLOAD PUSH2 0x1A5 SWAP2 SWAP1 PUSH2 0xCB3 JUMP JUMPDEST PUSH1 0x40 MLOAD DUP1 SWAP2 SUB SWAP1 RETURN JUMPDEST CALLVALUE DUP1 ISZERO PUSH2 0x1B9 JUMPI PUSH0 DUP1 REVERT JUMPDEST POP PUSH2 0x1D4 PUSH1 0x4 DUP1 CALLDATASIZE SUB DUP2 ADD SWAP1 PUSH2 0x1CF SWAP2 SWAP1 PUSH2 0xCCC JUMP JUMPDEST PUSH2 0xA24 JUMP JUMPDEST PUSH1 0x40 MLOAD PUSH2 0x1E1 SWAP2 SWAP1 PUSH2 0xD06 JUMP JUMPDEST PUSH1 0x40 MLOAD DUP1 SWAP2 SUB SWAP1 RETURN JUMPDEST CALLVALUE DUP1 ISZERO PUSH2 0x1F5 JUMPI PUSH0 DUP1 REVERT JUMPDEST POP PUSH2 0x1FE PUSH2 0xA53 JUMP JUMPDEST PUSH1 0x40 MLOAD PUSH2 0x20B SWAP2 SWAP1 PUSH2 0xD06 JUMP JUMPDEST PUSH1 0x40 MLOAD DUP1 SWAP2 SUB SWAP1 RETURN JUMPDEST CALLVALUE DUP1 ISZERO PUSH2 0x21F JUMPI PUSH0 DUP1 REVERT JUMPDEST POP PUSH2 0x23A PUSH1 0x4 DUP1 CALLDATASIZE SUB DUP2 ADD SWAP1 PUSH2 0x235 SWAP2 SWAP1 PUSH2 0xBA4 JUMP JUMPDEST PUSH2 0xA60 JUMP JUMPDEST PUSH1 0x40 MLOAD PUSH2 0x247 SWAP2 SWAP1 PUSH2 0xD06 JUMP JUMPDEST PUSH1 0x40 MLOAD DUP1 SWAP2 SUB SWAP1 RETURN JUMPDEST CALLVALUE DUP1 ISZERO PUSH2 0x25B JUMPI PUSH0 DUP1 REVERT JUMPDEST POP PUSH2 0x276 PUSH1 0x4 DUP1 CALLDATASIZE SUB DUP2 ADD SWAP1 PUSH2 0x271 SWAP2 SWAP1 PUSH2 0xBA4 JUMP JUMPDEST PUSH2 0xA74 JUMP JUMPDEST STOP JUMPDEST PUSH1 0x1 PUSH0 SWAP1 SLOAD SWAP1 PUSH2 0x100 EXP SWAP1 DIV PUSH20 0xFFFFFFFFFFFFFFFFFFFFFFFFFFFFFFFFFFFFFFFF AND PUSH20 0xFFFFFFFFFFFFFFFFFFFFFFFFFFFFFFFFFFFFFFFF AND CALLER PUSH20 0xFFFFFFFFFFFFFFFFFFFFFFFFFFFFFFFFFFFFFFFF AND EQ PUSH2 0x307 JUMPI PUSH1 0x40 MLOAD PUSH32 0x8C379A000000000000000000000000000000000000000000000000000000000 DUP2 MSTORE PUSH1 0x4 ADD PUSH2 0x2FE SWAP1 PUSH2 0xD9F JUMP JUMPDEST PUSH1 0x40 MLOAD DUP1 SWAP2 SUB SWAP1 REVERT JUMPDEST DUP1 PUSH1 0x5 PUSH0 PUSH2 0x100 EXP DUP2 SLOAD DUP2 PUSH20 0xFFFFFFFFFFFFFFFFFFFFFFFFFFFFFFFFFFFFFFFF MUL NOT AND SWAP1 DUP4 PUSH20 0xFFFFFFFFFFFFFFFFFFFFFFFFFFFFFFFFFFFFFFFF AND MUL OR SWAP1 SSTORE POP POP JUMP JUMPDEST PUSH1 0x4 SLOAD PUSH1 0x3 SLOAD PUSH2 0x35A SWAP2 SWAP1 PUSH2 0xDEA JUMP JUMPDEST TIMESTAMP GT PUSH2 0x39B JUMPI PUSH1 0x40 MLOAD PUSH32 0x8C379A000000000000000000000000000000000000000000000000000000000 DUP2 MSTORE PUSH1 0x4 ADD PUSH2 0x392 SWAP1 PUSH2 0xE67 JUMP JUMPDEST PUSH1 0x40 MLOAD DUP1 SWAP2 SUB SWAP1 REVERT JUMPDEST PUSH9 0x3635C9ADC5DEA00000 PUSH2 0x3AE SELFBALANCE PUSH2 0xA24 JUMP JUMPDEST LT PUSH2 0x3EE JUMPI PUSH1 0x40 MLOAD PUSH32 0x8C379A000000000000000000000000000000000000000000000000000000000 DUP2 MSTORE PUSH1 0x4 ADD PUSH2 0x3E5 SWAP1 PUSH2 0xECF JUMP JUMPDEST PUSH1 0x40 MLOAD DUP1 SWAP2 SUB SWAP1 REVERT JUMPDEST PUSH0 DUP1 PUSH0 CALLER PUSH20 0xFFFFFFFFFFFFFFFFFFFFFFFFFFFFFFFFFFFFFFFF AND PUSH20 0xFFFFFFFFFFFFFFFFFFFFFFFFFFFFFFFFFFFFFFFF AND DUP2 MSTORE PUSH1 0x20 ADD SWAP1 DUP2 MSTORE PUSH1 0x20 ADD PUSH0 KECCAK256 SLOAD SUB PUSH2 0x46C JUMPI PUSH1 0x40 MLOAD PUSH32 0x8C379A000000000000000000000000000000000000000000000000000000000 DUP2 MSTORE PUSH1 0x4 ADD PUSH2 0x463 SWAP1 PUSH2 0xF37 JUMP JUMPDEST PUSH1 0x40 MLOAD DUP1 SWAP2 SUB SWAP1 REVERT JUMPDEST PUSH0 CALLER PUSH20 0xFFFFFFFFFFFFFFFFFFFFFFFFFFFFFFFFFFFFFFFF AND PUSH0 DUP1 CALLER PUSH20 0xFFFFFFFFFFFFFFFFFFFFFFFFFFFFFFFFFFFFFFFF AND PUSH20 0xFFFFFFFFFFFFFFFFFFFFFFFFFFFFFFFFFFFFFFFF AND DUP2 MSTORE PUSH1 0x20 ADD SWAP1 DUP2 MSTORE PUSH1 0x20 ADD PUSH0 KECCAK256 SLOAD PUSH1 0x40 MLOAD PUSH2 0x4CD SWAP1 PUSH2 0xF82 JUMP JUMPDEST PUSH0 PUSH1 0x40 MLOAD DUP1 DUP4 SUB DUP2 DUP6 DUP8 GAS CALL SWAP3 POP POP POP RETURNDATASIZE DUP1 PUSH0 DUP2 EQ PUSH2 0x507 JUMPI PUSH1 0x40 MLOAD SWAP2 POP PUSH1 0x1F NOT PUSH1 0x3F RETURNDATASIZE ADD AND DUP3 ADD PUSH1 0x40 MSTORE RETURNDATASIZE DUP3 MSTORE RETURNDATASIZE PUSH0 PUSH1 0x20 DUP5 ADD RETURNDATACOPY PUSH2 0x50C JUMP JUMPDEST PUSH1 0x60 SWAP2 POP JUMPDEST POP POP DUP1 SWAP2 POP POP PUSH0 DUP1 PUSH0 CALLER PUSH20 0xFFFFFFFFFFFFFFFFFFFFFFFFFFFFFFFFFFFFFFFF AND PUSH20 0xFFFFFFFFFFFFFFFFFFFFFFFFFFFFFFFFFFFFFFFF AND DUP2 MSTORE PUSH1 0x20 ADD SWAP1 DUP2 MSTORE PUSH1 0x20 ADD PUSH0 KECCAK256 DUP2 SWAP1 SSTORE POP POP JUMP JUMPDEST PUSH1 0x5 PUSH1 0x14 SWAP1 SLOAD SWAP1 PUSH2 0x100 EXP SWAP1 DIV PUSH1 0xFF AND DUP2 JUMP JUMPDEST PUSH1 0x5 PUSH0 SWAP1 SLOAD SWAP1 PUSH2 0x100 EXP SWAP1 DIV PUSH20 0xFFFFFFFFFFFFFFFFFFFFFFFFFFFFFFFFFFFFFFFF AND PUSH20 0xFFFFFFFFFFFFFFFFFFFFFFFFFFFFFFFFFFFFFFFF AND CALLER PUSH20 0xFFFFFFFFFFFFFFFFFFFFFFFFFFFFFFFFFFFFFFFF AND EQ PUSH2 0x5F8 JUMPI PUSH1 0x40 MLOAD PUSH32 0x8C379A000000000000000000000000000000000000000000000000000000000 DUP2 MSTORE PUSH1 0x4 ADD PUSH2 0x5EF SWAP1 PUSH2 0x1006 JUMP JUMPDEST PUSH1 0x40 MLOAD DUP1 SWAP2 SUB SWAP1 REVERT JUMPDEST DUP1 PUSH0 DUP1 DUP5 PUSH20 0xFFFFFFFFFFFFFFFFFFFFFFFFFFFFFFFFFFFFFFFF AND PUSH20 0xFFFFFFFFFFFFFFFFFFFFFFFFFFFFFFFFFFFFFFFF AND DUP2 MSTORE PUSH1 0x20 ADD SWAP1 DUP2 MSTORE PUSH1 0x20 ADD PUSH0 KECCAK256 DUP2 SWAP1 SSTORE POP POP POP JUMP JUMPDEST PUSH1 0x1 PUSH0 SWAP1 SLOAD SWAP1 PUSH2 0x100 EXP SWAP1 DIV PUSH20 0xFFFFFFFFFFFFFFFFFFFFFFFFFFFFFFFFFFFFFFFF AND DUP2 JUMP JUMPDEST PUSH1 0x1 PUSH0 SWAP1 SLOAD SWAP1 PUSH2 0x100 EXP SWAP1 DIV PUSH20 0xFFFFFFFFFFFFFFFFFFFFFFFFFFFFFFFFFFFFFFFF AND PUSH20 0xFFFFFFFFFFFFFFFFFFFFFFFFFFFFFFFFFFFFFFFF AND CALLER PUSH20 0xFFFFFFFFFFFFFFFFFFFFFFFFFFFFFFFFFFFFFFFF AND EQ PUSH2 0x6F1 JUMPI PUSH1 0x40 MLOAD PUSH32 0x8C379A000000000000000000000000000000000000000000000000000000000 DUP2 MSTORE PUSH1 0x4 ADD PUSH2 0x6E8 SWAP1 PUSH2 0xD9F JUMP JUMPDEST PUSH1 0x40 MLOAD DUP1 SWAP2 SUB SWAP1 REVERT JUMPDEST PUSH1 0x4 SLOAD PUSH1 0x3 SLOAD PUSH2 0x701 SWAP2 SWAP1 PUSH2 0xDEA JUMP JUMPDEST TIMESTAMP GT PUSH2 0x742 JUMPI PUSH1 0x40 MLOAD PUSH32 0x8C379A000000000000000000000000000000000000000000000000000000000 DUP2 MSTORE PUSH1 0x4 ADD PUSH2 0x739 SWAP1 PUSH2 0xE67 JUMP JUMPDEST PUSH1 0x40 MLOAD DUP1 SWAP2 SUB SWAP1 REVERT JUMPDEST PUSH9 0x3635C9ADC5DEA00000 PUSH2 0x755 SELFBALANCE PUSH2 0xA24 JUMP JUMPDEST LT ISZERO PUSH2 0x796 JUMPI PUSH1 0x40 MLOAD PUSH32 0x8C379A000000000000000000000000000000000000000000000000000000000 DUP2 MSTORE PUSH1 0x4 ADD PUSH2 0x78D SWAP1 PUSH2 0x106E JUMP JUMPDEST PUSH1 0x40 MLOAD DUP1 SWAP2 SUB SWAP1 REVERT JUMPDEST PUSH0 CALLER PUSH20 0xFFFFFFFFFFFFFFFFFFFFFFFFFFFFFFFFFFFFFFFF AND SELFBALANCE PUSH1 0x40 MLOAD PUSH2 0x7BB SWAP1 PUSH2 0xF82 JUMP JUMPDEST PUSH0 PUSH1 0x40 MLOAD DUP1 DUP4 SUB DUP2 DUP6 DUP8 GAS CALL SWAP3 POP POP POP RETURNDATASIZE DUP1 PUSH0 DUP2 EQ PUSH2 0x7F5 JUMPI PUSH1 0x40 MLOAD SWAP2 POP PUSH1 0x1F NOT PUSH1 0x3F RETURNDATASIZE ADD AND DUP3 ADD PUSH1 0x40 MSTORE RETURNDATASIZE DUP3 MSTORE RETURNDATASIZE PUSH0 PUSH1 0x20 DUP5 ADD RETURNDATACOPY PUSH2 0x7FA JUMP JUMPDEST PUSH1 0x60 SWAP2 POP JUMPDEST POP POP DUP1 SWAP2 POP POP DUP1 PUSH2 0x840 JUMPI PUSH1 0x40 MLOAD PUSH32 0x8C379A000000000000000000000000000000000000000000000000000000000 DUP2 MSTORE PUSH1 0x4 ADD PUSH2 0x837 SWAP1 PUSH2 0x10D6 JUMP JUMPDEST PUSH1 0x40 MLOAD DUP1 SWAP2 SUB SWAP1 REVERT JUMPDEST PUSH0 DUP1 PUSH0 CALLER PUSH20 0xFFFFFFFFFFFFFFFFFFFFFFFFFFFFFFFFFFFFFFFF AND PUSH20 0xFFFFFFFFFFFFFFFFFFFFFFFFFFFFFFFFFFFFFFFF AND DUP2 MSTORE PUSH1 0x20 ADD SWAP1 DUP2 MSTORE PUSH1 0x20 ADD PUSH0 KECCAK256 DUP2 SWAP1 SSTORE POP PUSH1 0x1 PUSH1 0x5 PUSH1 0x14 PUSH2 0x100 EXP DUP2 SLOAD DUP2 PUSH1 0xFF MUL NOT AND SWAP1 DUP4 ISZERO ISZERO MUL OR SWAP1 SSTORE POP POP JUMP JUMPDEST PUSH1 0x4 SLOAD PUSH1 0x3 SLOAD PUSH2 0x8AF SWAP2 SWAP1 PUSH2 0xDEA JUMP JUMPDEST TIMESTAMP LT PUSH2 0x8F0 JUMPI PUSH1 0x40 MLOAD PUSH32 0x8C379A000000000000000000000000000000000000000000000000000000000 DUP2 MSTORE PUSH1 0x4 ADD PUSH2 0x8E7 SWAP1 PUSH2 0x113E JUMP JUMPDEST PUSH1 0x40 MLOAD DUP1 SWAP2 SUB SWAP1 REVERT JUMPDEST PUSH9 0x56BC75E2D63100000 PUSH2 0x903 CALLVALUE PUSH2 0xA24 JUMP JUMPDEST LT ISZERO PUSH2 0x944 JUMPI PUSH1 0x40 MLOAD PUSH32 0x8C379A000000000000000000000000000000000000000000000000000000000 DUP2 MSTORE PUSH1 0x4 ADD PUSH2 0x93B SWAP1 PUSH2 0x11A6 JUMP JUMPDEST PUSH1 0x40 MLOAD DUP1 SWAP2 SUB SWAP1 REVERT JUMPDEST CALLVALUE PUSH0 DUP1 CALLER PUSH20 0xFFFFFFFFFFFFFFFFFFFFFFFFFFFFFFFFFFFFFFFF AND PUSH20 0xFFFFFFFFFFFFFFFFFFFFFFFFFFFFFFFFFFFFFFFF AND DUP2 MSTORE PUSH1 0x20 ADD SWAP1 DUP2 MSTORE PUSH1 0x20 ADD PUSH0 KECCAK256 DUP2 SWAP1 SSTORE POP JUMP JUMPDEST PUSH0 DUP1 PUSH1 0x2 PUSH0 SWAP1 SLOAD SWAP1 PUSH2 0x100 EXP SWAP1 DIV PUSH20 0xFFFFFFFFFFFFFFFFFFFFFFFFFFFFFFFFFFFFFFFF AND PUSH20 0xFFFFFFFFFFFFFFFFFFFFFFFFFFFFFFFFFFFFFFFF AND PUSH4 0xFEAF968C PUSH1 0x40 MLOAD DUP2 PUSH4 0xFFFFFFFF AND PUSH1 0xE0 SHL DUP2 MSTORE PUSH1 0x4 ADD PUSH1 0xA0 PUSH1 0x40 MLOAD DUP1 DUP4 SUB DUP2 DUP7 GAS STATICCALL ISZERO DUP1 ISZERO PUSH2 0x9F3 JUMPI RETURNDATASIZE PUSH0 DUP1 RETURNDATACOPY RETURNDATASIZE PUSH0 REVERT JUMPDEST POP POP POP POP PUSH1 0x40 MLOAD RETURNDATASIZE PUSH1 0x1F NOT PUSH1 0x1F DUP3 ADD AND DUP3 ADD DUP1 PUSH1 0x40 MSTORE POP DUP2 ADD SWAP1 PUSH2 0xA17 SWAP2 SWAP1 PUSH2 0x1241 JUMP JUMPDEST POP POP POP SWAP2 POP POP DUP1 SWAP2 POP POP SWAP1 JUMP JUMPDEST PUSH0 DUP1 PUSH2 0xA2E PUSH2 0x987 JUMP JUMPDEST SWAP1 POP PUSH4 0x5F5E100 DUP2 DUP5 PUSH2 0xA41 SWAP2 SWAP1 PUSH2 0x12B8 JUMP JUMPDEST PUSH2 0xA4B SWAP2 SWAP1 PUSH2 0x1326 JUMP JUMPDEST SWAP2 POP POP SWAP2 SWAP1 POP JUMP JUMPDEST PUSH9 0x3635C9ADC5DEA00000 DUP2 JUMP JUMPDEST PUSH0 PUSH1 0x20 MSTORE DUP1 PUSH0 MSTORE PUSH1 0x40 PUSH0 KECCAK256 PUSH0 SWAP2 POP SWAP1 POP SLOAD DUP2 JUMP JUMPDEST PUSH1 0x1 PUSH0 SWAP1 SLOAD SWAP1 PUSH2 0x100 EXP SWAP1 DIV PUSH20 0xFFFFFFFFFFFFFFFFFFFFFFFFFFFFFFFFFFFFFFFF AND PUSH20 0xFFFFFFFFFFFFFFFFFFFFFFFFFFFFFFFFFFFFFFFF AND CALLER PUSH20 0xFFFFFFFFFFFFFFFFFFFFFFFFFFFFFFFFFFFFFFFF AND EQ PUSH2 0xB03 JUMPI PUSH1 0x40 MLOAD PUSH32 0x8C379A000000000000000000000000000000000000000000000000000000000 DUP2 MSTORE PUSH1 0x4 ADD PUSH2 0xAFA SWAP1 PUSH2 0xD9F JUMP JUMPDEST PUSH1 0x40 MLOAD DUP1 SWAP2 SUB SWAP1 REVERT JUMPDEST DUP1 PUSH1 0x1 PUSH0 PUSH2 0x100 EXP DUP2 SLOAD DUP2 PUSH20 0xFFFFFFFFFFFFFFFFFFFFFFFFFFFFFFFFFFFFFFFF MUL NOT AND SWAP1 DUP4 PUSH20 0xFFFFFFFFFFFFFFFFFFFFFFFFFFFFFFFFFFFFFFFF AND MUL OR SWAP1 SSTORE POP POP JUMP JUMPDEST PUSH0 DUP1 REVERT JUMPDEST PUSH0 PUSH20 0xFFFFFFFFFFFFFFFFFFFFFFFFFFFFFFFFFFFFFFFF DUP3 AND SWAP1 POP SWAP2 SWAP1 POP JUMP JUMPDEST PUSH0 PUSH2 0xB73 DUP3 PUSH2 0xB4A JUMP JUMPDEST SWAP1 POP SWAP2 SWAP1 POP JUMP JUMPDEST PUSH2 0xB83 DUP2 PUSH2 0xB69 JUMP JUMPDEST DUP2 EQ PUSH2 0xB8D JUMPI PUSH0 DUP1 REVERT JUMPDEST POP JUMP JUMPDEST PUSH0 DUP2 CALLDATALOAD SWAP1 POP PUSH2 0xB9E DUP2 PUSH2 0xB7A JUMP JUMPDEST SWAP3 SWAP2 POP POP JUMP JUMPDEST PUSH0 PUSH1 0x20 DUP3 DUP5 SUB SLT ISZERO PUSH2 0xBB9 JUMPI PUSH2 0xBB8 PUSH2 0xB46 JUMP JUMPDEST JUMPDEST PUSH0 PUSH2 0xBC6 DUP5 DUP3 DUP6 ADD PUSH2 0xB90 JUMP JUMPDEST SWAP2 POP POP SWAP3 SWAP2 POP POP JUMP JUMPDEST PUSH0 DUP2 ISZERO ISZERO SWAP1 POP SWAP2 SWAP1 POP JUMP JUMPDEST PUSH2 0xBE3 DUP2 PUSH2 0xBCF JUMP JUMPDEST DUP3 MSTORE POP POP JUMP JUMPDEST PUSH0 PUSH1 0x20 DUP3 ADD SWAP1 POP PUSH2 0xBFC PUSH0 DUP4 ADD DUP5 PUSH2 0xBDA JUMP JUMPDEST SWAP3 SWAP2 POP POP JUMP JUMPDEST PUSH0 DUP2 SWAP1 POP SWAP2 SWAP1 POP JUMP JUMPDEST PUSH2 0xC14 DUP2 PUSH2 0xC02 JUMP JUMPDEST DUP2 EQ PUSH2 0xC1E JUMPI PUSH0 DUP1 REVERT JUMPDEST POP JUMP JUMPDEST PUSH0 DUP2 CALLDATALOAD SWAP1 POP PUSH2 0xC2F DUP2 PUSH2 0xC0B JUMP JUMPDEST SWAP3 SWAP2 POP POP JUMP JUMPDEST PUSH0 DUP1 PUSH1 0x40 DUP4 DUP6 SUB SLT ISZERO PUSH2 0xC4B JUMPI PUSH2 0xC4A PUSH2 0xB46 JUMP JUMPDEST JUMPDEST PUSH0 PUSH2 0xC58 DUP6 DUP3 DUP7 ADD PUSH2 0xB90 JUMP JUMPDEST SWAP3 POP POP PUSH1 0x20 PUSH2 0xC69 DUP6 DUP3 DUP7 ADD PUSH2 0xC21 JUMP JUMPDEST SWAP2 POP POP SWAP3 POP SWAP3 SWAP1 POP JUMP JUMPDEST PUSH2 0xC7C DUP2 PUSH2 0xB69 JUMP JUMPDEST DUP3 MSTORE POP POP JUMP JUMPDEST PUSH0 PUSH1 0x20 DUP3 ADD SWAP1 POP PUSH2 0xC95 PUSH0 DUP4 ADD DUP5 PUSH2 0xC73 JUMP JUMPDEST SWAP3 SWAP2 POP POP JUMP JUMPDEST PUSH0 DUP2 SWAP1 POP SWAP2 SWAP1 POP JUMP JUMPDEST PUSH2 0xCAD DUP2 PUSH2 0xC9B JUMP JUMPDEST DUP3 MSTORE POP POP JUMP JUMPDEST PUSH0 PUSH1 0x20 DUP3 ADD SWAP1 POP PUSH2 0xCC6 PUSH0 DUP4 ADD DUP5 PUSH2 0xCA4 JUMP JUMPDEST SWAP3 SWAP2 POP POP JUMP JUMPDEST PUSH0 PUSH1 0x20 DUP3 DUP5 SUB SLT ISZERO PUSH2 0xCE1 JUMPI PUSH2 0xCE0 PUSH2 0xB46 JUMP JUMPDEST JUMPDEST PUSH0 PUSH2 0xCEE DUP5 DUP3 DUP6 ADD PUSH2 0xC21 JUMP JUMPDEST SWAP2 POP POP SWAP3 SWAP2 POP POP JUMP JUMPDEST PUSH2 0xD00 DUP2 PUSH2 0xC02 JUMP JUMPDEST DUP3 MSTORE POP POP JUMP JUMPDEST PUSH0 PUSH1 0x20 DUP3 ADD SWAP1 POP PUSH2 0xD19 PUSH0 DUP4 ADD DUP5 PUSH2 0xCF7 JUMP JUMPDEST SWAP3 SWAP2 POP POP JUMP JUMPDEST PUSH0 DUP3 DUP3 MSTORE PUSH1 0x20 DUP3 ADD SWAP1 POP SWAP3 SWAP2 POP POP JUMP JUMPDEST PUSH32 0x746869732066756E6374696F6E2063616E206F6E6C792062652063616C6C6564 PUSH0 DUP3 ADD MSTORE PUSH32 0x20627920746865206F776E657200000000000000000000000000000000000000 PUSH1 0x20 DUP3 ADD MSTORE POP JUMP JUMPDEST PUSH0 PUSH2 0xD89 PUSH1 0x2D DUP4 PUSH2 0xD1F JUMP JUMPDEST SWAP2 POP PUSH2 0xD94 DUP3 PUSH2 0xD2F JUMP JUMPDEST PUSH1 0x40 DUP3 ADD SWAP1 POP SWAP2 SWAP1 POP JUMP JUMPDEST PUSH0 PUSH1 0x20 DUP3 ADD SWAP1 POP DUP2 DUP2 SUB PUSH0 DUP4 ADD MSTORE PUSH2 0xDB6 DUP2 PUSH2 0xD7D JUMP JUMPDEST SWAP1 POP SWAP2 SWAP1 POP JUMP JUMPDEST PUSH32 0x4E487B7100000000000000000000000000000000000000000000000000000000 PUSH0 MSTORE PUSH1 0x11 PUSH1 0x4 MSTORE PUSH1 0x24 PUSH0 REVERT JUMPDEST PUSH0 PUSH2 0xDF4 DUP3 PUSH2 0xC02 JUMP JUMPDEST SWAP2 POP PUSH2 0xDFF DUP4 PUSH2 0xC02 JUMP JUMPDEST SWAP3 POP DUP3 DUP3 ADD SWAP1 POP DUP1 DUP3 GT ISZERO PUSH2 0xE17 JUMPI PUSH2 0xE16 PUSH2 0xDBD JUMP JUMPDEST JUMPDEST SWAP3 SWAP2 POP POP JUMP JUMPDEST PUSH32 0x49742773206E6F742065787472616374696F6E2074696D652079657400000000 PUSH0 DUP3 ADD MSTORE POP JUMP JUMPDEST PUSH0 PUSH2 0xE51 PUSH1 0x1C DUP4 PUSH2 0xD1F JUMP JUMPDEST SWAP2 POP PUSH2 0xE5C DUP3 PUSH2 0xE1D JUMP JUMPDEST PUSH1 0x20 DUP3 ADD SWAP1 POP SWAP2 SWAP1 POP JUMP JUMPDEST PUSH0 PUSH1 0x20 DUP3 ADD SWAP1 POP DUP2 DUP2 SUB PUSH0 DUP4 ADD MSTORE PUSH2 0xE7E DUP2 PUSH2 0xE45 JUMP JUMPDEST SWAP1 POP SWAP2 SWAP1 POP JUMP JUMPDEST PUSH32 0x5461726765742069732072656163686564000000000000000000000000000000 PUSH0 DUP3 ADD MSTORE POP JUMP JUMPDEST PUSH0 PUSH2 0xEB9 PUSH1 0x11 DUP4 PUSH2 0xD1F JUMP JUMPDEST SWAP2 POP PUSH2 0xEC4 DUP3 PUSH2 0xE85 JUMP JUMPDEST PUSH1 0x20 DUP3 ADD SWAP1 POP SWAP2 SWAP1 POP JUMP JUMPDEST PUSH0 PUSH1 0x20 DUP3 ADD SWAP1 POP DUP2 DUP2 SUB PUSH0 DUP4 ADD MSTORE PUSH2 0xEE6 DUP2 PUSH2 0xEAD JUMP JUMPDEST SWAP1 POP SWAP2 SWAP1 POP JUMP JUMPDEST PUSH32 0x7468657265206973206E6F2066756E6420746F207061796261636B0000000000 PUSH0 DUP3 ADD MSTORE POP JUMP JUMPDEST PUSH0 PUSH2 0xF21 PUSH1 0x1B DUP4 PUSH2 0xD1F JUMP JUMPDEST SWAP2 POP PUSH2 0xF2C DUP3 PUSH2 0xEED JUMP JUMPDEST PUSH1 0x20 DUP3 ADD SWAP1 POP SWAP2 SWAP1 POP JUMP JUMPDEST PUSH0 PUSH1 0x20 DUP3 ADD SWAP1 POP DUP2 DUP2 SUB PUSH0 DUP4 ADD MSTORE PUSH2 0xF4E DUP2 PUSH2 0xF15 JUMP JUMPDEST SWAP1 POP SWAP2 SWAP1 POP JUMP JUMPDEST PUSH0 DUP2 SWAP1 POP SWAP3 SWAP2 POP POP JUMP JUMPDEST POP JUMP JUMPDEST PUSH0 PUSH2 0xF6D PUSH0 DUP4 PUSH2 0xF55 JUMP JUMPDEST SWAP2 POP PUSH2 0xF78 DUP3 PUSH2 0xF5F JUMP JUMPDEST PUSH0 DUP3 ADD SWAP1 POP SWAP2 SWAP1 POP JUMP JUMPDEST PUSH0 PUSH2 0xF8C DUP3 PUSH2 0xF62 JUMP JUMPDEST SWAP2 POP DUP2 SWAP1 POP SWAP2 SWAP1 POP JUMP JUMPDEST PUSH32 0x796F7520646F206E6F742068617665207065726D697373696F6E20746F206361 PUSH0 DUP3 ADD MSTORE PUSH32 0x6C6C20746869732066756E6374696F6E00000000000000000000000000000000 PUSH1 0x20 DUP3 ADD MSTORE POP JUMP JUMPDEST PUSH0 PUSH2 0xFF0 PUSH1 0x30 DUP4 PUSH2 0xD1F JUMP JUMPDEST SWAP2 POP PUSH2 0xFFB DUP3 PUSH2 0xF96 JUMP JUMPDEST PUSH1 0x40 DUP3 ADD SWAP1 POP SWAP2 SWAP1 POP JUMP JUMPDEST PUSH0 PUSH1 0x20 DUP3 ADD SWAP1 POP DUP2 DUP2 SUB PUSH0 DUP4 ADD MSTORE PUSH2 0x101D DUP2 PUSH2 0xFE4 JUMP JUMPDEST SWAP1 POP SWAP2 SWAP1 POP JUMP JUMPDEST PUSH32 0x546172676574206973206E6F7420726561636865640000000000000000000000 PUSH0 DUP3 ADD MSTORE POP JUMP JUMPDEST PUSH0 PUSH2 0x1058 PUSH1 0x15 DUP4 PUSH2 0xD1F JUMP JUMPDEST SWAP2 POP PUSH2 0x1063 DUP3 PUSH2 0x1024 JUMP JUMPDEST PUSH1 0x20 DUP3 ADD SWAP1 POP SWAP2 SWAP1 POP JUMP JUMPDEST PUSH0 PUSH1 0x20 DUP3 ADD SWAP1 POP DUP2 DUP2 SUB PUSH0 DUP4 ADD MSTORE PUSH2 0x1085 DUP2 PUSH2 0x104C JUMP JUMPDEST SWAP1 POP SWAP2 SWAP1 POP JUMP JUMPDEST PUSH32 0x7478206661696C65640000000000000000000000000000000000000000000000 PUSH0 DUP3 ADD MSTORE POP JUMP JUMPDEST PUSH0 PUSH2 0x10C0 PUSH1 0x9 DUP4 PUSH2 0xD1F JUMP JUMPDEST SWAP2 POP PUSH2 0x10CB DUP3 PUSH2 0x108C JUMP JUMPDEST PUSH1 0x20 DUP3 ADD SWAP1 POP SWAP2 SWAP1 POP JUMP JUMPDEST PUSH0 PUSH1 0x20 DUP3 ADD SWAP1 POP DUP2 DUP2 SUB PUSH0 DUP4 ADD MSTORE PUSH2 0x10ED DUP2 PUSH2 0x10B4 JUMP JUMPDEST SWAP1 POP SWAP2 SWAP1 POP JUMP JUMPDEST PUSH32 0x5468652066756E6420697320636C6F7365640000000000000000000000000000 PUSH0 DUP3 ADD MSTORE POP JUMP JUMPDEST PUSH0 PUSH2 0x1128 PUSH1 0x12 DUP4 PUSH2 0xD1F JUMP JUMPDEST SWAP2 POP PUSH2 0x1133 DUP3 PUSH2 0x10F4 JUMP JUMPDEST PUSH1 0x20 DUP3 ADD SWAP1 POP SWAP2 SWAP1 POP JUMP JUMPDEST PUSH0 PUSH1 0x20 DUP3 ADD SWAP1 POP DUP2 DUP2 SUB PUSH0 DUP4 ADD MSTORE PUSH2 0x1155 DUP2 PUSH2 0x111C JUMP JUMPDEST SWAP1 POP SWAP2 SWAP1 POP JUMP JUMPDEST PUSH32 0x73656E64206D6F7265206D6F6E65790000000000000000000000000000000000 PUSH0 DUP3 ADD MSTORE POP JUMP JUMPDEST PUSH0 PUSH2 0x1190 PUSH1 0xF DUP4 PUSH2 0xD1F JUMP JUMPDEST SWAP2 POP PUSH2 0x119B DUP3 PUSH2 0x115C JUMP JUMPDEST PUSH1 0x20 DUP3 ADD SWAP1 POP SWAP2 SWAP1 POP JUMP JUMPDEST PUSH0 PUSH1 0x20 DUP3 ADD SWAP1 POP DUP2 DUP2 SUB PUSH0 DUP4 ADD MSTORE PUSH2 0x11BD DUP2 PUSH2 0x1184 JUMP JUMPDEST SWAP1 POP SWAP2 SWAP1 POP JUMP JUMPDEST PUSH0 PUSH10 0xFFFFFFFFFFFFFFFFFFFF DUP3 AND SWAP1 POP SWAP2 SWAP1 POP JUMP JUMPDEST PUSH2 0x11E2 DUP2 PUSH2 0x11C4 JUMP JUMPDEST DUP2 EQ PUSH2 0x11EC JUMPI PUSH0 DUP1 REVERT JUMPDEST POP JUMP JUMPDEST PUSH0 DUP2 MLOAD SWAP1 POP PUSH2 0x11FD DUP2 PUSH2 0x11D9 JUMP JUMPDEST SWAP3 SWAP2 POP POP JUMP JUMPDEST PUSH2 0x120C DUP2 PUSH2 0xC9B JUMP JUMPDEST DUP2 EQ PUSH2 0x1216 JUMPI PUSH0 DUP1 REVERT JUMPDEST POP JUMP JUMPDEST PUSH0 DUP2 MLOAD SWAP1 POP PUSH2 0x1227 DUP2 PUSH2 0x1203 JUMP JUMPDEST SWAP3 SWAP2 POP POP JUMP JUMPDEST PUSH0 DUP2 MLOAD SWAP1 POP PUSH2 0x123B DUP2 PUSH2 0xC0B JUMP JUMPDEST SWAP3 SWAP2 POP POP JUMP JUMPDEST PUSH0 DUP1 PUSH0 DUP1 PUSH0 PUSH1 0xA0 DUP7 DUP9 SUB SLT ISZERO PUSH2 0x125A JUMPI PUSH2 0x1259 PUSH2 0xB46 JUMP JUMPDEST JUMPDEST PUSH0 PUSH2 0x1267 DUP9 DUP3 DUP10 ADD PUSH2 0x11EF JUMP JUMPDEST SWAP6 POP POP PUSH1 0x20 PUSH2 0x1278 DUP9 DUP3 DUP10 ADD PUSH2 0x1219 JUMP JUMPDEST SWAP5 POP POP PUSH1 0x40 PUSH2 0x1289 DUP9 DUP3 DUP10 ADD PUSH2 0x122D JUMP JUMPDEST SWAP4 POP POP PUSH1 0x60 PUSH2 0x129A DUP9 DUP3 DUP10 ADD PUSH2 0x122D JUMP JUMPDEST SWAP3 POP POP PUSH1 0x80 PUSH2 0x12AB DUP9 DUP3 DUP10 ADD PUSH2 0x11EF JUMP JUMPDEST SWAP2 POP POP SWAP3 SWAP6 POP SWAP3 SWAP6 SWAP1 SWAP4 POP JUMP JUMPDEST PUSH0 PUSH2 0x12C2 DUP3 PUSH2 0xC02 JUMP JUMPDEST SWAP2 POP PUSH2 0x12CD DUP4 PUSH2 0xC02 JUMP JUMPDEST SWAP3 POP DUP3 DUP3 MUL PUSH2 0x12DB DUP2 PUSH2 0xC02 JUMP JUMPDEST SWAP2 POP DUP3 DUP3 DIV DUP5 EQ DUP4 ISZERO OR PUSH2 0x12F2 JUMPI PUSH2 0x12F1 PUSH2 0xDBD JUMP JUMPDEST JUMPDEST POP SWAP3 SWAP2 POP POP JUMP JUMPDEST PUSH32 0x4E487B7100000000000000000000000000000000000000000000000000000000 PUSH0 MSTORE PUSH1 0x12 PUSH1 0x4 MSTORE PUSH1 0x24 PUSH0 REVERT JUMPDEST PUSH0 PUSH2 0x1330 DUP3 PUSH2 0xC02 JUMP JUMPDEST SWAP2 POP PUSH2 0x133B DUP4 PUSH2 0xC02 JUMP JUMPDEST SWAP3 POP DUP3 PUSH2 0x134B JUMPI PUSH2 0x134A PUSH2 0x12F9 JUMP JUMPDEST JUMPDEST DUP3 DUP3 DIV SWAP1 POP SWAP3 SWAP2 POP POP JUMP INVALID LOG2 PUSH5 0x6970667358 0x22 SLT KECCAK256 DUP7 0xD4 PUSH27 0xD47B6B695CEB1EE985E88445038E290CE0240B2C4371DB4540B302 0x2D SLOAD PUSH5 0x736F6C6343 STOP ADDMOD BYTE STOP CALLER "
				},
				"gasEstimates": {
					"creation": {
						"codeDepositCost": "1000800",
						"executionCost": "infinite",
						"totalCost": "infinite"
					},
					"external": {
						"TARGET()": "391",
						"convertEthToUsd(uint256)": "infinite",
						"fund()": "infinite",
						"funds(address)": "2889",
						"getChainlinkDataFeedLatestAnswer()": "infinite",
						"getFund()": "infinite",
						"isGetFund()": "2562",
						"owner()": "2597",
						"refund()": "infinite",
						"setErc20Addr(address)": "26885",
						"setFundsAmount(address,uint256)": "25058",
						"transferOwnership(address)": "26994"
					}
				},
				"methodIdentifiers": {
					"TARGET()": "cc1f2afa",
					"convertEthToUsd(uint256)": "c086381e",
					"fund()": "b60d4288",
					"funds(address)": "e2ae93fb",
					"getChainlinkDataFeedLatestAnswer()": "bea4dfb5",
					"getFund()": "8edd6eb6",
					"isGetFund()": "79433761",
					"owner()": "8da5cb5b",
					"refund()": "590e1ae3",
					"setErc20Addr(address)": "13ffff01",
					"setFundsAmount(address,uint256)": "7fe47e1a",
					"transferOwnership(address)": "f2fde38b"
				}
			},
			"storageLayout": {
				"storage": [
					{
						"astId": 50,
						"contract": "test02/FundMe_flattened.sol:FundMe",
						"label": "funds",
						"offset": 0,
						"slot": "0",
						"type": "t_mapping(t_address,t_uint256)"
					},
					{
						"astId": 66,
						"contract": "test02/FundMe_flattened.sol:FundMe",
						"label": "owner",
						"offset": 0,
						"slot": "1",
						"type": "t_address"
					},
					{
						"astId": 69,
						"contract": "test02/FundMe_flattened.sol:FundMe",
						"label": "dataFeed",
						"offset": 0,
						"slot": "2",
						"type": "t_contract(AggregatorV3Interface)45"
					},
					{
						"astId": 71,
						"contract": "test02/FundMe_flattened.sol:FundMe",
						"label": "deployTime",
						"offset": 0,
						"slot": "3",
						"type": "t_uint256"
					},
					{
						"astId": 73,
						"contract": "test02/FundMe_flattened.sol:FundMe",
						"label": "lockTime",
						"offset": 0,
						"slot": "4",
						"type": "t_uint256"
					},
					{
						"astId": 75,
						"contract": "test02/FundMe_flattened.sol:FundMe",
						"label": "erc20Addr",
						"offset": 0,
						"slot": "5",
						"type": "t_address"
					},
					{
						"astId": 78,
						"contract": "test02/FundMe_flattened.sol:FundMe",
						"label": "isGetFund",
						"offset": 20,
						"slot": "5",
						"type": "t_bool"
					}
				],
				"types": {
					"t_address": {
						"encoding": "inplace",
						"label": "address",
						"numberOfBytes": "20"
					},
					"t_bool": {
						"encoding": "inplace",
						"label": "bool",
						"numberOfBytes": "1"
					},
					"t_contract(AggregatorV3Interface)45": {
						"encoding": "inplace",
						"label": "contract AggregatorV3Interface",
						"numberOfBytes": "20"
					},
					"t_mapping(t_address,t_uint256)": {
						"encoding": "mapping",
						"key": "t_address",
						"label": "mapping(address => uint256)",
						"numberOfBytes": "32",
						"value": "t_uint256"
					},
					"t_uint256": {
						"encoding": "inplace",
						"label": "uint256",
						"numberOfBytes": "32"
					}
				}
			},
			"userdoc": {
				"kind": "user",
				"methods": {
					"getChainlinkDataFeedLatestAnswer()": {
						"notice": "通过预言机查看eth的价格 Returns the latest answer."
					}
				},
				"version": 1
			}
		}
	}
}