{
	"test02/FundMe.sol": {
		"FundMe": {
			"abi": [
				{
					"inputs": [
						{
							"internalType": "uint256",
							"name": "_lockTime",
							"type": "uint256"
						}
					],
					"stateMutability": "nonpayable",
					"type": "constructor"
				},
				{
					"inputs": [],
					"name": "TARGET",
					"outputs": [
						{
							"internalType": "uint256",
							"name": "",
							"type": "uint256"
						}
					],
					"stateMutability": "view",
					"type": "function"
				},
				{
					"inputs": [
						{
							"internalType": "uint256",
							"name": "ethAmount",
							"type": "uint256"
						}
					],
					"name": "convertEthToUsd",
					"outputs": [
						{
							"internalType": "uint256",
							"name": "",
							"type": "uint256"
						}
					],
					"stateMutability": "view",
					"type": "function"
				},
				{
					"inputs": [],
					"name": "fund",
					"outputs": [],
					"stateMutability": "payable",
					"type": "function"
				},
				{
					"inputs": [
						{
							"internalType": "address",
							"name": "",
							"type": "address"
						}
					],
					"name": "funds",
					"outputs": [
						{
							"internalType": "uint256",
							"name": "",
							"type": "uint256"
						}
					],
					"stateMutability": "view",
					"type": "function"
				},
				{
					"inputs": [],
					"name": "getChainlinkDataFeedLatestAnswer",
					"outputs": [
						{
							"internalType": "int256",
							"name": "",
							"type": "int256"
						}
					],
					"stateMutability": "view",
					"type": "function"
				},
				{
					"inputs": [],
					"name": "getFund",
					"outputs": [],
					"stateMutability": "nonpayable",
					"type": "function"
				},
				{
					"inputs": [],
					"name": "owner",
					"outputs": [
						{
							"internalType": "address",
							"name": "",
							"type": "address"
						}
					],
					"stateMutability": "view",
					"type": "function"
				},
				{
					"inputs": [],
					"name": "refund",
					"outputs": [],
					"stateMutability": "nonpayable",
					"type": "function"
				},
				{
					"inputs": [
						{
							"internalType": "address",
							"name": "_erc20Addr",
							"type": "address"
						}
					],
					"name": "setErc20Addr",
					"outputs": [],
					"stateMutability": "nonpayable",
					"type": "function"
				},
				{
					"inputs": [
						{
							"internalType": "address",
							"name": "funder",
							"type": "address"
						},
						{
							"internalType": "uint256",
							"name": "amountToUpdate",
							"type": "uint256"
						}
					],
					"name": "setFundsAmount",
					"outputs": [],
					"stateMutability": "nonpayable",
					"type": "function"
				},
				{
					"inputs": [
						{
							"internalType": "address",
							"name": "newOwner",
							"type": "address"
						}
					],
					"name": "transferOwnership",
					"outputs": [],
					"stateMutability": "nonpayable",
					"type": "function"
				}
			],
			"devdoc": {
				"kind": "dev",
				"methods": {},
				"version": 1
			},
			"evm": {
				"assembly": "    /* \"test02/FundMe.sol\":400:3697  contract FundMe {... */\n  mstore(0x40, 0x80)\n    /* \"test02/FundMe.sol\":739:988  constructor(uint256 _lockTime) {... */\n  callvalue\n  dup1\n  iszero\n  tag_1\n  jumpi\n  0x00\n  dup1\n  revert\ntag_1:\n  pop\n  mload(0x40)\n  sub(codesize, bytecodeSize)\n  dup1\n  bytecodeSize\n  dup4\n  codecopy\n  dup2\n  dup2\n  add\n  0x40\n  mstore\n  dup2\n  add\n  swap1\n  tag_2\n  swap2\n  swap1\n  tag_3\n  jump\t// in\ntag_2:\n    /* \"test02/FundMe.sol\":789:799  msg.sender */\n  caller\n    /* \"test02/FundMe.sol\":781:786  owner */\n  0x01\n  0x00\n    /* \"test02/FundMe.sol\":781:799  owner = msg.sender */\n  0x0100\n  exp\n  dup2\n  sload\n  dup2\n  0xffffffffffffffffffffffffffffffffffffffff\n  mul\n  not\n  and\n  swap1\n  dup4\n  0xffffffffffffffffffffffffffffffffffffffff\n  and\n  mul\n  or\n  swap1\n  sstore\n  pop\n    /* \"test02/FundMe.sol\":857:899  0x694AA1769357215DE4FAC081bf1f309aDC325306 */\n  0x694aa1769357215de4fac081bf1f309adc325306\n    /* \"test02/FundMe.sol\":810:818  dataFeed */\n  0x02\n  0x00\n    /* \"test02/FundMe.sol\":810:910  dataFeed = AggregatorV3Interface(... */\n  0x0100\n  exp\n  dup2\n  sload\n  dup2\n  0xffffffffffffffffffffffffffffffffffffffff\n  mul\n  not\n  and\n  swap1\n  dup4\n  0xffffffffffffffffffffffffffffffffffffffff\n  and\n  mul\n  or\n  swap1\n  sstore\n  pop\n    /* \"test02/FundMe.sol\":934:949  block.timestamp */\n  timestamp\n    /* \"test02/FundMe.sol\":921:931  deployTime */\n  0x03\n    /* \"test02/FundMe.sol\":921:949  deployTime = block.timestamp */\n  dup2\n  swap1\n  sstore\n  pop\n    /* \"test02/FundMe.sol\":971:980  _lockTime */\n  dup1\n    /* \"test02/FundMe.sol\":960:968  lockTime */\n  0x04\n    /* \"test02/FundMe.sol\":960:980  lockTime = _lockTime */\n  dup2\n  swap1\n  sstore\n  pop\n    /* \"test02/FundMe.sol\":739:988  constructor(uint256 _lockTime) {... */\n  pop\n    /* \"test02/FundMe.sol\":400:3697  contract FundMe {... */\n  jump(tag_6)\n    /* \"#utility.yul\":88:205   */\ntag_8:\n    /* \"#utility.yul\":197:198   */\n  0x00\n    /* \"#utility.yul\":194:195   */\n  dup1\n    /* \"#utility.yul\":187:199   */\n  revert\n    /* \"#utility.yul\":334:411   */\ntag_10:\n    /* \"#utility.yul\":371:378   */\n  0x00\n    /* \"#utility.yul\":400:405   */\n  dup2\n    /* \"#utility.yul\":389:405   */\n  swap1\n  pop\n    /* \"#utility.yul\":334:411   */\n  swap2\n  swap1\n  pop\n  jump\t// out\n    /* \"#utility.yul\":417:539   */\ntag_11:\n    /* \"#utility.yul\":490:514   */\n  tag_19\n    /* \"#utility.yul\":508:513   */\n  dup2\n    /* \"#utility.yul\":490:514   */\n  tag_10\n  jump\t// in\ntag_19:\n    /* \"#utility.yul\":483:488   */\n  dup2\n    /* \"#utility.yul\":480:515   */\n  eq\n    /* \"#utility.yul\":470:533   */\n  tag_20\n  jumpi\n    /* \"#utility.yul\":529:530   */\n  0x00\n    /* \"#utility.yul\":526:527   */\n  dup1\n    /* \"#utility.yul\":519:531   */\n  revert\n    /* \"#utility.yul\":470:533   */\ntag_20:\n    /* \"#utility.yul\":417:539   */\n  pop\n  jump\t// out\n    /* \"#utility.yul\":545:688   */\ntag_12:\n    /* \"#utility.yul\":602:607   */\n  0x00\n    /* \"#utility.yul\":633:639   */\n  dup2\n    /* \"#utility.yul\":627:640   */\n  mload\n    /* \"#utility.yul\":618:640   */\n  swap1\n  pop\n    /* \"#utility.yul\":649:682   */\n  tag_22\n    /* \"#utility.yul\":676:681   */\n  dup2\n    /* \"#utility.yul\":649:682   */\n  tag_11\n  jump\t// in\ntag_22:\n    /* \"#utility.yul\":545:688   */\n  swap3\n  swap2\n  pop\n  pop\n  jump\t// out\n    /* \"#utility.yul\":694:1045   */\ntag_3:\n    /* \"#utility.yul\":764:770   */\n  0x00\n    /* \"#utility.yul\":813:815   */\n  0x20\n    /* \"#utility.yul\":801:810   */\n  dup3\n    /* \"#utility.yul\":792:799   */\n  dup5\n    /* \"#utility.yul\":788:811   */\n  sub\n    /* \"#utility.yul\":784:816   */\n  slt\n    /* \"#utility.yul\":781:900   */\n  iszero\n  tag_24\n  jumpi\n    /* \"#utility.yul\":819:898   */\n  tag_25\n  tag_8\n  jump\t// in\ntag_25:\n    /* \"#utility.yul\":781:900   */\ntag_24:\n    /* \"#utility.yul\":939:940   */\n  0x00\n    /* \"#utility.yul\":964:1028   */\n  tag_26\n    /* \"#utility.yul\":1020:1027   */\n  dup5\n    /* \"#utility.yul\":1011:1017   */\n  dup3\n    /* \"#utility.yul\":1000:1009   */\n  dup6\n    /* \"#utility.yul\":996:1018   */\n  add\n    /* \"#utility.yul\":964:1028   */\n  tag_12\n  jump\t// in\ntag_26:\n    /* \"#utility.yul\":954:1028   */\n  swap2\n  pop\n    /* \"#utility.yul\":910:1038   */\n  pop\n    /* \"#utility.yul\":694:1045   */\n  swap3\n  swap2\n  pop\n  pop\n  jump\t// out\n    /* \"test02/FundMe.sol\":400:3697  contract FundMe {... */\ntag_6:\n  dataSize(sub_0)\n  dup1\n  dataOffset(sub_0)\n  0x00\n  codecopy\n  0x00\n  return\nstop\n\nsub_0: assembly {\n        /* \"test02/FundMe.sol\":400:3697  contract FundMe {... */\n      mstore(0x40, 0x80)\n      jumpi(tag_1, lt(calldatasize, 0x04))\n      shr(0xe0, calldataload(0x00))\n      dup1\n      0xb60d4288\n      gt\n      tag_13\n      jumpi\n      dup1\n      0xb60d4288\n      eq\n      tag_7\n      jumpi\n      dup1\n      0xbea4dfb5\n      eq\n      tag_8\n      jumpi\n      dup1\n      0xc086381e\n      eq\n      tag_9\n      jumpi\n      dup1\n      0xcc1f2afa\n      eq\n      tag_10\n      jumpi\n      dup1\n      0xe2ae93fb\n      eq\n      tag_11\n      jumpi\n      dup1\n      0xf2fde38b\n      eq\n      tag_12\n      jumpi\n      jump(tag_1)\n    tag_13:\n      dup1\n      0x13ffff01\n      eq\n      tag_2\n      jumpi\n      dup1\n      0x590e1ae3\n      eq\n      tag_3\n      jumpi\n      dup1\n      0x7fe47e1a\n      eq\n      tag_4\n      jumpi\n      dup1\n      0x8da5cb5b\n      eq\n      tag_5\n      jumpi\n      dup1\n      0x8edd6eb6\n      eq\n      tag_6\n      jumpi\n    tag_1:\n      0x00\n      dup1\n      revert\n        /* \"test02/FundMe.sol\":2779:2881  function setErc20Addr(address _erc20Addr) external onlyOwner {... */\n    tag_2:\n      callvalue\n      dup1\n      iszero\n      tag_14\n      jumpi\n      0x00\n      dup1\n      revert\n    tag_14:\n      pop\n      tag_15\n      0x04\n      dup1\n      calldatasize\n      sub\n      dup2\n      add\n      swap1\n      tag_16\n      swap2\n      swap1\n      tag_17\n      jump\t// in\n    tag_16:\n      tag_18\n      jump\t// in\n    tag_15:\n      stop\n        /* \"test02/FundMe.sol\":2118:2546  function refund() external  {... */\n    tag_3:\n      callvalue\n      dup1\n      iszero\n      tag_19\n      jumpi\n      0x00\n      dup1\n      revert\n    tag_19:\n      pop\n      tag_20\n      tag_21\n      jump\t// in\n    tag_20:\n      stop\n        /* \"test02/FundMe.sol\":2554:2771  function setFundsAmount(address funder, uint256 amountToUpdate) external {... */\n    tag_4:\n      callvalue\n      dup1\n      iszero\n      tag_22\n      jumpi\n      0x00\n      dup1\n      revert\n    tag_22:\n      pop\n      tag_23\n      0x04\n      dup1\n      calldatasize\n      sub\n      dup2\n      add\n      swap1\n      tag_24\n      swap2\n      swap1\n      tag_25\n      jump\t// in\n    tag_24:\n      tag_26\n      jump\t// in\n    tag_23:\n      stop\n        /* \"test02/FundMe.sol\":593:613  address public owner */\n    tag_5:\n      callvalue\n      dup1\n      iszero\n      tag_27\n      jumpi\n      0x00\n      dup1\n      revert\n    tag_27:\n      pop\n      tag_28\n      tag_29\n      jump\t// in\n    tag_28:\n      mload(0x40)\n      tag_30\n      swap2\n      swap1\n      tag_31\n      jump\t// in\n    tag_30:\n      mload(0x40)\n      dup1\n      swap2\n      sub\n      swap1\n      return\n        /* \"test02/FundMe.sol\":1362:2110  function getFund() external onlyOwner {... */\n    tag_6:\n      callvalue\n      dup1\n      iszero\n      tag_32\n      jumpi\n      0x00\n      dup1\n      revert\n    tag_32:\n      pop\n      tag_33\n      tag_34\n      jump\t// in\n    tag_33:\n      stop\n        /* \"test02/FundMe.sol\":1000:1245  function fund() external payable {... */\n    tag_7:\n      tag_35\n      tag_36\n      jump\t// in\n    tag_35:\n      stop\n        /* \"test02/FundMe.sol\":2984:3341  function getChainlinkDataFeedLatestAnswer() public view returns (int) {... */\n    tag_8:\n      callvalue\n      dup1\n      iszero\n      tag_37\n      jumpi\n      0x00\n      dup1\n      revert\n    tag_37:\n      pop\n      tag_38\n      tag_39\n      jump\t// in\n    tag_38:\n      mload(0x40)\n      tag_40\n      swap2\n      swap1\n      tag_41\n      jump\t// in\n    tag_40:\n      mload(0x40)\n      dup1\n      swap2\n      sub\n      swap1\n      return\n        /* \"test02/FundMe.sol\":3353:3557  function convertEthToUsd(uint256 ethAmount) public view returns(uint256) {... */\n    tag_9:\n      callvalue\n      dup1\n      iszero\n      tag_42\n      jumpi\n      0x00\n      dup1\n      revert\n    tag_42:\n      pop\n      tag_43\n      0x04\n      dup1\n      calldatasize\n      sub\n      dup2\n      add\n      swap1\n      tag_44\n      swap2\n      swap1\n      tag_45\n      jump\t// in\n    tag_44:\n      tag_46\n      jump\t// in\n    tag_43:\n      mload(0x40)\n      tag_47\n      swap2\n      swap1\n      tag_48\n      jump\t// in\n    tag_47:\n      mload(0x40)\n      dup1\n      swap2\n      sub\n      swap1\n      return\n        /* \"test02/FundMe.sol\":537:586  uint256 public constant TARGET  = 1000 * 10 ** 18 */\n    tag_10:\n      callvalue\n      dup1\n      iszero\n      tag_49\n      jumpi\n      0x00\n      dup1\n      revert\n    tag_49:\n      pop\n      tag_50\n      tag_51\n      jump\t// in\n    tag_50:\n      mload(0x40)\n      tag_52\n      swap2\n      swap1\n      tag_48\n      jump\t// in\n    tag_52:\n      mload(0x40)\n      dup1\n      swap2\n      sub\n      swap1\n      return\n        /* \"test02/FundMe.sol\":423:464  mapping (address => uint256) public funds */\n    tag_11:\n      callvalue\n      dup1\n      iszero\n      tag_53\n      jumpi\n      0x00\n      dup1\n      revert\n    tag_53:\n      pop\n      tag_54\n      0x04\n      dup1\n      calldatasize\n      sub\n      dup2\n      add\n      swap1\n      tag_55\n      swap2\n      swap1\n      tag_17\n      jump\t// in\n    tag_55:\n      tag_56\n      jump\t// in\n    tag_54:\n      mload(0x40)\n      tag_57\n      swap2\n      swap1\n      tag_48\n      jump\t// in\n    tag_57:\n      mload(0x40)\n      dup1\n      swap2\n      sub\n      swap1\n      return\n        /* \"test02/FundMe.sol\":1253:1350  function transferOwnership(address newOwner) public onlyOwner {... */\n    tag_12:\n      callvalue\n      dup1\n      iszero\n      tag_58\n      jumpi\n      0x00\n      dup1\n      revert\n    tag_58:\n      pop\n      tag_59\n      0x04\n      dup1\n      calldatasize\n      sub\n      dup2\n      add\n      swap1\n      tag_60\n      swap2\n      swap1\n      tag_17\n      jump\t// in\n    tag_60:\n      tag_61\n      jump\t// in\n    tag_59:\n      stop\n        /* \"test02/FundMe.sol\":2779:2881  function setErc20Addr(address _erc20Addr) external onlyOwner {... */\n    tag_18:\n        /* \"test02/FundMe.sol\":3619:3624  owner */\n      0x01\n      0x00\n      swap1\n      sload\n      swap1\n      0x0100\n      exp\n      swap1\n      div\n      0xffffffffffffffffffffffffffffffffffffffff\n      and\n        /* \"test02/FundMe.sol\":3605:3624  msg.sender == owner */\n      0xffffffffffffffffffffffffffffffffffffffff\n      and\n        /* \"test02/FundMe.sol\":3605:3615  msg.sender */\n      caller\n        /* \"test02/FundMe.sol\":3605:3624  msg.sender == owner */\n      0xffffffffffffffffffffffffffffffffffffffff\n      and\n      eq\n        /* \"test02/FundMe.sol\":3597:3674  require(msg.sender == owner, \"this function can only be called by the owner\") */\n      tag_63\n      jumpi\n      mload(0x40)\n      0x08c379a000000000000000000000000000000000000000000000000000000000\n      dup2\n      mstore\n      0x04\n      add\n      tag_64\n      swap1\n      tag_65\n      jump\t// in\n    tag_64:\n      mload(0x40)\n      dup1\n      swap2\n      sub\n      swap1\n      revert\n    tag_63:\n        /* \"test02/FundMe.sol\":2863:2873  _erc20Addr */\n      dup1\n        /* \"test02/FundMe.sol\":2851:2860  erc20Addr */\n      0x05\n      0x00\n        /* \"test02/FundMe.sol\":2851:2873  erc20Addr = _erc20Addr */\n      0x0100\n      exp\n      dup2\n      sload\n      dup2\n      0xffffffffffffffffffffffffffffffffffffffff\n      mul\n      not\n      and\n      swap1\n      dup4\n      0xffffffffffffffffffffffffffffffffffffffff\n      and\n      mul\n      or\n      swap1\n      sstore\n      pop\n        /* \"test02/FundMe.sol\":2779:2881  function setErc20Addr(address _erc20Addr) external onlyOwner {... */\n      pop\n      jump\t// out\n        /* \"test02/FundMe.sol\":2118:2546  function refund() external  {... */\n    tag_21:\n        /* \"test02/FundMe.sol\":2196:2204  lockTime */\n      sload(0x04)\n        /* \"test02/FundMe.sol\":2183:2193  deployTime */\n      sload(0x03)\n        /* \"test02/FundMe.sol\":2183:2204  deployTime + lockTime */\n      tag_68\n      swap2\n      swap1\n      tag_69\n      jump\t// in\n    tag_68:\n        /* \"test02/FundMe.sol\":2165:2180  block.timestamp */\n      timestamp\n        /* \"test02/FundMe.sol\":2165:2204  block.timestamp > deployTime + lockTime */\n      gt\n        /* \"test02/FundMe.sol\":2157:2238  require(block.timestamp > deployTime + lockTime, \"It's not extraction time yet\" ) */\n      tag_70\n      jumpi\n      mload(0x40)\n      0x08c379a000000000000000000000000000000000000000000000000000000000\n      dup2\n      mstore\n      0x04\n      add\n      tag_71\n      swap1\n      tag_72\n      jump\t// in\n    tag_71:\n      mload(0x40)\n      dup1\n      swap2\n      sub\n      swap1\n      revert\n    tag_70:\n        /* \"test02/FundMe.sol\":571:586  1000 * 10 ** 18 */\n      0x3635c9adc5dea00000\n        /* \"test02/FundMe.sol\":2257:2295  convertEthToUsd(address(this).balance) */\n      tag_73\n        /* \"test02/FundMe.sol\":2273:2294  address(this).balance */\n      selfbalance\n        /* \"test02/FundMe.sol\":2257:2272  convertEthToUsd */\n      tag_46\n        /* \"test02/FundMe.sol\":2257:2295  convertEthToUsd(address(this).balance) */\n      jump\t// in\n    tag_73:\n        /* \"test02/FundMe.sol\":2257:2304  convertEthToUsd(address(this).balance) < TARGET */\n      lt\n        /* \"test02/FundMe.sol\":2249:2326  require(convertEthToUsd(address(this).balance) < TARGET, \"Target is reached\") */\n      tag_74\n      jumpi\n      mload(0x40)\n      0x08c379a000000000000000000000000000000000000000000000000000000000\n      dup2\n      mstore\n      0x04\n      add\n      tag_75\n      swap1\n      tag_76\n      jump\t// in\n    tag_75:\n      mload(0x40)\n      dup1\n      swap2\n      sub\n      swap1\n      revert\n    tag_74:\n        /* \"test02/FundMe.sol\":2366:2367  0 */\n      0x00\n        /* \"test02/FundMe.sol\":2345:2350  funds */\n      dup1\n        /* \"test02/FundMe.sol\":2345:2362  funds[msg.sender] */\n      0x00\n        /* \"test02/FundMe.sol\":2351:2361  msg.sender */\n      caller\n        /* \"test02/FundMe.sol\":2345:2362  funds[msg.sender] */\n      0xffffffffffffffffffffffffffffffffffffffff\n      and\n      0xffffffffffffffffffffffffffffffffffffffff\n      and\n      dup2\n      mstore\n      0x20\n      add\n      swap1\n      dup2\n      mstore\n      0x20\n      add\n      0x00\n      keccak256\n      sload\n        /* \"test02/FundMe.sol\":2345:2367  funds[msg.sender] != 0 */\n      sub\n        /* \"test02/FundMe.sol\":2337:2399  require(funds[msg.sender] != 0, \"there is no fund to payback\") */\n      tag_77\n      jumpi\n      mload(0x40)\n      0x08c379a000000000000000000000000000000000000000000000000000000000\n      dup2\n      mstore\n      0x04\n      add\n      tag_78\n      swap1\n      tag_79\n      jump\t// in\n    tag_78:\n      mload(0x40)\n      dup1\n      swap2\n      sub\n      swap1\n      revert\n    tag_77:\n        /* \"test02/FundMe.sol\":2410:2421  bool status */\n      0x00\n        /* \"test02/FundMe.sol\":2453:2463  msg.sender */\n      caller\n        /* \"test02/FundMe.sol\":2445:2469  payable(msg.sender).call */\n      0xffffffffffffffffffffffffffffffffffffffff\n      and\n        /* \"test02/FundMe.sol\":2477:2482  funds */\n      0x00\n        /* \"test02/FundMe.sol\":2477:2494  funds[msg.sender] */\n      dup1\n        /* \"test02/FundMe.sol\":2483:2493  msg.sender */\n      caller\n        /* \"test02/FundMe.sol\":2477:2494  funds[msg.sender] */\n      0xffffffffffffffffffffffffffffffffffffffff\n      and\n      0xffffffffffffffffffffffffffffffffffffffff\n      and\n      dup2\n      mstore\n      0x20\n      add\n      swap1\n      dup2\n      mstore\n      0x20\n      add\n      0x00\n      keccak256\n      sload\n        /* \"test02/FundMe.sol\":2445:2499  payable(msg.sender).call{value: funds[msg.sender]}('') */\n      mload(0x40)\n      tag_80\n      swap1\n      tag_81\n      jump\t// in\n    tag_80:\n      0x00\n      mload(0x40)\n      dup1\n      dup4\n      sub\n      dup2\n      dup6\n      dup8\n      gas\n      call\n      swap3\n      pop\n      pop\n      pop\n      returndatasize\n      dup1\n      0x00\n      dup2\n      eq\n      tag_84\n      jumpi\n      mload(0x40)\n      swap2\n      pop\n      and(add(returndatasize, 0x3f), not(0x1f))\n      dup3\n      add\n      0x40\n      mstore\n      returndatasize\n      dup3\n      mstore\n      returndatasize\n      0x00\n      0x20\n      dup5\n      add\n      returndatacopy\n      jump(tag_83)\n    tag_84:\n      0x60\n      swap2\n      pop\n    tag_83:\n      pop\n        /* \"test02/FundMe.sol\":2432:2499  (status, ) = payable(msg.sender).call{value: funds[msg.sender]}('') */\n      pop\n      dup1\n      swap2\n      pop\n      pop\n        /* \"test02/FundMe.sol\":2532:2533  0 */\n      0x00\n        /* \"test02/FundMe.sol\":2512:2517  funds */\n      dup1\n        /* \"test02/FundMe.sol\":2512:2529  funds[msg.sender] */\n      0x00\n        /* \"test02/FundMe.sol\":2518:2528  msg.sender */\n      caller\n        /* \"test02/FundMe.sol\":2512:2529  funds[msg.sender] */\n      0xffffffffffffffffffffffffffffffffffffffff\n      and\n      0xffffffffffffffffffffffffffffffffffffffff\n      and\n      dup2\n      mstore\n      0x20\n      add\n      swap1\n      dup2\n      mstore\n      0x20\n      add\n      0x00\n      keccak256\n        /* \"test02/FundMe.sol\":2512:2533  funds[msg.sender] = 0 */\n      dup2\n      swap1\n      sstore\n      pop\n        /* \"test02/FundMe.sol\":2146:2546  {... */\n      pop\n        /* \"test02/FundMe.sol\":2118:2546  function refund() external  {... */\n      jump\t// out\n        /* \"test02/FundMe.sol\":2554:2771  function setFundsAmount(address funder, uint256 amountToUpdate) external {... */\n    tag_26:\n        /* \"test02/FundMe.sol\":2660:2669  erc20Addr */\n      0x05\n      0x00\n      swap1\n      sload\n      swap1\n      0x0100\n      exp\n      swap1\n      div\n      0xffffffffffffffffffffffffffffffffffffffff\n      and\n        /* \"test02/FundMe.sol\":2646:2669  msg.sender == erc20Addr */\n      0xffffffffffffffffffffffffffffffffffffffff\n      and\n        /* \"test02/FundMe.sol\":2646:2656  msg.sender */\n      caller\n        /* \"test02/FundMe.sol\":2646:2669  msg.sender == erc20Addr */\n      0xffffffffffffffffffffffffffffffffffffffff\n      and\n      eq\n        /* \"test02/FundMe.sol\":2638:2722  require(msg.sender == erc20Addr, \"you do not have permission to call this function\") */\n      tag_86\n      jumpi\n      mload(0x40)\n      0x08c379a000000000000000000000000000000000000000000000000000000000\n      dup2\n      mstore\n      0x04\n      add\n      tag_87\n      swap1\n      tag_88\n      jump\t// in\n    tag_87:\n      mload(0x40)\n      dup1\n      swap2\n      sub\n      swap1\n      revert\n    tag_86:\n        /* \"test02/FundMe.sol\":2749:2763  amountToUpdate */\n      dup1\n        /* \"test02/FundMe.sol\":2733:2738  funds */\n      0x00\n        /* \"test02/FundMe.sol\":2733:2746  funds[funder] */\n      dup1\n        /* \"test02/FundMe.sol\":2739:2745  funder */\n      dup5\n        /* \"test02/FundMe.sol\":2733:2746  funds[funder] */\n      0xffffffffffffffffffffffffffffffffffffffff\n      and\n      0xffffffffffffffffffffffffffffffffffffffff\n      and\n      dup2\n      mstore\n      0x20\n      add\n      swap1\n      dup2\n      mstore\n      0x20\n      add\n      0x00\n      keccak256\n        /* \"test02/FundMe.sol\":2733:2763  funds[funder] = amountToUpdate */\n      dup2\n      swap1\n      sstore\n      pop\n        /* \"test02/FundMe.sol\":2554:2771  function setFundsAmount(address funder, uint256 amountToUpdate) external {... */\n      pop\n      pop\n      jump\t// out\n        /* \"test02/FundMe.sol\":593:613  address public owner */\n    tag_29:\n      0x01\n      0x00\n      swap1\n      sload\n      swap1\n      0x0100\n      exp\n      swap1\n      div\n      0xffffffffffffffffffffffffffffffffffffffff\n      and\n      dup2\n      jump\t// out\n        /* \"test02/FundMe.sol\":1362:2110  function getFund() external onlyOwner {... */\n    tag_34:\n        /* \"test02/FundMe.sol\":3619:3624  owner */\n      0x01\n      0x00\n      swap1\n      sload\n      swap1\n      0x0100\n      exp\n      swap1\n      div\n      0xffffffffffffffffffffffffffffffffffffffff\n      and\n        /* \"test02/FundMe.sol\":3605:3624  msg.sender == owner */\n      0xffffffffffffffffffffffffffffffffffffffff\n      and\n        /* \"test02/FundMe.sol\":3605:3615  msg.sender */\n      caller\n        /* \"test02/FundMe.sol\":3605:3624  msg.sender == owner */\n      0xffffffffffffffffffffffffffffffffffffffff\n      and\n      eq\n        /* \"test02/FundMe.sol\":3597:3674  require(msg.sender == owner, \"this function can only be called by the owner\") */\n      tag_90\n      jumpi\n      mload(0x40)\n      0x08c379a000000000000000000000000000000000000000000000000000000000\n      dup2\n      mstore\n      0x04\n      add\n      tag_91\n      swap1\n      tag_65\n      jump\t// in\n    tag_91:\n      mload(0x40)\n      dup1\n      swap2\n      sub\n      swap1\n      revert\n    tag_90:\n        /* \"test02/FundMe.sol\":1450:1458  lockTime */\n      sload(0x04)\n        /* \"test02/FundMe.sol\":1437:1447  deployTime */\n      sload(0x03)\n        /* \"test02/FundMe.sol\":1437:1458  deployTime + lockTime */\n      tag_93\n      swap2\n      swap1\n      tag_69\n      jump\t// in\n    tag_93:\n        /* \"test02/FundMe.sol\":1419:1434  block.timestamp */\n      timestamp\n        /* \"test02/FundMe.sol\":1419:1458  block.timestamp > deployTime + lockTime */\n      gt\n        /* \"test02/FundMe.sol\":1411:1492  require(block.timestamp > deployTime + lockTime, \"It's not extraction time yet\" ) */\n      tag_94\n      jumpi\n      mload(0x40)\n      0x08c379a000000000000000000000000000000000000000000000000000000000\n      dup2\n      mstore\n      0x04\n      add\n      tag_95\n      swap1\n      tag_72\n      jump\t// in\n    tag_95:\n      mload(0x40)\n      dup1\n      swap2\n      sub\n      swap1\n      revert\n    tag_94:\n        /* \"test02/FundMe.sol\":571:586  1000 * 10 ** 18 */\n      0x3635c9adc5dea00000\n        /* \"test02/FundMe.sol\":1511:1549  convertEthToUsd(address(this).balance) */\n      tag_96\n        /* \"test02/FundMe.sol\":1527:1548  address(this).balance */\n      selfbalance\n        /* \"test02/FundMe.sol\":1511:1526  convertEthToUsd */\n      tag_46\n        /* \"test02/FundMe.sol\":1511:1549  convertEthToUsd(address(this).balance) */\n      jump\t// in\n    tag_96:\n        /* \"test02/FundMe.sol\":1511:1559  convertEthToUsd(address(this).balance) >= TARGET */\n      lt\n      iszero\n        /* \"test02/FundMe.sol\":1503:1585  require(convertEthToUsd(address(this).balance) >= TARGET, \"Target is not reached\") */\n      tag_97\n      jumpi\n      mload(0x40)\n      0x08c379a000000000000000000000000000000000000000000000000000000000\n      dup2\n      mstore\n      0x04\n      add\n      tag_98\n      swap1\n      tag_99\n      jump\t// in\n    tag_98:\n      mload(0x40)\n      dup1\n      swap2\n      sub\n      swap1\n      revert\n    tag_97:\n        /* \"test02/FundMe.sol\":1970:1981  bool status */\n      0x00\n        /* \"test02/FundMe.sol\":2013:2023  msg.sender */\n      caller\n        /* \"test02/FundMe.sol\":2005:2029  payable(msg.sender).call */\n      0xffffffffffffffffffffffffffffffffffffffff\n      and\n        /* \"test02/FundMe.sol\":2037:2058  address(this).balance */\n      selfbalance\n        /* \"test02/FundMe.sol\":2005:2063  payable(msg.sender).call{value: address(this).balance}('') */\n      mload(0x40)\n      tag_100\n      swap1\n      tag_81\n      jump\t// in\n    tag_100:\n      0x00\n      mload(0x40)\n      dup1\n      dup4\n      sub\n      dup2\n      dup6\n      dup8\n      gas\n      call\n      swap3\n      pop\n      pop\n      pop\n      returndatasize\n      dup1\n      0x00\n      dup2\n      eq\n      tag_103\n      jumpi\n      mload(0x40)\n      swap2\n      pop\n      and(add(returndatasize, 0x3f), not(0x1f))\n      dup3\n      add\n      0x40\n      mstore\n      returndatasize\n      dup3\n      mstore\n      returndatasize\n      0x00\n      0x20\n      dup5\n      add\n      returndatacopy\n      jump(tag_102)\n    tag_103:\n      0x60\n      swap2\n      pop\n    tag_102:\n      pop\n        /* \"test02/FundMe.sol\":1992:2063  (status, ) = payable(msg.sender).call{value: address(this).balance}('') */\n      pop\n      dup1\n      swap2\n      pop\n      pop\n        /* \"test02/FundMe.sol\":2082:2088  status */\n      dup1\n        /* \"test02/FundMe.sol\":2074:2102  require(status, \"tx failed\") */\n      tag_104\n      jumpi\n      mload(0x40)\n      0x08c379a000000000000000000000000000000000000000000000000000000000\n      dup2\n      mstore\n      0x04\n      add\n      tag_105\n      swap1\n      tag_106\n      jump\t// in\n    tag_105:\n      mload(0x40)\n      dup1\n      swap2\n      sub\n      swap1\n      revert\n    tag_104:\n        /* \"test02/FundMe.sol\":1400:2110  {... */\n      pop\n        /* \"test02/FundMe.sol\":1362:2110  function getFund() external onlyOwner {... */\n      jump\t// out\n        /* \"test02/FundMe.sol\":1000:1245  function fund() external payable {... */\n    tag_36:\n        /* \"test02/FundMe.sol\":1083:1091  lockTime */\n      sload(0x04)\n        /* \"test02/FundMe.sol\":1070:1080  deployTime */\n      sload(0x03)\n        /* \"test02/FundMe.sol\":1070:1091  deployTime + lockTime */\n      tag_108\n      swap2\n      swap1\n      tag_69\n      jump\t// in\n    tag_108:\n        /* \"test02/FundMe.sol\":1052:1067  block.timestamp */\n      timestamp\n        /* \"test02/FundMe.sol\":1052:1091  block.timestamp < deployTime + lockTime */\n      lt\n        /* \"test02/FundMe.sol\":1044:1115  require(block.timestamp < deployTime + lockTime, \"The fund is closed\" ) */\n      tag_109\n      jumpi\n      mload(0x40)\n      0x08c379a000000000000000000000000000000000000000000000000000000000\n      dup2\n      mstore\n      0x04\n      add\n      tag_110\n      swap1\n      tag_111\n      jump\t// in\n    tag_110:\n      mload(0x40)\n      dup1\n      swap2\n      sub\n      swap1\n      revert\n    tag_109:\n        /* \"test02/FundMe.sol\":504:518  100 * 10 ** 18 */\n      0x056bc75e2d63100000\n        /* \"test02/FundMe.sol\":1134:1160  convertEthToUsd(msg.value) */\n      tag_112\n        /* \"test02/FundMe.sol\":1150:1159  msg.value */\n      callvalue\n        /* \"test02/FundMe.sol\":1134:1149  convertEthToUsd */\n      tag_46\n        /* \"test02/FundMe.sol\":1134:1160  convertEthToUsd(msg.value) */\n      jump\t// in\n    tag_112:\n        /* \"test02/FundMe.sol\":1134:1177  convertEthToUsd(msg.value) >= MININUM_VALUE */\n      lt\n      iszero\n        /* \"test02/FundMe.sol\":1126:1197  require(convertEthToUsd(msg.value) >= MININUM_VALUE, \"send more money\") */\n      tag_113\n      jumpi\n      mload(0x40)\n      0x08c379a000000000000000000000000000000000000000000000000000000000\n      dup2\n      mstore\n      0x04\n      add\n      tag_114\n      swap1\n      tag_115\n      jump\t// in\n    tag_114:\n      mload(0x40)\n      dup1\n      swap2\n      sub\n      swap1\n      revert\n    tag_113:\n        /* \"test02/FundMe.sol\":1228:1237  msg.value */\n      callvalue\n        /* \"test02/FundMe.sol\":1208:1213  funds */\n      0x00\n        /* \"test02/FundMe.sol\":1208:1225  funds[msg.sender] */\n      dup1\n        /* \"test02/FundMe.sol\":1214:1224  msg.sender */\n      caller\n        /* \"test02/FundMe.sol\":1208:1225  funds[msg.sender] */\n      0xffffffffffffffffffffffffffffffffffffffff\n      and\n      0xffffffffffffffffffffffffffffffffffffffff\n      and\n      dup2\n      mstore\n      0x20\n      add\n      swap1\n      dup2\n      mstore\n      0x20\n      add\n      0x00\n      keccak256\n        /* \"test02/FundMe.sol\":1208:1237  funds[msg.sender] = msg.value */\n      dup2\n      swap1\n      sstore\n      pop\n        /* \"test02/FundMe.sol\":1000:1245  function fund() external payable {... */\n      jump\t// out\n        /* \"test02/FundMe.sol\":2984:3341  function getChainlinkDataFeedLatestAnswer() public view returns (int) {... */\n    tag_39:\n        /* \"test02/FundMe.sol\":3049:3052  int */\n      0x00\n        /* \"test02/FundMe.sol\":3143:3156  int256 answer */\n      dup1\n        /* \"test02/FundMe.sol\":3283:3291  dataFeed */\n      0x02\n      0x00\n      swap1\n      sload\n      swap1\n      0x0100\n      exp\n      swap1\n      div\n      0xffffffffffffffffffffffffffffffffffffffff\n      and\n        /* \"test02/FundMe.sol\":3283:3307  dataFeed.latestRoundData */\n      0xffffffffffffffffffffffffffffffffffffffff\n      and\n      0xfeaf968c\n        /* \"test02/FundMe.sol\":3283:3309  dataFeed.latestRoundData() */\n      mload(0x40)\n      dup2\n      0xffffffff\n      and\n      0xe0\n      shl\n      dup2\n      mstore\n      0x04\n      add\n      0xa0\n      mload(0x40)\n      dup1\n      dup4\n      sub\n      dup2\n      dup7\n      gas\n      staticcall\n      iszero\n      dup1\n      iszero\n      tag_118\n      jumpi\n      returndatasize\n      0x00\n      dup1\n      returndatacopy\n      revert(0x00, returndatasize)\n    tag_118:\n      pop\n      pop\n      pop\n      pop\n      mload(0x40)\n      returndatasize\n      not(0x1f)\n      0x1f\n      dup3\n      add\n      and\n      dup3\n      add\n      dup1\n      0x40\n      mstore\n      pop\n      dup2\n      add\n      swap1\n      tag_119\n      swap2\n      swap1\n      tag_120\n      jump\t// in\n    tag_119:\n        /* \"test02/FundMe.sol\":3093:3309  (... */\n      pop\n      pop\n      pop\n      swap2\n      pop\n      pop\n        /* \"test02/FundMe.sol\":3327:3333  answer */\n      dup1\n        /* \"test02/FundMe.sol\":3320:3333  return answer */\n      swap2\n      pop\n      pop\n        /* \"test02/FundMe.sol\":2984:3341  function getChainlinkDataFeedLatestAnswer() public view returns (int) {... */\n      swap1\n      jump\t// out\n        /* \"test02/FundMe.sol\":3353:3557  function convertEthToUsd(uint256 ethAmount) public view returns(uint256) {... */\n    tag_46:\n        /* \"test02/FundMe.sol\":3417:3424  uint256 */\n      0x00\n        /* \"test02/FundMe.sol\":3437:3453  uint256 ethPrice */\n      dup1\n        /* \"test02/FundMe.sol\":3464:3498  getChainlinkDataFeedLatestAnswer() */\n      tag_122\n        /* \"test02/FundMe.sol\":3464:3496  getChainlinkDataFeedLatestAnswer */\n      tag_39\n        /* \"test02/FundMe.sol\":3464:3498  getChainlinkDataFeedLatestAnswer() */\n      jump\t// in\n    tag_122:\n        /* \"test02/FundMe.sol\":3437:3499  uint256 ethPrice = uint256(getChainlinkDataFeedLatestAnswer()) */\n      swap1\n      pop\n        /* \"test02/FundMe.sol\":3541:3548  10 ** 8 */\n      0x05f5e100\n        /* \"test02/FundMe.sol\":3529:3537  ethPrice */\n      dup2\n        /* \"test02/FundMe.sol\":3517:3526  ethAmount */\n      dup5\n        /* \"test02/FundMe.sol\":3517:3537  ethAmount * ethPrice */\n      tag_123\n      swap2\n      swap1\n      tag_124\n      jump\t// in\n    tag_123:\n        /* \"test02/FundMe.sol\":3517:3549  ethAmount * ethPrice / (10 ** 8) */\n      tag_125\n      swap2\n      swap1\n      tag_126\n      jump\t// in\n    tag_125:\n        /* \"test02/FundMe.sol\":3510:3549  return ethAmount * ethPrice / (10 ** 8) */\n      swap2\n      pop\n      pop\n        /* \"test02/FundMe.sol\":3353:3557  function convertEthToUsd(uint256 ethAmount) public view returns(uint256) {... */\n      swap2\n      swap1\n      pop\n      jump\t// out\n        /* \"test02/FundMe.sol\":537:586  uint256 public constant TARGET  = 1000 * 10 ** 18 */\n    tag_51:\n        /* \"test02/FundMe.sol\":571:586  1000 * 10 ** 18 */\n      0x3635c9adc5dea00000\n        /* \"test02/FundMe.sol\":537:586  uint256 public constant TARGET  = 1000 * 10 ** 18 */\n      dup2\n      jump\t// out\n        /* \"test02/FundMe.sol\":423:464  mapping (address => uint256) public funds */\n    tag_56:\n      mstore(0x20, 0x00)\n      dup1\n      0x00\n      mstore\n      keccak256(0x00, 0x40)\n      0x00\n      swap2\n      pop\n      swap1\n      pop\n      sload\n      dup2\n      jump\t// out\n        /* \"test02/FundMe.sol\":1253:1350  function transferOwnership(address newOwner) public onlyOwner {... */\n    tag_61:\n        /* \"test02/FundMe.sol\":3619:3624  owner */\n      0x01\n      0x00\n      swap1\n      sload\n      swap1\n      0x0100\n      exp\n      swap1\n      div\n      0xffffffffffffffffffffffffffffffffffffffff\n      and\n        /* \"test02/FundMe.sol\":3605:3624  msg.sender == owner */\n      0xffffffffffffffffffffffffffffffffffffffff\n      and\n        /* \"test02/FundMe.sol\":3605:3615  msg.sender */\n      caller\n        /* \"test02/FundMe.sol\":3605:3624  msg.sender == owner */\n      0xffffffffffffffffffffffffffffffffffffffff\n      and\n      eq\n        /* \"test02/FundMe.sol\":3597:3674  require(msg.sender == owner, \"this function can only be called by the owner\") */\n      tag_128\n      jumpi\n      mload(0x40)\n      0x08c379a000000000000000000000000000000000000000000000000000000000\n      dup2\n      mstore\n      0x04\n      add\n      tag_129\n      swap1\n      tag_65\n      jump\t// in\n    tag_129:\n      mload(0x40)\n      dup1\n      swap2\n      sub\n      swap1\n      revert\n    tag_128:\n        /* \"test02/FundMe.sol\":1334:1342  newOwner */\n      dup1\n        /* \"test02/FundMe.sol\":1326:1331  owner */\n      0x01\n      0x00\n        /* \"test02/FundMe.sol\":1326:1342  owner = newOwner */\n      0x0100\n      exp\n      dup2\n      sload\n      dup2\n      0xffffffffffffffffffffffffffffffffffffffff\n      mul\n      not\n      and\n      swap1\n      dup4\n      0xffffffffffffffffffffffffffffffffffffffff\n      and\n      mul\n      or\n      swap1\n      sstore\n      pop\n        /* \"test02/FundMe.sol\":1253:1350  function transferOwnership(address newOwner) public onlyOwner {... */\n      pop\n      jump\t// out\n        /* \"#utility.yul\":88:205   */\n    tag_132:\n        /* \"#utility.yul\":197:198   */\n      0x00\n        /* \"#utility.yul\":194:195   */\n      dup1\n        /* \"#utility.yul\":187:199   */\n      revert\n        /* \"#utility.yul\":334:460   */\n    tag_134:\n        /* \"#utility.yul\":371:378   */\n      0x00\n        /* \"#utility.yul\":411:453   */\n      0xffffffffffffffffffffffffffffffffffffffff\n        /* \"#utility.yul\":404:409   */\n      dup3\n        /* \"#utility.yul\":400:454   */\n      and\n        /* \"#utility.yul\":389:454   */\n      swap1\n      pop\n        /* \"#utility.yul\":334:460   */\n      swap2\n      swap1\n      pop\n      jump\t// out\n        /* \"#utility.yul\":466:562   */\n    tag_135:\n        /* \"#utility.yul\":503:510   */\n      0x00\n        /* \"#utility.yul\":532:556   */\n      tag_181\n        /* \"#utility.yul\":550:555   */\n      dup3\n        /* \"#utility.yul\":532:556   */\n      tag_134\n      jump\t// in\n    tag_181:\n        /* \"#utility.yul\":521:556   */\n      swap1\n      pop\n        /* \"#utility.yul\":466:562   */\n      swap2\n      swap1\n      pop\n      jump\t// out\n        /* \"#utility.yul\":568:690   */\n    tag_136:\n        /* \"#utility.yul\":641:665   */\n      tag_183\n        /* \"#utility.yul\":659:664   */\n      dup2\n        /* \"#utility.yul\":641:665   */\n      tag_135\n      jump\t// in\n    tag_183:\n        /* \"#utility.yul\":634:639   */\n      dup2\n        /* \"#utility.yul\":631:666   */\n      eq\n        /* \"#utility.yul\":621:684   */\n      tag_184\n      jumpi\n        /* \"#utility.yul\":680:681   */\n      0x00\n        /* \"#utility.yul\":677:678   */\n      dup1\n        /* \"#utility.yul\":670:682   */\n      revert\n        /* \"#utility.yul\":621:684   */\n    tag_184:\n        /* \"#utility.yul\":568:690   */\n      pop\n      jump\t// out\n        /* \"#utility.yul\":696:835   */\n    tag_137:\n        /* \"#utility.yul\":742:747   */\n      0x00\n        /* \"#utility.yul\":780:786   */\n      dup2\n        /* \"#utility.yul\":767:787   */\n      calldataload\n        /* \"#utility.yul\":758:787   */\n      swap1\n      pop\n        /* \"#utility.yul\":796:829   */\n      tag_186\n        /* \"#utility.yul\":823:828   */\n      dup2\n        /* \"#utility.yul\":796:829   */\n      tag_136\n      jump\t// in\n    tag_186:\n        /* \"#utility.yul\":696:835   */\n      swap3\n      swap2\n      pop\n      pop\n      jump\t// out\n        /* \"#utility.yul\":841:1170   */\n    tag_17:\n        /* \"#utility.yul\":900:906   */\n      0x00\n        /* \"#utility.yul\":949:951   */\n      0x20\n        /* \"#utility.yul\":937:946   */\n      dup3\n        /* \"#utility.yul\":928:935   */\n      dup5\n        /* \"#utility.yul\":924:947   */\n      sub\n        /* \"#utility.yul\":920:952   */\n      slt\n        /* \"#utility.yul\":917:1036   */\n      iszero\n      tag_188\n      jumpi\n        /* \"#utility.yul\":955:1034   */\n      tag_189\n      tag_132\n      jump\t// in\n    tag_189:\n        /* \"#utility.yul\":917:1036   */\n    tag_188:\n        /* \"#utility.yul\":1075:1076   */\n      0x00\n        /* \"#utility.yul\":1100:1153   */\n      tag_190\n        /* \"#utility.yul\":1145:1152   */\n      dup5\n        /* \"#utility.yul\":1136:1142   */\n      dup3\n        /* \"#utility.yul\":1125:1134   */\n      dup6\n        /* \"#utility.yul\":1121:1143   */\n      add\n        /* \"#utility.yul\":1100:1153   */\n      tag_137\n      jump\t// in\n    tag_190:\n        /* \"#utility.yul\":1090:1153   */\n      swap2\n      pop\n        /* \"#utility.yul\":1046:1163   */\n      pop\n        /* \"#utility.yul\":841:1170   */\n      swap3\n      swap2\n      pop\n      pop\n      jump\t// out\n        /* \"#utility.yul\":1176:1253   */\n    tag_138:\n        /* \"#utility.yul\":1213:1220   */\n      0x00\n        /* \"#utility.yul\":1242:1247   */\n      dup2\n        /* \"#utility.yul\":1231:1247   */\n      swap1\n      pop\n        /* \"#utility.yul\":1176:1253   */\n      swap2\n      swap1\n      pop\n      jump\t// out\n        /* \"#utility.yul\":1259:1381   */\n    tag_139:\n        /* \"#utility.yul\":1332:1356   */\n      tag_193\n        /* \"#utility.yul\":1350:1355   */\n      dup2\n        /* \"#utility.yul\":1332:1356   */\n      tag_138\n      jump\t// in\n    tag_193:\n        /* \"#utility.yul\":1325:1330   */\n      dup2\n        /* \"#utility.yul\":1322:1357   */\n      eq\n        /* \"#utility.yul\":1312:1375   */\n      tag_194\n      jumpi\n        /* \"#utility.yul\":1371:1372   */\n      0x00\n        /* \"#utility.yul\":1368:1369   */\n      dup1\n        /* \"#utility.yul\":1361:1373   */\n      revert\n        /* \"#utility.yul\":1312:1375   */\n    tag_194:\n        /* \"#utility.yul\":1259:1381   */\n      pop\n      jump\t// out\n        /* \"#utility.yul\":1387:1526   */\n    tag_140:\n        /* \"#utility.yul\":1433:1438   */\n      0x00\n        /* \"#utility.yul\":1471:1477   */\n      dup2\n        /* \"#utility.yul\":1458:1478   */\n      calldataload\n        /* \"#utility.yul\":1449:1478   */\n      swap1\n      pop\n        /* \"#utility.yul\":1487:1520   */\n      tag_196\n        /* \"#utility.yul\":1514:1519   */\n      dup2\n        /* \"#utility.yul\":1487:1520   */\n      tag_139\n      jump\t// in\n    tag_196:\n        /* \"#utility.yul\":1387:1526   */\n      swap3\n      swap2\n      pop\n      pop\n      jump\t// out\n        /* \"#utility.yul\":1532:2006   */\n    tag_25:\n        /* \"#utility.yul\":1600:1606   */\n      0x00\n        /* \"#utility.yul\":1608:1614   */\n      dup1\n        /* \"#utility.yul\":1657:1659   */\n      0x40\n        /* \"#utility.yul\":1645:1654   */\n      dup4\n        /* \"#utility.yul\":1636:1643   */\n      dup6\n        /* \"#utility.yul\":1632:1655   */\n      sub\n        /* \"#utility.yul\":1628:1660   */\n      slt\n        /* \"#utility.yul\":1625:1744   */\n      iszero\n      tag_198\n      jumpi\n        /* \"#utility.yul\":1663:1742   */\n      tag_199\n      tag_132\n      jump\t// in\n    tag_199:\n        /* \"#utility.yul\":1625:1744   */\n    tag_198:\n        /* \"#utility.yul\":1783:1784   */\n      0x00\n        /* \"#utility.yul\":1808:1861   */\n      tag_200\n        /* \"#utility.yul\":1853:1860   */\n      dup6\n        /* \"#utility.yul\":1844:1850   */\n      dup3\n        /* \"#utility.yul\":1833:1842   */\n      dup7\n        /* \"#utility.yul\":1829:1851   */\n      add\n        /* \"#utility.yul\":1808:1861   */\n      tag_137\n      jump\t// in\n    tag_200:\n        /* \"#utility.yul\":1798:1861   */\n      swap3\n      pop\n        /* \"#utility.yul\":1754:1871   */\n      pop\n        /* \"#utility.yul\":1910:1912   */\n      0x20\n        /* \"#utility.yul\":1936:1989   */\n      tag_201\n        /* \"#utility.yul\":1981:1988   */\n      dup6\n        /* \"#utility.yul\":1972:1978   */\n      dup3\n        /* \"#utility.yul\":1961:1970   */\n      dup7\n        /* \"#utility.yul\":1957:1979   */\n      add\n        /* \"#utility.yul\":1936:1989   */\n      tag_140\n      jump\t// in\n    tag_201:\n        /* \"#utility.yul\":1926:1989   */\n      swap2\n      pop\n        /* \"#utility.yul\":1881:1999   */\n      pop\n        /* \"#utility.yul\":1532:2006   */\n      swap3\n      pop\n      swap3\n      swap1\n      pop\n      jump\t// out\n        /* \"#utility.yul\":2012:2130   */\n    tag_141:\n        /* \"#utility.yul\":2099:2123   */\n      tag_203\n        /* \"#utility.yul\":2117:2122   */\n      dup2\n        /* \"#utility.yul\":2099:2123   */\n      tag_135\n      jump\t// in\n    tag_203:\n        /* \"#utility.yul\":2094:2097   */\n      dup3\n        /* \"#utility.yul\":2087:2124   */\n      mstore\n        /* \"#utility.yul\":2012:2130   */\n      pop\n      pop\n      jump\t// out\n        /* \"#utility.yul\":2136:2358   */\n    tag_31:\n        /* \"#utility.yul\":2229:2233   */\n      0x00\n        /* \"#utility.yul\":2267:2269   */\n      0x20\n        /* \"#utility.yul\":2256:2265   */\n      dup3\n        /* \"#utility.yul\":2252:2270   */\n      add\n        /* \"#utility.yul\":2244:2270   */\n      swap1\n      pop\n        /* \"#utility.yul\":2280:2351   */\n      tag_205\n        /* \"#utility.yul\":2348:2349   */\n      0x00\n        /* \"#utility.yul\":2337:2346   */\n      dup4\n        /* \"#utility.yul\":2333:2350   */\n      add\n        /* \"#utility.yul\":2324:2330   */\n      dup5\n        /* \"#utility.yul\":2280:2351   */\n      tag_141\n      jump\t// in\n    tag_205:\n        /* \"#utility.yul\":2136:2358   */\n      swap3\n      swap2\n      pop\n      pop\n      jump\t// out\n        /* \"#utility.yul\":2364:2440   */\n    tag_142:\n        /* \"#utility.yul\":2400:2407   */\n      0x00\n        /* \"#utility.yul\":2429:2434   */\n      dup2\n        /* \"#utility.yul\":2418:2434   */\n      swap1\n      pop\n        /* \"#utility.yul\":2364:2440   */\n      swap2\n      swap1\n      pop\n      jump\t// out\n        /* \"#utility.yul\":2446:2561   */\n    tag_143:\n        /* \"#utility.yul\":2531:2554   */\n      tag_208\n        /* \"#utility.yul\":2548:2553   */\n      dup2\n        /* \"#utility.yul\":2531:2554   */\n      tag_142\n      jump\t// in\n    tag_208:\n        /* \"#utility.yul\":2526:2529   */\n      dup3\n        /* \"#utility.yul\":2519:2555   */\n      mstore\n        /* \"#utility.yul\":2446:2561   */\n      pop\n      pop\n      jump\t// out\n        /* \"#utility.yul\":2567:2785   */\n    tag_41:\n        /* \"#utility.yul\":2658:2662   */\n      0x00\n        /* \"#utility.yul\":2696:2698   */\n      0x20\n        /* \"#utility.yul\":2685:2694   */\n      dup3\n        /* \"#utility.yul\":2681:2699   */\n      add\n        /* \"#utility.yul\":2673:2699   */\n      swap1\n      pop\n        /* \"#utility.yul\":2709:2778   */\n      tag_210\n        /* \"#utility.yul\":2775:2776   */\n      0x00\n        /* \"#utility.yul\":2764:2773   */\n      dup4\n        /* \"#utility.yul\":2760:2777   */\n      add\n        /* \"#utility.yul\":2751:2757   */\n      dup5\n        /* \"#utility.yul\":2709:2778   */\n      tag_143\n      jump\t// in\n    tag_210:\n        /* \"#utility.yul\":2567:2785   */\n      swap3\n      swap2\n      pop\n      pop\n      jump\t// out\n        /* \"#utility.yul\":2791:3120   */\n    tag_45:\n        /* \"#utility.yul\":2850:2856   */\n      0x00\n        /* \"#utility.yul\":2899:2901   */\n      0x20\n        /* \"#utility.yul\":2887:2896   */\n      dup3\n        /* \"#utility.yul\":2878:2885   */\n      dup5\n        /* \"#utility.yul\":2874:2897   */\n      sub\n        /* \"#utility.yul\":2870:2902   */\n      slt\n        /* \"#utility.yul\":2867:2986   */\n      iszero\n      tag_212\n      jumpi\n        /* \"#utility.yul\":2905:2984   */\n      tag_213\n      tag_132\n      jump\t// in\n    tag_213:\n        /* \"#utility.yul\":2867:2986   */\n    tag_212:\n        /* \"#utility.yul\":3025:3026   */\n      0x00\n        /* \"#utility.yul\":3050:3103   */\n      tag_214\n        /* \"#utility.yul\":3095:3102   */\n      dup5\n        /* \"#utility.yul\":3086:3092   */\n      dup3\n        /* \"#utility.yul\":3075:3084   */\n      dup6\n        /* \"#utility.yul\":3071:3093   */\n      add\n        /* \"#utility.yul\":3050:3103   */\n      tag_140\n      jump\t// in\n    tag_214:\n        /* \"#utility.yul\":3040:3103   */\n      swap2\n      pop\n        /* \"#utility.yul\":2996:3113   */\n      pop\n        /* \"#utility.yul\":2791:3120   */\n      swap3\n      swap2\n      pop\n      pop\n      jump\t// out\n        /* \"#utility.yul\":3126:3244   */\n    tag_144:\n        /* \"#utility.yul\":3213:3237   */\n      tag_216\n        /* \"#utility.yul\":3231:3236   */\n      dup2\n        /* \"#utility.yul\":3213:3237   */\n      tag_138\n      jump\t// in\n    tag_216:\n        /* \"#utility.yul\":3208:3211   */\n      dup3\n        /* \"#utility.yul\":3201:3238   */\n      mstore\n        /* \"#utility.yul\":3126:3244   */\n      pop\n      pop\n      jump\t// out\n        /* \"#utility.yul\":3250:3472   */\n    tag_48:\n        /* \"#utility.yul\":3343:3347   */\n      0x00\n        /* \"#utility.yul\":3381:3383   */\n      0x20\n        /* \"#utility.yul\":3370:3379   */\n      dup3\n        /* \"#utility.yul\":3366:3384   */\n      add\n        /* \"#utility.yul\":3358:3384   */\n      swap1\n      pop\n        /* \"#utility.yul\":3394:3465   */\n      tag_218\n        /* \"#utility.yul\":3462:3463   */\n      0x00\n        /* \"#utility.yul\":3451:3460   */\n      dup4\n        /* \"#utility.yul\":3447:3464   */\n      add\n        /* \"#utility.yul\":3438:3444   */\n      dup5\n        /* \"#utility.yul\":3394:3465   */\n      tag_144\n      jump\t// in\n    tag_218:\n        /* \"#utility.yul\":3250:3472   */\n      swap3\n      swap2\n      pop\n      pop\n      jump\t// out\n        /* \"#utility.yul\":3478:3647   */\n    tag_145:\n        /* \"#utility.yul\":3562:3573   */\n      0x00\n        /* \"#utility.yul\":3596:3602   */\n      dup3\n        /* \"#utility.yul\":3591:3594   */\n      dup3\n        /* \"#utility.yul\":3584:3603   */\n      mstore\n        /* \"#utility.yul\":3636:3640   */\n      0x20\n        /* \"#utility.yul\":3631:3634   */\n      dup3\n        /* \"#utility.yul\":3627:3641   */\n      add\n        /* \"#utility.yul\":3612:3641   */\n      swap1\n      pop\n        /* \"#utility.yul\":3478:3647   */\n      swap3\n      swap2\n      pop\n      pop\n      jump\t// out\n        /* \"#utility.yul\":3653:3885   */\n    tag_146:\n        /* \"#utility.yul\":3793:3827   */\n      0x746869732066756e6374696f6e2063616e206f6e6c792062652063616c6c6564\n        /* \"#utility.yul\":3789:3790   */\n      0x00\n        /* \"#utility.yul\":3781:3787   */\n      dup3\n        /* \"#utility.yul\":3777:3791   */\n      add\n        /* \"#utility.yul\":3770:3828   */\n      mstore\n        /* \"#utility.yul\":3862:3877   */\n      0x20627920746865206f776e657200000000000000000000000000000000000000\n        /* \"#utility.yul\":3857:3859   */\n      0x20\n        /* \"#utility.yul\":3849:3855   */\n      dup3\n        /* \"#utility.yul\":3845:3860   */\n      add\n        /* \"#utility.yul\":3838:3878   */\n      mstore\n        /* \"#utility.yul\":3653:3885   */\n      pop\n      jump\t// out\n        /* \"#utility.yul\":3891:4257   */\n    tag_147:\n        /* \"#utility.yul\":4033:4036   */\n      0x00\n        /* \"#utility.yul\":4054:4121   */\n      tag_222\n        /* \"#utility.yul\":4118:4120   */\n      0x2d\n        /* \"#utility.yul\":4113:4116   */\n      dup4\n        /* \"#utility.yul\":4054:4121   */\n      tag_145\n      jump\t// in\n    tag_222:\n        /* \"#utility.yul\":4047:4121   */\n      swap2\n      pop\n        /* \"#utility.yul\":4130:4223   */\n      tag_223\n        /* \"#utility.yul\":4219:4222   */\n      dup3\n        /* \"#utility.yul\":4130:4223   */\n      tag_146\n      jump\t// in\n    tag_223:\n        /* \"#utility.yul\":4248:4250   */\n      0x40\n        /* \"#utility.yul\":4243:4246   */\n      dup3\n        /* \"#utility.yul\":4239:4251   */\n      add\n        /* \"#utility.yul\":4232:4251   */\n      swap1\n      pop\n        /* \"#utility.yul\":3891:4257   */\n      swap2\n      swap1\n      pop\n      jump\t// out\n        /* \"#utility.yul\":4263:4682   */\n    tag_65:\n        /* \"#utility.yul\":4429:4433   */\n      0x00\n        /* \"#utility.yul\":4467:4469   */\n      0x20\n        /* \"#utility.yul\":4456:4465   */\n      dup3\n        /* \"#utility.yul\":4452:4470   */\n      add\n        /* \"#utility.yul\":4444:4470   */\n      swap1\n      pop\n        /* \"#utility.yul\":4516:4525   */\n      dup2\n        /* \"#utility.yul\":4510:4514   */\n      dup2\n        /* \"#utility.yul\":4506:4526   */\n      sub\n        /* \"#utility.yul\":4502:4503   */\n      0x00\n        /* \"#utility.yul\":4491:4500   */\n      dup4\n        /* \"#utility.yul\":4487:4504   */\n      add\n        /* \"#utility.yul\":4480:4527   */\n      mstore\n        /* \"#utility.yul\":4544:4675   */\n      tag_225\n        /* \"#utility.yul\":4670:4674   */\n      dup2\n        /* \"#utility.yul\":4544:4675   */\n      tag_147\n      jump\t// in\n    tag_225:\n        /* \"#utility.yul\":4536:4675   */\n      swap1\n      pop\n        /* \"#utility.yul\":4263:4682   */\n      swap2\n      swap1\n      pop\n      jump\t// out\n        /* \"#utility.yul\":4688:4868   */\n    tag_148:\n        /* \"#utility.yul\":4736:4813   */\n      0x4e487b7100000000000000000000000000000000000000000000000000000000\n        /* \"#utility.yul\":4733:4734   */\n      0x00\n        /* \"#utility.yul\":4726:4814   */\n      mstore\n        /* \"#utility.yul\":4833:4837   */\n      0x11\n        /* \"#utility.yul\":4830:4831   */\n      0x04\n        /* \"#utility.yul\":4823:4838   */\n      mstore\n        /* \"#utility.yul\":4857:4861   */\n      0x24\n        /* \"#utility.yul\":4854:4855   */\n      0x00\n        /* \"#utility.yul\":4847:4862   */\n      revert\n        /* \"#utility.yul\":4874:5065   */\n    tag_69:\n        /* \"#utility.yul\":4914:4917   */\n      0x00\n        /* \"#utility.yul\":4933:4953   */\n      tag_228\n        /* \"#utility.yul\":4951:4952   */\n      dup3\n        /* \"#utility.yul\":4933:4953   */\n      tag_138\n      jump\t// in\n    tag_228:\n        /* \"#utility.yul\":4928:4953   */\n      swap2\n      pop\n        /* \"#utility.yul\":4967:4987   */\n      tag_229\n        /* \"#utility.yul\":4985:4986   */\n      dup4\n        /* \"#utility.yul\":4967:4987   */\n      tag_138\n      jump\t// in\n    tag_229:\n        /* \"#utility.yul\":4962:4987   */\n      swap3\n      pop\n        /* \"#utility.yul\":5010:5011   */\n      dup3\n        /* \"#utility.yul\":5007:5008   */\n      dup3\n        /* \"#utility.yul\":5003:5012   */\n      add\n        /* \"#utility.yul\":4996:5012   */\n      swap1\n      pop\n        /* \"#utility.yul\":5031:5034   */\n      dup1\n        /* \"#utility.yul\":5028:5029   */\n      dup3\n        /* \"#utility.yul\":5025:5035   */\n      gt\n        /* \"#utility.yul\":5022:5058   */\n      iszero\n      tag_230\n      jumpi\n        /* \"#utility.yul\":5038:5056   */\n      tag_231\n      tag_148\n      jump\t// in\n    tag_231:\n        /* \"#utility.yul\":5022:5058   */\n    tag_230:\n        /* \"#utility.yul\":4874:5065   */\n      swap3\n      swap2\n      pop\n      pop\n      jump\t// out\n        /* \"#utility.yul\":5071:5249   */\n    tag_149:\n        /* \"#utility.yul\":5211:5241   */\n      0x49742773206e6f742065787472616374696f6e2074696d652079657400000000\n        /* \"#utility.yul\":5207:5208   */\n      0x00\n        /* \"#utility.yul\":5199:5205   */\n      dup3\n        /* \"#utility.yul\":5195:5209   */\n      add\n        /* \"#utility.yul\":5188:5242   */\n      mstore\n        /* \"#utility.yul\":5071:5249   */\n      pop\n      jump\t// out\n        /* \"#utility.yul\":5255:5621   */\n    tag_150:\n        /* \"#utility.yul\":5397:5400   */\n      0x00\n        /* \"#utility.yul\":5418:5485   */\n      tag_234\n        /* \"#utility.yul\":5482:5484   */\n      0x1c\n        /* \"#utility.yul\":5477:5480   */\n      dup4\n        /* \"#utility.yul\":5418:5485   */\n      tag_145\n      jump\t// in\n    tag_234:\n        /* \"#utility.yul\":5411:5485   */\n      swap2\n      pop\n        /* \"#utility.yul\":5494:5587   */\n      tag_235\n        /* \"#utility.yul\":5583:5586   */\n      dup3\n        /* \"#utility.yul\":5494:5587   */\n      tag_149\n      jump\t// in\n    tag_235:\n        /* \"#utility.yul\":5612:5614   */\n      0x20\n        /* \"#utility.yul\":5607:5610   */\n      dup3\n        /* \"#utility.yul\":5603:5615   */\n      add\n        /* \"#utility.yul\":5596:5615   */\n      swap1\n      pop\n        /* \"#utility.yul\":5255:5621   */\n      swap2\n      swap1\n      pop\n      jump\t// out\n        /* \"#utility.yul\":5627:6046   */\n    tag_72:\n        /* \"#utility.yul\":5793:5797   */\n      0x00\n        /* \"#utility.yul\":5831:5833   */\n      0x20\n        /* \"#utility.yul\":5820:5829   */\n      dup3\n        /* \"#utility.yul\":5816:5834   */\n      add\n        /* \"#utility.yul\":5808:5834   */\n      swap1\n      pop\n        /* \"#utility.yul\":5880:5889   */\n      dup2\n        /* \"#utility.yul\":5874:5878   */\n      dup2\n        /* \"#utility.yul\":5870:5890   */\n      sub\n        /* \"#utility.yul\":5866:5867   */\n      0x00\n        /* \"#utility.yul\":5855:5864   */\n      dup4\n        /* \"#utility.yul\":5851:5868   */\n      add\n        /* \"#utility.yul\":5844:5891   */\n      mstore\n        /* \"#utility.yul\":5908:6039   */\n      tag_237\n        /* \"#utility.yul\":6034:6038   */\n      dup2\n        /* \"#utility.yul\":5908:6039   */\n      tag_150\n      jump\t// in\n    tag_237:\n        /* \"#utility.yul\":5900:6039   */\n      swap1\n      pop\n        /* \"#utility.yul\":5627:6046   */\n      swap2\n      swap1\n      pop\n      jump\t// out\n        /* \"#utility.yul\":6052:6219   */\n    tag_151:\n        /* \"#utility.yul\":6192:6211   */\n      0x5461726765742069732072656163686564000000000000000000000000000000\n        /* \"#utility.yul\":6188:6189   */\n      0x00\n        /* \"#utility.yul\":6180:6186   */\n      dup3\n        /* \"#utility.yul\":6176:6190   */\n      add\n        /* \"#utility.yul\":6169:6212   */\n      mstore\n        /* \"#utility.yul\":6052:6219   */\n      pop\n      jump\t// out\n        /* \"#utility.yul\":6225:6591   */\n    tag_152:\n        /* \"#utility.yul\":6367:6370   */\n      0x00\n        /* \"#utility.yul\":6388:6455   */\n      tag_240\n        /* \"#utility.yul\":6452:6454   */\n      0x11\n        /* \"#utility.yul\":6447:6450   */\n      dup4\n        /* \"#utility.yul\":6388:6455   */\n      tag_145\n      jump\t// in\n    tag_240:\n        /* \"#utility.yul\":6381:6455   */\n      swap2\n      pop\n        /* \"#utility.yul\":6464:6557   */\n      tag_241\n        /* \"#utility.yul\":6553:6556   */\n      dup3\n        /* \"#utility.yul\":6464:6557   */\n      tag_151\n      jump\t// in\n    tag_241:\n        /* \"#utility.yul\":6582:6584   */\n      0x20\n        /* \"#utility.yul\":6577:6580   */\n      dup3\n        /* \"#utility.yul\":6573:6585   */\n      add\n        /* \"#utility.yul\":6566:6585   */\n      swap1\n      pop\n        /* \"#utility.yul\":6225:6591   */\n      swap2\n      swap1\n      pop\n      jump\t// out\n        /* \"#utility.yul\":6597:7016   */\n    tag_76:\n        /* \"#utility.yul\":6763:6767   */\n      0x00\n        /* \"#utility.yul\":6801:6803   */\n      0x20\n        /* \"#utility.yul\":6790:6799   */\n      dup3\n        /* \"#utility.yul\":6786:6804   */\n      add\n        /* \"#utility.yul\":6778:6804   */\n      swap1\n      pop\n        /* \"#utility.yul\":6850:6859   */\n      dup2\n        /* \"#utility.yul\":6844:6848   */\n      dup2\n        /* \"#utility.yul\":6840:6860   */\n      sub\n        /* \"#utility.yul\":6836:6837   */\n      0x00\n        /* \"#utility.yul\":6825:6834   */\n      dup4\n        /* \"#utility.yul\":6821:6838   */\n      add\n        /* \"#utility.yul\":6814:6861   */\n      mstore\n        /* \"#utility.yul\":6878:7009   */\n      tag_243\n        /* \"#utility.yul\":7004:7008   */\n      dup2\n        /* \"#utility.yul\":6878:7009   */\n      tag_152\n      jump\t// in\n    tag_243:\n        /* \"#utility.yul\":6870:7009   */\n      swap1\n      pop\n        /* \"#utility.yul\":6597:7016   */\n      swap2\n      swap1\n      pop\n      jump\t// out\n        /* \"#utility.yul\":7022:7199   */\n    tag_153:\n        /* \"#utility.yul\":7162:7191   */\n      0x7468657265206973206e6f2066756e6420746f207061796261636b0000000000\n        /* \"#utility.yul\":7158:7159   */\n      0x00\n        /* \"#utility.yul\":7150:7156   */\n      dup3\n        /* \"#utility.yul\":7146:7160   */\n      add\n        /* \"#utility.yul\":7139:7192   */\n      mstore\n        /* \"#utility.yul\":7022:7199   */\n      pop\n      jump\t// out\n        /* \"#utility.yul\":7205:7571   */\n    tag_154:\n        /* \"#utility.yul\":7347:7350   */\n      0x00\n        /* \"#utility.yul\":7368:7435   */\n      tag_246\n        /* \"#utility.yul\":7432:7434   */\n      0x1b\n        /* \"#utility.yul\":7427:7430   */\n      dup4\n        /* \"#utility.yul\":7368:7435   */\n      tag_145\n      jump\t// in\n    tag_246:\n        /* \"#utility.yul\":7361:7435   */\n      swap2\n      pop\n        /* \"#utility.yul\":7444:7537   */\n      tag_247\n        /* \"#utility.yul\":7533:7536   */\n      dup3\n        /* \"#utility.yul\":7444:7537   */\n      tag_153\n      jump\t// in\n    tag_247:\n        /* \"#utility.yul\":7562:7564   */\n      0x20\n        /* \"#utility.yul\":7557:7560   */\n      dup3\n        /* \"#utility.yul\":7553:7565   */\n      add\n        /* \"#utility.yul\":7546:7565   */\n      swap1\n      pop\n        /* \"#utility.yul\":7205:7571   */\n      swap2\n      swap1\n      pop\n      jump\t// out\n        /* \"#utility.yul\":7577:7996   */\n    tag_79:\n        /* \"#utility.yul\":7743:7747   */\n      0x00\n        /* \"#utility.yul\":7781:7783   */\n      0x20\n        /* \"#utility.yul\":7770:7779   */\n      dup3\n        /* \"#utility.yul\":7766:7784   */\n      add\n        /* \"#utility.yul\":7758:7784   */\n      swap1\n      pop\n        /* \"#utility.yul\":7830:7839   */\n      dup2\n        /* \"#utility.yul\":7824:7828   */\n      dup2\n        /* \"#utility.yul\":7820:7840   */\n      sub\n        /* \"#utility.yul\":7816:7817   */\n      0x00\n        /* \"#utility.yul\":7805:7814   */\n      dup4\n        /* \"#utility.yul\":7801:7818   */\n      add\n        /* \"#utility.yul\":7794:7841   */\n      mstore\n        /* \"#utility.yul\":7858:7989   */\n      tag_249\n        /* \"#utility.yul\":7984:7988   */\n      dup2\n        /* \"#utility.yul\":7858:7989   */\n      tag_154\n      jump\t// in\n    tag_249:\n        /* \"#utility.yul\":7850:7989   */\n      swap1\n      pop\n        /* \"#utility.yul\":7577:7996   */\n      swap2\n      swap1\n      pop\n      jump\t// out\n        /* \"#utility.yul\":8002:8149   */\n    tag_155:\n        /* \"#utility.yul\":8103:8114   */\n      0x00\n        /* \"#utility.yul\":8140:8143   */\n      dup2\n        /* \"#utility.yul\":8125:8143   */\n      swap1\n      pop\n        /* \"#utility.yul\":8002:8149   */\n      swap3\n      swap2\n      pop\n      pop\n      jump\t// out\n        /* \"#utility.yul\":8155:8269   */\n    tag_156:\n      pop\n      jump\t// out\n        /* \"#utility.yul\":8275:8673   */\n    tag_157:\n        /* \"#utility.yul\":8434:8437   */\n      0x00\n        /* \"#utility.yul\":8455:8538   */\n      tag_253\n        /* \"#utility.yul\":8536:8537   */\n      0x00\n        /* \"#utility.yul\":8531:8534   */\n      dup4\n        /* \"#utility.yul\":8455:8538   */\n      tag_155\n      jump\t// in\n    tag_253:\n        /* \"#utility.yul\":8448:8538   */\n      swap2\n      pop\n        /* \"#utility.yul\":8547:8640   */\n      tag_254\n        /* \"#utility.yul\":8636:8639   */\n      dup3\n        /* \"#utility.yul\":8547:8640   */\n      tag_156\n      jump\t// in\n    tag_254:\n        /* \"#utility.yul\":8665:8666   */\n      0x00\n        /* \"#utility.yul\":8660:8663   */\n      dup3\n        /* \"#utility.yul\":8656:8667   */\n      add\n        /* \"#utility.yul\":8649:8667   */\n      swap1\n      pop\n        /* \"#utility.yul\":8275:8673   */\n      swap2\n      swap1\n      pop\n      jump\t// out\n        /* \"#utility.yul\":8679:9058   */\n    tag_81:\n        /* \"#utility.yul\":8863:8866   */\n      0x00\n        /* \"#utility.yul\":8885:9032   */\n      tag_256\n        /* \"#utility.yul\":9028:9031   */\n      dup3\n        /* \"#utility.yul\":8885:9032   */\n      tag_157\n      jump\t// in\n    tag_256:\n        /* \"#utility.yul\":8878:9032   */\n      swap2\n      pop\n        /* \"#utility.yul\":9049:9052   */\n      dup2\n        /* \"#utility.yul\":9042:9052   */\n      swap1\n      pop\n        /* \"#utility.yul\":8679:9058   */\n      swap2\n      swap1\n      pop\n      jump\t// out\n        /* \"#utility.yul\":9064:9299   */\n    tag_158:\n        /* \"#utility.yul\":9204:9238   */\n      0x796f7520646f206e6f742068617665207065726d697373696f6e20746f206361\n        /* \"#utility.yul\":9200:9201   */\n      0x00\n        /* \"#utility.yul\":9192:9198   */\n      dup3\n        /* \"#utility.yul\":9188:9202   */\n      add\n        /* \"#utility.yul\":9181:9239   */\n      mstore\n        /* \"#utility.yul\":9273:9291   */\n      0x6c6c20746869732066756e6374696f6e00000000000000000000000000000000\n        /* \"#utility.yul\":9268:9270   */\n      0x20\n        /* \"#utility.yul\":9260:9266   */\n      dup3\n        /* \"#utility.yul\":9256:9271   */\n      add\n        /* \"#utility.yul\":9249:9292   */\n      mstore\n        /* \"#utility.yul\":9064:9299   */\n      pop\n      jump\t// out\n        /* \"#utility.yul\":9305:9671   */\n    tag_159:\n        /* \"#utility.yul\":9447:9450   */\n      0x00\n        /* \"#utility.yul\":9468:9535   */\n      tag_259\n        /* \"#utility.yul\":9532:9534   */\n      0x30\n        /* \"#utility.yul\":9527:9530   */\n      dup4\n        /* \"#utility.yul\":9468:9535   */\n      tag_145\n      jump\t// in\n    tag_259:\n        /* \"#utility.yul\":9461:9535   */\n      swap2\n      pop\n        /* \"#utility.yul\":9544:9637   */\n      tag_260\n        /* \"#utility.yul\":9633:9636   */\n      dup3\n        /* \"#utility.yul\":9544:9637   */\n      tag_158\n      jump\t// in\n    tag_260:\n        /* \"#utility.yul\":9662:9664   */\n      0x40\n        /* \"#utility.yul\":9657:9660   */\n      dup3\n        /* \"#utility.yul\":9653:9665   */\n      add\n        /* \"#utility.yul\":9646:9665   */\n      swap1\n      pop\n        /* \"#utility.yul\":9305:9671   */\n      swap2\n      swap1\n      pop\n      jump\t// out\n        /* \"#utility.yul\":9677:10096   */\n    tag_88:\n        /* \"#utility.yul\":9843:9847   */\n      0x00\n        /* \"#utility.yul\":9881:9883   */\n      0x20\n        /* \"#utility.yul\":9870:9879   */\n      dup3\n        /* \"#utility.yul\":9866:9884   */\n      add\n        /* \"#utility.yul\":9858:9884   */\n      swap1\n      pop\n        /* \"#utility.yul\":9930:9939   */\n      dup2\n        /* \"#utility.yul\":9924:9928   */\n      dup2\n        /* \"#utility.yul\":9920:9940   */\n      sub\n        /* \"#utility.yul\":9916:9917   */\n      0x00\n        /* \"#utility.yul\":9905:9914   */\n      dup4\n        /* \"#utility.yul\":9901:9918   */\n      add\n        /* \"#utility.yul\":9894:9941   */\n      mstore\n        /* \"#utility.yul\":9958:10089   */\n      tag_262\n        /* \"#utility.yul\":10084:10088   */\n      dup2\n        /* \"#utility.yul\":9958:10089   */\n      tag_159\n      jump\t// in\n    tag_262:\n        /* \"#utility.yul\":9950:10089   */\n      swap1\n      pop\n        /* \"#utility.yul\":9677:10096   */\n      swap2\n      swap1\n      pop\n      jump\t// out\n        /* \"#utility.yul\":10102:10273   */\n    tag_160:\n        /* \"#utility.yul\":10242:10265   */\n      0x546172676574206973206e6f7420726561636865640000000000000000000000\n        /* \"#utility.yul\":10238:10239   */\n      0x00\n        /* \"#utility.yul\":10230:10236   */\n      dup3\n        /* \"#utility.yul\":10226:10240   */\n      add\n        /* \"#utility.yul\":10219:10266   */\n      mstore\n        /* \"#utility.yul\":10102:10273   */\n      pop\n      jump\t// out\n        /* \"#utility.yul\":10279:10645   */\n    tag_161:\n        /* \"#utility.yul\":10421:10424   */\n      0x00\n        /* \"#utility.yul\":10442:10509   */\n      tag_265\n        /* \"#utility.yul\":10506:10508   */\n      0x15\n        /* \"#utility.yul\":10501:10504   */\n      dup4\n        /* \"#utility.yul\":10442:10509   */\n      tag_145\n      jump\t// in\n    tag_265:\n        /* \"#utility.yul\":10435:10509   */\n      swap2\n      pop\n        /* \"#utility.yul\":10518:10611   */\n      tag_266\n        /* \"#utility.yul\":10607:10610   */\n      dup3\n        /* \"#utility.yul\":10518:10611   */\n      tag_160\n      jump\t// in\n    tag_266:\n        /* \"#utility.yul\":10636:10638   */\n      0x20\n        /* \"#utility.yul\":10631:10634   */\n      dup3\n        /* \"#utility.yul\":10627:10639   */\n      add\n        /* \"#utility.yul\":10620:10639   */\n      swap1\n      pop\n        /* \"#utility.yul\":10279:10645   */\n      swap2\n      swap1\n      pop\n      jump\t// out\n        /* \"#utility.yul\":10651:11070   */\n    tag_99:\n        /* \"#utility.yul\":10817:10821   */\n      0x00\n        /* \"#utility.yul\":10855:10857   */\n      0x20\n        /* \"#utility.yul\":10844:10853   */\n      dup3\n        /* \"#utility.yul\":10840:10858   */\n      add\n        /* \"#utility.yul\":10832:10858   */\n      swap1\n      pop\n        /* \"#utility.yul\":10904:10913   */\n      dup2\n        /* \"#utility.yul\":10898:10902   */\n      dup2\n        /* \"#utility.yul\":10894:10914   */\n      sub\n        /* \"#utility.yul\":10890:10891   */\n      0x00\n        /* \"#utility.yul\":10879:10888   */\n      dup4\n        /* \"#utility.yul\":10875:10892   */\n      add\n        /* \"#utility.yul\":10868:10915   */\n      mstore\n        /* \"#utility.yul\":10932:11063   */\n      tag_268\n        /* \"#utility.yul\":11058:11062   */\n      dup2\n        /* \"#utility.yul\":10932:11063   */\n      tag_161\n      jump\t// in\n    tag_268:\n        /* \"#utility.yul\":10924:11063   */\n      swap1\n      pop\n        /* \"#utility.yul\":10651:11070   */\n      swap2\n      swap1\n      pop\n      jump\t// out\n        /* \"#utility.yul\":11076:11235   */\n    tag_162:\n        /* \"#utility.yul\":11216:11227   */\n      0x7478206661696c65640000000000000000000000000000000000000000000000\n        /* \"#utility.yul\":11212:11213   */\n      0x00\n        /* \"#utility.yul\":11204:11210   */\n      dup3\n        /* \"#utility.yul\":11200:11214   */\n      add\n        /* \"#utility.yul\":11193:11228   */\n      mstore\n        /* \"#utility.yul\":11076:11235   */\n      pop\n      jump\t// out\n        /* \"#utility.yul\":11241:11606   */\n    tag_163:\n        /* \"#utility.yul\":11383:11386   */\n      0x00\n        /* \"#utility.yul\":11404:11470   */\n      tag_271\n        /* \"#utility.yul\":11468:11469   */\n      0x09\n        /* \"#utility.yul\":11463:11466   */\n      dup4\n        /* \"#utility.yul\":11404:11470   */\n      tag_145\n      jump\t// in\n    tag_271:\n        /* \"#utility.yul\":11397:11470   */\n      swap2\n      pop\n        /* \"#utility.yul\":11479:11572   */\n      tag_272\n        /* \"#utility.yul\":11568:11571   */\n      dup3\n        /* \"#utility.yul\":11479:11572   */\n      tag_162\n      jump\t// in\n    tag_272:\n        /* \"#utility.yul\":11597:11599   */\n      0x20\n        /* \"#utility.yul\":11592:11595   */\n      dup3\n        /* \"#utility.yul\":11588:11600   */\n      add\n        /* \"#utility.yul\":11581:11600   */\n      swap1\n      pop\n        /* \"#utility.yul\":11241:11606   */\n      swap2\n      swap1\n      pop\n      jump\t// out\n        /* \"#utility.yul\":11612:12031   */\n    tag_106:\n        /* \"#utility.yul\":11778:11782   */\n      0x00\n        /* \"#utility.yul\":11816:11818   */\n      0x20\n        /* \"#utility.yul\":11805:11814   */\n      dup3\n        /* \"#utility.yul\":11801:11819   */\n      add\n        /* \"#utility.yul\":11793:11819   */\n      swap1\n      pop\n        /* \"#utility.yul\":11865:11874   */\n      dup2\n        /* \"#utility.yul\":11859:11863   */\n      dup2\n        /* \"#utility.yul\":11855:11875   */\n      sub\n        /* \"#utility.yul\":11851:11852   */\n      0x00\n        /* \"#utility.yul\":11840:11849   */\n      dup4\n        /* \"#utility.yul\":11836:11853   */\n      add\n        /* \"#utility.yul\":11829:11876   */\n      mstore\n        /* \"#utility.yul\":11893:12024   */\n      tag_274\n        /* \"#utility.yul\":12019:12023   */\n      dup2\n        /* \"#utility.yul\":11893:12024   */\n      tag_163\n      jump\t// in\n    tag_274:\n        /* \"#utility.yul\":11885:12024   */\n      swap1\n      pop\n        /* \"#utility.yul\":11612:12031   */\n      swap2\n      swap1\n      pop\n      jump\t// out\n        /* \"#utility.yul\":12037:12205   */\n    tag_164:\n        /* \"#utility.yul\":12177:12197   */\n      0x5468652066756e6420697320636c6f7365640000000000000000000000000000\n        /* \"#utility.yul\":12173:12174   */\n      0x00\n        /* \"#utility.yul\":12165:12171   */\n      dup3\n        /* \"#utility.yul\":12161:12175   */\n      add\n        /* \"#utility.yul\":12154:12198   */\n      mstore\n        /* \"#utility.yul\":12037:12205   */\n      pop\n      jump\t// out\n        /* \"#utility.yul\":12211:12577   */\n    tag_165:\n        /* \"#utility.yul\":12353:12356   */\n      0x00\n        /* \"#utility.yul\":12374:12441   */\n      tag_277\n        /* \"#utility.yul\":12438:12440   */\n      0x12\n        /* \"#utility.yul\":12433:12436   */\n      dup4\n        /* \"#utility.yul\":12374:12441   */\n      tag_145\n      jump\t// in\n    tag_277:\n        /* \"#utility.yul\":12367:12441   */\n      swap2\n      pop\n        /* \"#utility.yul\":12450:12543   */\n      tag_278\n        /* \"#utility.yul\":12539:12542   */\n      dup3\n        /* \"#utility.yul\":12450:12543   */\n      tag_164\n      jump\t// in\n    tag_278:\n        /* \"#utility.yul\":12568:12570   */\n      0x20\n        /* \"#utility.yul\":12563:12566   */\n      dup3\n        /* \"#utility.yul\":12559:12571   */\n      add\n        /* \"#utility.yul\":12552:12571   */\n      swap1\n      pop\n        /* \"#utility.yul\":12211:12577   */\n      swap2\n      swap1\n      pop\n      jump\t// out\n        /* \"#utility.yul\":12583:13002   */\n    tag_111:\n        /* \"#utility.yul\":12749:12753   */\n      0x00\n        /* \"#utility.yul\":12787:12789   */\n      0x20\n        /* \"#utility.yul\":12776:12785   */\n      dup3\n        /* \"#utility.yul\":12772:12790   */\n      add\n        /* \"#utility.yul\":12764:12790   */\n      swap1\n      pop\n        /* \"#utility.yul\":12836:12845   */\n      dup2\n        /* \"#utility.yul\":12830:12834   */\n      dup2\n        /* \"#utility.yul\":12826:12846   */\n      sub\n        /* \"#utility.yul\":12822:12823   */\n      0x00\n        /* \"#utility.yul\":12811:12820   */\n      dup4\n        /* \"#utility.yul\":12807:12824   */\n      add\n        /* \"#utility.yul\":12800:12847   */\n      mstore\n        /* \"#utility.yul\":12864:12995   */\n      tag_280\n        /* \"#utility.yul\":12990:12994   */\n      dup2\n        /* \"#utility.yul\":12864:12995   */\n      tag_165\n      jump\t// in\n    tag_280:\n        /* \"#utility.yul\":12856:12995   */\n      swap1\n      pop\n        /* \"#utility.yul\":12583:13002   */\n      swap2\n      swap1\n      pop\n      jump\t// out\n        /* \"#utility.yul\":13008:13173   */\n    tag_166:\n        /* \"#utility.yul\":13148:13165   */\n      0x73656e64206d6f7265206d6f6e65790000000000000000000000000000000000\n        /* \"#utility.yul\":13144:13145   */\n      0x00\n        /* \"#utility.yul\":13136:13142   */\n      dup3\n        /* \"#utility.yul\":13132:13146   */\n      add\n        /* \"#utility.yul\":13125:13166   */\n      mstore\n        /* \"#utility.yul\":13008:13173   */\n      pop\n      jump\t// out\n        /* \"#utility.yul\":13179:13545   */\n    tag_167:\n        /* \"#utility.yul\":13321:13324   */\n      0x00\n        /* \"#utility.yul\":13342:13409   */\n      tag_283\n        /* \"#utility.yul\":13406:13408   */\n      0x0f\n        /* \"#utility.yul\":13401:13404   */\n      dup4\n        /* \"#utility.yul\":13342:13409   */\n      tag_145\n      jump\t// in\n    tag_283:\n        /* \"#utility.yul\":13335:13409   */\n      swap2\n      pop\n        /* \"#utility.yul\":13418:13511   */\n      tag_284\n        /* \"#utility.yul\":13507:13510   */\n      dup3\n        /* \"#utility.yul\":13418:13511   */\n      tag_166\n      jump\t// in\n    tag_284:\n        /* \"#utility.yul\":13536:13538   */\n      0x20\n        /* \"#utility.yul\":13531:13534   */\n      dup3\n        /* \"#utility.yul\":13527:13539   */\n      add\n        /* \"#utility.yul\":13520:13539   */\n      swap1\n      pop\n        /* \"#utility.yul\":13179:13545   */\n      swap2\n      swap1\n      pop\n      jump\t// out\n        /* \"#utility.yul\":13551:13970   */\n    tag_115:\n        /* \"#utility.yul\":13717:13721   */\n      0x00\n        /* \"#utility.yul\":13755:13757   */\n      0x20\n        /* \"#utility.yul\":13744:13753   */\n      dup3\n        /* \"#utility.yul\":13740:13758   */\n      add\n        /* \"#utility.yul\":13732:13758   */\n      swap1\n      pop\n        /* \"#utility.yul\":13804:13813   */\n      dup2\n        /* \"#utility.yul\":13798:13802   */\n      dup2\n        /* \"#utility.yul\":13794:13814   */\n      sub\n        /* \"#utility.yul\":13790:13791   */\n      0x00\n        /* \"#utility.yul\":13779:13788   */\n      dup4\n        /* \"#utility.yul\":13775:13792   */\n      add\n        /* \"#utility.yul\":13768:13815   */\n      mstore\n        /* \"#utility.yul\":13832:13963   */\n      tag_286\n        /* \"#utility.yul\":13958:13962   */\n      dup2\n        /* \"#utility.yul\":13832:13963   */\n      tag_167\n      jump\t// in\n    tag_286:\n        /* \"#utility.yul\":13824:13963   */\n      swap1\n      pop\n        /* \"#utility.yul\":13551:13970   */\n      swap2\n      swap1\n      pop\n      jump\t// out\n        /* \"#utility.yul\":13976:14081   */\n    tag_168:\n        /* \"#utility.yul\":14012:14019   */\n      0x00\n        /* \"#utility.yul\":14052:14074   */\n      0xffffffffffffffffffff\n        /* \"#utility.yul\":14045:14050   */\n      dup3\n        /* \"#utility.yul\":14041:14075   */\n      and\n        /* \"#utility.yul\":14030:14075   */\n      swap1\n      pop\n        /* \"#utility.yul\":13976:14081   */\n      swap2\n      swap1\n      pop\n      jump\t// out\n        /* \"#utility.yul\":14087:14207   */\n    tag_169:\n        /* \"#utility.yul\":14159:14182   */\n      tag_289\n        /* \"#utility.yul\":14176:14181   */\n      dup2\n        /* \"#utility.yul\":14159:14182   */\n      tag_168\n      jump\t// in\n    tag_289:\n        /* \"#utility.yul\":14152:14157   */\n      dup2\n        /* \"#utility.yul\":14149:14183   */\n      eq\n        /* \"#utility.yul\":14139:14201   */\n      tag_290\n      jumpi\n        /* \"#utility.yul\":14197:14198   */\n      0x00\n        /* \"#utility.yul\":14194:14195   */\n      dup1\n        /* \"#utility.yul\":14187:14199   */\n      revert\n        /* \"#utility.yul\":14139:14201   */\n    tag_290:\n        /* \"#utility.yul\":14087:14207   */\n      pop\n      jump\t// out\n        /* \"#utility.yul\":14213:14354   */\n    tag_170:\n        /* \"#utility.yul\":14269:14274   */\n      0x00\n        /* \"#utility.yul\":14300:14306   */\n      dup2\n        /* \"#utility.yul\":14294:14307   */\n      mload\n        /* \"#utility.yul\":14285:14307   */\n      swap1\n      pop\n        /* \"#utility.yul\":14316:14348   */\n      tag_292\n        /* \"#utility.yul\":14342:14347   */\n      dup2\n        /* \"#utility.yul\":14316:14348   */\n      tag_169\n      jump\t// in\n    tag_292:\n        /* \"#utility.yul\":14213:14354   */\n      swap3\n      swap2\n      pop\n      pop\n      jump\t// out\n        /* \"#utility.yul\":14360:14480   */\n    tag_171:\n        /* \"#utility.yul\":14432:14455   */\n      tag_294\n        /* \"#utility.yul\":14449:14454   */\n      dup2\n        /* \"#utility.yul\":14432:14455   */\n      tag_142\n      jump\t// in\n    tag_294:\n        /* \"#utility.yul\":14425:14430   */\n      dup2\n        /* \"#utility.yul\":14422:14456   */\n      eq\n        /* \"#utility.yul\":14412:14474   */\n      tag_295\n      jumpi\n        /* \"#utility.yul\":14470:14471   */\n      0x00\n        /* \"#utility.yul\":14467:14468   */\n      dup1\n        /* \"#utility.yul\":14460:14472   */\n      revert\n        /* \"#utility.yul\":14412:14474   */\n    tag_295:\n        /* \"#utility.yul\":14360:14480   */\n      pop\n      jump\t// out\n        /* \"#utility.yul\":14486:14627   */\n    tag_172:\n        /* \"#utility.yul\":14542:14547   */\n      0x00\n        /* \"#utility.yul\":14573:14579   */\n      dup2\n        /* \"#utility.yul\":14567:14580   */\n      mload\n        /* \"#utility.yul\":14558:14580   */\n      swap1\n      pop\n        /* \"#utility.yul\":14589:14621   */\n      tag_297\n        /* \"#utility.yul\":14615:14620   */\n      dup2\n        /* \"#utility.yul\":14589:14621   */\n      tag_171\n      jump\t// in\n    tag_297:\n        /* \"#utility.yul\":14486:14627   */\n      swap3\n      swap2\n      pop\n      pop\n      jump\t// out\n        /* \"#utility.yul\":14633:14776   */\n    tag_173:\n        /* \"#utility.yul\":14690:14695   */\n      0x00\n        /* \"#utility.yul\":14721:14727   */\n      dup2\n        /* \"#utility.yul\":14715:14728   */\n      mload\n        /* \"#utility.yul\":14706:14728   */\n      swap1\n      pop\n        /* \"#utility.yul\":14737:14770   */\n      tag_299\n        /* \"#utility.yul\":14764:14769   */\n      dup2\n        /* \"#utility.yul\":14737:14770   */\n      tag_139\n      jump\t// in\n    tag_299:\n        /* \"#utility.yul\":14633:14776   */\n      swap3\n      swap2\n      pop\n      pop\n      jump\t// out\n        /* \"#utility.yul\":14782:15753   */\n    tag_120:\n        /* \"#utility.yul\":14885:14891   */\n      0x00\n        /* \"#utility.yul\":14893:14899   */\n      dup1\n        /* \"#utility.yul\":14901:14907   */\n      0x00\n        /* \"#utility.yul\":14909:14915   */\n      dup1\n        /* \"#utility.yul\":14917:14923   */\n      0x00\n        /* \"#utility.yul\":14966:14969   */\n      0xa0\n        /* \"#utility.yul\":14954:14963   */\n      dup7\n        /* \"#utility.yul\":14945:14952   */\n      dup9\n        /* \"#utility.yul\":14941:14964   */\n      sub\n        /* \"#utility.yul\":14937:14970   */\n      slt\n        /* \"#utility.yul\":14934:15054   */\n      iszero\n      tag_301\n      jumpi\n        /* \"#utility.yul\":14973:15052   */\n      tag_302\n      tag_132\n      jump\t// in\n    tag_302:\n        /* \"#utility.yul\":14934:15054   */\n    tag_301:\n        /* \"#utility.yul\":15093:15094   */\n      0x00\n        /* \"#utility.yul\":15118:15181   */\n      tag_303\n        /* \"#utility.yul\":15173:15180   */\n      dup9\n        /* \"#utility.yul\":15164:15170   */\n      dup3\n        /* \"#utility.yul\":15153:15162   */\n      dup10\n        /* \"#utility.yul\":15149:15171   */\n      add\n        /* \"#utility.yul\":15118:15181   */\n      tag_170\n      jump\t// in\n    tag_303:\n        /* \"#utility.yul\":15108:15181   */\n      swap6\n      pop\n        /* \"#utility.yul\":15064:15191   */\n      pop\n        /* \"#utility.yul\":15230:15232   */\n      0x20\n        /* \"#utility.yul\":15256:15319   */\n      tag_304\n        /* \"#utility.yul\":15311:15318   */\n      dup9\n        /* \"#utility.yul\":15302:15308   */\n      dup3\n        /* \"#utility.yul\":15291:15300   */\n      dup10\n        /* \"#utility.yul\":15287:15309   */\n      add\n        /* \"#utility.yul\":15256:15319   */\n      tag_172\n      jump\t// in\n    tag_304:\n        /* \"#utility.yul\":15246:15319   */\n      swap5\n      pop\n        /* \"#utility.yul\":15201:15329   */\n      pop\n        /* \"#utility.yul\":15368:15370   */\n      0x40\n        /* \"#utility.yul\":15394:15458   */\n      tag_305\n        /* \"#utility.yul\":15450:15457   */\n      dup9\n        /* \"#utility.yul\":15441:15447   */\n      dup3\n        /* \"#utility.yul\":15430:15439   */\n      dup10\n        /* \"#utility.yul\":15426:15448   */\n      add\n        /* \"#utility.yul\":15394:15458   */\n      tag_173\n      jump\t// in\n    tag_305:\n        /* \"#utility.yul\":15384:15458   */\n      swap4\n      pop\n        /* \"#utility.yul\":15339:15468   */\n      pop\n        /* \"#utility.yul\":15507:15509   */\n      0x60\n        /* \"#utility.yul\":15533:15597   */\n      tag_306\n        /* \"#utility.yul\":15589:15596   */\n      dup9\n        /* \"#utility.yul\":15580:15586   */\n      dup3\n        /* \"#utility.yul\":15569:15578   */\n      dup10\n        /* \"#utility.yul\":15565:15587   */\n      add\n        /* \"#utility.yul\":15533:15597   */\n      tag_173\n      jump\t// in\n    tag_306:\n        /* \"#utility.yul\":15523:15597   */\n      swap3\n      pop\n        /* \"#utility.yul\":15478:15607   */\n      pop\n        /* \"#utility.yul\":15646:15649   */\n      0x80\n        /* \"#utility.yul\":15673:15736   */\n      tag_307\n        /* \"#utility.yul\":15728:15735   */\n      dup9\n        /* \"#utility.yul\":15719:15725   */\n      dup3\n        /* \"#utility.yul\":15708:15717   */\n      dup10\n        /* \"#utility.yul\":15704:15726   */\n      add\n        /* \"#utility.yul\":15673:15736   */\n      tag_170\n      jump\t// in\n    tag_307:\n        /* \"#utility.yul\":15663:15736   */\n      swap2\n      pop\n        /* \"#utility.yul\":15617:15746   */\n      pop\n        /* \"#utility.yul\":14782:15753   */\n      swap3\n      swap6\n      pop\n      swap3\n      swap6\n      swap1\n      swap4\n      pop\n      jump\t// out\n        /* \"#utility.yul\":15759:16169   */\n    tag_124:\n        /* \"#utility.yul\":15799:15806   */\n      0x00\n        /* \"#utility.yul\":15822:15842   */\n      tag_309\n        /* \"#utility.yul\":15840:15841   */\n      dup3\n        /* \"#utility.yul\":15822:15842   */\n      tag_138\n      jump\t// in\n    tag_309:\n        /* \"#utility.yul\":15817:15842   */\n      swap2\n      pop\n        /* \"#utility.yul\":15856:15876   */\n      tag_310\n        /* \"#utility.yul\":15874:15875   */\n      dup4\n        /* \"#utility.yul\":15856:15876   */\n      tag_138\n      jump\t// in\n    tag_310:\n        /* \"#utility.yul\":15851:15876   */\n      swap3\n      pop\n        /* \"#utility.yul\":15911:15912   */\n      dup3\n        /* \"#utility.yul\":15908:15909   */\n      dup3\n        /* \"#utility.yul\":15904:15913   */\n      mul\n        /* \"#utility.yul\":15933:15963   */\n      tag_311\n        /* \"#utility.yul\":15951:15962   */\n      dup2\n        /* \"#utility.yul\":15933:15963   */\n      tag_138\n      jump\t// in\n    tag_311:\n        /* \"#utility.yul\":15922:15963   */\n      swap2\n      pop\n        /* \"#utility.yul\":16112:16113   */\n      dup3\n        /* \"#utility.yul\":16103:16110   */\n      dup3\n        /* \"#utility.yul\":16099:16114   */\n      div\n        /* \"#utility.yul\":16096:16097   */\n      dup5\n        /* \"#utility.yul\":16093:16115   */\n      eq\n        /* \"#utility.yul\":16073:16074   */\n      dup4\n        /* \"#utility.yul\":16066:16075   */\n      iszero\n        /* \"#utility.yul\":16046:16129   */\n      or\n        /* \"#utility.yul\":16023:16162   */\n      tag_312\n      jumpi\n        /* \"#utility.yul\":16142:16160   */\n      tag_313\n      tag_148\n      jump\t// in\n    tag_313:\n        /* \"#utility.yul\":16023:16162   */\n    tag_312:\n        /* \"#utility.yul\":15807:16169   */\n      pop\n        /* \"#utility.yul\":15759:16169   */\n      swap3\n      swap2\n      pop\n      pop\n      jump\t// out\n        /* \"#utility.yul\":16175:16355   */\n    tag_174:\n        /* \"#utility.yul\":16223:16300   */\n      0x4e487b7100000000000000000000000000000000000000000000000000000000\n        /* \"#utility.yul\":16220:16221   */\n      0x00\n        /* \"#utility.yul\":16213:16301   */\n      mstore\n        /* \"#utility.yul\":16320:16324   */\n      0x12\n        /* \"#utility.yul\":16317:16318   */\n      0x04\n        /* \"#utility.yul\":16310:16325   */\n      mstore\n        /* \"#utility.yul\":16344:16348   */\n      0x24\n        /* \"#utility.yul\":16341:16342   */\n      0x00\n        /* \"#utility.yul\":16334:16349   */\n      revert\n        /* \"#utility.yul\":16361:16546   */\n    tag_126:\n        /* \"#utility.yul\":16401:16402   */\n      0x00\n        /* \"#utility.yul\":16418:16438   */\n      tag_316\n        /* \"#utility.yul\":16436:16437   */\n      dup3\n        /* \"#utility.yul\":16418:16438   */\n      tag_138\n      jump\t// in\n    tag_316:\n        /* \"#utility.yul\":16413:16438   */\n      swap2\n      pop\n        /* \"#utility.yul\":16452:16472   */\n      tag_317\n        /* \"#utility.yul\":16470:16471   */\n      dup4\n        /* \"#utility.yul\":16452:16472   */\n      tag_138\n      jump\t// in\n    tag_317:\n        /* \"#utility.yul\":16447:16472   */\n      swap3\n      pop\n        /* \"#utility.yul\":16491:16492   */\n      dup3\n        /* \"#utility.yul\":16481:16516   */\n      tag_318\n      jumpi\n        /* \"#utility.yul\":16496:16514   */\n      tag_319\n      tag_174\n      jump\t// in\n    tag_319:\n        /* \"#utility.yul\":16481:16516   */\n    tag_318:\n        /* \"#utility.yul\":16538:16539   */\n      dup3\n        /* \"#utility.yul\":16535:16536   */\n      dup3\n        /* \"#utility.yul\":16531:16540   */\n      div\n        /* \"#utility.yul\":16526:16540   */\n      swap1\n      pop\n        /* \"#utility.yul\":16361:16546   */\n      swap3\n      swap2\n      pop\n      pop\n      jump\t// out\n\n    auxdata: 0xa2646970667358221220df9337a1bdd75880d6ef36e6a527bf2f332f6f4f6ab417b661a6cd65c3b965e764736f6c634300081a0033\n}\n",
				"bytecode": {
					"linkReferences": {},
					"object": "608060405234801561000f575f80fd5b506040516113fd3803806113fd83398181016040528101906100319190610110565b3360015f6101000a81548173ffffffffffffffffffffffffffffffffffffffff021916908373ffffffffffffffffffffffffffffffffffffffff16021790555073694aa1769357215de4fac081bf1f309adc32530660025f6101000a81548173ffffffffffffffffffffffffffffffffffffffff021916908373ffffffffffffffffffffffffffffffffffffffff16021790555042600381905550806004819055505061013b565b5f80fd5b5f819050919050565b6100ef816100dd565b81146100f9575f80fd5b50565b5f8151905061010a816100e6565b92915050565b5f60208284031215610125576101246100d9565b5b5f610132848285016100fc565b91505092915050565b6112b5806101485f395ff3fe60806040526004361061009b575f3560e01c8063b60d428811610063578063b60d428814610145578063bea4dfb51461014f578063c086381e14610179578063cc1f2afa146101b5578063e2ae93fb146101df578063f2fde38b1461021b5761009b565b806313ffff011461009f578063590e1ae3146100c75780637fe47e1a146100dd5780638da5cb5b146101055780638edd6eb61461012f575b5f80fd5b3480156100aa575f80fd5b506100c560048036038101906100c09190610b00565b610243565b005b3480156100d2575f80fd5b506100db610315565b005b3480156100e8575f80fd5b5061010360048036038101906100fe9190610b5e565b610521565b005b348015610110575f80fd5b506101196105f5565b6040516101269190610bab565b60405180910390f35b34801561013a575f80fd5b5061014361061a565b005b61014d6107fb565b005b34801561015a575f80fd5b506101636108e3565b6040516101709190610bdc565b60405180910390f35b348015610184575f80fd5b5061019f600480360381019061019a9190610bf5565b610980565b6040516101ac9190610c2f565b60405180910390f35b3480156101c0575f80fd5b506101c96109af565b6040516101d69190610c2f565b60405180910390f35b3480156101ea575f80fd5b5061020560048036038101906102009190610b00565b6109bc565b6040516102129190610c2f565b60405180910390f35b348015610226575f80fd5b50610241600480360381019061023c9190610b00565b6109d0565b005b60015f9054906101000a900473ffffffffffffffffffffffffffffffffffffffff1673ffffffffffffffffffffffffffffffffffffffff163373ffffffffffffffffffffffffffffffffffffffff16146102d2576040517f08c379a00000000000000000000000000000000000000000000000000000000081526004016102c990610cc8565b60405180910390fd5b8060055f6101000a81548173ffffffffffffffffffffffffffffffffffffffff021916908373ffffffffffffffffffffffffffffffffffffffff16021790555050565b6004546003546103259190610d13565b4211610366576040517f08c379a000000000000000000000000000000000000000000000000000000000815260040161035d90610d90565b60405180910390fd5b683635c9adc5dea0000061037947610980565b106103b9576040517f08c379a00000000000000000000000000000000000000000000000000000000081526004016103b090610df8565b60405180910390fd5b5f805f3373ffffffffffffffffffffffffffffffffffffffff1673ffffffffffffffffffffffffffffffffffffffff1681526020019081526020015f205403610437576040517f08c379a000000000000000000000000000000000000000000000000000000000815260040161042e90610e60565b60405180910390fd5b5f3373ffffffffffffffffffffffffffffffffffffffff165f803373ffffffffffffffffffffffffffffffffffffffff1673ffffffffffffffffffffffffffffffffffffffff1681526020019081526020015f205460405161049890610eab565b5f6040518083038185875af1925050503d805f81146104d2576040519150601f19603f3d011682016040523d82523d5f602084013e6104d7565b606091505b5050809150505f805f3373ffffffffffffffffffffffffffffffffffffffff1673ffffffffffffffffffffffffffffffffffffffff1681526020019081526020015f208190555050565b60055f9054906101000a900473ffffffffffffffffffffffffffffffffffffffff1673ffffffffffffffffffffffffffffffffffffffff163373ffffffffffffffffffffffffffffffffffffffff16146105b0576040517f08c379a00000000000000000000000000000000000000000000000000000000081526004016105a790610f2f565b60405180910390fd5b805f808473ffffffffffffffffffffffffffffffffffffffff1673ffffffffffffffffffffffffffffffffffffffff1681526020019081526020015f20819055505050565b60015f9054906101000a900473ffffffffffffffffffffffffffffffffffffffff1681565b60015f9054906101000a900473ffffffffffffffffffffffffffffffffffffffff1673ffffffffffffffffffffffffffffffffffffffff163373ffffffffffffffffffffffffffffffffffffffff16146106a9576040517f08c379a00000000000000000000000000000000000000000000000000000000081526004016106a090610cc8565b60405180910390fd5b6004546003546106b99190610d13565b42116106fa576040517f08c379a00000000000000000000000000000000000000000000000000000000081526004016106f190610d90565b60405180910390fd5b683635c9adc5dea0000061070d47610980565b101561074e576040517f08c379a000000000000000000000000000000000000000000000000000000000815260040161074590610f97565b60405180910390fd5b5f3373ffffffffffffffffffffffffffffffffffffffff164760405161077390610eab565b5f6040518083038185875af1925050503d805f81146107ad576040519150601f19603f3d011682016040523d82523d5f602084013e6107b2565b606091505b505080915050806107f8576040517f08c379a00000000000000000000000000000000000000000000000000000000081526004016107ef90610fff565b60405180910390fd5b50565b60045460035461080b9190610d13565b421061084c576040517f08c379a000000000000000000000000000000000000000000000000000000000815260040161084390611067565b60405180910390fd5b68056bc75e2d6310000061085f34610980565b10156108a0576040517f08c379a0000000000000000000000000000000000000000000000000000000008152600401610897906110cf565b60405180910390fd5b345f803373ffffffffffffffffffffffffffffffffffffffff1673ffffffffffffffffffffffffffffffffffffffff1681526020019081526020015f2081905550565b5f8060025f9054906101000a900473ffffffffffffffffffffffffffffffffffffffff1673ffffffffffffffffffffffffffffffffffffffff1663feaf968c6040518163ffffffff1660e01b815260040160a060405180830381865afa15801561094f573d5f803e3d5ffd5b505050506040513d601f19601f82011682018060405250810190610973919061116a565b5050509150508091505090565b5f8061098a6108e3565b90506305f5e100818461099d91906111e1565b6109a7919061124f565b915050919050565b683635c9adc5dea0000081565b5f602052805f5260405f205f915090505481565b60015f9054906101000a900473ffffffffffffffffffffffffffffffffffffffff1673ffffffffffffffffffffffffffffffffffffffff163373ffffffffffffffffffffffffffffffffffffffff1614610a5f576040517f08c379a0000000000000000000000000000000000000000000000000000000008152600401610a5690610cc8565b60405180910390fd5b8060015f6101000a81548173ffffffffffffffffffffffffffffffffffffffff021916908373ffffffffffffffffffffffffffffffffffffffff16021790555050565b5f80fd5b5f73ffffffffffffffffffffffffffffffffffffffff82169050919050565b5f610acf82610aa6565b9050919050565b610adf81610ac5565b8114610ae9575f80fd5b50565b5f81359050610afa81610ad6565b92915050565b5f60208284031215610b1557610b14610aa2565b5b5f610b2284828501610aec565b91505092915050565b5f819050919050565b610b3d81610b2b565b8114610b47575f80fd5b50565b5f81359050610b5881610b34565b92915050565b5f8060408385031215610b7457610b73610aa2565b5b5f610b8185828601610aec565b9250506020610b9285828601610b4a565b9150509250929050565b610ba581610ac5565b82525050565b5f602082019050610bbe5f830184610b9c565b92915050565b5f819050919050565b610bd681610bc4565b82525050565b5f602082019050610bef5f830184610bcd565b92915050565b5f60208284031215610c0a57610c09610aa2565b5b5f610c1784828501610b4a565b91505092915050565b610c2981610b2b565b82525050565b5f602082019050610c425f830184610c20565b92915050565b5f82825260208201905092915050565b7f746869732066756e6374696f6e2063616e206f6e6c792062652063616c6c65645f8201527f20627920746865206f776e657200000000000000000000000000000000000000602082015250565b5f610cb2602d83610c48565b9150610cbd82610c58565b604082019050919050565b5f6020820190508181035f830152610cdf81610ca6565b9050919050565b7f4e487b71000000000000000000000000000000000000000000000000000000005f52601160045260245ffd5b5f610d1d82610b2b565b9150610d2883610b2b565b9250828201905080821115610d4057610d3f610ce6565b5b92915050565b7f49742773206e6f742065787472616374696f6e2074696d6520796574000000005f82015250565b5f610d7a601c83610c48565b9150610d8582610d46565b602082019050919050565b5f6020820190508181035f830152610da781610d6e565b9050919050565b7f54617267657420697320726561636865640000000000000000000000000000005f82015250565b5f610de2601183610c48565b9150610ded82610dae565b602082019050919050565b5f6020820190508181035f830152610e0f81610dd6565b9050919050565b7f7468657265206973206e6f2066756e6420746f207061796261636b00000000005f82015250565b5f610e4a601b83610c48565b9150610e5582610e16565b602082019050919050565b5f6020820190508181035f830152610e7781610e3e565b9050919050565b5f81905092915050565b50565b5f610e965f83610e7e565b9150610ea182610e88565b5f82019050919050565b5f610eb582610e8b565b9150819050919050565b7f796f7520646f206e6f742068617665207065726d697373696f6e20746f2063615f8201527f6c6c20746869732066756e6374696f6e00000000000000000000000000000000602082015250565b5f610f19603083610c48565b9150610f2482610ebf565b604082019050919050565b5f6020820190508181035f830152610f4681610f0d565b9050919050565b7f546172676574206973206e6f74207265616368656400000000000000000000005f82015250565b5f610f81601583610c48565b9150610f8c82610f4d565b602082019050919050565b5f6020820190508181035f830152610fae81610f75565b9050919050565b7f7478206661696c656400000000000000000000000000000000000000000000005f82015250565b5f610fe9600983610c48565b9150610ff482610fb5565b602082019050919050565b5f6020820190508181035f83015261101681610fdd565b9050919050565b7f5468652066756e6420697320636c6f73656400000000000000000000000000005f82015250565b5f611051601283610c48565b915061105c8261101d565b602082019050919050565b5f6020820190508181035f83015261107e81611045565b9050919050565b7f73656e64206d6f7265206d6f6e657900000000000000000000000000000000005f82015250565b5f6110b9600f83610c48565b91506110c482611085565b602082019050919050565b5f6020820190508181035f8301526110e6816110ad565b9050919050565b5f69ffffffffffffffffffff82169050919050565b61110b816110ed565b8114611115575f80fd5b50565b5f8151905061112681611102565b92915050565b61113581610bc4565b811461113f575f80fd5b50565b5f815190506111508161112c565b92915050565b5f8151905061116481610b34565b92915050565b5f805f805f60a0868803121561118357611182610aa2565b5b5f61119088828901611118565b95505060206111a188828901611142565b94505060406111b288828901611156565b93505060606111c388828901611156565b92505060806111d488828901611118565b9150509295509295909350565b5f6111eb82610b2b565b91506111f683610b2b565b925082820261120481610b2b565b9150828204841483151761121b5761121a610ce6565b5b5092915050565b7f4e487b71000000000000000000000000000000000000000000000000000000005f52601260045260245ffd5b5f61125982610b2b565b915061126483610b2b565b92508261127457611273611222565b5b82820490509291505056fea2646970667358221220df9337a1bdd75880d6ef36e6a527bf2f332f6f4f6ab417b661a6cd65c3b965e764736f6c634300081a0033",
					"opcodes": "PUSH1 0x80 PUSH1 0x40 MSTORE CALLVALUE DUP1 ISZERO PUSH2 0xF JUMPI PUSH0 DUP1 REVERT JUMPDEST POP PUSH1 0x40 MLOAD PUSH2 0x13FD CODESIZE SUB DUP1 PUSH2 0x13FD DUP4 CODECOPY DUP2 DUP2 ADD PUSH1 0x40 MSTORE DUP2 ADD SWAP1 PUSH2 0x31 SWAP2 SWAP1 PUSH2 0x110 JUMP JUMPDEST CALLER PUSH1 0x1 PUSH0 PUSH2 0x100 EXP DUP2 SLOAD DUP2 PUSH20 0xFFFFFFFFFFFFFFFFFFFFFFFFFFFFFFFFFFFFFFFF MUL NOT AND SWAP1 DUP4 PUSH20 0xFFFFFFFFFFFFFFFFFFFFFFFFFFFFFFFFFFFFFFFF AND MUL OR SWAP1 SSTORE POP PUSH20 0x694AA1769357215DE4FAC081BF1F309ADC325306 PUSH1 0x2 PUSH0 PUSH2 0x100 EXP DUP2 SLOAD DUP2 PUSH20 0xFFFFFFFFFFFFFFFFFFFFFFFFFFFFFFFFFFFFFFFF MUL NOT AND SWAP1 DUP4 PUSH20 0xFFFFFFFFFFFFFFFFFFFFFFFFFFFFFFFFFFFFFFFF AND MUL OR SWAP1 SSTORE POP TIMESTAMP PUSH1 0x3 DUP2 SWAP1 SSTORE POP DUP1 PUSH1 0x4 DUP2 SWAP1 SSTORE POP POP PUSH2 0x13B JUMP JUMPDEST PUSH0 DUP1 REVERT JUMPDEST PUSH0 DUP2 SWAP1 POP SWAP2 SWAP1 POP JUMP JUMPDEST PUSH2 0xEF DUP2 PUSH2 0xDD JUMP JUMPDEST DUP2 EQ PUSH2 0xF9 JUMPI PUSH0 DUP1 REVERT JUMPDEST POP JUMP JUMPDEST PUSH0 DUP2 MLOAD SWAP1 POP PUSH2 0x10A DUP2 PUSH2 0xE6 JUMP JUMPDEST SWAP3 SWAP2 POP POP JUMP JUMPDEST PUSH0 PUSH1 0x20 DUP3 DUP5 SUB SLT ISZERO PUSH2 0x125 JUMPI PUSH2 0x124 PUSH2 0xD9 JUMP JUMPDEST JUMPDEST PUSH0 PUSH2 0x132 DUP5 DUP3 DUP6 ADD PUSH2 0xFC JUMP JUMPDEST SWAP2 POP POP SWAP3 SWAP2 POP POP JUMP JUMPDEST PUSH2 0x12B5 DUP1 PUSH2 0x148 PUSH0 CODECOPY PUSH0 RETURN INVALID PUSH1 0x80 PUSH1 0x40 MSTORE PUSH1 0x4 CALLDATASIZE LT PUSH2 0x9B JUMPI PUSH0 CALLDATALOAD PUSH1 0xE0 SHR DUP1 PUSH4 0xB60D4288 GT PUSH2 0x63 JUMPI DUP1 PUSH4 0xB60D4288 EQ PUSH2 0x145 JUMPI DUP1 PUSH4 0xBEA4DFB5 EQ PUSH2 0x14F JUMPI DUP1 PUSH4 0xC086381E EQ PUSH2 0x179 JUMPI DUP1 PUSH4 0xCC1F2AFA EQ PUSH2 0x1B5 JUMPI DUP1 PUSH4 0xE2AE93FB EQ PUSH2 0x1DF JUMPI DUP1 PUSH4 0xF2FDE38B EQ PUSH2 0x21B JUMPI PUSH2 0x9B JUMP JUMPDEST DUP1 PUSH4 0x13FFFF01 EQ PUSH2 0x9F JUMPI DUP1 PUSH4 0x590E1AE3 EQ PUSH2 0xC7 JUMPI DUP1 PUSH4 0x7FE47E1A EQ PUSH2 0xDD JUMPI DUP1 PUSH4 0x8DA5CB5B EQ PUSH2 0x105 JUMPI DUP1 PUSH4 0x8EDD6EB6 EQ PUSH2 0x12F JUMPI JUMPDEST PUSH0 DUP1 REVERT JUMPDEST CALLVALUE DUP1 ISZERO PUSH2 0xAA JUMPI PUSH0 DUP1 REVERT JUMPDEST POP PUSH2 0xC5 PUSH1 0x4 DUP1 CALLDATASIZE SUB DUP2 ADD SWAP1 PUSH2 0xC0 SWAP2 SWAP1 PUSH2 0xB00 JUMP JUMPDEST PUSH2 0x243 JUMP JUMPDEST STOP JUMPDEST CALLVALUE DUP1 ISZERO PUSH2 0xD2 JUMPI PUSH0 DUP1 REVERT JUMPDEST POP PUSH2 0xDB PUSH2 0x315 JUMP JUMPDEST STOP JUMPDEST CALLVALUE DUP1 ISZERO PUSH2 0xE8 JUMPI PUSH0 DUP1 REVERT JUMPDEST POP PUSH2 0x103 PUSH1 0x4 DUP1 CALLDATASIZE SUB DUP2 ADD SWAP1 PUSH2 0xFE SWAP2 SWAP1 PUSH2 0xB5E JUMP JUMPDEST PUSH2 0x521 JUMP JUMPDEST STOP JUMPDEST CALLVALUE DUP1 ISZERO PUSH2 0x110 JUMPI PUSH0 DUP1 REVERT JUMPDEST POP PUSH2 0x119 PUSH2 0x5F5 JUMP JUMPDEST PUSH1 0x40 MLOAD PUSH2 0x126 SWAP2 SWAP1 PUSH2 0xBAB JUMP JUMPDEST PUSH1 0x40 MLOAD DUP1 SWAP2 SUB SWAP1 RETURN JUMPDEST CALLVALUE DUP1 ISZERO PUSH2 0x13A JUMPI PUSH0 DUP1 REVERT JUMPDEST POP PUSH2 0x143 PUSH2 0x61A JUMP JUMPDEST STOP JUMPDEST PUSH2 0x14D PUSH2 0x7FB JUMP JUMPDEST STOP JUMPDEST CALLVALUE DUP1 ISZERO PUSH2 0x15A JUMPI PUSH0 DUP1 REVERT JUMPDEST POP PUSH2 0x163 PUSH2 0x8E3 JUMP JUMPDEST PUSH1 0x40 MLOAD PUSH2 0x170 SWAP2 SWAP1 PUSH2 0xBDC JUMP JUMPDEST PUSH1 0x40 MLOAD DUP1 SWAP2 SUB SWAP1 RETURN JUMPDEST CALLVALUE DUP1 ISZERO PUSH2 0x184 JUMPI PUSH0 DUP1 REVERT JUMPDEST POP PUSH2 0x19F PUSH1 0x4 DUP1 CALLDATASIZE SUB DUP2 ADD SWAP1 PUSH2 0x19A SWAP2 SWAP1 PUSH2 0xBF5 JUMP JUMPDEST PUSH2 0x980 JUMP JUMPDEST PUSH1 0x40 MLOAD PUSH2 0x1AC SWAP2 SWAP1 PUSH2 0xC2F JUMP JUMPDEST PUSH1 0x40 MLOAD DUP1 SWAP2 SUB SWAP1 RETURN JUMPDEST CALLVALUE DUP1 ISZERO PUSH2 0x1C0 JUMPI PUSH0 DUP1 REVERT JUMPDEST POP PUSH2 0x1C9 PUSH2 0x9AF JUMP JUMPDEST PUSH1 0x40 MLOAD PUSH2 0x1D6 SWAP2 SWAP1 PUSH2 0xC2F JUMP JUMPDEST PUSH1 0x40 MLOAD DUP1 SWAP2 SUB SWAP1 RETURN JUMPDEST CALLVALUE DUP1 ISZERO PUSH2 0x1EA JUMPI PUSH0 DUP1 REVERT JUMPDEST POP PUSH2 0x205 PUSH1 0x4 DUP1 CALLDATASIZE SUB DUP2 ADD SWAP1 PUSH2 0x200 SWAP2 SWAP1 PUSH2 0xB00 JUMP JUMPDEST PUSH2 0x9BC JUMP JUMPDEST PUSH1 0x40 MLOAD PUSH2 0x212 SWAP2 SWAP1 PUSH2 0xC2F JUMP JUMPDEST PUSH1 0x40 MLOAD DUP1 SWAP2 SUB SWAP1 RETURN JUMPDEST CALLVALUE DUP1 ISZERO PUSH2 0x226 JUMPI PUSH0 DUP1 REVERT JUMPDEST POP PUSH2 0x241 PUSH1 0x4 DUP1 CALLDATASIZE SUB DUP2 ADD SWAP1 PUSH2 0x23C SWAP2 SWAP1 PUSH2 0xB00 JUMP JUMPDEST PUSH2 0x9D0 JUMP JUMPDEST STOP JUMPDEST PUSH1 0x1 PUSH0 SWAP1 SLOAD SWAP1 PUSH2 0x100 EXP SWAP1 DIV PUSH20 0xFFFFFFFFFFFFFFFFFFFFFFFFFFFFFFFFFFFFFFFF AND PUSH20 0xFFFFFFFFFFFFFFFFFFFFFFFFFFFFFFFFFFFFFFFF AND CALLER PUSH20 0xFFFFFFFFFFFFFFFFFFFFFFFFFFFFFFFFFFFFFFFF AND EQ PUSH2 0x2D2 JUMPI PUSH1 0x40 MLOAD PUSH32 0x8C379A000000000000000000000000000000000000000000000000000000000 DUP2 MSTORE PUSH1 0x4 ADD PUSH2 0x2C9 SWAP1 PUSH2 0xCC8 JUMP JUMPDEST PUSH1 0x40 MLOAD DUP1 SWAP2 SUB SWAP1 REVERT JUMPDEST DUP1 PUSH1 0x5 PUSH0 PUSH2 0x100 EXP DUP2 SLOAD DUP2 PUSH20 0xFFFFFFFFFFFFFFFFFFFFFFFFFFFFFFFFFFFFFFFF MUL NOT AND SWAP1 DUP4 PUSH20 0xFFFFFFFFFFFFFFFFFFFFFFFFFFFFFFFFFFFFFFFF AND MUL OR SWAP1 SSTORE POP POP JUMP JUMPDEST PUSH1 0x4 SLOAD PUSH1 0x3 SLOAD PUSH2 0x325 SWAP2 SWAP1 PUSH2 0xD13 JUMP JUMPDEST TIMESTAMP GT PUSH2 0x366 JUMPI PUSH1 0x40 MLOAD PUSH32 0x8C379A000000000000000000000000000000000000000000000000000000000 DUP2 MSTORE PUSH1 0x4 ADD PUSH2 0x35D SWAP1 PUSH2 0xD90 JUMP JUMPDEST PUSH1 0x40 MLOAD DUP1 SWAP2 SUB SWAP1 REVERT JUMPDEST PUSH9 0x3635C9ADC5DEA00000 PUSH2 0x379 SELFBALANCE PUSH2 0x980 JUMP JUMPDEST LT PUSH2 0x3B9 JUMPI PUSH1 0x40 MLOAD PUSH32 0x8C379A000000000000000000000000000000000000000000000000000000000 DUP2 MSTORE PUSH1 0x4 ADD PUSH2 0x3B0 SWAP1 PUSH2 0xDF8 JUMP JUMPDEST PUSH1 0x40 MLOAD DUP1 SWAP2 SUB SWAP1 REVERT JUMPDEST PUSH0 DUP1 PUSH0 CALLER PUSH20 0xFFFFFFFFFFFFFFFFFFFFFFFFFFFFFFFFFFFFFFFF AND PUSH20 0xFFFFFFFFFFFFFFFFFFFFFFFFFFFFFFFFFFFFFFFF AND DUP2 MSTORE PUSH1 0x20 ADD SWAP1 DUP2 MSTORE PUSH1 0x20 ADD PUSH0 KECCAK256 SLOAD SUB PUSH2 0x437 JUMPI PUSH1 0x40 MLOAD PUSH32 0x8C379A000000000000000000000000000000000000000000000000000000000 DUP2 MSTORE PUSH1 0x4 ADD PUSH2 0x42E SWAP1 PUSH2 0xE60 JUMP JUMPDEST PUSH1 0x40 MLOAD DUP1 SWAP2 SUB SWAP1 REVERT JUMPDEST PUSH0 CALLER PUSH20 0xFFFFFFFFFFFFFFFFFFFFFFFFFFFFFFFFFFFFFFFF AND PUSH0 DUP1 CALLER PUSH20 0xFFFFFFFFFFFFFFFFFFFFFFFFFFFFFFFFFFFFFFFF AND PUSH20 0xFFFFFFFFFFFFFFFFFFFFFFFFFFFFFFFFFFFFFFFF AND DUP2 MSTORE PUSH1 0x20 ADD SWAP1 DUP2 MSTORE PUSH1 0x20 ADD PUSH0 KECCAK256 SLOAD PUSH1 0x40 MLOAD PUSH2 0x498 SWAP1 PUSH2 0xEAB JUMP JUMPDEST PUSH0 PUSH1 0x40 MLOAD DUP1 DUP4 SUB DUP2 DUP6 DUP8 GAS CALL SWAP3 POP POP POP RETURNDATASIZE DUP1 PUSH0 DUP2 EQ PUSH2 0x4D2 JUMPI PUSH1 0x40 MLOAD SWAP2 POP PUSH1 0x1F NOT PUSH1 0x3F RETURNDATASIZE ADD AND DUP3 ADD PUSH1 0x40 MSTORE RETURNDATASIZE DUP3 MSTORE RETURNDATASIZE PUSH0 PUSH1 0x20 DUP5 ADD RETURNDATACOPY PUSH2 0x4D7 JUMP JUMPDEST PUSH1 0x60 SWAP2 POP JUMPDEST POP POP DUP1 SWAP2 POP POP PUSH0 DUP1 PUSH0 CALLER PUSH20 0xFFFFFFFFFFFFFFFFFFFFFFFFFFFFFFFFFFFFFFFF AND PUSH20 0xFFFFFFFFFFFFFFFFFFFFFFFFFFFFFFFFFFFFFFFF AND DUP2 MSTORE PUSH1 0x20 ADD SWAP1 DUP2 MSTORE PUSH1 0x20 ADD PUSH0 KECCAK256 DUP2 SWAP1 SSTORE POP POP JUMP JUMPDEST PUSH1 0x5 PUSH0 SWAP1 SLOAD SWAP1 PUSH2 0x100 EXP SWAP1 DIV PUSH20 0xFFFFFFFFFFFFFFFFFFFFFFFFFFFFFFFFFFFFFFFF AND PUSH20 0xFFFFFFFFFFFFFFFFFFFFFFFFFFFFFFFFFFFFFFFF AND CALLER PUSH20 0xFFFFFFFFFFFFFFFFFFFFFFFFFFFFFFFFFFFFFFFF AND EQ PUSH2 0x5B0 JUMPI PUSH1 0x40 MLOAD PUSH32 0x8C379A000000000000000000000000000000000000000000000000000000000 DUP2 MSTORE PUSH1 0x4 ADD PUSH2 0x5A7 SWAP1 PUSH2 0xF2F JUMP JUMPDEST PUSH1 0x40 MLOAD DUP1 SWAP2 SUB SWAP1 REVERT JUMPDEST DUP1 PUSH0 DUP1 DUP5 PUSH20 0xFFFFFFFFFFFFFFFFFFFFFFFFFFFFFFFFFFFFFFFF AND PUSH20 0xFFFFFFFFFFFFFFFFFFFFFFFFFFFFFFFFFFFFFFFF AND DUP2 MSTORE PUSH1 0x20 ADD SWAP1 DUP2 MSTORE PUSH1 0x20 ADD PUSH0 KECCAK256 DUP2 SWAP1 SSTORE POP POP POP JUMP JUMPDEST PUSH1 0x1 PUSH0 SWAP1 SLOAD SWAP1 PUSH2 0x100 EXP SWAP1 DIV PUSH20 0xFFFFFFFFFFFFFFFFFFFFFFFFFFFFFFFFFFFFFFFF AND DUP2 JUMP JUMPDEST PUSH1 0x1 PUSH0 SWAP1 SLOAD SWAP1 PUSH2 0x100 EXP SWAP1 DIV PUSH20 0xFFFFFFFFFFFFFFFFFFFFFFFFFFFFFFFFFFFFFFFF AND PUSH20 0xFFFFFFFFFFFFFFFFFFFFFFFFFFFFFFFFFFFFFFFF AND CALLER PUSH20 0xFFFFFFFFFFFFFFFFFFFFFFFFFFFFFFFFFFFFFFFF AND EQ PUSH2 0x6A9 JUMPI PUSH1 0x40 MLOAD PUSH32 0x8C379A000000000000000000000000000000000000000000000000000000000 DUP2 MSTORE PUSH1 0x4 ADD PUSH2 0x6A0 SWAP1 PUSH2 0xCC8 JUMP JUMPDEST PUSH1 0x40 MLOAD DUP1 SWAP2 SUB SWAP1 REVERT JUMPDEST PUSH1 0x4 SLOAD PUSH1 0x3 SLOAD PUSH2 0x6B9 SWAP2 SWAP1 PUSH2 0xD13 JUMP JUMPDEST TIMESTAMP GT PUSH2 0x6FA JUMPI PUSH1 0x40 MLOAD PUSH32 0x8C379A000000000000000000000000000000000000000000000000000000000 DUP2 MSTORE PUSH1 0x4 ADD PUSH2 0x6F1 SWAP1 PUSH2 0xD90 JUMP JUMPDEST PUSH1 0x40 MLOAD DUP1 SWAP2 SUB SWAP1 REVERT JUMPDEST PUSH9 0x3635C9ADC5DEA00000 PUSH2 0x70D SELFBALANCE PUSH2 0x980 JUMP JUMPDEST LT ISZERO PUSH2 0x74E JUMPI PUSH1 0x40 MLOAD PUSH32 0x8C379A000000000000000000000000000000000000000000000000000000000 DUP2 MSTORE PUSH1 0x4 ADD PUSH2 0x745 SWAP1 PUSH2 0xF97 JUMP JUMPDEST PUSH1 0x40 MLOAD DUP1 SWAP2 SUB SWAP1 REVERT JUMPDEST PUSH0 CALLER PUSH20 0xFFFFFFFFFFFFFFFFFFFFFFFFFFFFFFFFFFFFFFFF AND SELFBALANCE PUSH1 0x40 MLOAD PUSH2 0x773 SWAP1 PUSH2 0xEAB JUMP JUMPDEST PUSH0 PUSH1 0x40 MLOAD DUP1 DUP4 SUB DUP2 DUP6 DUP8 GAS CALL SWAP3 POP POP POP RETURNDATASIZE DUP1 PUSH0 DUP2 EQ PUSH2 0x7AD JUMPI PUSH1 0x40 MLOAD SWAP2 POP PUSH1 0x1F NOT PUSH1 0x3F RETURNDATASIZE ADD AND DUP3 ADD PUSH1 0x40 MSTORE RETURNDATASIZE DUP3 MSTORE RETURNDATASIZE PUSH0 PUSH1 0x20 DUP5 ADD RETURNDATACOPY PUSH2 0x7B2 JUMP JUMPDEST PUSH1 0x60 SWAP2 POP JUMPDEST POP POP DUP1 SWAP2 POP POP DUP1 PUSH2 0x7F8 JUMPI PUSH1 0x40 MLOAD PUSH32 0x8C379A000000000000000000000000000000000000000000000000000000000 DUP2 MSTORE PUSH1 0x4 ADD PUSH2 0x7EF SWAP1 PUSH2 0xFFF JUMP JUMPDEST PUSH1 0x40 MLOAD DUP1 SWAP2 SUB SWAP1 REVERT JUMPDEST POP JUMP JUMPDEST PUSH1 0x4 SLOAD PUSH1 0x3 SLOAD PUSH2 0x80B SWAP2 SWAP1 PUSH2 0xD13 JUMP JUMPDEST TIMESTAMP LT PUSH2 0x84C JUMPI PUSH1 0x40 MLOAD PUSH32 0x8C379A000000000000000000000000000000000000000000000000000000000 DUP2 MSTORE PUSH1 0x4 ADD PUSH2 0x843 SWAP1 PUSH2 0x1067 JUMP JUMPDEST PUSH1 0x40 MLOAD DUP1 SWAP2 SUB SWAP1 REVERT JUMPDEST PUSH9 0x56BC75E2D63100000 PUSH2 0x85F CALLVALUE PUSH2 0x980 JUMP JUMPDEST LT ISZERO PUSH2 0x8A0 JUMPI PUSH1 0x40 MLOAD PUSH32 0x8C379A000000000000000000000000000000000000000000000000000000000 DUP2 MSTORE PUSH1 0x4 ADD PUSH2 0x897 SWAP1 PUSH2 0x10CF JUMP JUMPDEST PUSH1 0x40 MLOAD DUP1 SWAP2 SUB SWAP1 REVERT JUMPDEST CALLVALUE PUSH0 DUP1 CALLER PUSH20 0xFFFFFFFFFFFFFFFFFFFFFFFFFFFFFFFFFFFFFFFF AND PUSH20 0xFFFFFFFFFFFFFFFFFFFFFFFFFFFFFFFFFFFFFFFF AND DUP2 MSTORE PUSH1 0x20 ADD SWAP1 DUP2 MSTORE PUSH1 0x20 ADD PUSH0 KECCAK256 DUP2 SWAP1 SSTORE POP JUMP JUMPDEST PUSH0 DUP1 PUSH1 0x2 PUSH0 SWAP1 SLOAD SWAP1 PUSH2 0x100 EXP SWAP1 DIV PUSH20 0xFFFFFFFFFFFFFFFFFFFFFFFFFFFFFFFFFFFFFFFF AND PUSH20 0xFFFFFFFFFFFFFFFFFFFFFFFFFFFFFFFFFFFFFFFF AND PUSH4 0xFEAF968C PUSH1 0x40 MLOAD DUP2 PUSH4 0xFFFFFFFF AND PUSH1 0xE0 SHL DUP2 MSTORE PUSH1 0x4 ADD PUSH1 0xA0 PUSH1 0x40 MLOAD DUP1 DUP4 SUB DUP2 DUP7 GAS STATICCALL ISZERO DUP1 ISZERO PUSH2 0x94F JUMPI RETURNDATASIZE PUSH0 DUP1 RETURNDATACOPY RETURNDATASIZE PUSH0 REVERT JUMPDEST POP POP POP POP PUSH1 0x40 MLOAD RETURNDATASIZE PUSH1 0x1F NOT PUSH1 0x1F DUP3 ADD AND DUP3 ADD DUP1 PUSH1 0x40 MSTORE POP DUP2 ADD SWAP1 PUSH2 0x973 SWAP2 SWAP1 PUSH2 0x116A JUMP JUMPDEST POP POP POP SWAP2 POP POP DUP1 SWAP2 POP POP SWAP1 JUMP JUMPDEST PUSH0 DUP1 PUSH2 0x98A PUSH2 0x8E3 JUMP JUMPDEST SWAP1 POP PUSH4 0x5F5E100 DUP2 DUP5 PUSH2 0x99D SWAP2 SWAP1 PUSH2 0x11E1 JUMP JUMPDEST PUSH2 0x9A7 SWAP2 SWAP1 PUSH2 0x124F JUMP JUMPDEST SWAP2 POP POP SWAP2 SWAP1 POP JUMP JUMPDEST PUSH9 0x3635C9ADC5DEA00000 DUP2 JUMP JUMPDEST PUSH0 PUSH1 0x20 MSTORE DUP1 PUSH0 MSTORE PUSH1 0x40 PUSH0 KECCAK256 PUSH0 SWAP2 POP SWAP1 POP SLOAD DUP2 JUMP JUMPDEST PUSH1 0x1 PUSH0 SWAP1 SLOAD SWAP1 PUSH2 0x100 EXP SWAP1 DIV PUSH20 0xFFFFFFFFFFFFFFFFFFFFFFFFFFFFFFFFFFFFFFFF AND PUSH20 0xFFFFFFFFFFFFFFFFFFFFFFFFFFFFFFFFFFFFFFFF AND CALLER PUSH20 0xFFFFFFFFFFFFFFFFFFFFFFFFFFFFFFFFFFFFFFFF AND EQ PUSH2 0xA5F JUMPI PUSH1 0x40 MLOAD PUSH32 0x8C379A000000000000000000000000000000000000000000000000000000000 DUP2 MSTORE PUSH1 0x4 ADD PUSH2 0xA56 SWAP1 PUSH2 0xCC8 JUMP JUMPDEST PUSH1 0x40 MLOAD DUP1 SWAP2 SUB SWAP1 REVERT JUMPDEST DUP1 PUSH1 0x1 PUSH0 PUSH2 0x100 EXP DUP2 SLOAD DUP2 PUSH20 0xFFFFFFFFFFFFFFFFFFFFFFFFFFFFFFFFFFFFFFFF MUL NOT AND SWAP1 DUP4 PUSH20 0xFFFFFFFFFFFFFFFFFFFFFFFFFFFFFFFFFFFFFFFF AND MUL OR SWAP1 SSTORE POP POP JUMP JUMPDEST PUSH0 DUP1 REVERT JUMPDEST PUSH0 PUSH20 0xFFFFFFFFFFFFFFFFFFFFFFFFFFFFFFFFFFFFFFFF DUP3 AND SWAP1 POP SWAP2 SWAP1 POP JUMP JUMPDEST PUSH0 PUSH2 0xACF DUP3 PUSH2 0xAA6 JUMP JUMPDEST SWAP1 POP SWAP2 SWAP1 POP JUMP JUMPDEST PUSH2 0xADF DUP2 PUSH2 0xAC5 JUMP JUMPDEST DUP2 EQ PUSH2 0xAE9 JUMPI PUSH0 DUP1 REVERT JUMPDEST POP JUMP JUMPDEST PUSH0 DUP2 CALLDATALOAD SWAP1 POP PUSH2 0xAFA DUP2 PUSH2 0xAD6 JUMP JUMPDEST SWAP3 SWAP2 POP POP JUMP JUMPDEST PUSH0 PUSH1 0x20 DUP3 DUP5 SUB SLT ISZERO PUSH2 0xB15 JUMPI PUSH2 0xB14 PUSH2 0xAA2 JUMP JUMPDEST JUMPDEST PUSH0 PUSH2 0xB22 DUP5 DUP3 DUP6 ADD PUSH2 0xAEC JUMP JUMPDEST SWAP2 POP POP SWAP3 SWAP2 POP POP JUMP JUMPDEST PUSH0 DUP2 SWAP1 POP SWAP2 SWAP1 POP JUMP JUMPDEST PUSH2 0xB3D DUP2 PUSH2 0xB2B JUMP JUMPDEST DUP2 EQ PUSH2 0xB47 JUMPI PUSH0 DUP1 REVERT JUMPDEST POP JUMP JUMPDEST PUSH0 DUP2 CALLDATALOAD SWAP1 POP PUSH2 0xB58 DUP2 PUSH2 0xB34 JUMP JUMPDEST SWAP3 SWAP2 POP POP JUMP JUMPDEST PUSH0 DUP1 PUSH1 0x40 DUP4 DUP6 SUB SLT ISZERO PUSH2 0xB74 JUMPI PUSH2 0xB73 PUSH2 0xAA2 JUMP JUMPDEST JUMPDEST PUSH0 PUSH2 0xB81 DUP6 DUP3 DUP7 ADD PUSH2 0xAEC JUMP JUMPDEST SWAP3 POP POP PUSH1 0x20 PUSH2 0xB92 DUP6 DUP3 DUP7 ADD PUSH2 0xB4A JUMP JUMPDEST SWAP2 POP POP SWAP3 POP SWAP3 SWAP1 POP JUMP JUMPDEST PUSH2 0xBA5 DUP2 PUSH2 0xAC5 JUMP JUMPDEST DUP3 MSTORE POP POP JUMP JUMPDEST PUSH0 PUSH1 0x20 DUP3 ADD SWAP1 POP PUSH2 0xBBE PUSH0 DUP4 ADD DUP5 PUSH2 0xB9C JUMP JUMPDEST SWAP3 SWAP2 POP POP JUMP JUMPDEST PUSH0 DUP2 SWAP1 POP SWAP2 SWAP1 POP JUMP JUMPDEST PUSH2 0xBD6 DUP2 PUSH2 0xBC4 JUMP JUMPDEST DUP3 MSTORE POP POP JUMP JUMPDEST PUSH0 PUSH1 0x20 DUP3 ADD SWAP1 POP PUSH2 0xBEF PUSH0 DUP4 ADD DUP5 PUSH2 0xBCD JUMP JUMPDEST SWAP3 SWAP2 POP POP JUMP JUMPDEST PUSH0 PUSH1 0x20 DUP3 DUP5 SUB SLT ISZERO PUSH2 0xC0A JUMPI PUSH2 0xC09 PUSH2 0xAA2 JUMP JUMPDEST JUMPDEST PUSH0 PUSH2 0xC17 DUP5 DUP3 DUP6 ADD PUSH2 0xB4A JUMP JUMPDEST SWAP2 POP POP SWAP3 SWAP2 POP POP JUMP JUMPDEST PUSH2 0xC29 DUP2 PUSH2 0xB2B JUMP JUMPDEST DUP3 MSTORE POP POP JUMP JUMPDEST PUSH0 PUSH1 0x20 DUP3 ADD SWAP1 POP PUSH2 0xC42 PUSH0 DUP4 ADD DUP5 PUSH2 0xC20 JUMP JUMPDEST SWAP3 SWAP2 POP POP JUMP JUMPDEST PUSH0 DUP3 DUP3 MSTORE PUSH1 0x20 DUP3 ADD SWAP1 POP SWAP3 SWAP2 POP POP JUMP JUMPDEST PUSH32 0x746869732066756E6374696F6E2063616E206F6E6C792062652063616C6C6564 PUSH0 DUP3 ADD MSTORE PUSH32 0x20627920746865206F776E657200000000000000000000000000000000000000 PUSH1 0x20 DUP3 ADD MSTORE POP JUMP JUMPDEST PUSH0 PUSH2 0xCB2 PUSH1 0x2D DUP4 PUSH2 0xC48 JUMP JUMPDEST SWAP2 POP PUSH2 0xCBD DUP3 PUSH2 0xC58 JUMP JUMPDEST PUSH1 0x40 DUP3 ADD SWAP1 POP SWAP2 SWAP1 POP JUMP JUMPDEST PUSH0 PUSH1 0x20 DUP3 ADD SWAP1 POP DUP2 DUP2 SUB PUSH0 DUP4 ADD MSTORE PUSH2 0xCDF DUP2 PUSH2 0xCA6 JUMP JUMPDEST SWAP1 POP SWAP2 SWAP1 POP JUMP JUMPDEST PUSH32 0x4E487B7100000000000000000000000000000000000000000000000000000000 PUSH0 MSTORE PUSH1 0x11 PUSH1 0x4 MSTORE PUSH1 0x24 PUSH0 REVERT JUMPDEST PUSH0 PUSH2 0xD1D DUP3 PUSH2 0xB2B JUMP JUMPDEST SWAP2 POP PUSH2 0xD28 DUP4 PUSH2 0xB2B JUMP JUMPDEST SWAP3 POP DUP3 DUP3 ADD SWAP1 POP DUP1 DUP3 GT ISZERO PUSH2 0xD40 JUMPI PUSH2 0xD3F PUSH2 0xCE6 JUMP JUMPDEST JUMPDEST SWAP3 SWAP2 POP POP JUMP JUMPDEST PUSH32 0x49742773206E6F742065787472616374696F6E2074696D652079657400000000 PUSH0 DUP3 ADD MSTORE POP JUMP JUMPDEST PUSH0 PUSH2 0xD7A PUSH1 0x1C DUP4 PUSH2 0xC48 JUMP JUMPDEST SWAP2 POP PUSH2 0xD85 DUP3 PUSH2 0xD46 JUMP JUMPDEST PUSH1 0x20 DUP3 ADD SWAP1 POP SWAP2 SWAP1 POP JUMP JUMPDEST PUSH0 PUSH1 0x20 DUP3 ADD SWAP1 POP DUP2 DUP2 SUB PUSH0 DUP4 ADD MSTORE PUSH2 0xDA7 DUP2 PUSH2 0xD6E JUMP JUMPDEST SWAP1 POP SWAP2 SWAP1 POP JUMP JUMPDEST PUSH32 0x5461726765742069732072656163686564000000000000000000000000000000 PUSH0 DUP3 ADD MSTORE POP JUMP JUMPDEST PUSH0 PUSH2 0xDE2 PUSH1 0x11 DUP4 PUSH2 0xC48 JUMP JUMPDEST SWAP2 POP PUSH2 0xDED DUP3 PUSH2 0xDAE JUMP JUMPDEST PUSH1 0x20 DUP3 ADD SWAP1 POP SWAP2 SWAP1 POP JUMP JUMPDEST PUSH0 PUSH1 0x20 DUP3 ADD SWAP1 POP DUP2 DUP2 SUB PUSH0 DUP4 ADD MSTORE PUSH2 0xE0F DUP2 PUSH2 0xDD6 JUMP JUMPDEST SWAP1 POP SWAP2 SWAP1 POP JUMP JUMPDEST PUSH32 0x7468657265206973206E6F2066756E6420746F207061796261636B0000000000 PUSH0 DUP3 ADD MSTORE POP JUMP JUMPDEST PUSH0 PUSH2 0xE4A PUSH1 0x1B DUP4 PUSH2 0xC48 JUMP JUMPDEST SWAP2 POP PUSH2 0xE55 DUP3 PUSH2 0xE16 JUMP JUMPDEST PUSH1 0x20 DUP3 ADD SWAP1 POP SWAP2 SWAP1 POP JUMP JUMPDEST PUSH0 PUSH1 0x20 DUP3 ADD SWAP1 POP DUP2 DUP2 SUB PUSH0 DUP4 ADD MSTORE PUSH2 0xE77 DUP2 PUSH2 0xE3E JUMP JUMPDEST SWAP1 POP SWAP2 SWAP1 POP JUMP JUMPDEST PUSH0 DUP2 SWAP1 POP SWAP3 SWAP2 POP POP JUMP JUMPDEST POP JUMP JUMPDEST PUSH0 PUSH2 0xE96 PUSH0 DUP4 PUSH2 0xE7E JUMP JUMPDEST SWAP2 POP PUSH2 0xEA1 DUP3 PUSH2 0xE88 JUMP JUMPDEST PUSH0 DUP3 ADD SWAP1 POP SWAP2 SWAP1 POP JUMP JUMPDEST PUSH0 PUSH2 0xEB5 DUP3 PUSH2 0xE8B JUMP JUMPDEST SWAP2 POP DUP2 SWAP1 POP SWAP2 SWAP1 POP JUMP JUMPDEST PUSH32 0x796F7520646F206E6F742068617665207065726D697373696F6E20746F206361 PUSH0 DUP3 ADD MSTORE PUSH32 0x6C6C20746869732066756E6374696F6E00000000000000000000000000000000 PUSH1 0x20 DUP3 ADD MSTORE POP JUMP JUMPDEST PUSH0 PUSH2 0xF19 PUSH1 0x30 DUP4 PUSH2 0xC48 JUMP JUMPDEST SWAP2 POP PUSH2 0xF24 DUP3 PUSH2 0xEBF JUMP JUMPDEST PUSH1 0x40 DUP3 ADD SWAP1 POP SWAP2 SWAP1 POP JUMP JUMPDEST PUSH0 PUSH1 0x20 DUP3 ADD SWAP1 POP DUP2 DUP2 SUB PUSH0 DUP4 ADD MSTORE PUSH2 0xF46 DUP2 PUSH2 0xF0D JUMP JUMPDEST SWAP1 POP SWAP2 SWAP1 POP JUMP JUMPDEST PUSH32 0x546172676574206973206E6F7420726561636865640000000000000000000000 PUSH0 DUP3 ADD MSTORE POP JUMP JUMPDEST PUSH0 PUSH2 0xF81 PUSH1 0x15 DUP4 PUSH2 0xC48 JUMP JUMPDEST SWAP2 POP PUSH2 0xF8C DUP3 PUSH2 0xF4D JUMP JUMPDEST PUSH1 0x20 DUP3 ADD SWAP1 POP SWAP2 SWAP1 POP JUMP JUMPDEST PUSH0 PUSH1 0x20 DUP3 ADD SWAP1 POP DUP2 DUP2 SUB PUSH0 DUP4 ADD MSTORE PUSH2 0xFAE DUP2 PUSH2 0xF75 JUMP JUMPDEST SWAP1 POP SWAP2 SWAP1 POP JUMP JUMPDEST PUSH32 0x7478206661696C65640000000000000000000000000000000000000000000000 PUSH0 DUP3 ADD MSTORE POP JUMP JUMPDEST PUSH0 PUSH2 0xFE9 PUSH1 0x9 DUP4 PUSH2 0xC48 JUMP JUMPDEST SWAP2 POP PUSH2 0xFF4 DUP3 PUSH2 0xFB5 JUMP JUMPDEST PUSH1 0x20 DUP3 ADD SWAP1 POP SWAP2 SWAP1 POP JUMP JUMPDEST PUSH0 PUSH1 0x20 DUP3 ADD SWAP1 POP DUP2 DUP2 SUB PUSH0 DUP4 ADD MSTORE PUSH2 0x1016 DUP2 PUSH2 0xFDD JUMP JUMPDEST SWAP1 POP SWAP2 SWAP1 POP JUMP JUMPDEST PUSH32 0x5468652066756E6420697320636C6F7365640000000000000000000000000000 PUSH0 DUP3 ADD MSTORE POP JUMP JUMPDEST PUSH0 PUSH2 0x1051 PUSH1 0x12 DUP4 PUSH2 0xC48 JUMP JUMPDEST SWAP2 POP PUSH2 0x105C DUP3 PUSH2 0x101D JUMP JUMPDEST PUSH1 0x20 DUP3 ADD SWAP1 POP SWAP2 SWAP1 POP JUMP JUMPDEST PUSH0 PUSH1 0x20 DUP3 ADD SWAP1 POP DUP2 DUP2 SUB PUSH0 DUP4 ADD MSTORE PUSH2 0x107E DUP2 PUSH2 0x1045 JUMP JUMPDEST SWAP1 POP SWAP2 SWAP1 POP JUMP JUMPDEST PUSH32 0x73656E64206D6F7265206D6F6E65790000000000000000000000000000000000 PUSH0 DUP3 ADD MSTORE POP JUMP JUMPDEST PUSH0 PUSH2 0x10B9 PUSH1 0xF DUP4 PUSH2 0xC48 JUMP JUMPDEST SWAP2 POP PUSH2 0x10C4 DUP3 PUSH2 0x1085 JUMP JUMPDEST PUSH1 0x20 DUP3 ADD SWAP1 POP SWAP2 SWAP1 POP JUMP JUMPDEST PUSH0 PUSH1 0x20 DUP3 ADD SWAP1 POP DUP2 DUP2 SUB PUSH0 DUP4 ADD MSTORE PUSH2 0x10E6 DUP2 PUSH2 0x10AD JUMP JUMPDEST SWAP1 POP SWAP2 SWAP1 POP JUMP JUMPDEST PUSH0 PUSH10 0xFFFFFFFFFFFFFFFFFFFF DUP3 AND SWAP1 POP SWAP2 SWAP1 POP JUMP JUMPDEST PUSH2 0x110B DUP2 PUSH2 0x10ED JUMP JUMPDEST DUP2 EQ PUSH2 0x1115 JUMPI PUSH0 DUP1 REVERT JUMPDEST POP JUMP JUMPDEST PUSH0 DUP2 MLOAD SWAP1 POP PUSH2 0x1126 DUP2 PUSH2 0x1102 JUMP JUMPDEST SWAP3 SWAP2 POP POP JUMP JUMPDEST PUSH2 0x1135 DUP2 PUSH2 0xBC4 JUMP JUMPDEST DUP2 EQ PUSH2 0x113F JUMPI PUSH0 DUP1 REVERT JUMPDEST POP JUMP JUMPDEST PUSH0 DUP2 MLOAD SWAP1 POP PUSH2 0x1150 DUP2 PUSH2 0x112C JUMP JUMPDEST SWAP3 SWAP2 POP POP JUMP JUMPDEST PUSH0 DUP2 MLOAD SWAP1 POP PUSH2 0x1164 DUP2 PUSH2 0xB34 JUMP JUMPDEST SWAP3 SWAP2 POP POP JUMP JUMPDEST PUSH0 DUP1 PUSH0 DUP1 PUSH0 PUSH1 0xA0 DUP7 DUP9 SUB SLT ISZERO PUSH2 0x1183 JUMPI PUSH2 0x1182 PUSH2 0xAA2 JUMP JUMPDEST JUMPDEST PUSH0 PUSH2 0x1190 DUP9 DUP3 DUP10 ADD PUSH2 0x1118 JUMP JUMPDEST SWAP6 POP POP PUSH1 0x20 PUSH2 0x11A1 DUP9 DUP3 DUP10 ADD PUSH2 0x1142 JUMP JUMPDEST SWAP5 POP POP PUSH1 0x40 PUSH2 0x11B2 DUP9 DUP3 DUP10 ADD PUSH2 0x1156 JUMP JUMPDEST SWAP4 POP POP PUSH1 0x60 PUSH2 0x11C3 DUP9 DUP3 DUP10 ADD PUSH2 0x1156 JUMP JUMPDEST SWAP3 POP POP PUSH1 0x80 PUSH2 0x11D4 DUP9 DUP3 DUP10 ADD PUSH2 0x1118 JUMP JUMPDEST SWAP2 POP POP SWAP3 SWAP6 POP SWAP3 SWAP6 SWAP1 SWAP4 POP JUMP JUMPDEST PUSH0 PUSH2 0x11EB DUP3 PUSH2 0xB2B JUMP JUMPDEST SWAP2 POP PUSH2 0x11F6 DUP4 PUSH2 0xB2B JUMP JUMPDEST SWAP3 POP DUP3 DUP3 MUL PUSH2 0x1204 DUP2 PUSH2 0xB2B JUMP JUMPDEST SWAP2 POP DUP3 DUP3 DIV DUP5 EQ DUP4 ISZERO OR PUSH2 0x121B JUMPI PUSH2 0x121A PUSH2 0xCE6 JUMP JUMPDEST JUMPDEST POP SWAP3 SWAP2 POP POP JUMP JUMPDEST PUSH32 0x4E487B7100000000000000000000000000000000000000000000000000000000 PUSH0 MSTORE PUSH1 0x12 PUSH1 0x4 MSTORE PUSH1 0x24 PUSH0 REVERT JUMPDEST PUSH0 PUSH2 0x1259 DUP3 PUSH2 0xB2B JUMP JUMPDEST SWAP2 POP PUSH2 0x1264 DUP4 PUSH2 0xB2B JUMP JUMPDEST SWAP3 POP DUP3 PUSH2 0x1274 JUMPI PUSH2 0x1273 PUSH2 0x1222 JUMP JUMPDEST JUMPDEST DUP3 DUP3 DIV SWAP1 POP SWAP3 SWAP2 POP POP JUMP INVALID LOG2 PUSH5 0x6970667358 0x22 SLT KECCAK256 0xDF SWAP4 CALLDATACOPY LOG1 0xBD 0xD7 PC DUP1 0xD6 0xEF CALLDATASIZE 0xE6 0xA5 0x27 0xBF 0x2F CALLER 0x2F PUSH16 0x4F6AB417B661A6CD65C3B965E764736F PUSH13 0x634300081A0033000000000000 "
				},
				"gasEstimates": {
					"creation": {
						"codeDepositCost": "957800",
						"executionCost": "infinite",
						"totalCost": "infinite"
					},
					"external": {
						"TARGET()": "391",
						"convertEthToUsd(uint256)": "infinite",
						"fund()": "infinite",
						"funds(address)": "2889",
						"getChainlinkDataFeedLatestAnswer()": "infinite",
						"getFund()": "infinite",
						"owner()": "2575",
						"refund()": "infinite",
						"setErc20Addr(address)": "26885",
						"setFundsAmount(address,uint256)": "25036",
						"transferOwnership(address)": "26994"
					}
				},
				"methodIdentifiers": {
					"TARGET()": "cc1f2afa",
					"convertEthToUsd(uint256)": "c086381e",
					"fund()": "b60d4288",
					"funds(address)": "e2ae93fb",
					"getChainlinkDataFeedLatestAnswer()": "bea4dfb5",
					"getFund()": "8edd6eb6",
					"owner()": "8da5cb5b",
					"refund()": "590e1ae3",
					"setErc20Addr(address)": "13ffff01",
					"setFundsAmount(address,uint256)": "7fe47e1a",
					"transferOwnership(address)": "f2fde38b"
				}
			},
			"storageLayout": {
				"storage": [
					{
						"astId": 53,
						"contract": "test02/FundMe.sol:FundMe",
						"label": "funds",
						"offset": 0,
						"slot": "0",
						"type": "t_mapping(t_address,t_uint256)"
					},
					{
						"astId": 69,
						"contract": "test02/FundMe.sol:FundMe",
						"label": "owner",
						"offset": 0,
						"slot": "1",
						"type": "t_address"
					},
					{
						"astId": 72,
						"contract": "test02/FundMe.sol:FundMe",
						"label": "dataFeed",
						"offset": 0,
						"slot": "2",
						"type": "t_contract(AggregatorV3Interface)45"
					},
					{
						"astId": 74,
						"contract": "test02/FundMe.sol:FundMe",
						"label": "deployTime",
						"offset": 0,
						"slot": "3",
						"type": "t_uint256"
					},
					{
						"astId": 76,
						"contract": "test02/FundMe.sol:FundMe",
						"label": "lockTime",
						"offset": 0,
						"slot": "4",
						"type": "t_uint256"
					},
					{
						"astId": 78,
						"contract": "test02/FundMe.sol:FundMe",
						"label": "erc20Addr",
						"offset": 0,
						"slot": "5",
						"type": "t_address"
					}
				],
				"types": {
					"t_address": {
						"encoding": "inplace",
						"label": "address",
						"numberOfBytes": "20"
					},
					"t_contract(AggregatorV3Interface)45": {
						"encoding": "inplace",
						"label": "contract AggregatorV3Interface",
						"numberOfBytes": "20"
					},
					"t_mapping(t_address,t_uint256)": {
						"encoding": "mapping",
						"key": "t_address",
						"label": "mapping(address => uint256)",
						"numberOfBytes": "32",
						"value": "t_uint256"
					},
					"t_uint256": {
						"encoding": "inplace",
						"label": "uint256",
						"numberOfBytes": "32"
					}
				}
			},
			"userdoc": {
				"kind": "user",
				"methods": {
					"getChainlinkDataFeedLatestAnswer()": {
						"notice": "通过预言机查看eth的价格 Returns the latest answer."
					}
				},
				"version": 1
			}
		}
	}
}