{
	"test01/helloworld.sol": {
		"HelloWorldTest": {
			"abi": [
				{
					"inputs": [
						{
							"internalType": "uint256",
							"name": "id",
							"type": "uint256"
						}
					],
					"name": "getLang",
					"outputs": [
						{
							"internalType": "string",
							"name": "",
							"type": "string"
						}
					],
					"stateMutability": "view",
					"type": "function"
				},
				{
					"inputs": [
						{
							"internalType": "uint256",
							"name": "id",
							"type": "uint256"
						}
					],
					"name": "sayHello",
					"outputs": [
						{
							"internalType": "string",
							"name": "",
							"type": "string"
						}
					],
					"stateMutability": "view",
					"type": "function"
				},
				{
					"inputs": [
						{
							"internalType": "string",
							"name": "_phrase",
							"type": "string"
						},
						{
							"internalType": "uint256",
							"name": "_id",
							"type": "uint256"
						}
					],
					"name": "setLang",
					"outputs": [],
					"stateMutability": "nonpayable",
					"type": "function"
				},
				{
					"inputs": [],
					"name": "yunsuan",
					"outputs": [
						{
							"internalType": "uint256",
							"name": "",
							"type": "uint256"
						}
					],
					"stateMutability": "pure",
					"type": "function"
				}
			],
			"devdoc": {
				"kind": "dev",
				"methods": {},
				"version": 1
			},
			"evm": {
				"assembly": "    /* \"test01/helloworld.sol\":1056:1100  contract HelloWorldTest is HelloWorld {... */\n  mstore(0x40, 0x80)\n    /* \"test01/helloworld.sol\":88:118  string content = \"Hello World\" */\n  mload(0x40)\n  dup1\n  0x40\n  add\n  0x40\n  mstore\n  dup1\n  0x0b\n  dup2\n  mstore\n  0x20\n  add\n  0x48656c6c6f20576f726c64000000000000000000000000000000000000000000\n  dup2\n  mstore\n  pop\n  0x00\n  swap1\n  dup2\n  tag_1\n  swap2\n  swap1\n  tag_2\n  jump\t// in\ntag_1:\n  pop\n    /* \"test01/helloworld.sol\":1056:1100  contract HelloWorldTest is HelloWorld {... */\n  callvalue\n  dup1\n  iszero\n  tag_3\n  jumpi\n  0x00\n  dup1\n  revert\ntag_3:\n  pop\n  jump(tag_4)\n    /* \"#utility.yul\":7:106   */\ntag_5:\n    /* \"#utility.yul\":59:65   */\n  0x00\n    /* \"#utility.yul\":93:98   */\n  dup2\n    /* \"#utility.yul\":87:99   */\n  mload\n    /* \"#utility.yul\":77:99   */\n  swap1\n  pop\n    /* \"#utility.yul\":7:106   */\n  swap2\n  swap1\n  pop\n  jump\t// out\n    /* \"#utility.yul\":112:292   */\ntag_6:\n    /* \"#utility.yul\":160:237   */\n  0x4e487b7100000000000000000000000000000000000000000000000000000000\n    /* \"#utility.yul\":157:158   */\n  0x00\n    /* \"#utility.yul\":150:238   */\n  mstore\n    /* \"#utility.yul\":257:261   */\n  0x41\n    /* \"#utility.yul\":254:255   */\n  0x04\n    /* \"#utility.yul\":247:262   */\n  mstore\n    /* \"#utility.yul\":281:285   */\n  0x24\n    /* \"#utility.yul\":278:279   */\n  0x00\n    /* \"#utility.yul\":271:286   */\n  revert\n    /* \"#utility.yul\":298:478   */\ntag_7:\n    /* \"#utility.yul\":346:423   */\n  0x4e487b7100000000000000000000000000000000000000000000000000000000\n    /* \"#utility.yul\":343:344   */\n  0x00\n    /* \"#utility.yul\":336:424   */\n  mstore\n    /* \"#utility.yul\":443:447   */\n  0x22\n    /* \"#utility.yul\":440:441   */\n  0x04\n    /* \"#utility.yul\":433:448   */\n  mstore\n    /* \"#utility.yul\":467:471   */\n  0x24\n    /* \"#utility.yul\":464:465   */\n  0x00\n    /* \"#utility.yul\":457:472   */\n  revert\n    /* \"#utility.yul\":484:804   */\ntag_8:\n    /* \"#utility.yul\":528:534   */\n  0x00\n    /* \"#utility.yul\":565:566   */\n  0x02\n    /* \"#utility.yul\":559:563   */\n  dup3\n    /* \"#utility.yul\":555:567   */\n  div\n    /* \"#utility.yul\":545:567   */\n  swap1\n  pop\n    /* \"#utility.yul\":612:613   */\n  0x01\n    /* \"#utility.yul\":606:610   */\n  dup3\n    /* \"#utility.yul\":602:614   */\n  and\n    /* \"#utility.yul\":633:651   */\n  dup1\n    /* \"#utility.yul\":623:704   */\n  tag_30\n  jumpi\n    /* \"#utility.yul\":689:693   */\n  0x7f\n    /* \"#utility.yul\":681:687   */\n  dup3\n    /* \"#utility.yul\":677:694   */\n  and\n    /* \"#utility.yul\":667:694   */\n  swap2\n  pop\n    /* \"#utility.yul\":623:704   */\ntag_30:\n    /* \"#utility.yul\":751:753   */\n  0x20\n    /* \"#utility.yul\":743:749   */\n  dup3\n    /* \"#utility.yul\":740:754   */\n  lt\n    /* \"#utility.yul\":720:738   */\n  dup2\n    /* \"#utility.yul\":717:755   */\n  sub\n    /* \"#utility.yul\":714:798   */\n  tag_31\n  jumpi\n    /* \"#utility.yul\":770:788   */\n  tag_32\n  tag_7\n  jump\t// in\ntag_32:\n    /* \"#utility.yul\":714:798   */\ntag_31:\n    /* \"#utility.yul\":535:804   */\n  pop\n    /* \"#utility.yul\":484:804   */\n  swap2\n  swap1\n  pop\n  jump\t// out\n    /* \"#utility.yul\":810:951   */\ntag_9:\n    /* \"#utility.yul\":859:863   */\n  0x00\n    /* \"#utility.yul\":882:885   */\n  dup2\n    /* \"#utility.yul\":874:885   */\n  swap1\n  pop\n    /* \"#utility.yul\":905:908   */\n  dup2\n    /* \"#utility.yul\":902:903   */\n  0x00\n    /* \"#utility.yul\":895:909   */\n  mstore\n    /* \"#utility.yul\":939:943   */\n  0x20\n    /* \"#utility.yul\":936:937   */\n  0x00\n    /* \"#utility.yul\":926:944   */\n  keccak256\n    /* \"#utility.yul\":918:944   */\n  swap1\n  pop\n    /* \"#utility.yul\":810:951   */\n  swap2\n  swap1\n  pop\n  jump\t// out\n    /* \"#utility.yul\":957:1050   */\ntag_10:\n    /* \"#utility.yul\":994:1000   */\n  0x00\n    /* \"#utility.yul\":1041:1043   */\n  0x20\n    /* \"#utility.yul\":1036:1038   */\n  0x1f\n    /* \"#utility.yul\":1029:1034   */\n  dup4\n    /* \"#utility.yul\":1025:1039   */\n  add\n    /* \"#utility.yul\":1021:1044   */\n  div\n    /* \"#utility.yul\":1011:1044   */\n  swap1\n  pop\n    /* \"#utility.yul\":957:1050   */\n  swap2\n  swap1\n  pop\n  jump\t// out\n    /* \"#utility.yul\":1056:1163   */\ntag_11:\n    /* \"#utility.yul\":1100:1108   */\n  0x00\n    /* \"#utility.yul\":1150:1155   */\n  dup3\n    /* \"#utility.yul\":1144:1148   */\n  dup3\n    /* \"#utility.yul\":1140:1156   */\n  shl\n    /* \"#utility.yul\":1119:1156   */\n  swap1\n  pop\n    /* \"#utility.yul\":1056:1163   */\n  swap3\n  swap2\n  pop\n  pop\n  jump\t// out\n    /* \"#utility.yul\":1169:1562   */\ntag_12:\n    /* \"#utility.yul\":1238:1244   */\n  0x00\n    /* \"#utility.yul\":1288:1289   */\n  0x08\n    /* \"#utility.yul\":1276:1286   */\n  dup4\n    /* \"#utility.yul\":1272:1290   */\n  mul\n    /* \"#utility.yul\":1311:1408   */\n  tag_37\n    /* \"#utility.yul\":1341:1407   */\n  0xffffffffffffffffffffffffffffffffffffffffffffffffffffffffffffffff\n    /* \"#utility.yul\":1330:1339   */\n  dup3\n    /* \"#utility.yul\":1311:1408   */\n  tag_11\n  jump\t// in\ntag_37:\n    /* \"#utility.yul\":1429:1468   */\n  tag_38\n    /* \"#utility.yul\":1459:1467   */\n  dup7\n    /* \"#utility.yul\":1448:1457   */\n  dup4\n    /* \"#utility.yul\":1429:1468   */\n  tag_11\n  jump\t// in\ntag_38:\n    /* \"#utility.yul\":1417:1468   */\n  swap6\n  pop\n    /* \"#utility.yul\":1501:1505   */\n  dup1\n    /* \"#utility.yul\":1497:1506   */\n  not\n    /* \"#utility.yul\":1490:1495   */\n  dup5\n    /* \"#utility.yul\":1486:1507   */\n  and\n    /* \"#utility.yul\":1477:1507   */\n  swap4\n  pop\n    /* \"#utility.yul\":1550:1554   */\n  dup1\n    /* \"#utility.yul\":1540:1548   */\n  dup7\n    /* \"#utility.yul\":1536:1555   */\n  and\n    /* \"#utility.yul\":1529:1534   */\n  dup5\n    /* \"#utility.yul\":1526:1556   */\n  or\n    /* \"#utility.yul\":1516:1556   */\n  swap3\n  pop\n    /* \"#utility.yul\":1245:1562   */\n  pop\n  pop\n    /* \"#utility.yul\":1169:1562   */\n  swap4\n  swap3\n  pop\n  pop\n  pop\n  jump\t// out\n    /* \"#utility.yul\":1568:1645   */\ntag_13:\n    /* \"#utility.yul\":1605:1612   */\n  0x00\n    /* \"#utility.yul\":1634:1639   */\n  dup2\n    /* \"#utility.yul\":1623:1639   */\n  swap1\n  pop\n    /* \"#utility.yul\":1568:1645   */\n  swap2\n  swap1\n  pop\n  jump\t// out\n    /* \"#utility.yul\":1651:1711   */\ntag_14:\n    /* \"#utility.yul\":1679:1682   */\n  0x00\n    /* \"#utility.yul\":1700:1705   */\n  dup2\n    /* \"#utility.yul\":1693:1705   */\n  swap1\n  pop\n    /* \"#utility.yul\":1651:1711   */\n  swap2\n  swap1\n  pop\n  jump\t// out\n    /* \"#utility.yul\":1717:1859   */\ntag_15:\n    /* \"#utility.yul\":1767:1776   */\n  0x00\n    /* \"#utility.yul\":1800:1853   */\n  tag_42\n    /* \"#utility.yul\":1818:1852   */\n  tag_43\n    /* \"#utility.yul\":1827:1851   */\n  tag_44\n    /* \"#utility.yul\":1845:1850   */\n  dup5\n    /* \"#utility.yul\":1827:1851   */\n  tag_13\n  jump\t// in\ntag_44:\n    /* \"#utility.yul\":1818:1852   */\n  tag_14\n  jump\t// in\ntag_43:\n    /* \"#utility.yul\":1800:1853   */\n  tag_13\n  jump\t// in\ntag_42:\n    /* \"#utility.yul\":1787:1853   */\n  swap1\n  pop\n    /* \"#utility.yul\":1717:1859   */\n  swap2\n  swap1\n  pop\n  jump\t// out\n    /* \"#utility.yul\":1865:1940   */\ntag_16:\n    /* \"#utility.yul\":1908:1911   */\n  0x00\n    /* \"#utility.yul\":1929:1934   */\n  dup2\n    /* \"#utility.yul\":1922:1934   */\n  swap1\n  pop\n    /* \"#utility.yul\":1865:1940   */\n  swap2\n  swap1\n  pop\n  jump\t// out\n    /* \"#utility.yul\":1946:2215   */\ntag_17:\n    /* \"#utility.yul\":2056:2095   */\n  tag_47\n    /* \"#utility.yul\":2087:2094   */\n  dup4\n    /* \"#utility.yul\":2056:2095   */\n  tag_15\n  jump\t// in\ntag_47:\n    /* \"#utility.yul\":2117:2208   */\n  tag_48\n    /* \"#utility.yul\":2166:2207   */\n  tag_49\n    /* \"#utility.yul\":2190:2206   */\n  dup3\n    /* \"#utility.yul\":2166:2207   */\n  tag_16\n  jump\t// in\ntag_49:\n    /* \"#utility.yul\":2158:2164   */\n  dup5\n    /* \"#utility.yul\":2151:2155   */\n  dup5\n    /* \"#utility.yul\":2145:2156   */\n  sload\n    /* \"#utility.yul\":2117:2208   */\n  tag_12\n  jump\t// in\ntag_48:\n    /* \"#utility.yul\":2111:2115   */\n  dup3\n    /* \"#utility.yul\":2104:2209   */\n  sstore\n    /* \"#utility.yul\":2022:2215   */\n  pop\n    /* \"#utility.yul\":1946:2215   */\n  pop\n  pop\n  pop\n  jump\t// out\n    /* \"#utility.yul\":2221:2294   */\ntag_18:\n    /* \"#utility.yul\":2266:2269   */\n  0x00\n    /* \"#utility.yul\":2221:2294   */\n  swap1\n  jump\t// out\n    /* \"#utility.yul\":2300:2489   */\ntag_19:\n    /* \"#utility.yul\":2377:2409   */\n  tag_52\n  tag_18\n  jump\t// in\ntag_52:\n    /* \"#utility.yul\":2418:2483   */\n  tag_53\n    /* \"#utility.yul\":2476:2482   */\n  dup2\n    /* \"#utility.yul\":2468:2474   */\n  dup5\n    /* \"#utility.yul\":2462:2466   */\n  dup5\n    /* \"#utility.yul\":2418:2483   */\n  tag_17\n  jump\t// in\ntag_53:\n    /* \"#utility.yul\":2353:2489   */\n  pop\n    /* \"#utility.yul\":2300:2489   */\n  pop\n  pop\n  jump\t// out\n    /* \"#utility.yul\":2495:2681   */\ntag_20:\n    /* \"#utility.yul\":2555:2675   */\ntag_55:\n    /* \"#utility.yul\":2572:2575   */\n  dup2\n    /* \"#utility.yul\":2565:2570   */\n  dup2\n    /* \"#utility.yul\":2562:2576   */\n  lt\n    /* \"#utility.yul\":2555:2675   */\n  iszero\n  tag_57\n  jumpi\n    /* \"#utility.yul\":2626:2665   */\n  tag_58\n    /* \"#utility.yul\":2663:2664   */\n  0x00\n    /* \"#utility.yul\":2656:2661   */\n  dup3\n    /* \"#utility.yul\":2626:2665   */\n  tag_19\n  jump\t// in\ntag_58:\n    /* \"#utility.yul\":2599:2600   */\n  0x01\n    /* \"#utility.yul\":2592:2597   */\n  dup2\n    /* \"#utility.yul\":2588:2601   */\n  add\n    /* \"#utility.yul\":2579:2601   */\n  swap1\n  pop\n    /* \"#utility.yul\":2555:2675   */\n  jump(tag_55)\ntag_57:\n    /* \"#utility.yul\":2495:2681   */\n  pop\n  pop\n  jump\t// out\n    /* \"#utility.yul\":2687:3230   */\ntag_21:\n    /* \"#utility.yul\":2788:2790   */\n  0x1f\n    /* \"#utility.yul\":2783:2786   */\n  dup3\n    /* \"#utility.yul\":2780:2791   */\n  gt\n    /* \"#utility.yul\":2777:3223   */\n  iszero\n  tag_60\n  jumpi\n    /* \"#utility.yul\":2822:2860   */\n  tag_61\n    /* \"#utility.yul\":2854:2859   */\n  dup2\n    /* \"#utility.yul\":2822:2860   */\n  tag_9\n  jump\t// in\ntag_61:\n    /* \"#utility.yul\":2906:2935   */\n  tag_62\n    /* \"#utility.yul\":2924:2934   */\n  dup5\n    /* \"#utility.yul\":2906:2935   */\n  tag_10\n  jump\t// in\ntag_62:\n    /* \"#utility.yul\":2896:2904   */\n  dup2\n    /* \"#utility.yul\":2892:2936   */\n  add\n    /* \"#utility.yul\":3089:3091   */\n  0x20\n    /* \"#utility.yul\":3077:3087   */\n  dup6\n    /* \"#utility.yul\":3074:3092   */\n  lt\n    /* \"#utility.yul\":3071:3120   */\n  iszero\n  tag_63\n  jumpi\n    /* \"#utility.yul\":3110:3118   */\n  dup2\n    /* \"#utility.yul\":3095:3118   */\n  swap1\n  pop\n    /* \"#utility.yul\":3071:3120   */\ntag_63:\n    /* \"#utility.yul\":3133:3213   */\n  tag_64\n    /* \"#utility.yul\":3189:3211   */\n  tag_65\n    /* \"#utility.yul\":3207:3210   */\n  dup6\n    /* \"#utility.yul\":3189:3211   */\n  tag_10\n  jump\t// in\ntag_65:\n    /* \"#utility.yul\":3179:3187   */\n  dup4\n    /* \"#utility.yul\":3175:3212   */\n  add\n    /* \"#utility.yul\":3162:3173   */\n  dup3\n    /* \"#utility.yul\":3133:3213   */\n  tag_20\n  jump\t// in\ntag_64:\n    /* \"#utility.yul\":2792:3223   */\n  pop\n  pop\n    /* \"#utility.yul\":2777:3223   */\ntag_60:\n    /* \"#utility.yul\":2687:3230   */\n  pop\n  pop\n  pop\n  jump\t// out\n    /* \"#utility.yul\":3236:3353   */\ntag_22:\n    /* \"#utility.yul\":3290:3298   */\n  0x00\n    /* \"#utility.yul\":3340:3345   */\n  dup3\n    /* \"#utility.yul\":3334:3338   */\n  dup3\n    /* \"#utility.yul\":3330:3346   */\n  shr\n    /* \"#utility.yul\":3309:3346   */\n  swap1\n  pop\n    /* \"#utility.yul\":3236:3353   */\n  swap3\n  swap2\n  pop\n  pop\n  jump\t// out\n    /* \"#utility.yul\":3359:3528   */\ntag_23:\n    /* \"#utility.yul\":3403:3409   */\n  0x00\n    /* \"#utility.yul\":3436:3487   */\n  tag_68\n    /* \"#utility.yul\":3484:3485   */\n  0x00\n    /* \"#utility.yul\":3480:3486   */\n  not\n    /* \"#utility.yul\":3472:3477   */\n  dup5\n    /* \"#utility.yul\":3469:3470   */\n  0x08\n    /* \"#utility.yul\":3465:3478   */\n  mul\n    /* \"#utility.yul\":3436:3487   */\n  tag_22\n  jump\t// in\ntag_68:\n    /* \"#utility.yul\":3432:3488   */\n  not\n    /* \"#utility.yul\":3517:3521   */\n  dup1\n    /* \"#utility.yul\":3511:3515   */\n  dup4\n    /* \"#utility.yul\":3507:3522   */\n  and\n    /* \"#utility.yul\":3497:3522   */\n  swap2\n  pop\n    /* \"#utility.yul\":3410:3528   */\n  pop\n    /* \"#utility.yul\":3359:3528   */\n  swap3\n  swap2\n  pop\n  pop\n  jump\t// out\n    /* \"#utility.yul\":3533:3828   */\ntag_24:\n    /* \"#utility.yul\":3609:3613   */\n  0x00\n    /* \"#utility.yul\":3755:3784   */\n  tag_70\n    /* \"#utility.yul\":3780:3783   */\n  dup4\n    /* \"#utility.yul\":3774:3778   */\n  dup4\n    /* \"#utility.yul\":3755:3784   */\n  tag_23\n  jump\t// in\ntag_70:\n    /* \"#utility.yul\":3747:3784   */\n  swap2\n  pop\n    /* \"#utility.yul\":3817:3820   */\n  dup3\n    /* \"#utility.yul\":3814:3815   */\n  0x02\n    /* \"#utility.yul\":3810:3821   */\n  mul\n    /* \"#utility.yul\":3804:3808   */\n  dup3\n    /* \"#utility.yul\":3801:3822   */\n  or\n    /* \"#utility.yul\":3793:3822   */\n  swap1\n  pop\n    /* \"#utility.yul\":3533:3828   */\n  swap3\n  swap2\n  pop\n  pop\n  jump\t// out\n    /* \"#utility.yul\":3833:5228   */\ntag_2:\n    /* \"#utility.yul\":3950:3987   */\n  tag_72\n    /* \"#utility.yul\":3983:3986   */\n  dup3\n    /* \"#utility.yul\":3950:3987   */\n  tag_5\n  jump\t// in\ntag_72:\n    /* \"#utility.yul\":4052:4070   */\n  0xffffffffffffffff\n    /* \"#utility.yul\":4044:4050   */\n  dup2\n    /* \"#utility.yul\":4041:4071   */\n  gt\n    /* \"#utility.yul\":4038:4094   */\n  iszero\n  tag_73\n  jumpi\n    /* \"#utility.yul\":4074:4092   */\n  tag_74\n  tag_6\n  jump\t// in\ntag_74:\n    /* \"#utility.yul\":4038:4094   */\ntag_73:\n    /* \"#utility.yul\":4118:4156   */\n  tag_75\n    /* \"#utility.yul\":4150:4154   */\n  dup3\n    /* \"#utility.yul\":4144:4155   */\n  sload\n    /* \"#utility.yul\":4118:4156   */\n  tag_8\n  jump\t// in\ntag_75:\n    /* \"#utility.yul\":4203:4270   */\n  tag_76\n    /* \"#utility.yul\":4263:4269   */\n  dup3\n    /* \"#utility.yul\":4255:4261   */\n  dup3\n    /* \"#utility.yul\":4249:4253   */\n  dup6\n    /* \"#utility.yul\":4203:4270   */\n  tag_21\n  jump\t// in\ntag_76:\n    /* \"#utility.yul\":4297:4298   */\n  0x00\n    /* \"#utility.yul\":4321:4325   */\n  0x20\n    /* \"#utility.yul\":4308:4325   */\n  swap1\n  pop\n    /* \"#utility.yul\":4353:4355   */\n  0x1f\n    /* \"#utility.yul\":4345:4351   */\n  dup4\n    /* \"#utility.yul\":4342:4356   */\n  gt\n    /* \"#utility.yul\":4370:4371   */\n  0x01\n    /* \"#utility.yul\":4365:4983   */\n  dup2\n  eq\n  tag_78\n  jumpi\n    /* \"#utility.yul\":5027:5028   */\n  0x00\n    /* \"#utility.yul\":5044:5050   */\n  dup5\n    /* \"#utility.yul\":5041:5118   */\n  iszero\n  tag_79\n  jumpi\n    /* \"#utility.yul\":5093:5102   */\n  dup3\n    /* \"#utility.yul\":5088:5091   */\n  dup8\n    /* \"#utility.yul\":5084:5103   */\n  add\n    /* \"#utility.yul\":5078:5104   */\n  mload\n    /* \"#utility.yul\":5069:5104   */\n  swap1\n  pop\n    /* \"#utility.yul\":5041:5118   */\ntag_79:\n    /* \"#utility.yul\":5144:5211   */\n  tag_80\n    /* \"#utility.yul\":5204:5210   */\n  dup6\n    /* \"#utility.yul\":5197:5202   */\n  dup3\n    /* \"#utility.yul\":5144:5211   */\n  tag_24\n  jump\t// in\ntag_80:\n    /* \"#utility.yul\":5138:5142   */\n  dup7\n    /* \"#utility.yul\":5131:5212   */\n  sstore\n    /* \"#utility.yul\":5000:5222   */\n  pop\n    /* \"#utility.yul\":4335:5222   */\n  jump(tag_77)\n    /* \"#utility.yul\":4365:4983   */\ntag_78:\n    /* \"#utility.yul\":4417:4421   */\n  0x1f\n    /* \"#utility.yul\":4413:4422   */\n  not\n    /* \"#utility.yul\":4405:4411   */\n  dup5\n    /* \"#utility.yul\":4401:4423   */\n  and\n    /* \"#utility.yul\":4451:4488   */\n  tag_81\n    /* \"#utility.yul\":4483:4487   */\n  dup7\n    /* \"#utility.yul\":4451:4488   */\n  tag_9\n  jump\t// in\ntag_81:\n    /* \"#utility.yul\":4510:4511   */\n  0x00\n    /* \"#utility.yul\":4524:4732   */\ntag_82:\n    /* \"#utility.yul\":4538:4545   */\n  dup3\n    /* \"#utility.yul\":4535:4536   */\n  dup2\n    /* \"#utility.yul\":4532:4546   */\n  lt\n    /* \"#utility.yul\":4524:4732   */\n  iszero\n  tag_84\n  jumpi\n    /* \"#utility.yul\":4617:4626   */\n  dup5\n    /* \"#utility.yul\":4612:4615   */\n  dup10\n    /* \"#utility.yul\":4608:4627   */\n  add\n    /* \"#utility.yul\":4602:4628   */\n  mload\n    /* \"#utility.yul\":4594:4600   */\n  dup3\n    /* \"#utility.yul\":4587:4629   */\n  sstore\n    /* \"#utility.yul\":4668:4669   */\n  0x01\n    /* \"#utility.yul\":4660:4666   */\n  dup3\n    /* \"#utility.yul\":4656:4670   */\n  add\n    /* \"#utility.yul\":4646:4670   */\n  swap2\n  pop\n    /* \"#utility.yul\":4715:4717   */\n  0x20\n    /* \"#utility.yul\":4704:4713   */\n  dup6\n    /* \"#utility.yul\":4700:4718   */\n  add\n    /* \"#utility.yul\":4687:4718   */\n  swap5\n  pop\n    /* \"#utility.yul\":4561:4565   */\n  0x20\n    /* \"#utility.yul\":4558:4559   */\n  dup2\n    /* \"#utility.yul\":4554:4566   */\n  add\n    /* \"#utility.yul\":4549:4566   */\n  swap1\n  pop\n    /* \"#utility.yul\":4524:4732   */\n  jump(tag_82)\ntag_84:\n    /* \"#utility.yul\":4760:4766   */\n  dup7\n    /* \"#utility.yul\":4751:4758   */\n  dup4\n    /* \"#utility.yul\":4748:4767   */\n  lt\n    /* \"#utility.yul\":4745:4924   */\n  iszero\n  tag_85\n  jumpi\n    /* \"#utility.yul\":4818:4827   */\n  dup5\n    /* \"#utility.yul\":4813:4816   */\n  dup10\n    /* \"#utility.yul\":4809:4828   */\n  add\n    /* \"#utility.yul\":4803:4829   */\n  mload\n    /* \"#utility.yul\":4861:4909   */\n  tag_86\n    /* \"#utility.yul\":4903:4907   */\n  0x1f\n    /* \"#utility.yul\":4895:4901   */\n  dup10\n    /* \"#utility.yul\":4891:4908   */\n  and\n    /* \"#utility.yul\":4880:4889   */\n  dup3\n    /* \"#utility.yul\":4861:4909   */\n  tag_23\n  jump\t// in\ntag_86:\n    /* \"#utility.yul\":4853:4859   */\n  dup4\n    /* \"#utility.yul\":4846:4910   */\n  sstore\n    /* \"#utility.yul\":4768:4924   */\n  pop\n    /* \"#utility.yul\":4745:4924   */\ntag_85:\n    /* \"#utility.yul\":4970:4971   */\n  0x01\n    /* \"#utility.yul\":4966:4967   */\n  0x02\n    /* \"#utility.yul\":4958:4964   */\n  dup9\n    /* \"#utility.yul\":4954:4968   */\n  mul\n    /* \"#utility.yul\":4950:4972   */\n  add\n    /* \"#utility.yul\":4944:4948   */\n  dup9\n    /* \"#utility.yul\":4937:4973   */\n  sstore\n    /* \"#utility.yul\":4372:4983   */\n  pop\n  pop\n  pop\n    /* \"#utility.yul\":4335:5222   */\ntag_77:\n  pop\n    /* \"#utility.yul\":3925:5228   */\n  pop\n  pop\n  pop\n    /* \"#utility.yul\":3833:5228   */\n  pop\n  pop\n  jump\t// out\n    /* \"test01/helloworld.sol\":1056:1100  contract HelloWorldTest is HelloWorld {... */\ntag_4:\n  dataSize(sub_0)\n  dup1\n  dataOffset(sub_0)\n  0x00\n  codecopy\n  0x00\n  return\nstop\n\nsub_0: assembly {\n        /* \"test01/helloworld.sol\":1056:1100  contract HelloWorldTest is HelloWorld {... */\n      mstore(0x40, 0x80)\n      callvalue\n      dup1\n      iszero\n      tag_1\n      jumpi\n      0x00\n      dup1\n      revert\n    tag_1:\n      pop\n      jumpi(tag_2, lt(calldatasize, 0x04))\n      shr(0xe0, calldataload(0x00))\n      dup1\n      0x0966f39c\n      eq\n      tag_3\n      jumpi\n      dup1\n      0x42257b31\n      eq\n      tag_4\n      jumpi\n      dup1\n      0x7a365725\n      eq\n      tag_5\n      jumpi\n      dup1\n      0xd8513d2d\n      eq\n      tag_6\n      jumpi\n    tag_2:\n      0x00\n      dup1\n      revert\n        /* \"test01/helloworld.sol\":512:674  function setLang(string memory _phrase, uint256 _id ) public {... */\n    tag_3:\n      tag_7\n      0x04\n      dup1\n      calldatasize\n      sub\n      dup2\n      add\n      swap1\n      tag_8\n      swap2\n      swap1\n      tag_9\n      jump\t// in\n    tag_8:\n      tag_10\n      jump\t// in\n    tag_7:\n      stop\n        /* \"test01/helloworld.sol\":290:506  function sayHello(uint id) public view returns (string memory) {... */\n    tag_4:\n      tag_11\n      0x04\n      dup1\n      calldatasize\n      sub\n      dup2\n      add\n      swap1\n      tag_12\n      swap2\n      swap1\n      tag_13\n      jump\t// in\n    tag_12:\n      tag_14\n      jump\t// in\n    tag_11:\n      mload(0x40)\n      tag_15\n      swap2\n      swap1\n      tag_16\n      jump\t// in\n    tag_15:\n      mload(0x40)\n      dup1\n      swap2\n      sub\n      swap1\n      return\n        /* \"test01/helloworld.sol\":839:918  function yunsuan() public pure  returns (uint) {... */\n    tag_5:\n      tag_17\n      tag_18\n      jump\t// in\n    tag_17:\n      mload(0x40)\n      tag_19\n      swap2\n      swap1\n      tag_20\n      jump\t// in\n    tag_19:\n      mload(0x40)\n      dup1\n      swap2\n      sub\n      swap1\n      return\n        /* \"test01/helloworld.sol\":680:827  function getLang(uint id) public view returns (string memory) {... */\n    tag_6:\n      tag_21\n      0x04\n      dup1\n      calldatasize\n      sub\n      dup2\n      add\n      swap1\n      tag_22\n      swap2\n      swap1\n      tag_13\n      jump\t// in\n    tag_22:\n      tag_23\n      jump\t// in\n    tag_21:\n      mload(0x40)\n      tag_24\n      swap2\n      swap1\n      tag_16\n      jump\t// in\n    tag_24:\n      mload(0x40)\n      dup1\n      swap2\n      sub\n      swap1\n      return\n        /* \"test01/helloworld.sol\":512:674  function setLang(string memory _phrase, uint256 _id ) public {... */\n    tag_10:\n        /* \"test01/helloworld.sol\":583:599  Lang memory lang */\n      0x00\n        /* \"test01/helloworld.sol\":602:633  Lang(_phrase, _id , msg.sender) */\n      mload(0x40)\n      dup1\n      0x60\n      add\n      0x40\n      mstore\n      dup1\n        /* \"test01/helloworld.sol\":607:614  _phrase */\n      dup5\n        /* \"test01/helloworld.sol\":602:633  Lang(_phrase, _id , msg.sender) */\n      dup2\n      mstore\n      0x20\n      add\n        /* \"test01/helloworld.sol\":616:619  _id */\n      dup4\n        /* \"test01/helloworld.sol\":602:633  Lang(_phrase, _id , msg.sender) */\n      dup2\n      mstore\n      0x20\n      add\n        /* \"test01/helloworld.sol\":622:632  msg.sender */\n      caller\n        /* \"test01/helloworld.sol\":602:633  Lang(_phrase, _id , msg.sender) */\n      0xffffffffffffffffffffffffffffffffffffffff\n      and\n      dup2\n      mstore\n      pop\n        /* \"test01/helloworld.sol\":583:633  Lang memory lang = Lang(_phrase, _id , msg.sender) */\n      swap1\n      pop\n        /* \"test01/helloworld.sol\":662:666  lang */\n      dup1\n        /* \"test01/helloworld.sol\":643:654  langMapping */\n      0x02\n        /* \"test01/helloworld.sol\":643:659  langMapping[_id] */\n      0x00\n        /* \"test01/helloworld.sol\":655:658  _id */\n      dup5\n        /* \"test01/helloworld.sol\":643:659  langMapping[_id] */\n      dup2\n      mstore\n      0x20\n      add\n      swap1\n      dup2\n      mstore\n      0x20\n      add\n      0x00\n      keccak256\n        /* \"test01/helloworld.sol\":643:666  langMapping[_id] = lang */\n      0x00\n      dup3\n      add\n      mload\n      dup2\n      0x00\n      add\n      swap1\n      dup2\n      tag_26\n      swap2\n      swap1\n      tag_27\n      jump\t// in\n    tag_26:\n      pop\n      0x20\n      dup3\n      add\n      mload\n      dup2\n      0x01\n      add\n      sstore\n      0x40\n      dup3\n      add\n      mload\n      dup2\n      0x02\n      add\n      exp(0x0100, 0x00)\n      dup2\n      sload\n      dup2\n      0xffffffffffffffffffffffffffffffffffffffff\n      mul\n      not\n      and\n      swap1\n      dup4\n      0xffffffffffffffffffffffffffffffffffffffff\n      and\n      mul\n      or\n      swap1\n      sstore\n      pop\n      swap1\n      pop\n      pop\n        /* \"test01/helloworld.sol\":573:674  {... */\n      pop\n        /* \"test01/helloworld.sol\":512:674  function setLang(string memory _phrase, uint256 _id ) public {... */\n      pop\n      pop\n      jump\t// out\n        /* \"test01/helloworld.sol\":290:506  function sayHello(uint id) public view returns (string memory) {... */\n    tag_14:\n        /* \"test01/helloworld.sol\":338:351  string memory */\n      0x60\n        /* \"test01/helloworld.sol\":399:402  0x0 */\n      0x00\n        /* \"test01/helloworld.sol\":367:403  langMapping[id].addr == address(0x0) */\n      0xffffffffffffffffffffffffffffffffffffffff\n      and\n        /* \"test01/helloworld.sol\":367:378  langMapping */\n      0x02\n        /* \"test01/helloworld.sol\":367:382  langMapping[id] */\n      0x00\n        /* \"test01/helloworld.sol\":379:381  id */\n      dup5\n        /* \"test01/helloworld.sol\":367:382  langMapping[id] */\n      dup2\n      mstore\n      0x20\n      add\n      swap1\n      dup2\n      mstore\n      0x20\n      add\n      0x00\n      keccak256\n        /* \"test01/helloworld.sol\":367:387  langMapping[id].addr */\n      0x02\n      add\n      0x00\n      swap1\n      sload\n      swap1\n      0x0100\n      exp\n      swap1\n      div\n      0xffffffffffffffffffffffffffffffffffffffff\n      and\n        /* \"test01/helloworld.sol\":367:403  langMapping[id].addr == address(0x0) */\n      0xffffffffffffffffffffffffffffffffffffffff\n      and\n      sub\n        /* \"test01/helloworld.sol\":364:499  if(langMapping[id].addr == address(0x0)) {... */\n      tag_29\n      jumpi\n        /* \"test01/helloworld.sol\":420:435  return\"No lang\" */\n      mload(0x40)\n      dup1\n      0x40\n      add\n      0x40\n      mstore\n      dup1\n      0x07\n      dup2\n      mstore\n      0x20\n      add\n      0x4e6f206c616e6700000000000000000000000000000000000000000000000000\n      dup2\n      mstore\n      pop\n      swap1\n      pop\n      jump(tag_28)\n        /* \"test01/helloworld.sol\":364:499  if(langMapping[id].addr == address(0x0)) {... */\n    tag_29:\n        /* \"test01/helloworld.sol\":476:487  getLang(id) */\n      tag_31\n        /* \"test01/helloworld.sol\":484:486  id */\n      dup3\n        /* \"test01/helloworld.sol\":476:483  getLang */\n      tag_23\n        /* \"test01/helloworld.sol\":476:487  getLang(id) */\n      jump\t// in\n    tag_31:\n        /* \"test01/helloworld.sol\":469:487  return getLang(id) */\n      swap1\n      pop\n        /* \"test01/helloworld.sol\":290:506  function sayHello(uint id) public view returns (string memory) {... */\n    tag_28:\n      swap2\n      swap1\n      pop\n      jump\t// out\n        /* \"test01/helloworld.sol\":839:918  function yunsuan() public pure  returns (uint) {... */\n    tag_18:\n        /* \"test01/helloworld.sol\":880:884  uint */\n      0x00\n        /* \"test01/helloworld.sol\":905:910  1 + 1 */\n      0x02\n        /* \"test01/helloworld.sol\":897:910  return  1 + 1 */\n      swap1\n      pop\n        /* \"test01/helloworld.sol\":839:918  function yunsuan() public pure  returns (uint) {... */\n      swap1\n      jump\t// out\n        /* \"test01/helloworld.sol\":680:827  function getLang(uint id) public view returns (string memory) {... */\n    tag_23:\n        /* \"test01/helloworld.sol\":727:740  string memory */\n      0x60\n        /* \"test01/helloworld.sol\":774:785  langMapping */\n      0x02\n        /* \"test01/helloworld.sol\":774:789  langMapping[id] */\n      0x00\n        /* \"test01/helloworld.sol\":786:788  id */\n      dup4\n        /* \"test01/helloworld.sol\":774:789  langMapping[id] */\n      dup2\n      mstore\n      0x20\n      add\n      swap1\n      dup2\n      mstore\n      0x20\n      add\n      0x00\n      keccak256\n        /* \"test01/helloworld.sol\":774:796  langMapping[id].phrase */\n      0x00\n      add\n        /* \"test01/helloworld.sol\":760:819  string.concat(langMapping[id].phrase, \", this's from kien\") */\n      add(0x20, mload(0x40))\n      tag_34\n      swap2\n      swap1\n      tag_35\n      jump\t// in\n    tag_34:\n      mload(0x40)\n      0x20\n      dup2\n      dup4\n      sub\n      sub\n      dup2\n      mstore\n      swap1\n      0x40\n      mstore\n        /* \"test01/helloworld.sol\":753:819  return string.concat(langMapping[id].phrase, \", this's from kien\") */\n      swap1\n      pop\n        /* \"test01/helloworld.sol\":680:827  function getLang(uint id) public view returns (string memory) {... */\n      swap2\n      swap1\n      pop\n      jump\t// out\n        /* \"#utility.yul\":7:82   */\n    tag_36:\n        /* \"#utility.yul\":40:46   */\n      0x00\n        /* \"#utility.yul\":73:75   */\n      0x40\n        /* \"#utility.yul\":67:76   */\n      mload\n        /* \"#utility.yul\":57:76   */\n      swap1\n      pop\n        /* \"#utility.yul\":7:82   */\n      swap1\n      jump\t// out\n        /* \"#utility.yul\":88:205   */\n    tag_37:\n        /* \"#utility.yul\":197:198   */\n      0x00\n        /* \"#utility.yul\":194:195   */\n      dup1\n        /* \"#utility.yul\":187:199   */\n      revert\n        /* \"#utility.yul\":211:328   */\n    tag_38:\n        /* \"#utility.yul\":320:321   */\n      0x00\n        /* \"#utility.yul\":317:318   */\n      dup1\n        /* \"#utility.yul\":310:322   */\n      revert\n        /* \"#utility.yul\":334:451   */\n    tag_39:\n        /* \"#utility.yul\":443:444   */\n      0x00\n        /* \"#utility.yul\":440:441   */\n      dup1\n        /* \"#utility.yul\":433:445   */\n      revert\n        /* \"#utility.yul\":457:574   */\n    tag_40:\n        /* \"#utility.yul\":566:567   */\n      0x00\n        /* \"#utility.yul\":563:564   */\n      dup1\n        /* \"#utility.yul\":556:568   */\n      revert\n        /* \"#utility.yul\":580:682   */\n    tag_41:\n        /* \"#utility.yul\":621:627   */\n      0x00\n        /* \"#utility.yul\":672:674   */\n      0x1f\n        /* \"#utility.yul\":668:675   */\n      not\n        /* \"#utility.yul\":663:665   */\n      0x1f\n        /* \"#utility.yul\":656:661   */\n      dup4\n        /* \"#utility.yul\":652:666   */\n      add\n        /* \"#utility.yul\":648:676   */\n      and\n        /* \"#utility.yul\":638:676   */\n      swap1\n      pop\n        /* \"#utility.yul\":580:682   */\n      swap2\n      swap1\n      pop\n      jump\t// out\n        /* \"#utility.yul\":688:868   */\n    tag_42:\n        /* \"#utility.yul\":736:813   */\n      0x4e487b7100000000000000000000000000000000000000000000000000000000\n        /* \"#utility.yul\":733:734   */\n      0x00\n        /* \"#utility.yul\":726:814   */\n      mstore\n        /* \"#utility.yul\":833:837   */\n      0x41\n        /* \"#utility.yul\":830:831   */\n      0x04\n        /* \"#utility.yul\":823:838   */\n      mstore\n        /* \"#utility.yul\":857:861   */\n      0x24\n        /* \"#utility.yul\":854:855   */\n      0x00\n        /* \"#utility.yul\":847:862   */\n      revert\n        /* \"#utility.yul\":874:1155   */\n    tag_43:\n        /* \"#utility.yul\":957:984   */\n      tag_86\n        /* \"#utility.yul\":979:983   */\n      dup3\n        /* \"#utility.yul\":957:984   */\n      tag_41\n      jump\t// in\n    tag_86:\n        /* \"#utility.yul\":949:955   */\n      dup2\n        /* \"#utility.yul\":945:985   */\n      add\n        /* \"#utility.yul\":1087:1093   */\n      dup2\n        /* \"#utility.yul\":1075:1085   */\n      dup2\n        /* \"#utility.yul\":1072:1094   */\n      lt\n        /* \"#utility.yul\":1051:1069   */\n      0xffffffffffffffff\n        /* \"#utility.yul\":1039:1049   */\n      dup3\n        /* \"#utility.yul\":1036:1070   */\n      gt\n        /* \"#utility.yul\":1033:1095   */\n      or\n        /* \"#utility.yul\":1030:1118   */\n      iszero\n      tag_87\n      jumpi\n        /* \"#utility.yul\":1098:1116   */\n      tag_88\n      tag_42\n      jump\t// in\n    tag_88:\n        /* \"#utility.yul\":1030:1118   */\n    tag_87:\n        /* \"#utility.yul\":1138:1148   */\n      dup1\n        /* \"#utility.yul\":1134:1136   */\n      0x40\n        /* \"#utility.yul\":1127:1149   */\n      mstore\n        /* \"#utility.yul\":917:1155   */\n      pop\n        /* \"#utility.yul\":874:1155   */\n      pop\n      pop\n      jump\t// out\n        /* \"#utility.yul\":1161:1290   */\n    tag_44:\n        /* \"#utility.yul\":1195:1201   */\n      0x00\n        /* \"#utility.yul\":1222:1242   */\n      tag_90\n      tag_36\n      jump\t// in\n    tag_90:\n        /* \"#utility.yul\":1212:1242   */\n      swap1\n      pop\n        /* \"#utility.yul\":1251:1284   */\n      tag_91\n        /* \"#utility.yul\":1279:1283   */\n      dup3\n        /* \"#utility.yul\":1271:1277   */\n      dup3\n        /* \"#utility.yul\":1251:1284   */\n      tag_43\n      jump\t// in\n    tag_91:\n        /* \"#utility.yul\":1161:1290   */\n      swap2\n      swap1\n      pop\n      jump\t// out\n        /* \"#utility.yul\":1296:1604   */\n    tag_45:\n        /* \"#utility.yul\":1358:1362   */\n      0x00\n        /* \"#utility.yul\":1448:1466   */\n      0xffffffffffffffff\n        /* \"#utility.yul\":1440:1446   */\n      dup3\n        /* \"#utility.yul\":1437:1467   */\n      gt\n        /* \"#utility.yul\":1434:1490   */\n      iszero\n      tag_93\n      jumpi\n        /* \"#utility.yul\":1470:1488   */\n      tag_94\n      tag_42\n      jump\t// in\n    tag_94:\n        /* \"#utility.yul\":1434:1490   */\n    tag_93:\n        /* \"#utility.yul\":1508:1537   */\n      tag_95\n        /* \"#utility.yul\":1530:1536   */\n      dup3\n        /* \"#utility.yul\":1508:1537   */\n      tag_41\n      jump\t// in\n    tag_95:\n        /* \"#utility.yul\":1500:1537   */\n      swap1\n      pop\n        /* \"#utility.yul\":1592:1596   */\n      0x20\n        /* \"#utility.yul\":1586:1590   */\n      dup2\n        /* \"#utility.yul\":1582:1597   */\n      add\n        /* \"#utility.yul\":1574:1597   */\n      swap1\n      pop\n        /* \"#utility.yul\":1296:1604   */\n      swap2\n      swap1\n      pop\n      jump\t// out\n        /* \"#utility.yul\":1610:1758   */\n    tag_46:\n        /* \"#utility.yul\":1708:1714   */\n      dup3\n        /* \"#utility.yul\":1703:1706   */\n      dup2\n        /* \"#utility.yul\":1698:1701   */\n      dup4\n        /* \"#utility.yul\":1685:1715   */\n      calldatacopy\n        /* \"#utility.yul\":1749:1750   */\n      0x00\n        /* \"#utility.yul\":1740:1746   */\n      dup4\n        /* \"#utility.yul\":1735:1738   */\n      dup4\n        /* \"#utility.yul\":1731:1747   */\n      add\n        /* \"#utility.yul\":1724:1751   */\n      mstore\n        /* \"#utility.yul\":1610:1758   */\n      pop\n      pop\n      pop\n      jump\t// out\n        /* \"#utility.yul\":1764:2189   */\n    tag_47:\n        /* \"#utility.yul\":1842:1847   */\n      0x00\n        /* \"#utility.yul\":1867:1933   */\n      tag_98\n        /* \"#utility.yul\":1883:1932   */\n      tag_99\n        /* \"#utility.yul\":1925:1931   */\n      dup5\n        /* \"#utility.yul\":1883:1932   */\n      tag_45\n      jump\t// in\n    tag_99:\n        /* \"#utility.yul\":1867:1933   */\n      tag_44\n      jump\t// in\n    tag_98:\n        /* \"#utility.yul\":1858:1933   */\n      swap1\n      pop\n        /* \"#utility.yul\":1956:1962   */\n      dup3\n        /* \"#utility.yul\":1949:1954   */\n      dup2\n        /* \"#utility.yul\":1942:1963   */\n      mstore\n        /* \"#utility.yul\":1994:1998   */\n      0x20\n        /* \"#utility.yul\":1987:1992   */\n      dup2\n        /* \"#utility.yul\":1983:1999   */\n      add\n        /* \"#utility.yul\":2032:2035   */\n      dup5\n        /* \"#utility.yul\":2023:2029   */\n      dup5\n        /* \"#utility.yul\":2018:2021   */\n      dup5\n        /* \"#utility.yul\":2014:2030   */\n      add\n        /* \"#utility.yul\":2011:2036   */\n      gt\n        /* \"#utility.yul\":2008:2120   */\n      iszero\n      tag_100\n      jumpi\n        /* \"#utility.yul\":2039:2118   */\n      tag_101\n      tag_40\n      jump\t// in\n    tag_101:\n        /* \"#utility.yul\":2008:2120   */\n    tag_100:\n        /* \"#utility.yul\":2129:2183   */\n      tag_102\n        /* \"#utility.yul\":2176:2182   */\n      dup5\n        /* \"#utility.yul\":2171:2174   */\n      dup3\n        /* \"#utility.yul\":2166:2169   */\n      dup6\n        /* \"#utility.yul\":2129:2183   */\n      tag_46\n      jump\t// in\n    tag_102:\n        /* \"#utility.yul\":1848:2189   */\n      pop\n        /* \"#utility.yul\":1764:2189   */\n      swap4\n      swap3\n      pop\n      pop\n      pop\n      jump\t// out\n        /* \"#utility.yul\":2209:2549   */\n    tag_48:\n        /* \"#utility.yul\":2265:2270   */\n      0x00\n        /* \"#utility.yul\":2314:2317   */\n      dup3\n        /* \"#utility.yul\":2307:2311   */\n      0x1f\n        /* \"#utility.yul\":2299:2305   */\n      dup4\n        /* \"#utility.yul\":2295:2312   */\n      add\n        /* \"#utility.yul\":2291:2318   */\n      slt\n        /* \"#utility.yul\":2281:2403   */\n      tag_104\n      jumpi\n        /* \"#utility.yul\":2322:2401   */\n      tag_105\n      tag_39\n      jump\t// in\n    tag_105:\n        /* \"#utility.yul\":2281:2403   */\n    tag_104:\n        /* \"#utility.yul\":2439:2445   */\n      dup2\n        /* \"#utility.yul\":2426:2446   */\n      calldataload\n        /* \"#utility.yul\":2464:2543   */\n      tag_106\n        /* \"#utility.yul\":2539:2542   */\n      dup5\n        /* \"#utility.yul\":2531:2537   */\n      dup3\n        /* \"#utility.yul\":2524:2528   */\n      0x20\n        /* \"#utility.yul\":2516:2522   */\n      dup7\n        /* \"#utility.yul\":2512:2529   */\n      add\n        /* \"#utility.yul\":2464:2543   */\n      tag_47\n      jump\t// in\n    tag_106:\n        /* \"#utility.yul\":2455:2543   */\n      swap2\n      pop\n        /* \"#utility.yul\":2271:2549   */\n      pop\n        /* \"#utility.yul\":2209:2549   */\n      swap3\n      swap2\n      pop\n      pop\n      jump\t// out\n        /* \"#utility.yul\":2555:2632   */\n    tag_49:\n        /* \"#utility.yul\":2592:2599   */\n      0x00\n        /* \"#utility.yul\":2621:2626   */\n      dup2\n        /* \"#utility.yul\":2610:2626   */\n      swap1\n      pop\n        /* \"#utility.yul\":2555:2632   */\n      swap2\n      swap1\n      pop\n      jump\t// out\n        /* \"#utility.yul\":2638:2760   */\n    tag_50:\n        /* \"#utility.yul\":2711:2735   */\n      tag_109\n        /* \"#utility.yul\":2729:2734   */\n      dup2\n        /* \"#utility.yul\":2711:2735   */\n      tag_49\n      jump\t// in\n    tag_109:\n        /* \"#utility.yul\":2704:2709   */\n      dup2\n        /* \"#utility.yul\":2701:2736   */\n      eq\n        /* \"#utility.yul\":2691:2754   */\n      tag_110\n      jumpi\n        /* \"#utility.yul\":2750:2751   */\n      0x00\n        /* \"#utility.yul\":2747:2748   */\n      dup1\n        /* \"#utility.yul\":2740:2752   */\n      revert\n        /* \"#utility.yul\":2691:2754   */\n    tag_110:\n        /* \"#utility.yul\":2638:2760   */\n      pop\n      jump\t// out\n        /* \"#utility.yul\":2766:2905   */\n    tag_51:\n        /* \"#utility.yul\":2812:2817   */\n      0x00\n        /* \"#utility.yul\":2850:2856   */\n      dup2\n        /* \"#utility.yul\":2837:2857   */\n      calldataload\n        /* \"#utility.yul\":2828:2857   */\n      swap1\n      pop\n        /* \"#utility.yul\":2866:2899   */\n      tag_112\n        /* \"#utility.yul\":2893:2898   */\n      dup2\n        /* \"#utility.yul\":2866:2899   */\n      tag_50\n      jump\t// in\n    tag_112:\n        /* \"#utility.yul\":2766:2905   */\n      swap3\n      swap2\n      pop\n      pop\n      jump\t// out\n        /* \"#utility.yul\":2911:3565   */\n    tag_9:\n        /* \"#utility.yul\":2989:2995   */\n      0x00\n        /* \"#utility.yul\":2997:3003   */\n      dup1\n        /* \"#utility.yul\":3046:3048   */\n      0x40\n        /* \"#utility.yul\":3034:3043   */\n      dup4\n        /* \"#utility.yul\":3025:3032   */\n      dup6\n        /* \"#utility.yul\":3021:3044   */\n      sub\n        /* \"#utility.yul\":3017:3049   */\n      slt\n        /* \"#utility.yul\":3014:3133   */\n      iszero\n      tag_114\n      jumpi\n        /* \"#utility.yul\":3052:3131   */\n      tag_115\n      tag_37\n      jump\t// in\n    tag_115:\n        /* \"#utility.yul\":3014:3133   */\n    tag_114:\n        /* \"#utility.yul\":3200:3201   */\n      0x00\n        /* \"#utility.yul\":3189:3198   */\n      dup4\n        /* \"#utility.yul\":3185:3202   */\n      add\n        /* \"#utility.yul\":3172:3203   */\n      calldataload\n        /* \"#utility.yul\":3230:3248   */\n      0xffffffffffffffff\n        /* \"#utility.yul\":3222:3228   */\n      dup2\n        /* \"#utility.yul\":3219:3249   */\n      gt\n        /* \"#utility.yul\":3216:3333   */\n      iszero\n      tag_116\n      jumpi\n        /* \"#utility.yul\":3252:3331   */\n      tag_117\n      tag_38\n      jump\t// in\n    tag_117:\n        /* \"#utility.yul\":3216:3333   */\n    tag_116:\n        /* \"#utility.yul\":3357:3420   */\n      tag_118\n        /* \"#utility.yul\":3412:3419   */\n      dup6\n        /* \"#utility.yul\":3403:3409   */\n      dup3\n        /* \"#utility.yul\":3392:3401   */\n      dup7\n        /* \"#utility.yul\":3388:3410   */\n      add\n        /* \"#utility.yul\":3357:3420   */\n      tag_48\n      jump\t// in\n    tag_118:\n        /* \"#utility.yul\":3347:3420   */\n      swap3\n      pop\n        /* \"#utility.yul\":3143:3430   */\n      pop\n        /* \"#utility.yul\":3469:3471   */\n      0x20\n        /* \"#utility.yul\":3495:3548   */\n      tag_119\n        /* \"#utility.yul\":3540:3547   */\n      dup6\n        /* \"#utility.yul\":3531:3537   */\n      dup3\n        /* \"#utility.yul\":3520:3529   */\n      dup7\n        /* \"#utility.yul\":3516:3538   */\n      add\n        /* \"#utility.yul\":3495:3548   */\n      tag_51\n      jump\t// in\n    tag_119:\n        /* \"#utility.yul\":3485:3548   */\n      swap2\n      pop\n        /* \"#utility.yul\":3440:3558   */\n      pop\n        /* \"#utility.yul\":2911:3565   */\n      swap3\n      pop\n      swap3\n      swap1\n      pop\n      jump\t// out\n        /* \"#utility.yul\":3571:3900   */\n    tag_13:\n        /* \"#utility.yul\":3630:3636   */\n      0x00\n        /* \"#utility.yul\":3679:3681   */\n      0x20\n        /* \"#utility.yul\":3667:3676   */\n      dup3\n        /* \"#utility.yul\":3658:3665   */\n      dup5\n        /* \"#utility.yul\":3654:3677   */\n      sub\n        /* \"#utility.yul\":3650:3682   */\n      slt\n        /* \"#utility.yul\":3647:3766   */\n      iszero\n      tag_121\n      jumpi\n        /* \"#utility.yul\":3685:3764   */\n      tag_122\n      tag_37\n      jump\t// in\n    tag_122:\n        /* \"#utility.yul\":3647:3766   */\n    tag_121:\n        /* \"#utility.yul\":3805:3806   */\n      0x00\n        /* \"#utility.yul\":3830:3883   */\n      tag_123\n        /* \"#utility.yul\":3875:3882   */\n      dup5\n        /* \"#utility.yul\":3866:3872   */\n      dup3\n        /* \"#utility.yul\":3855:3864   */\n      dup6\n        /* \"#utility.yul\":3851:3873   */\n      add\n        /* \"#utility.yul\":3830:3883   */\n      tag_51\n      jump\t// in\n    tag_123:\n        /* \"#utility.yul\":3820:3883   */\n      swap2\n      pop\n        /* \"#utility.yul\":3776:3893   */\n      pop\n        /* \"#utility.yul\":3571:3900   */\n      swap3\n      swap2\n      pop\n      pop\n      jump\t// out\n        /* \"#utility.yul\":3906:4005   */\n    tag_52:\n        /* \"#utility.yul\":3958:3964   */\n      0x00\n        /* \"#utility.yul\":3992:3997   */\n      dup2\n        /* \"#utility.yul\":3986:3998   */\n      mload\n        /* \"#utility.yul\":3976:3998   */\n      swap1\n      pop\n        /* \"#utility.yul\":3906:4005   */\n      swap2\n      swap1\n      pop\n      jump\t// out\n        /* \"#utility.yul\":4011:4180   */\n    tag_53:\n        /* \"#utility.yul\":4095:4106   */\n      0x00\n        /* \"#utility.yul\":4129:4135   */\n      dup3\n        /* \"#utility.yul\":4124:4127   */\n      dup3\n        /* \"#utility.yul\":4117:4136   */\n      mstore\n        /* \"#utility.yul\":4169:4173   */\n      0x20\n        /* \"#utility.yul\":4164:4167   */\n      dup3\n        /* \"#utility.yul\":4160:4174   */\n      add\n        /* \"#utility.yul\":4145:4174   */\n      swap1\n      pop\n        /* \"#utility.yul\":4011:4180   */\n      swap3\n      swap2\n      pop\n      pop\n      jump\t// out\n        /* \"#utility.yul\":4186:4325   */\n    tag_54:\n        /* \"#utility.yul\":4275:4281   */\n      dup3\n        /* \"#utility.yul\":4270:4273   */\n      dup2\n        /* \"#utility.yul\":4265:4268   */\n      dup4\n        /* \"#utility.yul\":4259:4282   */\n      mcopy\n        /* \"#utility.yul\":4316:4317   */\n      0x00\n        /* \"#utility.yul\":4307:4313   */\n      dup4\n        /* \"#utility.yul\":4302:4305   */\n      dup4\n        /* \"#utility.yul\":4298:4314   */\n      add\n        /* \"#utility.yul\":4291:4318   */\n      mstore\n        /* \"#utility.yul\":4186:4325   */\n      pop\n      pop\n      pop\n      jump\t// out\n        /* \"#utility.yul\":4331:4708   */\n    tag_55:\n        /* \"#utility.yul\":4419:4422   */\n      0x00\n        /* \"#utility.yul\":4447:4486   */\n      tag_128\n        /* \"#utility.yul\":4480:4485   */\n      dup3\n        /* \"#utility.yul\":4447:4486   */\n      tag_52\n      jump\t// in\n    tag_128:\n        /* \"#utility.yul\":4502:4573   */\n      tag_129\n        /* \"#utility.yul\":4566:4572   */\n      dup2\n        /* \"#utility.yul\":4561:4564   */\n      dup6\n        /* \"#utility.yul\":4502:4573   */\n      tag_53\n      jump\t// in\n    tag_129:\n        /* \"#utility.yul\":4495:4573   */\n      swap4\n      pop\n        /* \"#utility.yul\":4582:4647   */\n      tag_130\n        /* \"#utility.yul\":4640:4646   */\n      dup2\n        /* \"#utility.yul\":4635:4638   */\n      dup6\n        /* \"#utility.yul\":4628:4632   */\n      0x20\n        /* \"#utility.yul\":4621:4626   */\n      dup7\n        /* \"#utility.yul\":4617:4633   */\n      add\n        /* \"#utility.yul\":4582:4647   */\n      tag_54\n      jump\t// in\n    tag_130:\n        /* \"#utility.yul\":4672:4701   */\n      tag_131\n        /* \"#utility.yul\":4694:4700   */\n      dup2\n        /* \"#utility.yul\":4672:4701   */\n      tag_41\n      jump\t// in\n    tag_131:\n        /* \"#utility.yul\":4667:4670   */\n      dup5\n        /* \"#utility.yul\":4663:4702   */\n      add\n        /* \"#utility.yul\":4656:4702   */\n      swap2\n      pop\n        /* \"#utility.yul\":4423:4708   */\n      pop\n        /* \"#utility.yul\":4331:4708   */\n      swap3\n      swap2\n      pop\n      pop\n      jump\t// out\n        /* \"#utility.yul\":4714:5027   */\n    tag_16:\n        /* \"#utility.yul\":4827:4831   */\n      0x00\n        /* \"#utility.yul\":4865:4867   */\n      0x20\n        /* \"#utility.yul\":4854:4863   */\n      dup3\n        /* \"#utility.yul\":4850:4868   */\n      add\n        /* \"#utility.yul\":4842:4868   */\n      swap1\n      pop\n        /* \"#utility.yul\":4914:4923   */\n      dup2\n        /* \"#utility.yul\":4908:4912   */\n      dup2\n        /* \"#utility.yul\":4904:4924   */\n      sub\n        /* \"#utility.yul\":4900:4901   */\n      0x00\n        /* \"#utility.yul\":4889:4898   */\n      dup4\n        /* \"#utility.yul\":4885:4902   */\n      add\n        /* \"#utility.yul\":4878:4925   */\n      mstore\n        /* \"#utility.yul\":4942:5020   */\n      tag_133\n        /* \"#utility.yul\":5015:5019   */\n      dup2\n        /* \"#utility.yul\":5006:5012   */\n      dup5\n        /* \"#utility.yul\":4942:5020   */\n      tag_55\n      jump\t// in\n    tag_133:\n        /* \"#utility.yul\":4934:5020   */\n      swap1\n      pop\n        /* \"#utility.yul\":4714:5027   */\n      swap3\n      swap2\n      pop\n      pop\n      jump\t// out\n        /* \"#utility.yul\":5033:5151   */\n    tag_56:\n        /* \"#utility.yul\":5120:5144   */\n      tag_135\n        /* \"#utility.yul\":5138:5143   */\n      dup2\n        /* \"#utility.yul\":5120:5144   */\n      tag_49\n      jump\t// in\n    tag_135:\n        /* \"#utility.yul\":5115:5118   */\n      dup3\n        /* \"#utility.yul\":5108:5145   */\n      mstore\n        /* \"#utility.yul\":5033:5151   */\n      pop\n      pop\n      jump\t// out\n        /* \"#utility.yul\":5157:5379   */\n    tag_20:\n        /* \"#utility.yul\":5250:5254   */\n      0x00\n        /* \"#utility.yul\":5288:5290   */\n      0x20\n        /* \"#utility.yul\":5277:5286   */\n      dup3\n        /* \"#utility.yul\":5273:5291   */\n      add\n        /* \"#utility.yul\":5265:5291   */\n      swap1\n      pop\n        /* \"#utility.yul\":5301:5372   */\n      tag_137\n        /* \"#utility.yul\":5369:5370   */\n      0x00\n        /* \"#utility.yul\":5358:5367   */\n      dup4\n        /* \"#utility.yul\":5354:5371   */\n      add\n        /* \"#utility.yul\":5345:5351   */\n      dup5\n        /* \"#utility.yul\":5301:5372   */\n      tag_56\n      jump\t// in\n    tag_137:\n        /* \"#utility.yul\":5157:5379   */\n      swap3\n      swap2\n      pop\n      pop\n      jump\t// out\n        /* \"#utility.yul\":5385:5565   */\n    tag_57:\n        /* \"#utility.yul\":5433:5510   */\n      0x4e487b7100000000000000000000000000000000000000000000000000000000\n        /* \"#utility.yul\":5430:5431   */\n      0x00\n        /* \"#utility.yul\":5423:5511   */\n      mstore\n        /* \"#utility.yul\":5530:5534   */\n      0x22\n        /* \"#utility.yul\":5527:5528   */\n      0x04\n        /* \"#utility.yul\":5520:5535   */\n      mstore\n        /* \"#utility.yul\":5554:5558   */\n      0x24\n        /* \"#utility.yul\":5551:5552   */\n      0x00\n        /* \"#utility.yul\":5544:5559   */\n      revert\n        /* \"#utility.yul\":5571:5891   */\n    tag_58:\n        /* \"#utility.yul\":5615:5621   */\n      0x00\n        /* \"#utility.yul\":5652:5653   */\n      0x02\n        /* \"#utility.yul\":5646:5650   */\n      dup3\n        /* \"#utility.yul\":5642:5654   */\n      div\n        /* \"#utility.yul\":5632:5654   */\n      swap1\n      pop\n        /* \"#utility.yul\":5699:5700   */\n      0x01\n        /* \"#utility.yul\":5693:5697   */\n      dup3\n        /* \"#utility.yul\":5689:5701   */\n      and\n        /* \"#utility.yul\":5720:5738   */\n      dup1\n        /* \"#utility.yul\":5710:5791   */\n      tag_140\n      jumpi\n        /* \"#utility.yul\":5776:5780   */\n      0x7f\n        /* \"#utility.yul\":5768:5774   */\n      dup3\n        /* \"#utility.yul\":5764:5781   */\n      and\n        /* \"#utility.yul\":5754:5781   */\n      swap2\n      pop\n        /* \"#utility.yul\":5710:5791   */\n    tag_140:\n        /* \"#utility.yul\":5838:5840   */\n      0x20\n        /* \"#utility.yul\":5830:5836   */\n      dup3\n        /* \"#utility.yul\":5827:5841   */\n      lt\n        /* \"#utility.yul\":5807:5825   */\n      dup2\n        /* \"#utility.yul\":5804:5842   */\n      sub\n        /* \"#utility.yul\":5801:5885   */\n      tag_141\n      jumpi\n        /* \"#utility.yul\":5857:5875   */\n      tag_142\n      tag_57\n      jump\t// in\n    tag_142:\n        /* \"#utility.yul\":5801:5885   */\n    tag_141:\n        /* \"#utility.yul\":5622:5891   */\n      pop\n        /* \"#utility.yul\":5571:5891   */\n      swap2\n      swap1\n      pop\n      jump\t// out\n        /* \"#utility.yul\":5897:6038   */\n    tag_59:\n        /* \"#utility.yul\":5946:5950   */\n      0x00\n        /* \"#utility.yul\":5969:5972   */\n      dup2\n        /* \"#utility.yul\":5961:5972   */\n      swap1\n      pop\n        /* \"#utility.yul\":5992:5995   */\n      dup2\n        /* \"#utility.yul\":5989:5990   */\n      0x00\n        /* \"#utility.yul\":5982:5996   */\n      mstore\n        /* \"#utility.yul\":6026:6030   */\n      0x20\n        /* \"#utility.yul\":6023:6024   */\n      0x00\n        /* \"#utility.yul\":6013:6031   */\n      keccak256\n        /* \"#utility.yul\":6005:6031   */\n      swap1\n      pop\n        /* \"#utility.yul\":5897:6038   */\n      swap2\n      swap1\n      pop\n      jump\t// out\n        /* \"#utility.yul\":6044:6137   */\n    tag_60:\n        /* \"#utility.yul\":6081:6087   */\n      0x00\n        /* \"#utility.yul\":6128:6130   */\n      0x20\n        /* \"#utility.yul\":6123:6125   */\n      0x1f\n        /* \"#utility.yul\":6116:6121   */\n      dup4\n        /* \"#utility.yul\":6112:6126   */\n      add\n        /* \"#utility.yul\":6108:6131   */\n      div\n        /* \"#utility.yul\":6098:6131   */\n      swap1\n      pop\n        /* \"#utility.yul\":6044:6137   */\n      swap2\n      swap1\n      pop\n      jump\t// out\n        /* \"#utility.yul\":6143:6250   */\n    tag_61:\n        /* \"#utility.yul\":6187:6195   */\n      0x00\n        /* \"#utility.yul\":6237:6242   */\n      dup3\n        /* \"#utility.yul\":6231:6235   */\n      dup3\n        /* \"#utility.yul\":6227:6243   */\n      shl\n        /* \"#utility.yul\":6206:6243   */\n      swap1\n      pop\n        /* \"#utility.yul\":6143:6250   */\n      swap3\n      swap2\n      pop\n      pop\n      jump\t// out\n        /* \"#utility.yul\":6256:6649   */\n    tag_62:\n        /* \"#utility.yul\":6325:6331   */\n      0x00\n        /* \"#utility.yul\":6375:6376   */\n      0x08\n        /* \"#utility.yul\":6363:6373   */\n      dup4\n        /* \"#utility.yul\":6359:6377   */\n      mul\n        /* \"#utility.yul\":6398:6495   */\n      tag_147\n        /* \"#utility.yul\":6428:6494   */\n      0xffffffffffffffffffffffffffffffffffffffffffffffffffffffffffffffff\n        /* \"#utility.yul\":6417:6426   */\n      dup3\n        /* \"#utility.yul\":6398:6495   */\n      tag_61\n      jump\t// in\n    tag_147:\n        /* \"#utility.yul\":6516:6555   */\n      tag_148\n        /* \"#utility.yul\":6546:6554   */\n      dup7\n        /* \"#utility.yul\":6535:6544   */\n      dup4\n        /* \"#utility.yul\":6516:6555   */\n      tag_61\n      jump\t// in\n    tag_148:\n        /* \"#utility.yul\":6504:6555   */\n      swap6\n      pop\n        /* \"#utility.yul\":6588:6592   */\n      dup1\n        /* \"#utility.yul\":6584:6593   */\n      not\n        /* \"#utility.yul\":6577:6582   */\n      dup5\n        /* \"#utility.yul\":6573:6594   */\n      and\n        /* \"#utility.yul\":6564:6594   */\n      swap4\n      pop\n        /* \"#utility.yul\":6637:6641   */\n      dup1\n        /* \"#utility.yul\":6627:6635   */\n      dup7\n        /* \"#utility.yul\":6623:6642   */\n      and\n        /* \"#utility.yul\":6616:6621   */\n      dup5\n        /* \"#utility.yul\":6613:6643   */\n      or\n        /* \"#utility.yul\":6603:6643   */\n      swap3\n      pop\n        /* \"#utility.yul\":6332:6649   */\n      pop\n      pop\n        /* \"#utility.yul\":6256:6649   */\n      swap4\n      swap3\n      pop\n      pop\n      pop\n      jump\t// out\n        /* \"#utility.yul\":6655:6715   */\n    tag_63:\n        /* \"#utility.yul\":6683:6686   */\n      0x00\n        /* \"#utility.yul\":6704:6709   */\n      dup2\n        /* \"#utility.yul\":6697:6709   */\n      swap1\n      pop\n        /* \"#utility.yul\":6655:6715   */\n      swap2\n      swap1\n      pop\n      jump\t// out\n        /* \"#utility.yul\":6721:6863   */\n    tag_64:\n        /* \"#utility.yul\":6771:6780   */\n      0x00\n        /* \"#utility.yul\":6804:6857   */\n      tag_151\n        /* \"#utility.yul\":6822:6856   */\n      tag_152\n        /* \"#utility.yul\":6831:6855   */\n      tag_153\n        /* \"#utility.yul\":6849:6854   */\n      dup5\n        /* \"#utility.yul\":6831:6855   */\n      tag_49\n      jump\t// in\n    tag_153:\n        /* \"#utility.yul\":6822:6856   */\n      tag_63\n      jump\t// in\n    tag_152:\n        /* \"#utility.yul\":6804:6857   */\n      tag_49\n      jump\t// in\n    tag_151:\n        /* \"#utility.yul\":6791:6857   */\n      swap1\n      pop\n        /* \"#utility.yul\":6721:6863   */\n      swap2\n      swap1\n      pop\n      jump\t// out\n        /* \"#utility.yul\":6869:6944   */\n    tag_65:\n        /* \"#utility.yul\":6912:6915   */\n      0x00\n        /* \"#utility.yul\":6933:6938   */\n      dup2\n        /* \"#utility.yul\":6926:6938   */\n      swap1\n      pop\n        /* \"#utility.yul\":6869:6944   */\n      swap2\n      swap1\n      pop\n      jump\t// out\n        /* \"#utility.yul\":6950:7219   */\n    tag_66:\n        /* \"#utility.yul\":7060:7099   */\n      tag_156\n        /* \"#utility.yul\":7091:7098   */\n      dup4\n        /* \"#utility.yul\":7060:7099   */\n      tag_64\n      jump\t// in\n    tag_156:\n        /* \"#utility.yul\":7121:7212   */\n      tag_157\n        /* \"#utility.yul\":7170:7211   */\n      tag_158\n        /* \"#utility.yul\":7194:7210   */\n      dup3\n        /* \"#utility.yul\":7170:7211   */\n      tag_65\n      jump\t// in\n    tag_158:\n        /* \"#utility.yul\":7162:7168   */\n      dup5\n        /* \"#utility.yul\":7155:7159   */\n      dup5\n        /* \"#utility.yul\":7149:7160   */\n      sload\n        /* \"#utility.yul\":7121:7212   */\n      tag_62\n      jump\t// in\n    tag_157:\n        /* \"#utility.yul\":7115:7119   */\n      dup3\n        /* \"#utility.yul\":7108:7213   */\n      sstore\n        /* \"#utility.yul\":7026:7219   */\n      pop\n        /* \"#utility.yul\":6950:7219   */\n      pop\n      pop\n      pop\n      jump\t// out\n        /* \"#utility.yul\":7225:7298   */\n    tag_67:\n        /* \"#utility.yul\":7270:7273   */\n      0x00\n        /* \"#utility.yul\":7225:7298   */\n      swap1\n      jump\t// out\n        /* \"#utility.yul\":7304:7493   */\n    tag_68:\n        /* \"#utility.yul\":7381:7413   */\n      tag_161\n      tag_67\n      jump\t// in\n    tag_161:\n        /* \"#utility.yul\":7422:7487   */\n      tag_162\n        /* \"#utility.yul\":7480:7486   */\n      dup2\n        /* \"#utility.yul\":7472:7478   */\n      dup5\n        /* \"#utility.yul\":7466:7470   */\n      dup5\n        /* \"#utility.yul\":7422:7487   */\n      tag_66\n      jump\t// in\n    tag_162:\n        /* \"#utility.yul\":7357:7493   */\n      pop\n        /* \"#utility.yul\":7304:7493   */\n      pop\n      pop\n      jump\t// out\n        /* \"#utility.yul\":7499:7685   */\n    tag_69:\n        /* \"#utility.yul\":7559:7679   */\n    tag_164:\n        /* \"#utility.yul\":7576:7579   */\n      dup2\n        /* \"#utility.yul\":7569:7574   */\n      dup2\n        /* \"#utility.yul\":7566:7580   */\n      lt\n        /* \"#utility.yul\":7559:7679   */\n      iszero\n      tag_166\n      jumpi\n        /* \"#utility.yul\":7630:7669   */\n      tag_167\n        /* \"#utility.yul\":7667:7668   */\n      0x00\n        /* \"#utility.yul\":7660:7665   */\n      dup3\n        /* \"#utility.yul\":7630:7669   */\n      tag_68\n      jump\t// in\n    tag_167:\n        /* \"#utility.yul\":7603:7604   */\n      0x01\n        /* \"#utility.yul\":7596:7601   */\n      dup2\n        /* \"#utility.yul\":7592:7605   */\n      add\n        /* \"#utility.yul\":7583:7605   */\n      swap1\n      pop\n        /* \"#utility.yul\":7559:7679   */\n      jump(tag_164)\n    tag_166:\n        /* \"#utility.yul\":7499:7685   */\n      pop\n      pop\n      jump\t// out\n        /* \"#utility.yul\":7691:8234   */\n    tag_70:\n        /* \"#utility.yul\":7792:7794   */\n      0x1f\n        /* \"#utility.yul\":7787:7790   */\n      dup3\n        /* \"#utility.yul\":7784:7795   */\n      gt\n        /* \"#utility.yul\":7781:8227   */\n      iszero\n      tag_169\n      jumpi\n        /* \"#utility.yul\":7826:7864   */\n      tag_170\n        /* \"#utility.yul\":7858:7863   */\n      dup2\n        /* \"#utility.yul\":7826:7864   */\n      tag_59\n      jump\t// in\n    tag_170:\n        /* \"#utility.yul\":7910:7939   */\n      tag_171\n        /* \"#utility.yul\":7928:7938   */\n      dup5\n        /* \"#utility.yul\":7910:7939   */\n      tag_60\n      jump\t// in\n    tag_171:\n        /* \"#utility.yul\":7900:7908   */\n      dup2\n        /* \"#utility.yul\":7896:7940   */\n      add\n        /* \"#utility.yul\":8093:8095   */\n      0x20\n        /* \"#utility.yul\":8081:8091   */\n      dup6\n        /* \"#utility.yul\":8078:8096   */\n      lt\n        /* \"#utility.yul\":8075:8124   */\n      iszero\n      tag_172\n      jumpi\n        /* \"#utility.yul\":8114:8122   */\n      dup2\n        /* \"#utility.yul\":8099:8122   */\n      swap1\n      pop\n        /* \"#utility.yul\":8075:8124   */\n    tag_172:\n        /* \"#utility.yul\":8137:8217   */\n      tag_173\n        /* \"#utility.yul\":8193:8215   */\n      tag_174\n        /* \"#utility.yul\":8211:8214   */\n      dup6\n        /* \"#utility.yul\":8193:8215   */\n      tag_60\n      jump\t// in\n    tag_174:\n        /* \"#utility.yul\":8183:8191   */\n      dup4\n        /* \"#utility.yul\":8179:8216   */\n      add\n        /* \"#utility.yul\":8166:8177   */\n      dup3\n        /* \"#utility.yul\":8137:8217   */\n      tag_69\n      jump\t// in\n    tag_173:\n        /* \"#utility.yul\":7796:8227   */\n      pop\n      pop\n        /* \"#utility.yul\":7781:8227   */\n    tag_169:\n        /* \"#utility.yul\":7691:8234   */\n      pop\n      pop\n      pop\n      jump\t// out\n        /* \"#utility.yul\":8240:8357   */\n    tag_71:\n        /* \"#utility.yul\":8294:8302   */\n      0x00\n        /* \"#utility.yul\":8344:8349   */\n      dup3\n        /* \"#utility.yul\":8338:8342   */\n      dup3\n        /* \"#utility.yul\":8334:8350   */\n      shr\n        /* \"#utility.yul\":8313:8350   */\n      swap1\n      pop\n        /* \"#utility.yul\":8240:8357   */\n      swap3\n      swap2\n      pop\n      pop\n      jump\t// out\n        /* \"#utility.yul\":8363:8532   */\n    tag_72:\n        /* \"#utility.yul\":8407:8413   */\n      0x00\n        /* \"#utility.yul\":8440:8491   */\n      tag_177\n        /* \"#utility.yul\":8488:8489   */\n      0x00\n        /* \"#utility.yul\":8484:8490   */\n      not\n        /* \"#utility.yul\":8476:8481   */\n      dup5\n        /* \"#utility.yul\":8473:8474   */\n      0x08\n        /* \"#utility.yul\":8469:8482   */\n      mul\n        /* \"#utility.yul\":8440:8491   */\n      tag_71\n      jump\t// in\n    tag_177:\n        /* \"#utility.yul\":8436:8492   */\n      not\n        /* \"#utility.yul\":8521:8525   */\n      dup1\n        /* \"#utility.yul\":8515:8519   */\n      dup4\n        /* \"#utility.yul\":8511:8526   */\n      and\n        /* \"#utility.yul\":8501:8526   */\n      swap2\n      pop\n        /* \"#utility.yul\":8414:8532   */\n      pop\n        /* \"#utility.yul\":8363:8532   */\n      swap3\n      swap2\n      pop\n      pop\n      jump\t// out\n        /* \"#utility.yul\":8537:8832   */\n    tag_73:\n        /* \"#utility.yul\":8613:8617   */\n      0x00\n        /* \"#utility.yul\":8759:8788   */\n      tag_179\n        /* \"#utility.yul\":8784:8787   */\n      dup4\n        /* \"#utility.yul\":8778:8782   */\n      dup4\n        /* \"#utility.yul\":8759:8788   */\n      tag_72\n      jump\t// in\n    tag_179:\n        /* \"#utility.yul\":8751:8788   */\n      swap2\n      pop\n        /* \"#utility.yul\":8821:8824   */\n      dup3\n        /* \"#utility.yul\":8818:8819   */\n      0x02\n        /* \"#utility.yul\":8814:8825   */\n      mul\n        /* \"#utility.yul\":8808:8812   */\n      dup3\n        /* \"#utility.yul\":8805:8826   */\n      or\n        /* \"#utility.yul\":8797:8826   */\n      swap1\n      pop\n        /* \"#utility.yul\":8537:8832   */\n      swap3\n      swap2\n      pop\n      pop\n      jump\t// out\n        /* \"#utility.yul\":8837:10232   */\n    tag_27:\n        /* \"#utility.yul\":8954:8991   */\n      tag_181\n        /* \"#utility.yul\":8987:8990   */\n      dup3\n        /* \"#utility.yul\":8954:8991   */\n      tag_52\n      jump\t// in\n    tag_181:\n        /* \"#utility.yul\":9056:9074   */\n      0xffffffffffffffff\n        /* \"#utility.yul\":9048:9054   */\n      dup2\n        /* \"#utility.yul\":9045:9075   */\n      gt\n        /* \"#utility.yul\":9042:9098   */\n      iszero\n      tag_182\n      jumpi\n        /* \"#utility.yul\":9078:9096   */\n      tag_183\n      tag_42\n      jump\t// in\n    tag_183:\n        /* \"#utility.yul\":9042:9098   */\n    tag_182:\n        /* \"#utility.yul\":9122:9160   */\n      tag_184\n        /* \"#utility.yul\":9154:9158   */\n      dup3\n        /* \"#utility.yul\":9148:9159   */\n      sload\n        /* \"#utility.yul\":9122:9160   */\n      tag_58\n      jump\t// in\n    tag_184:\n        /* \"#utility.yul\":9207:9274   */\n      tag_185\n        /* \"#utility.yul\":9267:9273   */\n      dup3\n        /* \"#utility.yul\":9259:9265   */\n      dup3\n        /* \"#utility.yul\":9253:9257   */\n      dup6\n        /* \"#utility.yul\":9207:9274   */\n      tag_70\n      jump\t// in\n    tag_185:\n        /* \"#utility.yul\":9301:9302   */\n      0x00\n        /* \"#utility.yul\":9325:9329   */\n      0x20\n        /* \"#utility.yul\":9312:9329   */\n      swap1\n      pop\n        /* \"#utility.yul\":9357:9359   */\n      0x1f\n        /* \"#utility.yul\":9349:9355   */\n      dup4\n        /* \"#utility.yul\":9346:9360   */\n      gt\n        /* \"#utility.yul\":9374:9375   */\n      0x01\n        /* \"#utility.yul\":9369:9987   */\n      dup2\n      eq\n      tag_187\n      jumpi\n        /* \"#utility.yul\":10031:10032   */\n      0x00\n        /* \"#utility.yul\":10048:10054   */\n      dup5\n        /* \"#utility.yul\":10045:10122   */\n      iszero\n      tag_188\n      jumpi\n        /* \"#utility.yul\":10097:10106   */\n      dup3\n        /* \"#utility.yul\":10092:10095   */\n      dup8\n        /* \"#utility.yul\":10088:10107   */\n      add\n        /* \"#utility.yul\":10082:10108   */\n      mload\n        /* \"#utility.yul\":10073:10108   */\n      swap1\n      pop\n        /* \"#utility.yul\":10045:10122   */\n    tag_188:\n        /* \"#utility.yul\":10148:10215   */\n      tag_189\n        /* \"#utility.yul\":10208:10214   */\n      dup6\n        /* \"#utility.yul\":10201:10206   */\n      dup3\n        /* \"#utility.yul\":10148:10215   */\n      tag_73\n      jump\t// in\n    tag_189:\n        /* \"#utility.yul\":10142:10146   */\n      dup7\n        /* \"#utility.yul\":10135:10216   */\n      sstore\n        /* \"#utility.yul\":10004:10226   */\n      pop\n        /* \"#utility.yul\":9339:10226   */\n      jump(tag_186)\n        /* \"#utility.yul\":9369:9987   */\n    tag_187:\n        /* \"#utility.yul\":9421:9425   */\n      0x1f\n        /* \"#utility.yul\":9417:9426   */\n      not\n        /* \"#utility.yul\":9409:9415   */\n      dup5\n        /* \"#utility.yul\":9405:9427   */\n      and\n        /* \"#utility.yul\":9455:9492   */\n      tag_190\n        /* \"#utility.yul\":9487:9491   */\n      dup7\n        /* \"#utility.yul\":9455:9492   */\n      tag_59\n      jump\t// in\n    tag_190:\n        /* \"#utility.yul\":9514:9515   */\n      0x00\n        /* \"#utility.yul\":9528:9736   */\n    tag_191:\n        /* \"#utility.yul\":9542:9549   */\n      dup3\n        /* \"#utility.yul\":9539:9540   */\n      dup2\n        /* \"#utility.yul\":9536:9550   */\n      lt\n        /* \"#utility.yul\":9528:9736   */\n      iszero\n      tag_193\n      jumpi\n        /* \"#utility.yul\":9621:9630   */\n      dup5\n        /* \"#utility.yul\":9616:9619   */\n      dup10\n        /* \"#utility.yul\":9612:9631   */\n      add\n        /* \"#utility.yul\":9606:9632   */\n      mload\n        /* \"#utility.yul\":9598:9604   */\n      dup3\n        /* \"#utility.yul\":9591:9633   */\n      sstore\n        /* \"#utility.yul\":9672:9673   */\n      0x01\n        /* \"#utility.yul\":9664:9670   */\n      dup3\n        /* \"#utility.yul\":9660:9674   */\n      add\n        /* \"#utility.yul\":9650:9674   */\n      swap2\n      pop\n        /* \"#utility.yul\":9719:9721   */\n      0x20\n        /* \"#utility.yul\":9708:9717   */\n      dup6\n        /* \"#utility.yul\":9704:9722   */\n      add\n        /* \"#utility.yul\":9691:9722   */\n      swap5\n      pop\n        /* \"#utility.yul\":9565:9569   */\n      0x20\n        /* \"#utility.yul\":9562:9563   */\n      dup2\n        /* \"#utility.yul\":9558:9570   */\n      add\n        /* \"#utility.yul\":9553:9570   */\n      swap1\n      pop\n        /* \"#utility.yul\":9528:9736   */\n      jump(tag_191)\n    tag_193:\n        /* \"#utility.yul\":9764:9770   */\n      dup7\n        /* \"#utility.yul\":9755:9762   */\n      dup4\n        /* \"#utility.yul\":9752:9771   */\n      lt\n        /* \"#utility.yul\":9749:9928   */\n      iszero\n      tag_194\n      jumpi\n        /* \"#utility.yul\":9822:9831   */\n      dup5\n        /* \"#utility.yul\":9817:9820   */\n      dup10\n        /* \"#utility.yul\":9813:9832   */\n      add\n        /* \"#utility.yul\":9807:9833   */\n      mload\n        /* \"#utility.yul\":9865:9913   */\n      tag_195\n        /* \"#utility.yul\":9907:9911   */\n      0x1f\n        /* \"#utility.yul\":9899:9905   */\n      dup10\n        /* \"#utility.yul\":9895:9912   */\n      and\n        /* \"#utility.yul\":9884:9893   */\n      dup3\n        /* \"#utility.yul\":9865:9913   */\n      tag_72\n      jump\t// in\n    tag_195:\n        /* \"#utility.yul\":9857:9863   */\n      dup4\n        /* \"#utility.yul\":9850:9914   */\n      sstore\n        /* \"#utility.yul\":9772:9928   */\n      pop\n        /* \"#utility.yul\":9749:9928   */\n    tag_194:\n        /* \"#utility.yul\":9974:9975   */\n      0x01\n        /* \"#utility.yul\":9970:9971   */\n      0x02\n        /* \"#utility.yul\":9962:9968   */\n      dup9\n        /* \"#utility.yul\":9958:9972   */\n      mul\n        /* \"#utility.yul\":9954:9976   */\n      add\n        /* \"#utility.yul\":9948:9952   */\n      dup9\n        /* \"#utility.yul\":9941:9977   */\n      sstore\n        /* \"#utility.yul\":9376:9987   */\n      pop\n      pop\n      pop\n        /* \"#utility.yul\":9339:10226   */\n    tag_186:\n      pop\n        /* \"#utility.yul\":8929:10232   */\n      pop\n      pop\n      pop\n        /* \"#utility.yul\":8837:10232   */\n      pop\n      pop\n      jump\t// out\n        /* \"#utility.yul\":10238:10386   */\n    tag_74:\n        /* \"#utility.yul\":10340:10351   */\n      0x00\n        /* \"#utility.yul\":10377:10380   */\n      dup2\n        /* \"#utility.yul\":10362:10380   */\n      swap1\n      pop\n        /* \"#utility.yul\":10238:10386   */\n      swap3\n      swap2\n      pop\n      pop\n      jump\t// out\n        /* \"#utility.yul\":10416:11290   */\n    tag_75:\n        /* \"#utility.yul\":10519:10522   */\n      0x00\n        /* \"#utility.yul\":10556:10561   */\n      dup2\n        /* \"#utility.yul\":10550:10562   */\n      sload\n        /* \"#utility.yul\":10585:10621   */\n      tag_198\n        /* \"#utility.yul\":10611:10620   */\n      dup2\n        /* \"#utility.yul\":10585:10621   */\n      tag_58\n      jump\t// in\n    tag_198:\n        /* \"#utility.yul\":10637:10726   */\n      tag_199\n        /* \"#utility.yul\":10719:10725   */\n      dup2\n        /* \"#utility.yul\":10714:10717   */\n      dup7\n        /* \"#utility.yul\":10637:10726   */\n      tag_74\n      jump\t// in\n    tag_199:\n        /* \"#utility.yul\":10630:10726   */\n      swap5\n      pop\n        /* \"#utility.yul\":10757:10758   */\n      0x01\n        /* \"#utility.yul\":10746:10755   */\n      dup3\n        /* \"#utility.yul\":10742:10759   */\n      and\n        /* \"#utility.yul\":10773:10774   */\n      0x00\n        /* \"#utility.yul\":10768:10934   */\n      dup2\n      eq\n      tag_201\n      jumpi\n        /* \"#utility.yul\":10948:10949   */\n      0x01\n        /* \"#utility.yul\":10943:11284   */\n      dup2\n      eq\n      tag_202\n      jumpi\n        /* \"#utility.yul\":10735:11284   */\n      jump(tag_200)\n        /* \"#utility.yul\":10768:10934   */\n    tag_201:\n        /* \"#utility.yul\":10852:10856   */\n      0xff\n        /* \"#utility.yul\":10848:10857   */\n      not\n        /* \"#utility.yul\":10837:10846   */\n      dup4\n        /* \"#utility.yul\":10833:10858   */\n      and\n        /* \"#utility.yul\":10828:10831   */\n      dup7\n        /* \"#utility.yul\":10821:10859   */\n      mstore\n        /* \"#utility.yul\":10914:10920   */\n      dup2\n        /* \"#utility.yul\":10907:10921   */\n      iszero\n        /* \"#utility.yul\":10900:10922   */\n      iszero\n        /* \"#utility.yul\":10892:10898   */\n      dup3\n        /* \"#utility.yul\":10888:10923   */\n      mul\n        /* \"#utility.yul\":10883:10886   */\n      dup7\n        /* \"#utility.yul\":10879:10924   */\n      add\n        /* \"#utility.yul\":10872:10924   */\n      swap4\n      pop\n        /* \"#utility.yul\":10768:10934   */\n      jump(tag_200)\n        /* \"#utility.yul\":10943:11284   */\n    tag_202:\n        /* \"#utility.yul\":11010:11048   */\n      tag_203\n        /* \"#utility.yul\":11042:11047   */\n      dup6\n        /* \"#utility.yul\":11010:11048   */\n      tag_59\n      jump\t// in\n    tag_203:\n        /* \"#utility.yul\":11070:11071   */\n      0x00\n        /* \"#utility.yul\":11084:11238   */\n    tag_204:\n        /* \"#utility.yul\":11098:11104   */\n      dup4\n        /* \"#utility.yul\":11095:11096   */\n      dup2\n        /* \"#utility.yul\":11092:11105   */\n      lt\n        /* \"#utility.yul\":11084:11238   */\n      iszero\n      tag_206\n      jumpi\n        /* \"#utility.yul\":11172:11179   */\n      dup2\n        /* \"#utility.yul\":11166:11180   */\n      sload\n        /* \"#utility.yul\":11162:11163   */\n      dup2\n        /* \"#utility.yul\":11157:11160   */\n      dup10\n        /* \"#utility.yul\":11153:11164   */\n      add\n        /* \"#utility.yul\":11146:11181   */\n      mstore\n        /* \"#utility.yul\":11222:11223   */\n      0x01\n        /* \"#utility.yul\":11213:11220   */\n      dup3\n        /* \"#utility.yul\":11209:11224   */\n      add\n        /* \"#utility.yul\":11198:11224   */\n      swap2\n      pop\n        /* \"#utility.yul\":11120:11124   */\n      0x20\n        /* \"#utility.yul\":11117:11118   */\n      dup2\n        /* \"#utility.yul\":11113:11125   */\n      add\n        /* \"#utility.yul\":11108:11125   */\n      swap1\n      pop\n        /* \"#utility.yul\":11084:11238   */\n      jump(tag_204)\n    tag_206:\n        /* \"#utility.yul\":11267:11273   */\n      dup4\n        /* \"#utility.yul\":11262:11265   */\n      dup9\n        /* \"#utility.yul\":11258:11274   */\n      add\n        /* \"#utility.yul\":11251:11274   */\n      swap6\n      pop\n        /* \"#utility.yul\":10950:11284   */\n      pop\n      pop\n        /* \"#utility.yul\":10735:11284   */\n    tag_200:\n      pop\n        /* \"#utility.yul\":10523:11290   */\n      pop\n      pop\n        /* \"#utility.yul\":10416:11290   */\n      swap3\n      swap2\n      pop\n      pop\n      jump\t// out\n        /* \"#utility.yul\":11296:11492   */\n    tag_76:\n        /* \"#utility.yul\":11465:11485   */\n      0x2c207468697327732066726f6d206b69656e0000000000000000000000000000\n        /* \"#utility.yul\":11460:11463   */\n      dup2\n        /* \"#utility.yul\":11453:11486   */\n      mstore\n        /* \"#utility.yul\":11296:11492   */\n      pop\n      jump\t// out\n        /* \"#utility.yul\":11498:12034   */\n    tag_35:\n        /* \"#utility.yul\":11718:11721   */\n      0x00\n        /* \"#utility.yul\":11740:11832   */\n      tag_209\n        /* \"#utility.yul\":11828:11831   */\n      dup3\n        /* \"#utility.yul\":11819:11825   */\n      dup5\n        /* \"#utility.yul\":11740:11832   */\n      tag_75\n      jump\t// in\n    tag_209:\n        /* \"#utility.yul\":11733:11832   */\n      swap2\n      pop\n        /* \"#utility.yul\":11842:11980   */\n      tag_210\n        /* \"#utility.yul\":11976:11979   */\n      dup3\n        /* \"#utility.yul\":11842:11980   */\n      tag_76\n      jump\t// in\n    tag_210:\n        /* \"#utility.yul\":12005:12007   */\n      0x12\n        /* \"#utility.yul\":12000:12003   */\n      dup3\n        /* \"#utility.yul\":11996:12008   */\n      add\n        /* \"#utility.yul\":11989:12008   */\n      swap2\n      pop\n        /* \"#utility.yul\":12025:12028   */\n      dup2\n        /* \"#utility.yul\":12018:12028   */\n      swap1\n      pop\n        /* \"#utility.yul\":11498:12034   */\n      swap3\n      swap2\n      pop\n      pop\n      jump\t// out\n\n    auxdata: 0xa2646970667358221220b6c53a872b05b638fe575620b1cab4e4f4380b1ba1d79ec61fb41e329964d6a864736f6c634300081a0033\n}\n",
				"bytecode": {
					"linkReferences": {},
					"object": "60806040526040518060400160405280600b81526020017f48656c6c6f20576f726c640000000000000000000000000000000000000000008152505f90816100479190610293565b50348015610053575f80fd5b50610362565b5f81519050919050565b7f4e487b71000000000000000000000000000000000000000000000000000000005f52604160045260245ffd5b7f4e487b71000000000000000000000000000000000000000000000000000000005f52602260045260245ffd5b5f60028204905060018216806100d457607f821691505b6020821081036100e7576100e6610090565b5b50919050565b5f819050815f5260205f209050919050565b5f6020601f8301049050919050565b5f82821b905092915050565b5f600883026101497fffffffffffffffffffffffffffffffffffffffffffffffffffffffffffffffff8261010e565b610153868361010e565b95508019841693508086168417925050509392505050565b5f819050919050565b5f819050919050565b5f61019761019261018d8461016b565b610174565b61016b565b9050919050565b5f819050919050565b6101b08361017d565b6101c46101bc8261019e565b84845461011a565b825550505050565b5f90565b6101d86101cc565b6101e38184846101a7565b505050565b5b81811015610206576101fb5f826101d0565b6001810190506101e9565b5050565b601f82111561024b5761021c816100ed565b610225846100ff565b81016020851015610234578190505b610248610240856100ff565b8301826101e8565b50505b505050565b5f82821c905092915050565b5f61026b5f1984600802610250565b1980831691505092915050565b5f610283838361025c565b9150826002028217905092915050565b61029c82610059565b67ffffffffffffffff8111156102b5576102b4610063565b5b6102bf82546100bd565b6102ca82828561020a565b5f60209050601f8311600181146102fb575f84156102e9578287015190505b6102f38582610278565b86555061035a565b601f198416610309866100ed565b5f5b828110156103305784890151825560018201915060208501945060208101905061030b565b8683101561034d5784890151610349601f89168261025c565b8355505b6001600288020188555050505b505050505050565b6109148061036f5f395ff3fe608060405234801561000f575f80fd5b506004361061004a575f3560e01c80630966f39c1461004e57806342257b311461006a5780637a3657251461009a578063d8513d2d146100b8575b5f80fd5b61006860048036038101906100639190610413565b6100e8565b005b610084600480360381019061007f919061046d565b61019a565b60405161009191906104f8565b60405180910390f35b6100a2610250565b6040516100af9190610527565b60405180910390f35b6100d260048036038101906100cd919061046d565b610258565b6040516100df91906104f8565b60405180910390f35b5f60405180606001604052808481526020018381526020013373ffffffffffffffffffffffffffffffffffffffff1681525090508060025f8481526020019081526020015f205f820151815f019081610141919061073a565b50602082015181600101556040820151816002015f6101000a81548173ffffffffffffffffffffffffffffffffffffffff021916908373ffffffffffffffffffffffffffffffffffffffff160217905550905050505050565b60605f73ffffffffffffffffffffffffffffffffffffffff1660025f8481526020019081526020015f206002015f9054906101000a900473ffffffffffffffffffffffffffffffffffffffff1673ffffffffffffffffffffffffffffffffffffffff160361023f576040518060400160405280600781526020017f4e6f206c616e6700000000000000000000000000000000000000000000000000815250905061024b565b61024882610258565b90505b919050565b5f6002905090565b606060025f8381526020019081526020015f205f0160405160200161027d91906108b9565b6040516020818303038152906040529050919050565b5f604051905090565b5f80fd5b5f80fd5b5f80fd5b5f80fd5b5f601f19601f8301169050919050565b7f4e487b71000000000000000000000000000000000000000000000000000000005f52604160045260245ffd5b6102f2826102ac565b810181811067ffffffffffffffff82111715610311576103106102bc565b5b80604052505050565b5f610323610293565b905061032f82826102e9565b919050565b5f67ffffffffffffffff82111561034e5761034d6102bc565b5b610357826102ac565b9050602081019050919050565b828183375f83830152505050565b5f61038461037f84610334565b61031a565b9050828152602081018484840111156103a05761039f6102a8565b5b6103ab848285610364565b509392505050565b5f82601f8301126103c7576103c66102a4565b5b81356103d7848260208601610372565b91505092915050565b5f819050919050565b6103f2816103e0565b81146103fc575f80fd5b50565b5f8135905061040d816103e9565b92915050565b5f80604083850312156104295761042861029c565b5b5f83013567ffffffffffffffff811115610446576104456102a0565b5b610452858286016103b3565b9250506020610463858286016103ff565b9150509250929050565b5f602082840312156104825761048161029c565b5b5f61048f848285016103ff565b91505092915050565b5f81519050919050565b5f82825260208201905092915050565b8281835e5f83830152505050565b5f6104ca82610498565b6104d481856104a2565b93506104e48185602086016104b2565b6104ed816102ac565b840191505092915050565b5f6020820190508181035f83015261051081846104c0565b905092915050565b610521816103e0565b82525050565b5f60208201905061053a5f830184610518565b92915050565b7f4e487b71000000000000000000000000000000000000000000000000000000005f52602260045260245ffd5b5f600282049050600182168061058457607f821691505b60208210810361059757610596610540565b5b50919050565b5f819050815f5260205f209050919050565b5f6020601f8301049050919050565b5f82821b905092915050565b5f600883026105f97fffffffffffffffffffffffffffffffffffffffffffffffffffffffffffffffff826105be565b61060386836105be565b95508019841693508086168417925050509392505050565b5f819050919050565b5f61063e610639610634846103e0565b61061b565b6103e0565b9050919050565b5f819050919050565b61065783610624565b61066b61066382610645565b8484546105ca565b825550505050565b5f90565b61067f610673565b61068a81848461064e565b505050565b5b818110156106ad576106a25f82610677565b600181019050610690565b5050565b601f8211156106f2576106c38161059d565b6106cc846105af565b810160208510156106db578190505b6106ef6106e7856105af565b83018261068f565b50505b505050565b5f82821c905092915050565b5f6107125f19846008026106f7565b1980831691505092915050565b5f61072a8383610703565b9150826002028217905092915050565b61074382610498565b67ffffffffffffffff81111561075c5761075b6102bc565b5b610766825461056d565b6107718282856106b1565b5f60209050601f8311600181146107a2575f8415610790578287015190505b61079a858261071f565b865550610801565b601f1984166107b08661059d565b5f5b828110156107d7578489015182556001820191506020850194506020810190506107b2565b868310156107f457848901516107f0601f891682610703565b8355505b6001600288020188555050505b505050505050565b5f81905092915050565b5f815461081f8161056d565b6108298186610809565b9450600182165f811461084357600181146108585761088a565b60ff198316865281151582028601935061088a565b6108618561059d565b5f5b8381101561088257815481890152600182019150602081019050610863565b838801955050505b50505092915050565b7f2c207468697327732066726f6d206b69656e0000000000000000000000000000815250565b5f6108c48284610813565b91506108cf82610893565b6012820191508190509291505056fea2646970667358221220b6c53a872b05b638fe575620b1cab4e4f4380b1ba1d79ec61fb41e329964d6a864736f6c634300081a0033",
					"opcodes": "PUSH1 0x80 PUSH1 0x40 MSTORE PUSH1 0x40 MLOAD DUP1 PUSH1 0x40 ADD PUSH1 0x40 MSTORE DUP1 PUSH1 0xB DUP2 MSTORE PUSH1 0x20 ADD PUSH32 0x48656C6C6F20576F726C64000000000000000000000000000000000000000000 DUP2 MSTORE POP PUSH0 SWAP1 DUP2 PUSH2 0x47 SWAP2 SWAP1 PUSH2 0x293 JUMP JUMPDEST POP CALLVALUE DUP1 ISZERO PUSH2 0x53 JUMPI PUSH0 DUP1 REVERT JUMPDEST POP PUSH2 0x362 JUMP JUMPDEST PUSH0 DUP2 MLOAD SWAP1 POP SWAP2 SWAP1 POP JUMP JUMPDEST PUSH32 0x4E487B7100000000000000000000000000000000000000000000000000000000 PUSH0 MSTORE PUSH1 0x41 PUSH1 0x4 MSTORE PUSH1 0x24 PUSH0 REVERT JUMPDEST PUSH32 0x4E487B7100000000000000000000000000000000000000000000000000000000 PUSH0 MSTORE PUSH1 0x22 PUSH1 0x4 MSTORE PUSH1 0x24 PUSH0 REVERT JUMPDEST PUSH0 PUSH1 0x2 DUP3 DIV SWAP1 POP PUSH1 0x1 DUP3 AND DUP1 PUSH2 0xD4 JUMPI PUSH1 0x7F DUP3 AND SWAP2 POP JUMPDEST PUSH1 0x20 DUP3 LT DUP2 SUB PUSH2 0xE7 JUMPI PUSH2 0xE6 PUSH2 0x90 JUMP JUMPDEST JUMPDEST POP SWAP2 SWAP1 POP JUMP JUMPDEST PUSH0 DUP2 SWAP1 POP DUP2 PUSH0 MSTORE PUSH1 0x20 PUSH0 KECCAK256 SWAP1 POP SWAP2 SWAP1 POP JUMP JUMPDEST PUSH0 PUSH1 0x20 PUSH1 0x1F DUP4 ADD DIV SWAP1 POP SWAP2 SWAP1 POP JUMP JUMPDEST PUSH0 DUP3 DUP3 SHL SWAP1 POP SWAP3 SWAP2 POP POP JUMP JUMPDEST PUSH0 PUSH1 0x8 DUP4 MUL PUSH2 0x149 PUSH32 0xFFFFFFFFFFFFFFFFFFFFFFFFFFFFFFFFFFFFFFFFFFFFFFFFFFFFFFFFFFFFFFFF DUP3 PUSH2 0x10E JUMP JUMPDEST PUSH2 0x153 DUP7 DUP4 PUSH2 0x10E JUMP JUMPDEST SWAP6 POP DUP1 NOT DUP5 AND SWAP4 POP DUP1 DUP7 AND DUP5 OR SWAP3 POP POP POP SWAP4 SWAP3 POP POP POP JUMP JUMPDEST PUSH0 DUP2 SWAP1 POP SWAP2 SWAP1 POP JUMP JUMPDEST PUSH0 DUP2 SWAP1 POP SWAP2 SWAP1 POP JUMP JUMPDEST PUSH0 PUSH2 0x197 PUSH2 0x192 PUSH2 0x18D DUP5 PUSH2 0x16B JUMP JUMPDEST PUSH2 0x174 JUMP JUMPDEST PUSH2 0x16B JUMP JUMPDEST SWAP1 POP SWAP2 SWAP1 POP JUMP JUMPDEST PUSH0 DUP2 SWAP1 POP SWAP2 SWAP1 POP JUMP JUMPDEST PUSH2 0x1B0 DUP4 PUSH2 0x17D JUMP JUMPDEST PUSH2 0x1C4 PUSH2 0x1BC DUP3 PUSH2 0x19E JUMP JUMPDEST DUP5 DUP5 SLOAD PUSH2 0x11A JUMP JUMPDEST DUP3 SSTORE POP POP POP POP JUMP JUMPDEST PUSH0 SWAP1 JUMP JUMPDEST PUSH2 0x1D8 PUSH2 0x1CC JUMP JUMPDEST PUSH2 0x1E3 DUP2 DUP5 DUP5 PUSH2 0x1A7 JUMP JUMPDEST POP POP POP JUMP JUMPDEST JUMPDEST DUP2 DUP2 LT ISZERO PUSH2 0x206 JUMPI PUSH2 0x1FB PUSH0 DUP3 PUSH2 0x1D0 JUMP JUMPDEST PUSH1 0x1 DUP2 ADD SWAP1 POP PUSH2 0x1E9 JUMP JUMPDEST POP POP JUMP JUMPDEST PUSH1 0x1F DUP3 GT ISZERO PUSH2 0x24B JUMPI PUSH2 0x21C DUP2 PUSH2 0xED JUMP JUMPDEST PUSH2 0x225 DUP5 PUSH2 0xFF JUMP JUMPDEST DUP2 ADD PUSH1 0x20 DUP6 LT ISZERO PUSH2 0x234 JUMPI DUP2 SWAP1 POP JUMPDEST PUSH2 0x248 PUSH2 0x240 DUP6 PUSH2 0xFF JUMP JUMPDEST DUP4 ADD DUP3 PUSH2 0x1E8 JUMP JUMPDEST POP POP JUMPDEST POP POP POP JUMP JUMPDEST PUSH0 DUP3 DUP3 SHR SWAP1 POP SWAP3 SWAP2 POP POP JUMP JUMPDEST PUSH0 PUSH2 0x26B PUSH0 NOT DUP5 PUSH1 0x8 MUL PUSH2 0x250 JUMP JUMPDEST NOT DUP1 DUP4 AND SWAP2 POP POP SWAP3 SWAP2 POP POP JUMP JUMPDEST PUSH0 PUSH2 0x283 DUP4 DUP4 PUSH2 0x25C JUMP JUMPDEST SWAP2 POP DUP3 PUSH1 0x2 MUL DUP3 OR SWAP1 POP SWAP3 SWAP2 POP POP JUMP JUMPDEST PUSH2 0x29C DUP3 PUSH2 0x59 JUMP JUMPDEST PUSH8 0xFFFFFFFFFFFFFFFF DUP2 GT ISZERO PUSH2 0x2B5 JUMPI PUSH2 0x2B4 PUSH2 0x63 JUMP JUMPDEST JUMPDEST PUSH2 0x2BF DUP3 SLOAD PUSH2 0xBD JUMP JUMPDEST PUSH2 0x2CA DUP3 DUP3 DUP6 PUSH2 0x20A JUMP JUMPDEST PUSH0 PUSH1 0x20 SWAP1 POP PUSH1 0x1F DUP4 GT PUSH1 0x1 DUP2 EQ PUSH2 0x2FB JUMPI PUSH0 DUP5 ISZERO PUSH2 0x2E9 JUMPI DUP3 DUP8 ADD MLOAD SWAP1 POP JUMPDEST PUSH2 0x2F3 DUP6 DUP3 PUSH2 0x278 JUMP JUMPDEST DUP7 SSTORE POP PUSH2 0x35A JUMP JUMPDEST PUSH1 0x1F NOT DUP5 AND PUSH2 0x309 DUP7 PUSH2 0xED JUMP JUMPDEST PUSH0 JUMPDEST DUP3 DUP2 LT ISZERO PUSH2 0x330 JUMPI DUP5 DUP10 ADD MLOAD DUP3 SSTORE PUSH1 0x1 DUP3 ADD SWAP2 POP PUSH1 0x20 DUP6 ADD SWAP5 POP PUSH1 0x20 DUP2 ADD SWAP1 POP PUSH2 0x30B JUMP JUMPDEST DUP7 DUP4 LT ISZERO PUSH2 0x34D JUMPI DUP5 DUP10 ADD MLOAD PUSH2 0x349 PUSH1 0x1F DUP10 AND DUP3 PUSH2 0x25C JUMP JUMPDEST DUP4 SSTORE POP JUMPDEST PUSH1 0x1 PUSH1 0x2 DUP9 MUL ADD DUP9 SSTORE POP POP POP JUMPDEST POP POP POP POP POP POP JUMP JUMPDEST PUSH2 0x914 DUP1 PUSH2 0x36F PUSH0 CODECOPY PUSH0 RETURN INVALID PUSH1 0x80 PUSH1 0x40 MSTORE CALLVALUE DUP1 ISZERO PUSH2 0xF JUMPI PUSH0 DUP1 REVERT JUMPDEST POP PUSH1 0x4 CALLDATASIZE LT PUSH2 0x4A JUMPI PUSH0 CALLDATALOAD PUSH1 0xE0 SHR DUP1 PUSH4 0x966F39C EQ PUSH2 0x4E JUMPI DUP1 PUSH4 0x42257B31 EQ PUSH2 0x6A JUMPI DUP1 PUSH4 0x7A365725 EQ PUSH2 0x9A JUMPI DUP1 PUSH4 0xD8513D2D EQ PUSH2 0xB8 JUMPI JUMPDEST PUSH0 DUP1 REVERT JUMPDEST PUSH2 0x68 PUSH1 0x4 DUP1 CALLDATASIZE SUB DUP2 ADD SWAP1 PUSH2 0x63 SWAP2 SWAP1 PUSH2 0x413 JUMP JUMPDEST PUSH2 0xE8 JUMP JUMPDEST STOP JUMPDEST PUSH2 0x84 PUSH1 0x4 DUP1 CALLDATASIZE SUB DUP2 ADD SWAP1 PUSH2 0x7F SWAP2 SWAP1 PUSH2 0x46D JUMP JUMPDEST PUSH2 0x19A JUMP JUMPDEST PUSH1 0x40 MLOAD PUSH2 0x91 SWAP2 SWAP1 PUSH2 0x4F8 JUMP JUMPDEST PUSH1 0x40 MLOAD DUP1 SWAP2 SUB SWAP1 RETURN JUMPDEST PUSH2 0xA2 PUSH2 0x250 JUMP JUMPDEST PUSH1 0x40 MLOAD PUSH2 0xAF SWAP2 SWAP1 PUSH2 0x527 JUMP JUMPDEST PUSH1 0x40 MLOAD DUP1 SWAP2 SUB SWAP1 RETURN JUMPDEST PUSH2 0xD2 PUSH1 0x4 DUP1 CALLDATASIZE SUB DUP2 ADD SWAP1 PUSH2 0xCD SWAP2 SWAP1 PUSH2 0x46D JUMP JUMPDEST PUSH2 0x258 JUMP JUMPDEST PUSH1 0x40 MLOAD PUSH2 0xDF SWAP2 SWAP1 PUSH2 0x4F8 JUMP JUMPDEST PUSH1 0x40 MLOAD DUP1 SWAP2 SUB SWAP1 RETURN JUMPDEST PUSH0 PUSH1 0x40 MLOAD DUP1 PUSH1 0x60 ADD PUSH1 0x40 MSTORE DUP1 DUP5 DUP2 MSTORE PUSH1 0x20 ADD DUP4 DUP2 MSTORE PUSH1 0x20 ADD CALLER PUSH20 0xFFFFFFFFFFFFFFFFFFFFFFFFFFFFFFFFFFFFFFFF AND DUP2 MSTORE POP SWAP1 POP DUP1 PUSH1 0x2 PUSH0 DUP5 DUP2 MSTORE PUSH1 0x20 ADD SWAP1 DUP2 MSTORE PUSH1 0x20 ADD PUSH0 KECCAK256 PUSH0 DUP3 ADD MLOAD DUP2 PUSH0 ADD SWAP1 DUP2 PUSH2 0x141 SWAP2 SWAP1 PUSH2 0x73A JUMP JUMPDEST POP PUSH1 0x20 DUP3 ADD MLOAD DUP2 PUSH1 0x1 ADD SSTORE PUSH1 0x40 DUP3 ADD MLOAD DUP2 PUSH1 0x2 ADD PUSH0 PUSH2 0x100 EXP DUP2 SLOAD DUP2 PUSH20 0xFFFFFFFFFFFFFFFFFFFFFFFFFFFFFFFFFFFFFFFF MUL NOT AND SWAP1 DUP4 PUSH20 0xFFFFFFFFFFFFFFFFFFFFFFFFFFFFFFFFFFFFFFFF AND MUL OR SWAP1 SSTORE POP SWAP1 POP POP POP POP POP JUMP JUMPDEST PUSH1 0x60 PUSH0 PUSH20 0xFFFFFFFFFFFFFFFFFFFFFFFFFFFFFFFFFFFFFFFF AND PUSH1 0x2 PUSH0 DUP5 DUP2 MSTORE PUSH1 0x20 ADD SWAP1 DUP2 MSTORE PUSH1 0x20 ADD PUSH0 KECCAK256 PUSH1 0x2 ADD PUSH0 SWAP1 SLOAD SWAP1 PUSH2 0x100 EXP SWAP1 DIV PUSH20 0xFFFFFFFFFFFFFFFFFFFFFFFFFFFFFFFFFFFFFFFF AND PUSH20 0xFFFFFFFFFFFFFFFFFFFFFFFFFFFFFFFFFFFFFFFF AND SUB PUSH2 0x23F JUMPI PUSH1 0x40 MLOAD DUP1 PUSH1 0x40 ADD PUSH1 0x40 MSTORE DUP1 PUSH1 0x7 DUP2 MSTORE PUSH1 0x20 ADD PUSH32 0x4E6F206C616E6700000000000000000000000000000000000000000000000000 DUP2 MSTORE POP SWAP1 POP PUSH2 0x24B JUMP JUMPDEST PUSH2 0x248 DUP3 PUSH2 0x258 JUMP JUMPDEST SWAP1 POP JUMPDEST SWAP2 SWAP1 POP JUMP JUMPDEST PUSH0 PUSH1 0x2 SWAP1 POP SWAP1 JUMP JUMPDEST PUSH1 0x60 PUSH1 0x2 PUSH0 DUP4 DUP2 MSTORE PUSH1 0x20 ADD SWAP1 DUP2 MSTORE PUSH1 0x20 ADD PUSH0 KECCAK256 PUSH0 ADD PUSH1 0x40 MLOAD PUSH1 0x20 ADD PUSH2 0x27D SWAP2 SWAP1 PUSH2 0x8B9 JUMP JUMPDEST PUSH1 0x40 MLOAD PUSH1 0x20 DUP2 DUP4 SUB SUB DUP2 MSTORE SWAP1 PUSH1 0x40 MSTORE SWAP1 POP SWAP2 SWAP1 POP JUMP JUMPDEST PUSH0 PUSH1 0x40 MLOAD SWAP1 POP SWAP1 JUMP JUMPDEST PUSH0 DUP1 REVERT JUMPDEST PUSH0 DUP1 REVERT JUMPDEST PUSH0 DUP1 REVERT JUMPDEST PUSH0 DUP1 REVERT JUMPDEST PUSH0 PUSH1 0x1F NOT PUSH1 0x1F DUP4 ADD AND SWAP1 POP SWAP2 SWAP1 POP JUMP JUMPDEST PUSH32 0x4E487B7100000000000000000000000000000000000000000000000000000000 PUSH0 MSTORE PUSH1 0x41 PUSH1 0x4 MSTORE PUSH1 0x24 PUSH0 REVERT JUMPDEST PUSH2 0x2F2 DUP3 PUSH2 0x2AC JUMP JUMPDEST DUP2 ADD DUP2 DUP2 LT PUSH8 0xFFFFFFFFFFFFFFFF DUP3 GT OR ISZERO PUSH2 0x311 JUMPI PUSH2 0x310 PUSH2 0x2BC JUMP JUMPDEST JUMPDEST DUP1 PUSH1 0x40 MSTORE POP POP POP JUMP JUMPDEST PUSH0 PUSH2 0x323 PUSH2 0x293 JUMP JUMPDEST SWAP1 POP PUSH2 0x32F DUP3 DUP3 PUSH2 0x2E9 JUMP JUMPDEST SWAP2 SWAP1 POP JUMP JUMPDEST PUSH0 PUSH8 0xFFFFFFFFFFFFFFFF DUP3 GT ISZERO PUSH2 0x34E JUMPI PUSH2 0x34D PUSH2 0x2BC JUMP JUMPDEST JUMPDEST PUSH2 0x357 DUP3 PUSH2 0x2AC JUMP JUMPDEST SWAP1 POP PUSH1 0x20 DUP2 ADD SWAP1 POP SWAP2 SWAP1 POP JUMP JUMPDEST DUP3 DUP2 DUP4 CALLDATACOPY PUSH0 DUP4 DUP4 ADD MSTORE POP POP POP JUMP JUMPDEST PUSH0 PUSH2 0x384 PUSH2 0x37F DUP5 PUSH2 0x334 JUMP JUMPDEST PUSH2 0x31A JUMP JUMPDEST SWAP1 POP DUP3 DUP2 MSTORE PUSH1 0x20 DUP2 ADD DUP5 DUP5 DUP5 ADD GT ISZERO PUSH2 0x3A0 JUMPI PUSH2 0x39F PUSH2 0x2A8 JUMP JUMPDEST JUMPDEST PUSH2 0x3AB DUP5 DUP3 DUP6 PUSH2 0x364 JUMP JUMPDEST POP SWAP4 SWAP3 POP POP POP JUMP JUMPDEST PUSH0 DUP3 PUSH1 0x1F DUP4 ADD SLT PUSH2 0x3C7 JUMPI PUSH2 0x3C6 PUSH2 0x2A4 JUMP JUMPDEST JUMPDEST DUP2 CALLDATALOAD PUSH2 0x3D7 DUP5 DUP3 PUSH1 0x20 DUP7 ADD PUSH2 0x372 JUMP JUMPDEST SWAP2 POP POP SWAP3 SWAP2 POP POP JUMP JUMPDEST PUSH0 DUP2 SWAP1 POP SWAP2 SWAP1 POP JUMP JUMPDEST PUSH2 0x3F2 DUP2 PUSH2 0x3E0 JUMP JUMPDEST DUP2 EQ PUSH2 0x3FC JUMPI PUSH0 DUP1 REVERT JUMPDEST POP JUMP JUMPDEST PUSH0 DUP2 CALLDATALOAD SWAP1 POP PUSH2 0x40D DUP2 PUSH2 0x3E9 JUMP JUMPDEST SWAP3 SWAP2 POP POP JUMP JUMPDEST PUSH0 DUP1 PUSH1 0x40 DUP4 DUP6 SUB SLT ISZERO PUSH2 0x429 JUMPI PUSH2 0x428 PUSH2 0x29C JUMP JUMPDEST JUMPDEST PUSH0 DUP4 ADD CALLDATALOAD PUSH8 0xFFFFFFFFFFFFFFFF DUP2 GT ISZERO PUSH2 0x446 JUMPI PUSH2 0x445 PUSH2 0x2A0 JUMP JUMPDEST JUMPDEST PUSH2 0x452 DUP6 DUP3 DUP7 ADD PUSH2 0x3B3 JUMP JUMPDEST SWAP3 POP POP PUSH1 0x20 PUSH2 0x463 DUP6 DUP3 DUP7 ADD PUSH2 0x3FF JUMP JUMPDEST SWAP2 POP POP SWAP3 POP SWAP3 SWAP1 POP JUMP JUMPDEST PUSH0 PUSH1 0x20 DUP3 DUP5 SUB SLT ISZERO PUSH2 0x482 JUMPI PUSH2 0x481 PUSH2 0x29C JUMP JUMPDEST JUMPDEST PUSH0 PUSH2 0x48F DUP5 DUP3 DUP6 ADD PUSH2 0x3FF JUMP JUMPDEST SWAP2 POP POP SWAP3 SWAP2 POP POP JUMP JUMPDEST PUSH0 DUP2 MLOAD SWAP1 POP SWAP2 SWAP1 POP JUMP JUMPDEST PUSH0 DUP3 DUP3 MSTORE PUSH1 0x20 DUP3 ADD SWAP1 POP SWAP3 SWAP2 POP POP JUMP JUMPDEST DUP3 DUP2 DUP4 MCOPY PUSH0 DUP4 DUP4 ADD MSTORE POP POP POP JUMP JUMPDEST PUSH0 PUSH2 0x4CA DUP3 PUSH2 0x498 JUMP JUMPDEST PUSH2 0x4D4 DUP2 DUP6 PUSH2 0x4A2 JUMP JUMPDEST SWAP4 POP PUSH2 0x4E4 DUP2 DUP6 PUSH1 0x20 DUP7 ADD PUSH2 0x4B2 JUMP JUMPDEST PUSH2 0x4ED DUP2 PUSH2 0x2AC JUMP JUMPDEST DUP5 ADD SWAP2 POP POP SWAP3 SWAP2 POP POP JUMP JUMPDEST PUSH0 PUSH1 0x20 DUP3 ADD SWAP1 POP DUP2 DUP2 SUB PUSH0 DUP4 ADD MSTORE PUSH2 0x510 DUP2 DUP5 PUSH2 0x4C0 JUMP JUMPDEST SWAP1 POP SWAP3 SWAP2 POP POP JUMP JUMPDEST PUSH2 0x521 DUP2 PUSH2 0x3E0 JUMP JUMPDEST DUP3 MSTORE POP POP JUMP JUMPDEST PUSH0 PUSH1 0x20 DUP3 ADD SWAP1 POP PUSH2 0x53A PUSH0 DUP4 ADD DUP5 PUSH2 0x518 JUMP JUMPDEST SWAP3 SWAP2 POP POP JUMP JUMPDEST PUSH32 0x4E487B7100000000000000000000000000000000000000000000000000000000 PUSH0 MSTORE PUSH1 0x22 PUSH1 0x4 MSTORE PUSH1 0x24 PUSH0 REVERT JUMPDEST PUSH0 PUSH1 0x2 DUP3 DIV SWAP1 POP PUSH1 0x1 DUP3 AND DUP1 PUSH2 0x584 JUMPI PUSH1 0x7F DUP3 AND SWAP2 POP JUMPDEST PUSH1 0x20 DUP3 LT DUP2 SUB PUSH2 0x597 JUMPI PUSH2 0x596 PUSH2 0x540 JUMP JUMPDEST JUMPDEST POP SWAP2 SWAP1 POP JUMP JUMPDEST PUSH0 DUP2 SWAP1 POP DUP2 PUSH0 MSTORE PUSH1 0x20 PUSH0 KECCAK256 SWAP1 POP SWAP2 SWAP1 POP JUMP JUMPDEST PUSH0 PUSH1 0x20 PUSH1 0x1F DUP4 ADD DIV SWAP1 POP SWAP2 SWAP1 POP JUMP JUMPDEST PUSH0 DUP3 DUP3 SHL SWAP1 POP SWAP3 SWAP2 POP POP JUMP JUMPDEST PUSH0 PUSH1 0x8 DUP4 MUL PUSH2 0x5F9 PUSH32 0xFFFFFFFFFFFFFFFFFFFFFFFFFFFFFFFFFFFFFFFFFFFFFFFFFFFFFFFFFFFFFFFF DUP3 PUSH2 0x5BE JUMP JUMPDEST PUSH2 0x603 DUP7 DUP4 PUSH2 0x5BE JUMP JUMPDEST SWAP6 POP DUP1 NOT DUP5 AND SWAP4 POP DUP1 DUP7 AND DUP5 OR SWAP3 POP POP POP SWAP4 SWAP3 POP POP POP JUMP JUMPDEST PUSH0 DUP2 SWAP1 POP SWAP2 SWAP1 POP JUMP JUMPDEST PUSH0 PUSH2 0x63E PUSH2 0x639 PUSH2 0x634 DUP5 PUSH2 0x3E0 JUMP JUMPDEST PUSH2 0x61B JUMP JUMPDEST PUSH2 0x3E0 JUMP JUMPDEST SWAP1 POP SWAP2 SWAP1 POP JUMP JUMPDEST PUSH0 DUP2 SWAP1 POP SWAP2 SWAP1 POP JUMP JUMPDEST PUSH2 0x657 DUP4 PUSH2 0x624 JUMP JUMPDEST PUSH2 0x66B PUSH2 0x663 DUP3 PUSH2 0x645 JUMP JUMPDEST DUP5 DUP5 SLOAD PUSH2 0x5CA JUMP JUMPDEST DUP3 SSTORE POP POP POP POP JUMP JUMPDEST PUSH0 SWAP1 JUMP JUMPDEST PUSH2 0x67F PUSH2 0x673 JUMP JUMPDEST PUSH2 0x68A DUP2 DUP5 DUP5 PUSH2 0x64E JUMP JUMPDEST POP POP POP JUMP JUMPDEST JUMPDEST DUP2 DUP2 LT ISZERO PUSH2 0x6AD JUMPI PUSH2 0x6A2 PUSH0 DUP3 PUSH2 0x677 JUMP JUMPDEST PUSH1 0x1 DUP2 ADD SWAP1 POP PUSH2 0x690 JUMP JUMPDEST POP POP JUMP JUMPDEST PUSH1 0x1F DUP3 GT ISZERO PUSH2 0x6F2 JUMPI PUSH2 0x6C3 DUP2 PUSH2 0x59D JUMP JUMPDEST PUSH2 0x6CC DUP5 PUSH2 0x5AF JUMP JUMPDEST DUP2 ADD PUSH1 0x20 DUP6 LT ISZERO PUSH2 0x6DB JUMPI DUP2 SWAP1 POP JUMPDEST PUSH2 0x6EF PUSH2 0x6E7 DUP6 PUSH2 0x5AF JUMP JUMPDEST DUP4 ADD DUP3 PUSH2 0x68F JUMP JUMPDEST POP POP JUMPDEST POP POP POP JUMP JUMPDEST PUSH0 DUP3 DUP3 SHR SWAP1 POP SWAP3 SWAP2 POP POP JUMP JUMPDEST PUSH0 PUSH2 0x712 PUSH0 NOT DUP5 PUSH1 0x8 MUL PUSH2 0x6F7 JUMP JUMPDEST NOT DUP1 DUP4 AND SWAP2 POP POP SWAP3 SWAP2 POP POP JUMP JUMPDEST PUSH0 PUSH2 0x72A DUP4 DUP4 PUSH2 0x703 JUMP JUMPDEST SWAP2 POP DUP3 PUSH1 0x2 MUL DUP3 OR SWAP1 POP SWAP3 SWAP2 POP POP JUMP JUMPDEST PUSH2 0x743 DUP3 PUSH2 0x498 JUMP JUMPDEST PUSH8 0xFFFFFFFFFFFFFFFF DUP2 GT ISZERO PUSH2 0x75C JUMPI PUSH2 0x75B PUSH2 0x2BC JUMP JUMPDEST JUMPDEST PUSH2 0x766 DUP3 SLOAD PUSH2 0x56D JUMP JUMPDEST PUSH2 0x771 DUP3 DUP3 DUP6 PUSH2 0x6B1 JUMP JUMPDEST PUSH0 PUSH1 0x20 SWAP1 POP PUSH1 0x1F DUP4 GT PUSH1 0x1 DUP2 EQ PUSH2 0x7A2 JUMPI PUSH0 DUP5 ISZERO PUSH2 0x790 JUMPI DUP3 DUP8 ADD MLOAD SWAP1 POP JUMPDEST PUSH2 0x79A DUP6 DUP3 PUSH2 0x71F JUMP JUMPDEST DUP7 SSTORE POP PUSH2 0x801 JUMP JUMPDEST PUSH1 0x1F NOT DUP5 AND PUSH2 0x7B0 DUP7 PUSH2 0x59D JUMP JUMPDEST PUSH0 JUMPDEST DUP3 DUP2 LT ISZERO PUSH2 0x7D7 JUMPI DUP5 DUP10 ADD MLOAD DUP3 SSTORE PUSH1 0x1 DUP3 ADD SWAP2 POP PUSH1 0x20 DUP6 ADD SWAP5 POP PUSH1 0x20 DUP2 ADD SWAP1 POP PUSH2 0x7B2 JUMP JUMPDEST DUP7 DUP4 LT ISZERO PUSH2 0x7F4 JUMPI DUP5 DUP10 ADD MLOAD PUSH2 0x7F0 PUSH1 0x1F DUP10 AND DUP3 PUSH2 0x703 JUMP JUMPDEST DUP4 SSTORE POP JUMPDEST PUSH1 0x1 PUSH1 0x2 DUP9 MUL ADD DUP9 SSTORE POP POP POP JUMPDEST POP POP POP POP POP POP JUMP JUMPDEST PUSH0 DUP2 SWAP1 POP SWAP3 SWAP2 POP POP JUMP JUMPDEST PUSH0 DUP2 SLOAD PUSH2 0x81F DUP2 PUSH2 0x56D JUMP JUMPDEST PUSH2 0x829 DUP2 DUP7 PUSH2 0x809 JUMP JUMPDEST SWAP5 POP PUSH1 0x1 DUP3 AND PUSH0 DUP2 EQ PUSH2 0x843 JUMPI PUSH1 0x1 DUP2 EQ PUSH2 0x858 JUMPI PUSH2 0x88A JUMP JUMPDEST PUSH1 0xFF NOT DUP4 AND DUP7 MSTORE DUP2 ISZERO ISZERO DUP3 MUL DUP7 ADD SWAP4 POP PUSH2 0x88A JUMP JUMPDEST PUSH2 0x861 DUP6 PUSH2 0x59D JUMP JUMPDEST PUSH0 JUMPDEST DUP4 DUP2 LT ISZERO PUSH2 0x882 JUMPI DUP2 SLOAD DUP2 DUP10 ADD MSTORE PUSH1 0x1 DUP3 ADD SWAP2 POP PUSH1 0x20 DUP2 ADD SWAP1 POP PUSH2 0x863 JUMP JUMPDEST DUP4 DUP9 ADD SWAP6 POP POP POP JUMPDEST POP POP POP SWAP3 SWAP2 POP POP JUMP JUMPDEST PUSH32 0x2C207468697327732066726F6D206B69656E0000000000000000000000000000 DUP2 MSTORE POP JUMP JUMPDEST PUSH0 PUSH2 0x8C4 DUP3 DUP5 PUSH2 0x813 JUMP JUMPDEST SWAP2 POP PUSH2 0x8CF DUP3 PUSH2 0x893 JUMP JUMPDEST PUSH1 0x12 DUP3 ADD SWAP2 POP DUP2 SWAP1 POP SWAP3 SWAP2 POP POP JUMP INVALID LOG2 PUSH5 0x6970667358 0x22 SLT KECCAK256 0xB6 0xC5 GASPRICE DUP8 0x2B SDIV 0xB6 CODESIZE INVALID JUMPI JUMP KECCAK256 0xB1 0xCA 0xB4 0xE4 DELEGATECALL CODESIZE SIGNEXTEND SHL LOG1 0xD7 SWAP15 0xC6 0x1F 0xB4 0x1E ORIGIN SWAP10 PUSH5 0xD6A864736F PUSH13 0x634300081A0033000000000000 "
				},
				"gasEstimates": {
					"creation": {
						"codeDepositCost": "464800",
						"executionCost": "infinite",
						"totalCost": "infinite"
					},
					"external": {
						"getLang(uint256)": "infinite",
						"sayHello(uint256)": "infinite",
						"setLang(string,uint256)": "infinite",
						"yunsuan()": "354"
					}
				},
				"methodIdentifiers": {
					"getLang(uint256)": "d8513d2d",
					"sayHello(uint256)": "42257b31",
					"setLang(string,uint256)": "0966f39c",
					"yunsuan()": "7a365725"
				}
			},
			"storageLayout": {
				"storage": [
					{
						"astId": 4,
						"contract": "test01/helloworld.sol:HelloWorldTest",
						"label": "content",
						"offset": 0,
						"slot": "0",
						"type": "t_string_storage"
					},
					{
						"astId": 15,
						"contract": "test01/helloworld.sol:HelloWorldTest",
						"label": "langs",
						"offset": 0,
						"slot": "1",
						"type": "t_array(t_struct(Lang)11_storage)dyn_storage"
					},
					{
						"astId": 20,
						"contract": "test01/helloworld.sol:HelloWorldTest",
						"label": "langMapping",
						"offset": 0,
						"slot": "2",
						"type": "t_mapping(t_uint256,t_struct(Lang)11_storage)"
					}
				],
				"types": {
					"t_address": {
						"encoding": "inplace",
						"label": "address",
						"numberOfBytes": "20"
					},
					"t_array(t_struct(Lang)11_storage)dyn_storage": {
						"base": "t_struct(Lang)11_storage",
						"encoding": "dynamic_array",
						"label": "struct HelloWorld.Lang[]",
						"numberOfBytes": "32"
					},
					"t_mapping(t_uint256,t_struct(Lang)11_storage)": {
						"encoding": "mapping",
						"key": "t_uint256",
						"label": "mapping(uint256 => struct HelloWorld.Lang)",
						"numberOfBytes": "32",
						"value": "t_struct(Lang)11_storage"
					},
					"t_string_storage": {
						"encoding": "bytes",
						"label": "string",
						"numberOfBytes": "32"
					},
					"t_struct(Lang)11_storage": {
						"encoding": "inplace",
						"label": "struct HelloWorld.Lang",
						"members": [
							{
								"astId": 6,
								"contract": "test01/helloworld.sol:HelloWorldTest",
								"label": "phrase",
								"offset": 0,
								"slot": "0",
								"type": "t_string_storage"
							},
							{
								"astId": 8,
								"contract": "test01/helloworld.sol:HelloWorldTest",
								"label": "id",
								"offset": 0,
								"slot": "1",
								"type": "t_uint256"
							},
							{
								"astId": 10,
								"contract": "test01/helloworld.sol:HelloWorldTest",
								"label": "addr",
								"offset": 0,
								"slot": "2",
								"type": "t_address"
							}
						],
						"numberOfBytes": "96"
					},
					"t_uint256": {
						"encoding": "inplace",
						"label": "uint256",
						"numberOfBytes": "32"
					}
				}
			},
			"userdoc": {
				"kind": "user",
				"methods": {},
				"version": 1
			}
		}
	}
}