{
  "address": "0x77Ce0aeFC8Eca4BdaC06fCCc701FAe065df3cb81",
  "abi": [
    {
      "inputs": [
        {
          "internalType": "uint256",
          "name": "_lockTime",
          "type": "uint256"
        },
        {
          "internalType": "address",
          "name": "_dataFeedAddr",
          "type": "address"
        }
      ],
      "stateMutability": "nonpayable",
      "type": "constructor"
    },
    {
      "inputs": [],
      "name": "TARGET",
      "outputs": [
        {
          "internalType": "uint256",
          "name": "",
          "type": "uint256"
        }
      ],
      "stateMutability": "view",
      "type": "function"
    },
    {
      "inputs": [
        {
          "internalType": "uint256",
          "name": "ethAmount",
          "type": "uint256"
        }
      ],
      "name": "convertEthToUsd",
      "outputs": [
        {
          "internalType": "uint256",
          "name": "",
          "type": "uint256"
        }
      ],
      "stateMutability": "view",
      "type": "function"
    },
    {
      "inputs": [],
      "name": "dataFeed",
      "outputs": [
        {
          "internalType": "contract AggregatorV3Interface",
          "name": "",
          "type": "address"
        }
      ],
      "stateMutability": "view",
      "type": "function"
    },
    {
      "inputs": [],
      "name": "fund",
      "outputs": [],
      "stateMutability": "payable",
      "type": "function"
    },
    {
      "inputs": [
        {
          "internalType": "address",
          "name": "",
          "type": "address"
        }
      ],
      "name": "funds",
      "outputs": [
        {
          "internalType": "uint256",
          "name": "",
          "type": "uint256"
        }
      ],
      "stateMutability": "view",
      "type": "function"
    },
    {
      "inputs": [],
      "name": "getChainlinkDataFeedLatestAnswer",
      "outputs": [
        {
          "internalType": "int256",
          "name": "",
          "type": "int256"
        }
      ],
      "stateMutability": "view",
      "type": "function"
    },
    {
      "inputs": [],
      "name": "getFund",
      "outputs": [],
      "stateMutability": "nonpayable",
      "type": "function"
    },
    {
      "inputs": [],
      "name": "isGetFund",
      "outputs": [
        {
          "internalType": "bool",
          "name": "",
          "type": "bool"
        }
      ],
      "stateMutability": "view",
      "type": "function"
    },
    {
      "inputs": [],
      "name": "owner",
      "outputs": [
        {
          "internalType": "address",
          "name": "",
          "type": "address"
        }
      ],
      "stateMutability": "view",
      "type": "function"
    },
    {
      "inputs": [],
      "name": "refund",
      "outputs": [],
      "stateMutability": "nonpayable",
      "type": "function"
    },
    {
      "inputs": [
        {
          "internalType": "address",
          "name": "_erc20Addr",
          "type": "address"
        }
      ],
      "name": "setErc20Addr",
      "outputs": [],
      "stateMutability": "nonpayable",
      "type": "function"
    },
    {
      "inputs": [
        {
          "internalType": "address",
          "name": "funder",
          "type": "address"
        },
        {
          "internalType": "uint256",
          "name": "amountToUpdate",
          "type": "uint256"
        }
      ],
      "name": "setFundsAmount",
      "outputs": [],
      "stateMutability": "nonpayable",
      "type": "function"
    },
    {
      "inputs": [
        {
          "internalType": "address",
          "name": "newOwner",
          "type": "address"
        }
      ],
      "name": "transferOwnership",
      "outputs": [],
      "stateMutability": "nonpayable",
      "type": "function"
    }
  ],
  "transactionHash": "0x33fd3ddc0d083b45d7cc99e205c9c374e633774a59a010d68ad36bc7c13229cf",
  "args": [
    300,
    "0x694AA1769357215DE4FAC081bf1f309aDC325306"
  ],
  "numDeployments": 1,
  "solcInputHash": "33f34eddaef09fe32d05dcb75e077bbc",
  "bytecode": "0x60806040526000600560146101000a81548160ff02191690831515021790555034801561002b57600080fd5b506040516116c53803806116c5833981810160405281019061004d919061017d565b33600160006101000a81548173ffffffffffffffffffffffffffffffffffffffff021916908373ffffffffffffffffffffffffffffffffffffffff16021790555080600260006101000a81548173ffffffffffffffffffffffffffffffffffffffff021916908373ffffffffffffffffffffffffffffffffffffffff160217905550426003819055508160048190555050506101bd565b600080fd5b6000819050919050565b6100fc816100e9565b811461010757600080fd5b50565b600081519050610119816100f3565b92915050565b600073ffffffffffffffffffffffffffffffffffffffff82169050919050565b600061014a8261011f565b9050919050565b61015a8161013f565b811461016557600080fd5b50565b60008151905061017781610151565b92915050565b60008060408385031215610194576101936100e4565b5b60006101a28582860161010a565b92505060206101b385828601610168565b9150509250929050565b6114f9806101cc6000396000f3fe6080604052600436106100c25760003560e01c80639e42ff901161007f578063c086381e11610059578063c086381e146101fd578063cc1f2afa1461023a578063e2ae93fb14610265578063f2fde38b146102a2576100c2565b80639e42ff901461019d578063b60d4288146101c8578063bea4dfb5146101d2576100c2565b806313ffff01146100c7578063590e1ae3146100f057806379433761146101075780637fe47e1a146101325780638da5cb5b1461015b5780638edd6eb614610186575b600080fd5b3480156100d357600080fd5b506100ee60048036038101906100e99190610c49565b6102cb565b005b3480156100fc57600080fd5b5061010561039f565b005b34801561011357600080fd5b5061011c6105b7565b6040516101299190610c91565b60405180910390f35b34801561013e57600080fd5b5061015960048036038101906101549190610ce2565b6105ca565b005b34801561016757600080fd5b506101706106a1565b60405161017d9190610d31565b60405180910390f35b34801561019257600080fd5b5061019b6106c7565b005b3480156101a957600080fd5b506101b261090c565b6040516101bf9190610dab565b60405180910390f35b6101d0610932565b005b3480156101de57600080fd5b506101e7610a1c565b6040516101f49190610ddf565b60405180910390f35b34801561020957600080fd5b50610224600480360381019061021f9190610dfa565b610abd565b6040516102319190610e36565b60405180910390f35b34801561024657600080fd5b5061024f610aed565b60405161025c9190610e36565b60405180910390f35b34801561027157600080fd5b5061028c60048036038101906102879190610c49565b610afa565b6040516102999190610e36565b60405180910390f35b3480156102ae57600080fd5b506102c960048036038101906102c49190610c49565b610b12565b005b600160009054906101000a900473ffffffffffffffffffffffffffffffffffffffff1673ffffffffffffffffffffffffffffffffffffffff163373ffffffffffffffffffffffffffffffffffffffff161461035b576040517f08c379a000000000000000000000000000000000000000000000000000000000815260040161035290610ed4565b60405180910390fd5b80600560006101000a81548173ffffffffffffffffffffffffffffffffffffffff021916908373ffffffffffffffffffffffffffffffffffffffff16021790555050565b6004546003546103af9190610f23565b42116103f0576040517f08c379a00000000000000000000000000000000000000000000000000000000081526004016103e790610fa3565b60405180910390fd5b683635c9adc5dea0000061040347610abd565b10610443576040517f08c379a000000000000000000000000000000000000000000000000000000000815260040161043a9061100f565b60405180910390fd5b60008060003373ffffffffffffffffffffffffffffffffffffffff1673ffffffffffffffffffffffffffffffffffffffff16815260200190815260200160002054036104c4576040517f08c379a00000000000000000000000000000000000000000000000000000000081526004016104bb9061107b565b60405180910390fd5b60003373ffffffffffffffffffffffffffffffffffffffff166000803373ffffffffffffffffffffffffffffffffffffffff1673ffffffffffffffffffffffffffffffffffffffff16815260200190815260200160002054604051610528906110cc565b60006040518083038185875af1925050503d8060008114610565576040519150601f19603f3d011682016040523d82523d6000602084013e61056a565b606091505b50508091505060008060003373ffffffffffffffffffffffffffffffffffffffff1673ffffffffffffffffffffffffffffffffffffffff1681526020019081526020016000208190555050565b600560149054906101000a900460ff1681565b600560009054906101000a900473ffffffffffffffffffffffffffffffffffffffff1673ffffffffffffffffffffffffffffffffffffffff163373ffffffffffffffffffffffffffffffffffffffff161461065a576040517f08c379a000000000000000000000000000000000000000000000000000000000815260040161065190611153565b60405180910390fd5b806000808473ffffffffffffffffffffffffffffffffffffffff1673ffffffffffffffffffffffffffffffffffffffff168152602001908152602001600020819055505050565b600160009054906101000a900473ffffffffffffffffffffffffffffffffffffffff1681565b600160009054906101000a900473ffffffffffffffffffffffffffffffffffffffff1673ffffffffffffffffffffffffffffffffffffffff163373ffffffffffffffffffffffffffffffffffffffff1614610757576040517f08c379a000000000000000000000000000000000000000000000000000000000815260040161074e90610ed4565b60405180910390fd5b6004546003546107679190610f23565b42116107a8576040517f08c379a000000000000000000000000000000000000000000000000000000000815260040161079f90610fa3565b60405180910390fd5b683635c9adc5dea000006107bb47610abd565b10156107fc576040517f08c379a00000000000000000000000000000000000000000000000000000000081526004016107f3906111bf565b60405180910390fd5b60003373ffffffffffffffffffffffffffffffffffffffff1647604051610822906110cc565b60006040518083038185875af1925050503d806000811461085f576040519150601f19603f3d011682016040523d82523d6000602084013e610864565b606091505b505080915050806108aa576040517f08c379a00000000000000000000000000000000000000000000000000000000081526004016108a19061122b565b60405180910390fd5b60008060003373ffffffffffffffffffffffffffffffffffffffff1673ffffffffffffffffffffffffffffffffffffffff168152602001908152602001600020819055506001600560146101000a81548160ff02191690831515021790555050565b600260009054906101000a900473ffffffffffffffffffffffffffffffffffffffff1681565b6004546003546109429190610f23565b4210610983576040517f08c379a000000000000000000000000000000000000000000000000000000000815260040161097a90611297565b60405180910390fd5b68056bc75e2d6310000061099634610abd565b10156109d7576040517f08c379a00000000000000000000000000000000000000000000000000000000081526004016109ce90611303565b60405180910390fd5b346000803373ffffffffffffffffffffffffffffffffffffffff1673ffffffffffffffffffffffffffffffffffffffff16815260200190815260200160002081905550565b600080600260009054906101000a900473ffffffffffffffffffffffffffffffffffffffff1673ffffffffffffffffffffffffffffffffffffffff1663feaf968c6040518163ffffffff1660e01b815260040160a060405180830381865afa158015610a8c573d6000803e3d6000fd5b505050506040513d601f19601f82011682018060405250810190610ab091906113a6565b5050509150508091505090565b600080610ac8610a1c565b90506305f5e1008184610adb9190611421565b610ae59190611492565b915050919050565b683635c9adc5dea0000081565b60006020528060005260406000206000915090505481565b600160009054906101000a900473ffffffffffffffffffffffffffffffffffffffff1673ffffffffffffffffffffffffffffffffffffffff163373ffffffffffffffffffffffffffffffffffffffff1614610ba2576040517f08c379a0000000000000000000000000000000000000000000000000000000008152600401610b9990610ed4565b60405180910390fd5b80600160006101000a81548173ffffffffffffffffffffffffffffffffffffffff021916908373ffffffffffffffffffffffffffffffffffffffff16021790555050565b600080fd5b600073ffffffffffffffffffffffffffffffffffffffff82169050919050565b6000610c1682610beb565b9050919050565b610c2681610c0b565b8114610c3157600080fd5b50565b600081359050610c4381610c1d565b92915050565b600060208284031215610c5f57610c5e610be6565b5b6000610c6d84828501610c34565b91505092915050565b60008115159050919050565b610c8b81610c76565b82525050565b6000602082019050610ca66000830184610c82565b92915050565b6000819050919050565b610cbf81610cac565b8114610cca57600080fd5b50565b600081359050610cdc81610cb6565b92915050565b60008060408385031215610cf957610cf8610be6565b5b6000610d0785828601610c34565b9250506020610d1885828601610ccd565b9150509250929050565b610d2b81610c0b565b82525050565b6000602082019050610d466000830184610d22565b92915050565b6000819050919050565b6000610d71610d6c610d6784610beb565b610d4c565b610beb565b9050919050565b6000610d8382610d56565b9050919050565b6000610d9582610d78565b9050919050565b610da581610d8a565b82525050565b6000602082019050610dc06000830184610d9c565b92915050565b6000819050919050565b610dd981610dc6565b82525050565b6000602082019050610df46000830184610dd0565b92915050565b600060208284031215610e1057610e0f610be6565b5b6000610e1e84828501610ccd565b91505092915050565b610e3081610cac565b82525050565b6000602082019050610e4b6000830184610e27565b92915050565b600082825260208201905092915050565b7f746869732066756e6374696f6e2063616e206f6e6c792062652063616c6c656460008201527f20627920746865206f776e657200000000000000000000000000000000000000602082015250565b6000610ebe602d83610e51565b9150610ec982610e62565b604082019050919050565b60006020820190508181036000830152610eed81610eb1565b9050919050565b7f4e487b7100000000000000000000000000000000000000000000000000000000600052601160045260246000fd5b6000610f2e82610cac565b9150610f3983610cac565b9250828201905080821115610f5157610f50610ef4565b5b92915050565b7f49742773206e6f742065787472616374696f6e2074696d652079657400000000600082015250565b6000610f8d601c83610e51565b9150610f9882610f57565b602082019050919050565b60006020820190508181036000830152610fbc81610f80565b9050919050565b7f5461726765742069732072656163686564000000000000000000000000000000600082015250565b6000610ff9601183610e51565b915061100482610fc3565b602082019050919050565b6000602082019050818103600083015261102881610fec565b9050919050565b7f7468657265206973206e6f2066756e6420746f207061796261636b0000000000600082015250565b6000611065601b83610e51565b91506110708261102f565b602082019050919050565b6000602082019050818103600083015261109481611058565b9050919050565b600081905092915050565b50565b60006110b660008361109b565b91506110c1826110a6565b600082019050919050565b60006110d7826110a9565b9150819050919050565b7f796f7520646f206e6f742068617665207065726d697373696f6e20746f20636160008201527f6c6c20746869732066756e6374696f6e00000000000000000000000000000000602082015250565b600061113d603083610e51565b9150611148826110e1565b604082019050919050565b6000602082019050818103600083015261116c81611130565b9050919050565b7f546172676574206973206e6f7420726561636865640000000000000000000000600082015250565b60006111a9601583610e51565b91506111b482611173565b602082019050919050565b600060208201905081810360008301526111d88161119c565b9050919050565b7f7478206661696c65640000000000000000000000000000000000000000000000600082015250565b6000611215600983610e51565b9150611220826111df565b602082019050919050565b6000602082019050818103600083015261124481611208565b9050919050565b7f5468652066756e6420697320636c6f7365640000000000000000000000000000600082015250565b6000611281601283610e51565b915061128c8261124b565b602082019050919050565b600060208201905081810360008301526112b081611274565b9050919050565b7f73656e64206d6f7265206d6f6e65790000000000000000000000000000000000600082015250565b60006112ed600f83610e51565b91506112f8826112b7565b602082019050919050565b6000602082019050818103600083015261131c816112e0565b9050919050565b600069ffffffffffffffffffff82169050919050565b61134281611323565b811461134d57600080fd5b50565b60008151905061135f81611339565b92915050565b61136e81610dc6565b811461137957600080fd5b50565b60008151905061138b81611365565b92915050565b6000815190506113a081610cb6565b92915050565b600080600080600060a086880312156113c2576113c1610be6565b5b60006113d088828901611350565b95505060206113e18882890161137c565b94505060406113f288828901611391565b935050606061140388828901611391565b925050608061141488828901611350565b9150509295509295909350565b600061142c82610cac565b915061143783610cac565b925082820261144581610cac565b9150828204841483151761145c5761145b610ef4565b5b5092915050565b7f4e487b7100000000000000000000000000000000000000000000000000000000600052601260045260246000fd5b600061149d82610cac565b91506114a883610cac565b9250826114b8576114b7611463565b5b82820490509291505056fea2646970667358221220e86046a20df035e42dd83f45fda2c7da58016e0de6bb4d40fe1d3d72bfec132964736f6c634300081c0033",
  "devdoc": {
    "kind": "dev",
    "methods": {},
    "version": 1
  },
  "userdoc": {
    "kind": "user",
    "methods": {
      "getChainlinkDataFeedLatestAnswer()": {
        "notice": "通过预言机查看eth的价格 Returns the latest answer."
      }
    },
    "version": 1
  },
  "storageLayout": {
    "storage": [
      {
        "astId": 53,
        "contract": "contracts/FundMe.sol:FundMe",
        "label": "funds",
        "offset": 0,
        "slot": "0",
        "type": "t_mapping(t_address,t_uint256)"
      },
      {
        "astId": 69,
        "contract": "contracts/FundMe.sol:FundMe",
        "label": "owner",
        "offset": 0,
        "slot": "1",
        "type": "t_address"
      },
      {
        "astId": 72,
        "contract": "contracts/FundMe.sol:FundMe",
        "label": "dataFeed",
        "offset": 0,
        "slot": "2",
        "type": "t_contract(AggregatorV3Interface)45"
      },
      {
        "astId": 74,
        "contract": "contracts/FundMe.sol:FundMe",
        "label": "deployTime",
        "offset": 0,
        "slot": "3",
        "type": "t_uint256"
      },
      {
        "astId": 76,
        "contract": "contracts/FundMe.sol:FundMe",
        "label": "lockTime",
        "offset": 0,
        "slot": "4",
        "type": "t_uint256"
      },
      {
        "astId": 78,
        "contract": "contracts/FundMe.sol:FundMe",
        "label": "erc20Addr",
        "offset": 0,
        "slot": "5",
        "type": "t_address"
      },
      {
        "astId": 81,
        "contract": "contracts/FundMe.sol:FundMe",
        "label": "isGetFund",
        "offset": 20,
        "slot": "5",
        "type": "t_bool"
      }
    ],
    "types": {
      "t_address": {
        "encoding": "inplace",
        "label": "address",
        "numberOfBytes": "20"
      },
      "t_bool": {
        "encoding": "inplace",
        "label": "bool",
        "numberOfBytes": "1"
      },
      "t_contract(AggregatorV3Interface)45": {
        "encoding": "inplace",
        "label": "contract AggregatorV3Interface",
        "numberOfBytes": "20"
      },
      "t_mapping(t_address,t_uint256)": {
        "encoding": "mapping",
        "key": "t_address",
        "label": "mapping(address => uint256)",
        "numberOfBytes": "32",
        "value": "t_uint256"
      },
      "t_uint256": {
        "encoding": "inplace",
        "label": "uint256",
        "numberOfBytes": "32"
      }
    }
  }
}